:020000040800F2
:10000000C0360020010100088B0E0008B50B000867
:10001000890E0008A5010008E71A0008000000008A
:10002000000000000000000000000000C9110008EE
:10003000950800080000000045100008190100089C
:100040001B0100081B0100081B0100081B01000820
:100050001B0100081B0100081B0100081B01000810
:100060001B0100081B0100081B0100081B01000800
:100070001B0100081B0100081B0100081B010008F0
:100080001B0100081B0100081B0100081B010008E0
:10009000791A00081B0100081B0100081B01000859
:1000A0001B0100081B0100081B0100081B010008C0
:1000B0001B0100081B0100081B0100081B010008B0
:1000C0001B0100081B0100081B0100081B010008A0
:1000D0001B0100081B0100081B0100081B01000890
:1000E000B10900081B010008B1180008DFF80CD0A6
:1000F00000F018F800480047311B0008C036002007
:100100000648804706480047FEE7FEE7FEE7FEE7B1
:10011000FEE7FEE7FEE7FEE7FEE7FEE76118000800
:10012000ED000008064C074D06E0E06840F00103D2
:1001300094E8070098471034AC42F6D3FFF7DAFF93
:100140009C1C0008BC1C000870B501EB020410F8F0
:10015000015B15F0070301D110F8013B2A1106D10C
:1001600010F8012B03E010F8016B01F8016B5B1E26
:10017000F9D12B0705D40023521E0FD401F8013BFF
:10018000FAE710F8013B02F10202A1EB030303E0DE
:1001900013F8015B01F8015B521EF9D5A142D6D3D9
:1001A000002070BDFEE7C1B2000A40EA012070479E
:1001B0002DE9F84F0020ADF80000DFF830A14BF634
:1001C000BF7648F28007484D40F68F78474C48F696
:1001D0000F7BDFF81C910AF1440A2DE0018811F031
:1001E0000F0244490A7030D004EB82000168ADF878
:1001F0000010BDF8001009040BD53E49026802EA60
:10020000080202603C4A087802EB800050F8040CB7
:100210008047BDF8000000060ED53649087804EB8B
:100220008002106800EA0B0010603448097800EB87
:10023000810050F8040C8047DAF800104846A9F80D
:1002400000100904CAD4BDE8F88F216829802988E4
:1002500001F030016980298801F44051298021682A
:10026000314081F4005181F0200139432160008840
:10027000C006206815D400EA0B00206000F09CFC4A
:1002800026E02988890401D580F400506988C906D0
:1002900026D46988890601D580F020003843206083
:1002A000D1E7ADF80000BDF80000000506D52068D4
:1002B00000EA0800206001F0BBF809E0BDF800008A
:1002C0000004B9D5206800EA0800206000F086FE2E
:1002D000206829883040C904D3D580F48050D0E705
:1002E00080F01000D5E700007E310020005C004067
:1002F000763000206C3100209C30002080300020BF
:10030000074901EB80000168490407D5016848F6F8
:100310008F7211404CF2800211430160704700005F
:10032000005C0040074901EB80000168490607D5E1
:10033000016848F68F72114048F2C0021143016013
:1003400070470000005C0040054901EB800108682F
:1003500048F68F62104048F28002104308607047F0
:10036000005C0040174910B50A68918841BB062817
:1003700004D1117801F07F01012905D0117801F035
:100380007F0121290AD01BE09078222802D0212861
:1003900002D015E00C490CE00C490AE0032802D019
:1003A00009280DD101E00A4903E00B4B0949092056
:1003B000187029B10020916150828847002010BD3B
:1003C000022010BD703100201D040008F503000854
:1003D0000104000865050008B8300020014901F05B
:1003E000E5B80000C8300020014901F0DFB8000086
:1003F000C0300020014901F0D9B80000D8300020F9
:1004000008B10448704704490120096808820020A7
:1004100070470000BC30002070310020014901F01D
:10042000C5B80000D030002005490968C978042902
:1004300001D900207047034A02EBC10101F0B6B8B0
:10044000703100201031002009B9002800D00220AE
:100450007047000006490968097801F07F012129E9
:1004600001D10B2801D00220704700F06FB80000C6
:1004700070310020274810B5006800218172C172D8
:100480002549C9794172002000F0A0FE4FF40071A7
:10049000002000F061FF1021002000F035FF18213E
:1004A000002000F0BBFE5821002000F00FFF0020CC
:1004B000FFF74AFF194890F82C10002000F0BEFE0C
:1004C000002000F0F3FE4FF4C061012000F044FF73
:1004D0004FF48071012000F0F9FE4FF4A07101206B
:1004E00000F09CFE4021012000F000FF402101208F
:1004F00000F0A4FE4FF44051012000F0BFFE202187
:10050000012000F001FF002000F068FE04490120F6
:10051000086010BD70310020161C0008E03000207B
:100520005831002004480068807A002802D003492E
:10053000052008607047000070310020583100200D
:1005400001490420086070475831002003480449DD
:100550000068C078486000207047000070310020BB
:10056000B830002008B104487047044902200968E7
:100570000882002070470000B93000207031002050
:1005800070477047054810B500680024847200F079
:100590008DFD01F073FA0248046010BD7031002037
:1005A000583100202DE9F047DFF89480254F4FF0B7
:1005B0003009D8F8001001F11005088A0E7A08B940
:1005C000042E04D0AC88A04215D8042614E01E489E
:1005D0000178012903D00726102038802BE01B4A20
:1005E000002112681A4B92B203EB42025160A7F845
:1005F000009001701FE00226844200D90446A968D9
:10060000204688478246002000F0BCFA0146224678
:10061000504601F069FA2146002000F067FE288864
:10062000001B2880688820446880A7F8009009494A
:100630004FF440500880D8F800000672BDE8F087FB
:10064000703100208031002068310020505C004073
:10065000006000407E3100202DE9F047224EDFF897
:100660008C803027356835F8100FA968A9B100B320
:10067000AC88844200D904462046884781462888B1
:10068000001B2880688820446880002000F05AFA07
:1006900001462246484600F0C5FC288848B1144966
:1006A0004FF4405008800021084600F01FFEA8F8D3
:1006B00000702888A988884201D3032001E020B176
:1006C000052031680872BDE8F0873168062008729D
:1006D000084900200968084A89B202EB41014860D4
:1006E000A8F80070EFE70000703100208031002092
:1006F0007E310020505C004000600040F8B55C4C4A
:100700005C4D09262068002729684278062A05D012
:10071000AAB1082A4BD00A2A4ED069E002785206C4
:1007200066D18078012804D0022804D0032804D0A0
:100730005EE0C96954E0096A52E0496A50E04288C3
:10074000A2BBC288022A53D102797ABB027853062F
:1007500001D1838833B102F07F02012A04D0022A3A
:100760000CD045E044493BE08A694079002190473C
:10077000E0B92068807A0028F4D139E0417901F0AD
:100780000F0001F070020B063C4951F8201003D510
:10079000C1F30111090102E0C1F301310903384B32
:1007A0001B78834224D90AB90029DBD120E00078E4
:1007B00040061DD1334913E0027802F07F02012A7E
:1007C00016D1827AA2B1428892B9027982B9C288DE
:1007D000012A0DD18A6940790021904740B92A4900
:1007E00031B120684782816100208847002006E0FF
:1007F00029682068096940788847032807D021685C
:100800000A8AA2F57F43FF3B04D10E72F8BD20682F
:100810000672F8BD022809D042B10878000621D539
:10082000C8880090824205D9088213E04FF0080082
:100830000872F8BD0ED22868144B90F82C00824242
:1008400001D21F7006E0B2FBF0F400FB142008B9DF
:1008500001201870286890F82C008882BDE8F840C4
:10086000FFF7A0BE03200872094900030880F8BD05
:100870007031002074310020F1150008005C004048
:100880003031002085150008C915000868310020A6
:100890007E3100207047704770B5414D4FF4805451
:1008A0002146284600F04CF93E49012001F0F6F8B7
:1008B0003C4A02F140011078082865D2DFE800F0D8
:1008C000041A1D2023253C52374A0020135C0B5488
:1008D000401C4028FAD3012000F062F93028FAD0F9
:1008E000304940224031812001F0EAF8012000F037
:1008F00023FD49E000F08EF946E000F023FA43E0E2
:1009000000F0CEF940E000F0FFF91079D17801EB6A
:100910000020917801EB0020517801EB00210020AC
:1009200013185B790B54401C2028F9D3012000F0E8
:1009300037F93028FAD0D3E71079D37803EB0020C9
:100940009378527803EB002002EB00220020135C26
:100950000B54401C4028FAD3012000F021F9302824
:10096000FAD0BDE71148016821F00201016000F0F2
:100970008DFB4FF0005148680B4A103A50601060F0
:10098000096881F3088880474FF44051012000F046
:1009900075FC21462846BDE8704000F0CFB8000045
:1009A000000C014084310020343000200038024027
:1009B00010B54FF40054204600F022F8002804D06F
:1009C0002046BDE8104000F001B810BD01490860A4
:1009D00070470000140401401CB500208DF804008D
:1009E0004FF480242046FFF7F1FF08208DF8050022
:1009F00001208DF806000094684600F011F81CBD37
:100A0000064A014600201268044B0A4014331B6852
:100A10000B4202D0002A00D00120704700040140A0
:100A200030B51A498379026853B30B6893430B605E
:100A30000A1D13680468A343136002790A4413680B
:100A4000046823431360114A083213680468A343FF
:100A50001360131D1C680568AC431C604479102C9E
:100A600005D021440A68006802430A6030BD11685D
:100A7000046821431160196800680143196030BDA2
:100A80000079084401689143016030BD00040140D1
:100A9000F0B5CA78002502F00F03D20601D58A7896
:100AA00013430C784FF00F0E0122ECB1D0F8004048
:100AB0000F8802FA05F63740B74211D14FEA850C8C
:100AC0000EFA0CF724EA070703FA0CF43C43CF783C
:100AD000282F02D0482F02D002E0466100E00661D4
:100AE0006D1C082DE4D304600C88FF2C1ED94468CB
:100AF0005FF0000606F1080702FA07F50F882F409D
:100B0000AF420FD14FEA860C0EFA0CF7BC4303FA42
:100B10000CF73C43CF78282F00D14561CF78482F80
:100B200000D10561761C082EE4D34460F0BD024676
:100B3000002092680A4200D001207047416170474E
:100B4000016170470549096889B201EBC000044999
:100B500001EB4000008980B270470000505C00400B
:100B6000006000400549096889B201EBC0000449F2
:100B700001EB40008089C0F309007047505C0040E1
:100B8000006000400449096889B201EBC0000349D4
:100B900031F8100080B27047505C004000600040A7
:100BA000034951F82000C0F3011000017047000014
:100BB000005C0040FEE7000010B5134C2068017A8D
:100BC000022904D0042902D0062905D015E0FFF738
:100BD000E9FC2068007A11E04178052909D1017803
:100BE000490606D1C07800F0F9FA08480068006AA2
:100BF000804707480068806880470820216808729D
:100C0000BDE8104000F020BA70310020783100209B
:100C1000743100201E4810B51C4941601D4A4260D5
:100C2000416242621C490A79CB7803EB02228B783D
:100C3000497803EB022201EB022218498A4215D3BC
:100C40000021036943F40033036102EBC1134361E4
:100C5000036943F040030361C368DB07FCD1036908
:100C600023F400330361491C0829EAD30120FFF76C
:100C700097FF3028FAD0084940224031812000F007
:100C80001FFFBDE81040012000F056BB230167455F
:100C900000200240AB89EFCD843100200020000805
:100CA000174810B50179C27802EB012182784078AB
:100CB00002EB012100EB01211248814210D3104CBC
:100CC0000020403404C904F8202004EB8003120AF9
:100CD0005A70120A9A70120A401CDA701028F1D366
:100CE0000120FFF75DFF3028FAD00549402240314E
:100CF000812000F0E5FEBDE81040012000F01CBBA3
:100D000084310020002000080A48016941F0800178
:100D100001610948016821F00201BFF34F8F0160B2
:100D200006480168064A01F4E06111430160BFF31F
:100D30004F8FFEE700200240003802400CED00E03B
:100D40000400FA0570B5444842494160434A426094
:100D50004162426242490A79CB7803EB02228B78E6
:100D600003EB02224B7803EB02243E4A944260D309
:100D7000032212EA541301F1800206D0012B0CD099
:100D8000022B14D0032B54D11BE000200B185B79ED
:100D90001354401C2028F9D34BE000200B181418E2
:100DA0005B79401C84F820302028F7D341E00020F4
:100DB0000B1814185B79401C84F840302028F7D3B6
:100DC00037E00023CD18D6186D795B1C86F860508B
:100DD000202BF7D3016941F480310161016941F4AD
:100DE00000210161C168C907FCD11F4924F07F05BA
:100DF0000024C1E9022500228B68521C1E68CB68C2
:100E000040C38E68361DC1E90263042AF4D3026927
:100E100042F480220261C268D207FCD1641C082C13
:100E2000E9D34561016941F040010161C168C90729
:100E3000FCD10120FFF7B4FE3028FAD00849402247
:100E40004031812000F03CFEBDE87040012000F000
:100E500073BA00002301674500200240AB89EFCD43
:100E60008431002000200008243000200448817ACA
:100E7000044809B1052100E00121016000F0F0BC47
:100E8000A432002058310020FEE770477047000070
:100E9000F0B50F21C478027801234FF0E026DCB1D1
:100EA000124C2468457804F4E064C4F5E064240A34
:100EB000C4F10407E1408478BD400C402C4321017B
:100EC0000B4C1155007800F01F018B40400906EBD8
:100ED0008000C0F80031F0BD02F01F0083405009CF
:100EE00006EB8000C0F88031F0BD00000CED00E0A2
:100EF00000E400E00249084302490860704700002E
:100F00000000FA050CED00E070B52F4D286801785F
:100F100044784A0606D001F07F00012828D0022834
:100F20002BD035E0092C06D0052C07D0032C0ED091
:100F3000012C14D02CE000F0A3FB28E0C1787F291D
:100F40002ED8817861BB818851BB807A27E0C17837
:100F500001291DD18088D8B900F0AEFB17E0C17817
:100F6000012915D1818899B9407A80060AD40FE009
:100F70000B2C0DD100F0F2FB09E0012C02D0032C68
:100F800003D005E000F088FA01E000F0A7FB58B1BB
:100F90000E492046096849698847032802D018B1DC
:100FA00008200DE009200BE0094A06200021126804
:100FB000084B92B203EB42025160074A3021118084
:100FC0002968087270BD0000703100207431002063
:100FD000505C0040006000408031002010B50F4C94
:100FE0002068007A022811D004280FD0032804D0EA
:100FF000052802D0072805D008E0FFF72DFB206860
:10100000007A04E006480068C0688047082021682C
:101010000872BDE8104000F017B8000070310020E1
:1010200074310020064B521C520803EB410105D0DD
:1010300031F8043B20F8023B521EF9D17047000002
:1010400000600040704700000C4810B590F82C106C
:10105000002000F0F3F80A480068007A082802D05F
:10106000092809D006E007494FF480500880064956
:1010700010200880002010BD012010BDE0300020AD
:10108000703100207E3100208031002010B5064CE8
:1010900001202060211D0020086000F00DFC0320CD
:1010A0002060002010BD0000405C004010B5012011
:1010B00000F002FC0648012101600021054A0160A0
:1010C000031D19604FF4E05111800160002010BD34
:1010D000405C00407C310020044A0029D16901D0E5
:1010E000014300E08143D1617047000000100240DD
:1010F000044A0029916901D0014300E081439161D4
:10110000704700000010024001490860704700006D
:10111000D80042422DE9F041214C072800D0207030
:1011200022781F4D0626052104271E48062A0BD2C9
:10113000DFE802F0030C11161E27686810B1217059
:10114000BDE8F08100F030F82670F9E700F02CF8E7
:101150002770012022E00220607003202070EFE75A
:101160006078401E607060780028E9D12770E7E75A
:10117000026892B242F01002026021700A20607090
:10118000DEE76178491E617061780029D8D1016875
:1011900089B221F010010160267000206860CFE75D
:1011A00060310020405C004010B5064C206880B2E1
:1011B00020F004002060FFF759FE4FF43F4020600C
:1011C00010BD0000405C004070470000024920F064
:1011D0000700086070470000505C0040F0B50D4902
:1011E0000D4D48F68F770B78002148F2800C09E00E
:1011F000CEB205EB860422683A40324342EA0C0242
:101200002260491C9942F3D3034940F080004C31DD
:101210000860F0BD30310020005C0040054A21F03C
:101220000101126892B202EBC000034A02EB4000D7
:1012300081607047505C0040006000400D4A1268B9
:101240003E2992B202EBC0000B4A02EB400209D9E0
:101250004809C90601D1401E80B24FF4004141EA5D
:10126000802004E04808C90700D0401C80021060BC
:1012700070470000505C00400C6000400A4A02EBDE
:10128000800210684BF68F7300EA0300CB0401D58F
:1012900080F48050890401D580F4005048F2800128
:1012A0000843106070470000005C0040064901EBF5
:1012B000800108684BF68F72104080F4405048F26D
:1012C0008002104308607047005C0040054A21F02E
:1012D0000101126892B202EBC000034A42F81010FA
:1012E00070470000505C004000600040044A1268F3
:1012F00092B202EBC000034A02EB4000416070472B
:10130000505C0040006000400A4A02EB8002106816
:1013100048F6BF7300EA0300CB0601D580F0100049
:10132000890601D580F0200048F280010843106052
:1013300070470000005C0040064901EB800108682E
:1013400048F6BF72104080F0300048F2800210432F
:1013500008607047005C0040044A02EB800210689D
:1013600048F68F131840084310607047005C004037
:101370000CB50021264801910091026842F48032A8
:1013800002604FF4A063026802F400320092019AF6
:10139000521C0192009A12B9019A9A42F3D1026842
:1013A000920333D5012100911A490A6842F01002D4
:1013B0000A600A6822F003020A600A6842F0020228
:1013C0000A604168416041684160416841F4806160
:1013D0004160416821F47C114160416841F4E811A9
:1013E0004160016841F08071016001688901FCD5AC
:1013F000416821F003014160416841F00201416010
:101400004168C1F381010229FAD10CBD00910CBDE4
:101410000010024000200240FFF7DEBA10B50020A5
:10142000FFF772FE0121BDE81040C805FFF754BE6A
:1014300070B516480068174D81B2154800EB4101A0
:10144000098989B200EB41042868017A09290FD083
:101450002178017061784170A088FEF7A4FE2968A8
:1014600048802089FEF79FFE29688880A089C8806F
:10147000286801210172C08828B1FFF73FF9BDE853
:101480007040FFF7E1BDFFF73FFDF8E7505C00401B
:1014900000600040703100202DE9F04134480068C0
:1014A000017811F07F0102D0022905D05DE0417A78
:1014B00001F0DF01417247E04188002955D10179EF
:1014C000F1BB41792C4D21F080040A06294B55F8D7
:1014D000242003D5C2F30112120102E0C2F301324B
:1014E00012031E782346A6423FD94AB3807A38B306
:1014F00008060DD555F82400C0F3011001281DD1B0
:101500001846FEF70FFF20463021FFF7FDFE15E0DD
:1015100005EB84063068C0F3013001280ED14BF68C
:101520008F7748F2800894B11846FEF7E9FE3068DC
:10153000384080F4405040EA080030600F4800E036
:1015400013E00068406980470020BDE8F0810C4846
:1015500090F82C100020FFF771FE2868384080F4C6
:10156000405040EA08002860E8E70220EDE700006C
:101570007031002030310020005C004078310020C4
:10158000E030002010B5074C30B107480068006813
:10159000804720680A3010BD2168012008820020A1
:1015A00010BD00007031002078310020054A13681A
:1015B0005A8A10B10868104470478888801A1882C7
:1015C000002070477031002010B5074C30B107483B
:1015D00000688068804720680C3010BD21680120B9
:1015E0000882002010BD00007031002078310020FA
:1015F0001F4910B5096860B11E48002202800A78B0
:1016000053060AD002F07F02012A16D0022A16D011
:1016100001E002200882002010BD497A8A06027883
:1016200002D542F0020201E002F0FD02490602701A
:10163000D1B210D401F0FE010FE00E4810BD4A797E
:1016400002F00F0113060C4A52F8211007D5C1F31E
:10165000011106E0017841F00101017003E0C1F3DE
:1016600001310129F6D00548006800698047E4E7A8
:10167000703100206A310020005C00407831002089
:101680000A4810B500680A4AC1785278914203D8D6
:1016900082780AB982880AB1022010BD8172054899
:1016A000006840688047002010BD000070310020B5
:1016B0003031002078310020064810B50068417AAA
:1016C00041F02001417204480068C0698047002051
:1016D00010BD0000703100207831002070B51B482B
:1016E00003681B48597921F0800500EB85000C0642
:1016F000046821F0800203D5C4F30114240102E040
:10170000C4F301342403134D2D7895420FD95A8820
:101710006AB964B19A7A52B10906016848F2800246
:1017200007D548F6BF73194081F0100106E002208A
:1017300070BD4BF68F73194081F4805111430160E5
:101740000548006880698047002070BD7031002026
:10175000005C0040303100207831002010B50E4C84
:101760000E4A20681268C1789269407990472168D2
:101770008A7A22B118B9087908B9887808B10220A4
:1017800010BD07480068C068804720684179C17271
:10179000C1780173002010BD703100207431002029
:1017A00078310020F8B52A49002000900A68284BBB
:1017B000284C92B2403B00BF53F82050ADB244F8E1
:1017C0002050401C0828F7D342F48060086040F0A5
:1017D0000100086020F001050D601D4A121D10680F
:1017E0004005FCD54FF6FF301060002054F8206013
:1017F000B6B243F82060401C0828F7D345F0080033
:101800000860086880B240F004000860124B186855
:101810000090186820F0030040F0010018600F48A5
:10182000046844F0040404601468E40401D430BF84
:1018300009E04EF6FF7414600A6892B222F00802C2
:101840000A6000991960016821F004010160F8BD87
:10185000405C0040843200200070004010ED00E049
:101860000F4810B5016841F00101016041680D4A5F
:101870001140416001680C4A11400160016821F487
:1018800080210160416821F4FE0141604FF41F0195
:101890008160FFF76DFD05494FF00060086010BDE5
:1018A000001002400000FFF8FFFFF6FE08ED00E028
:1018B0004FF48020FFF78AB8044A00284FF08001D7
:1018C000104601D0FFF73AB9FFF73AB900100140CE
:1018D00006480549022201600A72064A0449C0E925
:1018E0000112086800470000A43200207031002077
:1018F000E03000203431002038B54FF4A060FFF70D
:10190000F9FA14208DF8000001248DF8014000251B
:101910008DF802508DF803406846FFF7B9FA2A2087
:101920008DF800008DF801508DF803406846FFF7F0
:10193000AFFA38BD2DE9F0414A4E88B00024306836
:10194000494D68806888494F39880840000401D5AE
:10195000FEF72EFC688839884FF6FF3808404005AE
:1019600004D5C6F8008042484068804769883888B6
:101970000140890402D54DF6FF713160698801404C
:10198000C80405D54EF6FF7030600020FFF7C2FB9B
:1019900068883988084000050BD53648007810B1B2
:1019A000FFF700FF02E00220FFF7B4FB4FF2FF70E9
:1019B0003060698838880140890506D54FF6FF51A7
:1019C0003160297801F101012970698801EA00017B
:1019D000C80543D54FF6FF6030602248001D0068FF
:1019E0004FF00002000435D56868401C68606868E4
:1019F000032830D91B48001F016809072BD4016850
:101A000089B2A96017494FEA0D03443951F824708F
:101A1000BFB243F82470641C082CF7D3AC6844F0C0
:101A20000104AC60AC68A4B20460AC6824F00104AA
:101A3000AC60AC68A4B2046030684005FCD5C6F860
:101A40000080002053F82040A4B241F82040401C00
:101A50000828F7D36A600720FFF75CFB08B0BDE8F1
:101A6000F0810000445C0040743000207C31002094
:101A7000E03000205C310020FFF75CBF054900200A
:101A8000086005494FF43F4008800249091F08607B
:101A900000207047445C00407C31002070B500F0AD
:101AA0007F060D463046FFF75DF804463046FFF7E7
:101AB00049F8014622462846FFF7B4FA204670BD91
:101AC00070B500F07F0514460E462846FFF75AF819
:101AD0000146A2B2304600F007F8A1B22846FFF74F
:101AE00005FC002070BDFEE7084B10B5521C5208E3
:101AF00003EB410108D003784478801C43EA0423B7
:101B000021F8043B521EF6D110BD000000600040D9
:101B100002E008C8121F08C1002AFAD170477047B6
:101B2000002001E001C1121F002AFBD17047000014
:101B300008B501210420FFF7DBFA48208DF80300E7
:101B400003268DF802600820264CADF80000694697
:101B50002046FEF79DFF08212046FEF7E8FF224DB4
:101B6000224CC0B1A5602249286888420ED0214A83
:101B700090420BD020490868401C0CD04868606037
:101B80002060096881F30888804704E0884202D019
:101B90004FF00051F2E701210820FFF7A9FA1020C9
:101BA0008DF803008DF802600602144FADF8006056
:101BB00069463846FEF76CFF31463846FEF7BEFFF1
:101BC000FFF72AFCFFF798FEFFF728FCFFF780FEDF
:101BD0000B48016841F00A0101600020A5602860FF
:101BE000FEE7000000080140FC4F0020003000200C
:101BF000861912141620111400200008000C014050
:101C00000038024012010002000000404843050075
:101C10000002010203010902200001010080FA090B
:101C200004000002FFFFFF000705810240000107DA
:101C30000501024000010600FF0901A10119012967
:101C400040150125407508954081001901294091F2
:101C500000C00403090436034E0067006F00200033
:101C6000480075006E0067002000430075006F009B
:101C70006E006700200045006C0065006300740082
:101C800072006F006E0069006300730010034D0066
:101C9000430055002000500052004F00BC1C0008BB
:101CA0000030002084010000480100085C1D00088D
:101CB000843100203C050000201B0008C1141603DD
:101CC0003012391A38045A36041237021331001A06
:101CD000334D43552050524F20426F6F746C6F61EB
:101CE000646572203230303831371397080C14088D
:101CF0008D0E040A19991C8113041C2B0812BC199F
:101D00000832201A3608321C1A28083209138505B1
:101D1000140875041B0881081A83041365031B0843
:101D200055101A49041AE90C1ADD041A290C41321B
:101D3000401A523832041A560832361A8C083210B9
:101D4000130C3033201623020129801A254C091662
:0C1D50009C1A411C41192B0125000000C9
:04000005080000ED02
:00000001FF
