:020000040800F2
:1000000008120020992B00083F1100084111000838
:1000100000000000000000000000000000000000E0
:100020000000000000000000000000004511000872
:1000300000000000000000004711000849110008FE
:10004000C92B0008C92B0008C92B0008C92B0008C0
:10005000C92B0008C92B0008C92B00085311000840
:10006000C92B00086B110008C92B0008C92B000818
:10007000C92B0008C92B0008C92B0008C92B000890
:10008000C92B0008C92B0008C92B0008C92B000880
:10009000C92B0008C92B0008C92B0008C92B000870
:1000A000C92B0008C92B0008C92B0008C92B000860
:1000B000C92B0008C92B0008C92B00084B110008E8
:1000C00000F002F800F030F80CA030C8083824180E
:1000D0002D18A246671EAB4654465D46AC4201D180
:1000E00000F022F87E460F3E0FCCB6460126334282
:1000F00000D0FB1AA246AB4633431847FC7E0000F3
:100100001C7F00000023002400250026103A01D3A4
:1001100078C1FBD8520700D330C100D50B607047BF
:100120001FB51FBD10B510BD07F0CCFE1146FFF77F
:10013000F7FF00F081F807F0E4FE03B4FFF7F2FFE9
:1001400003BC07F0EBFE000000B587B001210803F7
:1001500003F061FA0121480403F04FFA002205215F
:100160000920C00602F0F9FE002207210920C0067E
:1001700002F0F3FE002206210920C00602F0EDFE87
:1001800002216846017600218176A020059068460C
:10019000C1760321417605A90920C00602F054FE6C
:1001A0000121684601760021817608200590684685
:1001B000C1760321417605A90920C00602F044FE5C
:1001C00008210920C00602F0BCFE02216846017623
:1001D00000218176402005906846C1760321417652
:1001E00005A90920C00602F02FFEFE4803F0BCFC62
:1001F000002168460180FF21053141800721090265
:1002000081800021C18001810121490241811021A9
:1002100081810021C181072101826946F14803F0F3
:10022000CCFC0121EF4803F06AFD01210903ED48F0
:1002300003F096FD07B000BD0EB50121880403F060
:10024000DCF90121684601710021817103208003DE
:1002500000906846C171032141716946E24802F08D
:10026000F3FD01218903E04802F06DFE0121C9037D
:10027000DD4802F068FE002168460171817140206E
:1002800000906846C171032141716946D64802F069
:10029000DBFDFFF759FF4021D34802F038FE00286C
:1002A00007D1D24BD24AD349D34806F084F900BFD4
:1002B000FEE706F01BFE00241BE001218903CA486B
:1002C00002F03FFE0121C903C74802F03CFE322084
:1002D00006F03DFE01218903C34802F034FE0121EE
:1002E000C903C14802F02DFE322006F030FE601C2A
:1002F000C4B2052CE1DB01218903BB4802F023FED7
:100300000121C903B84802F01EFE07F09FFB002838
:100310001BD119E001218903B34802F012FE01212B
:10032000C903B14802F00FFE322006F010FE012191
:100330008903AD4802F007FE0121C903AA4802F073
:1003400000FE322006F003FEE4E7AC49002007F08F
:10035000A5FBAA488078AA49086008460068000200
:100360000860A648407809684018A5490860084612
:10037000006800020860A148007809684018A04998
:100380000860084600680121490388421FD09C4844
:10039000006800281BD019E001218903924802F06F
:1003A000D0FD0121C903904802F0CDFD322006F0B6
:1003B000CEFD012189038C4802F0C5FD0121C9034E
:1003C000894802F0BEFD322006F0C1FDE4E78B480B
:1003D000807A8C49086008460068000208608748F7
:1003E000407A09684018874908600846006800029A
:1003F00008608248007A0968401882490860084607
:10040000006880281FD00846006800281BD019E02B
:1004100001218903744802F094FD0121C903724847
:1004200002F091FD322006F092FD012189036E4811
:1004300002F089FD0121C9036B4802F082FD3220E0
:1004400006F085FDE4E76D48807C6F49086008464A
:100450000068000208606948407C096840186A49E1
:10046000086008460068000208606448007C09686B
:10047000401865490860084600680B281FD00846E8
:10048000006800281BD019E001218903564802F0BA
:1004900058FD0121C903544802F055FD322006F0F1
:1004A00056FD01218903504802F04DFD0121C90389
:1004B0004D4802F046FD322006F049FDE4E722E215
:1004C0004021494802F023FD00287DD10A2006F092
:1004D0003EFD4021444802F01AFD0028F5D100BF3E
:1004E0004021414802F013FD0028F9D00121890381
:1004F0003D4802F028FD0121C9033B4802F021FDDF
:1005000007F0D2FB002816D101218903364802F0FA
:1005100018FD0121C903344802F015FD06F05DFE07
:10052000002007F01EFB012007F01BFB012100202B
:1005300007F0E0FAC3E707F022FB002816D10121FB
:100540008903294802F0FDFC0121C903264802F075
:10055000FAFC06F042FE002007F003FB012007F042
:1005600000FB0121002007F0C5FAA8E707F036FBE1
:10057000002816D1012189031B4802F0E2FC012169
:10058000C903194802F0DFFC06F027FE002007F03F
:10059000E8FA012007F0E5FA0121002007F0AAFAA5
:1005A0008DE70020154908700A461849012006F019
:1005B00097FF00282FD1012189030B4802F0C1FCCD
:1005C0000121C903084800E0FEE302F0BCFC06F08C
:1005D00004FE002007F0C5FA012007F0C2FA01214D
:1005E000002015E0003001400004004858000020C1
:1005F0006C00002020000020540200201C0300207A
:10060000000000200800002010000020C65000005C
:1006100007F070FA53E7F84A0921C902012006F0F1
:10062000FEFF002816D101218903F44802F089FC5D
:100630000121C903F14802F086FC06F0CEFD00203E
:1006400007F08FFA012007F08CFA0121002007F053
:1006500051FAF3E3E848007800287CD08020E6498E
:1006600008700A46E649012006F03AFF002816D134
:1006700001218903E14802F064FC0121C903DF483C
:1006800002F061FC06F0A9FD002007F06AFA0120E3
:1006900007F067FA0121002007F02CFACEE37F2053
:1006A000D54908700A46D649491C012006F018FFB2
:1006B000002816D101218903D04802F042FC012113
:1006C000C903CE4802F03FFC06F087FD002007F08A
:1006D00048FA012007F045FA0121002007F00AFA44
:1006E000ACE30020C44908700A460921C902012070
:1006F00006F0F6FE002816D101218903BF4802F05A
:1007000020FC0121C903BD4802F01DFC06F065FD77
:10071000002007F026FA012007F023FA012100202B
:1007200007F0E8F98AE3072006F011FC07F0BCFAAD
:10073000002818D101218903B04802F002FC0121F0
:10074000C903AE4802F0FFFB06F047FD002007F0AA
:1007500008FA012000E028E107F003FA0121002057
:1007600007F0C8F96AE307F039FA002816D1012129
:100770008903A24802F0E5FB0121C9039F4802F06A
:10078000E2FB06F02AFD002007F0EBF9012007F05C
:10079000E8F90121002007F0ADF94FE3012600241C
:1007A00095E08020944908700A469549012006F09A
:1007B00097FE00280BD101218903904802F0C1FB6C
:1007C0000121C9038D4802F0BEFB002682E07F2094
:1007D000894908700A468A49491C012006F080FEB2
:1007E00000280BD101218903844802F0AAFB0121D2
:1007F000C903824802F0A7FB00266BE000207E4977
:10080000087060000922D2028018411C7A4A012037
:1008100006F066FE00280BD101218903774802F01B
:1008200090FB0121C903754802F08DFB002651E0C1
:10083000072006F08CFB80206F4908700A4670493B
:10084000012006F04DFE00280BD1012189036B48E1
:1008500002F077FB0121C903684802F074FB00260F
:1008600038E07F20644908700A466549491C012028
:1008700006F036FE00280BD1012189035F4802F003
:1008800060FB0121C9035D4802F05DFB002621E009
:10089000FF205949087060000922D2028018811C8B
:1008A000554A012006F01CFE00280BD101218903C6
:1008B000524802F046FB0121C903504802F043FBB5
:1008C000002607E0072006F042FB601CC4B2052C9E
:1008D00000DA66E700BF002E16D1012189034748E0
:1008E00002F02FFB0121C903444802F02CFB06F063
:1008F00074FC002007F035F9012007F032F90121DE
:10090000002007F0F7F899E207F0CEF9002816D199
:1009100001218903394802F014FB0121C90337483A
:1009200002F011FB06F059FC002007F01AF9012033
:1009300007F017F90121002007F0DCF87EE207F04C
:100940001EF9002816D1012189032C4802F0F9FA7A
:100950000121C903294802F0F6FA06F03EFC002006
:1009600007F0FFF8012007F0FCF80121002007F054
:10097000C1F863E207F032F9002816D1012189039A
:100980001E4802F0DEFA0121C9031C4802F0DBFA1E
:1009900006F023FC002007F0E4F8012007F0E1F85E
:1009A0000121002007F0A6F848E216480068002858
:1009B00072D020200290012600274FE03902012248
:1009C000120588180C4907F069F8002801D10026A3
:1009D00047E0012600243AE0A2010123DB03D218FC
:1009E0003B02D018A201044BD11807F028F90028C7
:1009F0000AD100262DE000001C030020000400485E
:100A00005B50000000000020A1010122D2038918E0
:100A10003A028818FE4A402107F038F9002801D12F
:100A2000002616E000250AE0A0014019F949085CFB
:100A3000F749495D884201D0002602E06D1C402D37
:100A4000F2D300BF002E00D103E0601CC4B2042C1E
:100A5000C2DB00BF002E00D103E07F1C029887425A
:100A6000ACD300BF002E17D101218903EA4802F060
:100A700068FA0121C903E84802F065FA06F0ADFB07
:100A8000002007F06EF8012007F06BF8012100202C
:100A900007F030F8D2E1FFE7E048006800286AD0AC
:100AA000022002900126DB49000506F0F7FF00282E
:100AB00014D1B103D84802F044FAF103D64802F049
:100AC00042FA06F08AFB002007F04BF8012007F0FD
:100AD00048F80121002007F00DF8AFE101260024BD
:100AE0002DE0A201CB4BD118A20101239B03D0180A
:100AF00007F0A5F8002801D1002622E0A10101227B
:100B000092038818C24A402107F0C0F8002801D19A
:100B1000002616E000250AE0A0014019BD49085C46
:100B2000BB49495D884201D0002602E06D1C402D82
:100B3000F2D300BF002E00D103E0601CC4B2022C2F
:100B4000CFDB00BF002E16D101218903B24802F08D
:100B5000F8F90121C903B04802F0F5F906F03DFBB0
:100B6000002006F0FEFF012006F0FBFF012100201F
:100B700006F0C0FF62E1AA48006800287ED0A549BF
:100B80000320000506F08AFF002816D10121890301
:100B9000A14802F0D6F90121C9039F4802F0D3F918
:100BA00006F01BFB002006F0DCFF012006F0D9FF59
:100BB0000121002006F09EFF40E10126002447E0CD
:100BC0008020984908700A469749012006F088FC61
:100BD00000280BD1012189038F4802F0B2F90121CD
:100BE000C9038D4802F0AFF9002633E07F208D491C
:100BF00008700A468C49491C012006F071FC002847
:100C00000BD101218903844802F09BF90121C9031A
:100C1000814802F098F900261CE0601C7D4BC21848
:100C200082482118012006F05BFC00280BD101212D
:100C30008903794802F085F90121C903764802F059
:100C400082F9002606E0072006F081F9601CC4B294
:100C50000A2CB5DB00BF002E18D1012189036E4894
:100C600002F06FF90121C9036B4802F06CF906F03C
:100C7000B4FA002006F075FF012000E0B8E006F0AD
:100C800070FF0121002006F035FFD7E0604A0921FE
:100C9000C9020B2006F0C3FC002816D101218903EC
:100CA0005D4802F04EF90121C9035B4802F04BF99F
:100CB00006F093FA002006F054FF012006F051FFE1
:100CC0000121002006F016FFB8E00126002509E00A
:100CD0005049681C095C4E4A105C814201D00026D4
:100CE00002E06D1C0A2DF3D300BF002E16D10121A6
:100CF0008903494802F025F90121C903464802F059
:100D000022F906F06AFA002006F02BFF012006F017
:100D100028FF0121002006F0EDFE8FE080204149F0
:100D200008700A464049012006F0DAFB002817D176
:100D300001218903384802F004F90121C90336482A
:100D400002F001F9002606F048FA002006F009FF3B
:100D5000012006F006FF0121002006F0CBFE6DE029
:100D60007F20304908700A462F49491C012006F0AF
:100D7000B7FB002817D101218903274802F0E1F8C9
:100D80000121C903244802F0DEF8002606F025FA06
:100D9000002006F0E6FE012006F0E3FE012100201F
:100DA00006F0A8FE4AE01B4A0921C902012006F00C
:100DB00097FB002819D101218903174802F0C1F8D7
:100DC0000121C903144800E037E002F0BCF8002616
:100DD00006F003FA002006F0C4FE012006F0C1FE72
:100DE0000121002006F086FE28E0072006F0AFF87B
:100DF000A4200F4908700A46FF21C901012006F00E
:100E00006FFB06F007FC06F0E8F90121C90311E0C9
:100E10001C0500201C0300200004004808000020DE
:100E2000100000205C0500205B500000014800001D
:100E30009C050020024802F086F800BFFFF740FB47
:100E40000004004810B50121C80602F0F2FB0120A1
:100E5000400703F0CAF8012003F08DF8012003F0E9
:100E60007AF810BD1CB504460121C80502F0E1FB6B
:100E7000002002F06DFAFFF7E5FF0120400300902B
:100E8000002168460171102141710121817102F038
:100E90009FFC0120400302F004FD1CBD704738B5E3
:100EA00004461F216846017001214170817002F0E3
:100EB0002BFC0721684601700021417001218170DF
:100EC00002F022FC0921684601700221417002F003
:100ED0001BFC38BD4A49096888B2082108434849C3
:100EE0000860096888B204210843454908607047D2
:100EF0004349096888B204220146914308464049A3
:100F00000860BF2109023E4A1160704730B50546AE
:100F1000072D01D03B4805703A480078030007F0E0
:100F20002FF80805131C222E3B55565436480068EE
:100F3000002805D1FFF7DCFF06203249087002E0E7
:100F400005203049087046E0FFF7D2FF04202D4904
:100F5000087001202C4908603DE0022029494870B2
:100F60000320087037E027484078401E2549487024
:100F700008464078002801D1042008702BE0204862
:100F8000006884B2102004431D48046005201D49F8
:100F900008700A2048701EE01A484078401E19491F
:100FA00048700846407800280ED11548006884B281
:100FB0001021204688430446114804600620114948
:100FC000087000201049086005E000BF00BF06203F
:100FD0000C49087000BF00BF30BD10B5012002F001
:100FE000FBF800BF712002F020F80028FAD003209F
:100FF00002F02EF90021022002F0BBFB10BD000020
:10100000405C0040180000201C0000200246122016
:1010100008803248704702460420088030487047F4
:1010200070B505460C4622462E492FA005F037FF25
:101030002C4870BD70B505460C46224629492EA0A5
:1010400005F02DFF274870BD02461A200880304861
:10105000704770B505460C46224622492DA005F082
:101060001EFF204870BD70B505460C4622461D493E
:101070002BA005F014FF1B4870BD30B50B460021B6
:1010800000BF12E0040F0A2C04D2040F30344D00CC
:101090005C5503E0040F37344D005C55000100251A
:1010A0004C00641C1D554C1CE1B29142EADB30BD82
:1010B00070B51F48C46A056B466BA419002C0BD091
:1010C00008221349891C2046FFF7D7FF0422104944
:1010D00012312846FFF7D1FF70BD00009C7F000849
:1010E000B87F00085C0A002053544D382050726FBE
:1010F0006772616D6D65720048756E672043756F2C
:101100006E6720456C656374726F6E69637300006F
:101110003C00002048494420436F6E666967000028
:1011200048494420496E7465726661636500000039
:1011300080F7FF1F704770477047704770477047D0
:1011400000BFFEE770477047704710B505F084F99F
:1011500010BD10B50120400302F098FB002803D019
:101160000120400302F09DFB10BD704770B504469E
:101170000D46FF23513300228121204604F029FD32
:10118000FF23913300220121204604F022FD022397
:1011900040228121204604F03FFD0223402201210C
:1011A000204604F039FD4023FE4A0121204604F088
:1011B0002CFE002070BD70B504460D4681212046EE
:1011C00004F0CFFD0121204604F0CBFD002070BDCE
:1011D000F8B505460C460026002720786021084017
:1011E000002827D0202858D16078022814D003285E
:1011F00007D00A280BD00B2814D1A078EA49086040
:1012000016E00122E849284605F026FB10E0608838
:101210000012E64908600BE00122E449284605F087
:101220001BFB05E02146284605F078FB0220F8BDAF
:1012300000BF32E06078062804D00A2821D00B28AD
:1012400029D124E060880012222808D1E0881C28D7
:1012500001DD1C2000E0E0880646D54F0BE06088E9
:101260000012212807D1D34FE088092801DD092089
:1012700000E0E088064632463946284605F0ECFA9A
:1012800009E00122CC49284605F0E6FA03E0A078FF
:10129000C949086000BF00BF00BF00BF0020C6E70B
:1012A000024620200880C3481238704702460020BA
:1012B000704700BF00BF00BF00BF00BF00BF704746
:1012C00070B50446002648E180202040002805D063
:1012D00001214903B94801F034FE04E0012149032A
:1012E000B64801F030FE6006040E00BF00BF00BF2C
:1012F00000BF00BF00BF00BF00BF00BF00BF00BFF6
:1013000000BF00BF00BF00BF00BF00BF00BF00BFE5
:1013100000BF00BF00BF00BF00BFA9480078002881
:101320002FD100BF00BF00BF00BF00BF00BF00BF84
:1013300000BF00BF00BF00BF00BF00BF00BF00BFB5
:1013400000BF00BF00BF00BF00BF00BF00BF00BFA5
:1013500000BF00BF00BF00BF00BF00BF00BF00BF95
:1013600000BF00BF00BF00BF00BF00BF00BF00BF85
:1013700000BF00BF00BF00BF00BF00BF00BF00BF75
:1013800000BF012109038D4801F0DBFD00BF00BF54
:1013900000BF00BF00BF00BF00BF00BF00BF00BF55
:1013A00000BF00BF00BF00BF00BF00BF00BF00BF45
:1013B00000BF00BF00BF00BF00BF00BF00BF00BF35
:1013C00000BF00BF00BF00BF00BF00BF00BF00BF25
:1013D00000BF00BF00BF00BF00BF00BF00BF00BF15
:1013E00000BF00BF00BF00BF00BF00BF744800784F
:1013F00000285FD100BF00BF00BF00BF00BF00BF1B
:1014000000BF00BF00BF00BF00BF00BF00BF00BFE4
:1014100000BF00BF00BF00BF00BF00BF00BF00BFD4
:1014200000BF00BF00BF00BF00BF00BF00BF00BFC4
:1014300000BF00BF00BF00BF00BF00BF00BF00BFB4
:1014400000BF00BF00BF00BF00BF00BF00BF00BFA4
:1014500000BF00BF00BF00BF00BF00BF00BF00BF94
:1014600000BF00BF00BF00BF00BF00BF00BF00BF84
:1014700000BF00BF00BF00BF00BF00BF00BF00BF74
:1014800000BF00BF00BF00BF00BF00BF00BF00BF64
:1014900000BF00BF00BF00BF00BF00BF00BF00BF54
:1014A00000BF00BF00BF00BF00BF00BF00BF00BF44
:1014B00000BF00BF01210903404801F044FD00BF07
:1014C00000BF00BF00BF00BF00BF00BF00BF00BF24
:1014D00000BF00BF00BF00BF00BF00BF00BF00BF14
:1014E00000BF00BF00BF00BF00BF00BF00BF344847
:1014F000007800282FD100BF00BF00BF00BF00BF91
:1015000000BF00BF00BF00BF00BF00BF00BF00BFE3
:1015100000BF00BF00BF00BF00BF00BF00BF00BFD3
:1015200000BF00BF00BF00BF00BF00BF00BF00BFC3
:1015300000BF00BF00BF00BF00BF00BF00BF00BFB3
:1015400000BF00BF00BF00BF00BF00BF00BF00BFA3
:1015500000BF00BF00BF701CC6B2082E00DAB3E6A1
:1015600001214903154801F0ECFC00BF00BF00BF9A
:1015700000BF00BF00BF00BF00BF00BF00BF00BF73
:1015800000BF00BF00BF00BF00BF00BF00BF00BF63
:1015900000BF00BF00BF00BF00BF0948007800289F
:1015A00040D10FE0DC0500209400002098000020CE
:1015B000DC7F0008CE7F0008900000200004004877
:1015C000A400002000BF00BF00BF00BF00BF00BFDD
:1015D00000BF00BF00BF00BF00BF00BF00BF00BF13
:1015E00000BF00BF00BF00BF00BF00BF00BF00BF03
:1015F00000BF00BF00BF00BF00BF00BF00BF00BFF3
:1016000000BF00BF00BF00BF00BF00BF00BF00BFE2
:1016100000BF00BF00BF00BF00BF00BF00BF00BFD2
:1016200000BF00BF01210903FE4801F08AFC00BF92
:1016300000BF00BF00BF00BF00BF00BF00BF00BFB2
:1016400000BF00BF00BF00BF00BF00BF00BF00BFA2
:1016500000BF00BF00BF00BF00BF00BF00BFF24817
:10166000007800282FD100BF00BF00BF00BF00BF1F
:1016700000BF00BF00BF00BF00BF00BF00BF00BF72
:1016800000BF00BF00BF00BF00BF00BF00BF00BF62
:1016900000BF00BF00BF00BF00BF00BF00BF00BF52
:1016A00000BF00BF00BF00BF00BF00BF00BF00BF42
:1016B00000BF00BF00BF00BF00BF00BF00BF00BF32
:1016C00000BF00BF00BF01214903D64801F01FFC45
:1016D000002801D0012500E0002500BF00BF00BFA9
:1016E00000BF00BF00BF00BF00BF00BF00BF00BF02
:1016F00000BF00BF00BF00BF00BF00BF00BF00BFF2
:1017000000BF00BF00BF00BF00BFC748007800286F
:101710002FD100BF00BF00BF00BF00BF00BF00BF90
:1017200000BF00BF00BF00BF00BF00BF00BF00BFC1
:1017300000BF00BF00BF00BF00BF00BF00BF00BFB1
:1017400000BF00BF00BF00BF00BF00BF00BF00BFA1
:1017500000BF00BF00BF00BF00BF00BF00BF00BF91
:1017600000BF00BF00BF00BF00BF00BF00BF00BF81
:1017700000BF01210903AB4801F0E5FB00BF00BF3A
:1017800000BF00BF00BF00BF00BF00BF00BF00BF61
:1017900000BF00BF00BF00BF00BF00BF00BF00BF51
:1017A00000BF00BF00BF00BF00BF00BF9E48007861
:1017B00000282FD100BF00BF00BF00BF00BF00BF87
:1017C00000BF00BF00BF00BF00BF00BF00BF00BF21
:1017D00000BF00BF00BF00BF00BF00BF00BF00BF11
:1017E00000BF00BF00BF00BF00BF00BF00BF00BF01
:1017F00000BF00BF00BF00BF00BF00BF00BF00BFF1
:1018000000BF00BF00BF00BF00BF00BF00BF00BFE0
:1018100000BF00BF284670BD70B5844845780024DD
:1018200008E0A11C814A505CFFF74AFD8049085539
:10183000601CC4B2AC42F4DB00BF012003F0FEFD2B
:101840003028FAD040237A4A81217A4804F016FBE6
:1018500070BD70B50546002401214903714801F0AF
:1018600070FB00264AE1012109036E4801F069FB83
:1018700000BF00BF00BF00BF00BF00BF00BF00BF70
:1018800000BF00BF00BF00BF00BF00BF00BF00BF60
:1018900000BF00BF00BF00BF00BF00BF00BF00BF50
:1018A0006148007800282FD100BF00BF00BF00BFF3
:1018B00000BF00BF00BF00BF00BF00BF00BF00BF30
:1018C00000BF00BF00BF00BF00BF00BF00BF00BF20
:1018D00000BF00BF00BF00BF00BF00BF00BF00BF10
:1018E00000BF00BF00BF00BF00BF00BF00BF00BF00
:1018F00000BF00BF00BF00BF00BF00BF00BF00BFF0
:1019000000BF00BF00BF00BF6006040E01214903F5
:10191000444801F0FCFA044300BF00BF00BF00BF11
:1019200000BF00BF00BF00BF00BF00BF00BF00BFBF
:1019300000BF00BF00BF00BF00BF00BF00BF00BFAF
:1019400000BF00BF00BF00BF3748007800282FD17C
:1019500000BF00BF00BF00BF00BF00BF00BF00BF8F
:1019600000BF00BF00BF00BF00BF00BF00BF00BF7F
:1019700000BF00BF00BF00BF00BF00BF00BF00BF6F
:1019800000BF00BF00BF00BF00BF00BF00BF00BF5F
:1019900000BF00BF00BF00BF00BF00BF00BF00BF4F
:1019A00000BF00BF00BF00BF00BF00BF00BF00BF3F
:1019B000012109031B4801F0C6FA00BF00BF00BFA8
:1019C00000BF00BF00BF00BF00BF00BF00BF00BF1F
:1019D00000BF00BF00BF00BF00BF00BF00BF00BF0F
:1019E00000BF00BF00BF00BF00BF00BF00BF00BFFF
:1019F00000BF00BF00BF00BF00BF00BF00BF00BFEF
:101A000000BF00BF00BF00BF00BF00BF00BF00BFDE
:101A100000BF00BF00BF00BF00BF03480078002820
:101A20006AD109E000040048A4000020DC05002081
:101A30001C0600205402002000BF00BF00BF00BFF2
:101A400000BF00BF00BF00BF00BF00BF00BF00BF9E
:101A500000BF00BF00BF00BF00BF00BF00BF00BF8E
:101A600000BF00BF00BF00BF00BF00BF00BF00BF7E
:101A700000BF00BF00BF00BF00BF00BF00BF00BF6E
:101A800000BF00BF00BF00BF00BF00BF00BF00BF5E
:101A900000BF00BF00BF00BF00BF00BF00BF00BF4E
:101AA00000BF00BF00BF00BF00BF00BF00BF00BF3E
:101AB00000BF00BF00BF00BF00BF00BF00BF00BF2E
:101AC00000BF00BF00BF00BF00BF00BF00BF00BF1E
:101AD00000BF00BF00BF00BF00BF00BF00BF00BF0E
:101AE00000BF00BF00BF00BF00BF00BF00BF00BFFE
:101AF00000BF00BF00BF00BF701CC6B2082E00DAD6
:101B0000B1E6002D05D001214903FE4801F019FA84
:101B100004E001214903FB4801F015FA00BF00BFB2
:101B200000BF00BF00BF00BF00BF00BF00BF00BFBD
:101B300000BF00BFF448007800282FD100BF00BFCD
:101B400000BF00BF00BF00BF00BF00BF00BF00BF9D
:101B500000BF00BF00BF00BF00BF00BF00BF00BF8D
:101B600000BF00BF00BF00BF00BF00BF00BF00BF7D
:101B700000BF00BF00BF00BF00BF00BF00BF00BF6D
:101B800000BF00BF00BF00BF00BF00BF00BF00BF5D
:101B900000BF00BF00BF00BF00BF00BF012109039D
:101BA000D84801F0CEF900BF00BF00BF00BF00BFA2
:101BB00000BF00BF00BF00BF00BF00BF00BF00BF2D
:101BC00000BF00BF00BF00BF00BF00BF00BF00BF1D
:101BD00000BF00BF00BF00BF00BF00BF00BF00BF0D
:101BE00000BF00BF00BF00BF00BF00BF00BF00BFFD
:101BF00000BF00BF00BF00BF00BF00BF00BF00BFED
:101C000000BF00BF00BFC048007800285FD100BF00
:101C100000BF00BF00BF00BF00BF00BF00BF00BFCC
:101C200000BF00BF00BF00BF00BF00BF00BF00BFBC
:101C300000BF00BF00BF00BF00BF00BF00BF00BFAC
:101C400000BF00BF00BF00BF00BF00BF00BF00BF9C
:101C500000BF00BF00BF00BF00BF00BF00BF00BF8C
:101C600000BF00BF00BF00BF00BF00BF00BF00BF7C
:101C700000BF00BF00BF00BF00BF00BF00BF00BF6C
:101C800000BF00BF00BF00BF00BF00BF00BF00BF5C
:101C900000BF00BF00BF00BF00BF00BF00BF00BF4C
:101CA00000BF00BF00BF00BF00BF00BF00BF00BF3C
:101CB00000BF00BF00BF00BF00BF00BF00BF00BF2C
:101CC00000BF00BF00BF00BF00BF00BF00BF0121B9
:101CD00009038C4801F037F900BF00BF00BF00BF07
:101CE00000BF00BF00BF00BF00BF00BF00BF00BFFC
:101CF00000BF00BF00BF00BF00BF00BF00BF00BFEC
:101D000000BF00BF00BF00BF7F48007800282FD170
:101D100000BF00BF00BF00BF00BF00BF00BF00BFCB
:101D200000BF00BF00BF00BF00BF00BF00BF00BFBB
:101D300000BF00BF00BF00BF00BF00BF00BF00BFAB
:101D400000BF00BF00BF00BF00BF00BF00BF00BF9B
:101D500000BF00BF00BF00BF00BF00BF00BF00BF8B
:101D600000BF00BF00BF00BF00BF00BF00BF00BF7B
:101D7000204670BD70B565484478002506E0002017
:101D8000FFF767FD62494855681CC5B2601EA8424E
:101D9000F5DC5E488078002806D00120FFF759FD69
:101DA000611E5B4A505405E00020FFF752FD611EA2
:101DB000574A505400BF012003F040FB3028FAD0AE
:101DC0004023534A8121534804F058F8012003F07E
:101DD00048FB70BD10B5012149034A4801F0B3F832
:101DE00000BF00BF00BF00BF00BF00BF00BF00BFFB
:101DF00000BF00BF00BF00BF00BF00BF00BF00BFEB
:101E000000BF00BF00BF00BF00BF00BF00BF00BFDA
:101E100000BF00BF00BF00BF00BF00BF3A4800784E
:101E200000281DD100BF00BF00BF00BF00BF00BF22
:101E300000BF00BF00BF00BF00BF00BF00BF00BFAA
:101E400000BF00BF00BF00BF00BF00BF00BF00BF9A
:101E500000BF00BF00BF00BF00BF00BF00BF00BF8A
:101E600001210903274801F06CF800BF00BF00BF43
:101E700000BF00BF00BF00BF00BF00BF00BF00BF6A
:101E800000BF00BF00BF00BF00BF00BF00BF00BF5A
:101E900000BF00BF00BF00BF00BF00BF00BF00BF4A
:101EA00000BF00BF00BF1848007800281DD100BF48
:101EB00000BF00BF00BF00BF00BF00BF00BF00BF2A
:101EC00000BF00BF00BF00BF00BF00BF00BF00BF1A
:101ED00000BF00BF00BF00BF00BF00BF00BF00BF0A
:101EE00000BF00BF00BF00BF00BF0121490305487C
:101EF00001F027F800BF00BF00BF00BF00BF00BF58
:101F000000BF09E000040048A4000020DC05002018
:101F10001C0600205402002000BF00BF00BF00BF0D
:101F200000BF00BF00BF00BF00BF00BF00BF00BFB9
:101F300000BF00BF00BF00BF00BF00BF00BF00BFA9
:101F400000BF00BF00BFF948007800281DD100BFC6
:101F500000BF00BF00BF00BF00BF00BF00BF00BF89
:101F600000BF00BF00BF00BF00BF00BF00BF00BF79
:101F700000BF00BF00BF00BF00BF00BF00BF00BF69
:101F800000BF00BF00BF00BF00BF10BD10B50121E2
:101F90004903E74800F0D5FF01210903E44800F0B8
:101FA000D0FF00BF00BF00BF00BF00BF00BF00BF29
:101FB00000BF00BF00BF00BF00BF00BF00BF00BF29
:101FC00000BF00BF00BF00BF00BF00BF00BF00BF19
:101FD00000BF00BF00BF00BF00BF00BF00BFD348AD
:101FE000007800281DD100BF00BF00BF00BF00BFA8
:101FF00000BF00BF00BF00BF00BF00BF00BF00BFE9
:1020000000BF00BF00BF00BF00BF00BF00BF00BFD8
:1020100000BF00BF00BF00BF00BF00BF00BF00BFC8
:1020200000BF01214903C24800F08DFF00BF00BF7F
:1020300000BF00BF00BF00BF00BF00BF00BF00BFA8
:1020400000BF00BF00BF00BF00BF00BF00BF00BF98
:1020500000BF00BF00BF00BF00BF00BF00BF00BF88
:1020600000BF00BF00BF00BFB048007800281DD1EE
:1020700000BF00BF00BF00BF00BF00BF00BF00BF68
:1020800000BF00BF00BF00BF00BF00BF00BF00BF58
:1020900000BF00BF00BF00BF00BF00BF00BF00BF48
:1020A00000BF00BF00BF00BF00BF00BF0121090388
:1020B0009F4800F048FF00BF00BF00BF00BF00BF47
:1020C00000BF00BF00BF00BF00BF00BF00BF00BF18
:1020D00000BF00BF00BF00BF00BF00BF00BF00BF08
:1020E00000BF00BF00BF00BF00BF00BF00BF00BFF8
:1020F00000BF8E48007800281DD100BF00BF00BF80
:1021000000BF00BF00BF00BF00BF00BF00BF00BFD7
:1021100000BF00BF00BF00BF00BF00BF00BF00BFC7
:1021200000BF00BF00BF00BF00BF00BF00BF00BFB7
:1021300000BF00BF00BF10BD10B5012149037C489E
:1021400000F0FFFE002401E000BF641C642CFBD300
:1021500001214903764800F0F6FE002401E000BFAB
:10216000641C872040018442F9D30121490370484F
:1021700000F0E7FE002401E000BF641C6D488442CB
:10218000FAD310BD1CB50121880401F036FA0121F3
:1021900068460171817103200003009000216846A8
:1021A000C171032141716946614800F04DFE012172
:1021B00049035F4800F0C5FE012109035C4800F0B7
:1021C000C0FE00205949087000BF012003F036F915
:1021D0003028FAD04023584A8121584803F04EFE57
:1021E0001CBD10B55648C46A53490C70240A4C7083
:1021F000240A8C70240A0846C4705148046B0C7180
:10220000240A4C71240A8C71240A0846C4714C4873
:10221000446B0C72240A4C72240A8C72240A0846FD
:10222000C47200BF012003F009F93028FAD040231E
:10223000414A8121414803F021FE10BD002041495F
:1022400008704148407841490870002040490870B2
:10225000704710B5044600BF02213E4801F024FE3D
:102260000028F9D021463B4801F0B9FD00BF01210B
:10227000384801F019FE0028F9D0364801F0B6FDC3
:1022800010BDF8B53048447826463446B6010027DC
:1022900005E0FF20FFF7DDFF2F49C8557F1CB7423F
:1022A000F7D300250FE000BF012003F0C7F8302866
:1022B000FAD0A80128494218402381211F4803F081
:1022C000DDFD681CC5B2A542EDDBF8BD70B51E484A
:1022D0004578002406E0A11C1B4A505CFFF7B9FFBB
:1022E000601CC4B2AC42F6DB00201349087000BF8A
:1022F000012003F0A3F83028FAD040230E4A8121B0
:102300000E4803F0BBFD70BD70B50F484578402DF9
:1023100024D1002406E0FF20FFF79BFF0649085563
:10232000601CC4B2AC42F6DB25E00000A400002033
:1023300000040048C04B03001C060020540200208B
:1023400080F7FF1FA7000020DC050020A800002068
:10235000A9000020003001405C060020002408E0B5
:10236000A11CFE4A505CFFF774FFFD490855601C34
:10237000C4B2AC42F4DB00BF012003F05FF83028A8
:10238000FAD04023F64A8121F64803F077FD70BD6C
:1023900010B5F2484078002805D008210920C00671
:1023A00000F0CFFD04E008210920C00600F0CBFDBD
:1023B00010BD704700B585B00021EB4801F09FFCCF
:1023C000002168460180FF21053141800721090273
:1023D00081800021C18001810121490241811821B0
:1023E00081810021C181072101826946DE4801F017
:1023F000E4FB0121DC4801F082FC05B000BD10B512
:10240000D6484078002804D08021D84800F099FDB3
:1024100003E08021D54800F096FD10BD1CB5CF48E3
:102420004078002820D00121880401F0E6F801213D
:102430006846017100218171802000906846C17159
:10244000032141716946C94800F0FEFCC348807809
:10245000002804D08021C54800F073FD16E08021DB
:10246000C24800F070FD11E00121880401F0C5F8B8
:102470000021684601718171802000906846C17119
:10248000032141716946B94800F0DEFC1CBD10B55E
:1024900000BF012002F0D2FF3028FAD04023B44A16
:1024A0008121B04803F0EAFC10BD70B504460D462A
:1024B0000121C903AD4800F044FDAE480078002872
:1024C00055D1A648AC490860AC4800788001AC49B9
:1024D0004018AC4908600020AB49087014E0A648D9
:1024E00000680068A74909680860A3480068001DE3
:1024F000A1490860A3480068001DA2490860A248DD
:102500000078401CA04908709F4800781028E6DB3E
:102510009A480078401C99490870084600789B4901
:10252000097888421BD1002604E09549885DFFF7B1
:1025300090FE761CFF2EF8D901208E4908700020ED
:102540008749087000BF012002F078FF3028FAD0D8
:102550004023834A8121834803F090FC00BF40233D
:102560007E4A0121204603F050FC002070BD7B48CC
:102570000078522875D01EDC152873D00EDC122886
:102580003CD006DC01282AD0102831D0112828D1CF
:1025900031E0132868D01428F9D19CE0182824D001
:1025A00004DC16287ED01728F1D11BE050287AD001
:1025B0005128ECD136E1902876D007DC533803005F
:1025C00005F0DEFC05F0EFEEEDEC0F0092380300B5
:1025D00005F0D6FC07EDECEBEA0707E90700FFF78B
:1025E00056FF46E1FFF71AFF43E1FFF708FF40E11E
:1025F00004F0D2FD3DE104F0F0FD3AE157484078A7
:102600006349087055488078624908600846006848
:10261000000208605148C078096840185D490860A8
:1026200008460068000208604C48007909684018B4
:10263000584908604A4A521C0846016854480078C4
:1026400004F0EDFF4649087000BF012002F0F6FEDD
:102650003028FAD04023424A8121424803F00EFC40
:1026600007E1E5E048E0FFE73C484078484908706A
:102670003A488078474908600846006800020860C8
:102680003648C07809684018424908600846006822
:102690000002086031480079096840183D49086027
:1026A0002E4A02E039E0BAE0D1E0521D0846016846
:1026B0003748007804F014FF2949087000BF012052
:1026C00002F0BCFE3028FAD04023254A812125485B
:1026D00003F0D4FBCDE004F09DFF2149087000BF5A
:1026E000012002F0ABFE3028FAD040231C4A8121A1
:1026F0001C4803F0C3FBBCE004F074FD18490870EB
:1027000000BF012002F09AFE3028FAD04023144A7C
:102710008121144803F0B2FBABE0104840781C491B
:1027200008700846007880011B4908600B488078D3
:102730001849086008460068000208600748C07829
:1027400009684018134908600846006800020860DC
:1027500002480079096840180E4929E0DC0500208C
:102760001C060020540200200030014000040048F4
:10277000DF000020A7000020B8000020A9000020F2
:102780005C060020BC0000209C000020A800002067
:102790001F010020240100202001002054E044E01B
:1027A0004FE04BE047E055E05AE056E05BE05DE08B
:1027B0000860EA49098888B2E94AEA49096804F0E8
:1027C0002EFFE949087000BF012002F037FE3028D3
:1027D000FAD04023E44A8121E44803F04FFB002073
:1027E000E349087014E000BF012002F027FE302802
:1027F000FAD0DF4800788001D9494218402381216E
:10280000DA4803F03BFBDA480078401CD8490870EE
:10281000D7480078D74909788842E4DB29E0FFF7F8
:10282000C9FD26E0FFF7C5FD23E0FFF7B1FD20E07D
:10283000FFF76AFD1DE0FFF749FD1AE0FFF721FDF4
:1028400017E0FFF7FBFC14E0FFF7CBFC11E0FFF70C
:1028500099FC0EE0FFF770FC0BE0FFF797FB08E038
:10286000FFF7B8FA05E0FFF785FA02E0FEF7D4FFBC
:1028700000BF00BF0121C903BF4800F064FB402333
:10288000BE4A0121204603F0C0FA00206EE6002077
:1028900002E000BF411CC8B24828FADB704710B5FF
:1028A0001420B149087000BF012002F0C7FD302894
:1028B000FAD04023AC4A8121AC4803F0DFFA10BDC6
:1028C00010B58CB004460121084600F096FE0021A8
:1028D000AB4801F0C4F800220121AA4801F0B5FA82
:1028E000A74800F0E7FFA7480C3001909C480290F1
:1028F000002003900494059080200690002007900B
:1029000008900990012040030A9000200B9001A933
:102910009B4801F07AF800219948143001F09FF8A3
:1029200000220221974801F090FA9548143000F0F7
:10293000C1FF94480C3001909348029010200390FE
:1029400004940020059006900790089009900120BB
:1029500040030A9000200B9001A98948143001F02F
:1029600054F801220221874801F06FFA0122114632
:10297000844801F06AFA0221824801F09FFA01219D
:10298000804801F09BFA01217D48143001F067F87E
:1029900001217B4801F063F80CB010BD10B58CB07C
:1029A00004460121084600F028FE0021744801F089
:1029B00056F800220121734801F047FA704800F0F0
:1029C00079FF70480C3001906F480290002003900E
:1029D000FF20013004900020059006900790089099
:1029E0000990012040030A9000200B9001A964483F
:1029F00001F00BF800216248143001F030F8002299
:102A00000221604801F021FA5D48143000F052FFC5
:102A10005C480C3001900294102003900001049057
:102A200000200590802006900020079008900990D3
:102A3000012040030A9000200B9001A95048143057
:102A400000F0E3FF012202214E4801F0FEF90122CD
:102A500011464C4801F0F9F902214A4801F02EFADA
:102A60000121484801F02AFA01214548143000F0BC
:102A7000F6FF0121424800F0F2FF0CB010BD10B586
:102A80000121C9023C4800F05CFA002401E000BFCB
:102A9000641C642CFBD30121C902374800F053FAAF
:102AA000002401E000BF641C872040018442F9D368
:102AB0000121C902304800F044FA002401E000BFBF
:102AC000641C32488442FAD310BD10B52B494878B3
:102AD000FEF7F6FB2449087000BF012002F0AEFCAF
:102AE0003028FAD04023204A8121204803F0C6F93B
:102AF000012002F0B6FC10BD20484078002803D029
:102B000001202349086002E0002021490860704745
:102B10001A4840781F4908707047704770B51748C9
:102B20004578002408E0A11C144A505CFEF7C8FB5D
:102B30000D490855601CC4B2AC42F4DB00BF012053
:102B400002F07CFC3028FAD04023074A8121074854
:102B500003F094F9012002F084FC70BD20010020F4
:102B60005C060020240100201C06002054020020E6
:102B70009C0000201F01002000040048DC0500200C
:102B80001C00024000300140A6000020C04B0300A2
:102B9000A0000020A40000200F4880F308880F4800
:102BA0000168090E0E4A914205D10E480E49016096
:102BB0000E480F4901600F4880470F480047FEE765
:102BC000FEE7FEE7FEE7FEE7FEE700000B480C49E4
:102BD0000C4A0D4B70470000081200200400000052
:102BE0001F0000001810024001000000000001401A
:102BF00000000000832C0008C1000008080C002021
:102C000008120020080E0020080E002011205F4945
:102C100008605F4840685E49486008464068486010
:102C2000084640687F21C9038843594948600846DF
:102C300040680521C90408435549486008460068B2
:102C40000121090608435249086000BF5048006846
:102C50000121490608400028F8D04D484068800806
:102C600080004B49486008464068022108434849B3
:102C7000486000BF464840680C2108400828F9D148
:102C8000704710B542480068012108434049086078
:102C9000084640683F4908403D494860084600688A
:102CA0003D4908403A490860084600680121890406
:102CB000884337490860084640683F210904884333
:102CC000334948600846C06A00090001C8620846E6
:102CD000006BFF21543188432D4908630846406B3F
:102CE00040084000486300208860FFF78FFF10BD58
:102CF000F8B50025002400260027254840680C214F
:102D000008400546002D04D0042D06D0082D2AD1F8
:102D100007E022482249086029E02048204908604D
:102D200025E01B4840680F218904084004461848E4
:102D300040680321C90308400646A00C841C002EED
:102D400004D118486043164908600BE01048C06A77
:102D50000007000F471C3946104805F003F8604390
:102D60000F49086003E00D480D49086000BF00BF2F
:102D700007484068F021084000090B490D5C0848ED
:102D80000068E84006490860F8BD000000200240E5
:102D9000001002400CB8FFF8FFFFF6FE00127A00A8
:102DA0002801002000093D002C01002010B5044638
:102DB0000920C006844209D10121480400F047FCE3
:102DC00000210120400400F042FC3CE074488442B1
:102DD00008D10121000200F03AFC0021200200F09D
:102DE00036FC30E06F48844208D10121000200F037
:102DF0002EFC0021200200F02AFC24E06A488442D4
:102E000009D10121080500F022FC00210120000564
:102E100000F01DFC17E06548844208D10121400202
:102E200000F015FC0021600200F011FC0BE060488E
:102E3000844208D10121880500F009FC002101200D
:102E4000800500F004FC10BDF0B50A460021002307
:102E5000002400BF3DE001258D402B4615681D4034
:102E60002C469C4234D11579012D02D01579022DC2
:102E700016D185684F000326BE40B543856055795D
:102E80004E00B540866835438560858801268E40B2
:102E9000B5438580858896798E40B6B23543858066
:102EA00005684F000326BE40B543056015794E0006
:102EB000B540066835430560C5684F000326BE402F
:102EC000B543C560D5794E00B540C6683543C56089
:102ED000491C1029BFD3F0BD3649016000210171A2
:102EE0000121417100218171C171704708B5012232
:102EF00012040092009A0A430092009AC261C161D2
:102F0000009AC261C2690092C269009208BD02467D
:102F10000020138A0B40002B01D0012000E000208C
:102F200070470146088A704702460020938A0B408A
:102F3000002B01D0012000E0002070470146888A64
:102F400070478161704701857047002A01D0816117
:102F500000E00185704781827047F0B500230024AE
:102F60004D07EE0E1546B5402B46CD10AE0005467A
:102F70002035AD594E07F70E0F26BE40B543CE1093
:102F8000B60007462037BD51CD10AE003D46AD59C5
:102F90001D432C46CD10AD003E467451F0BD0000DF
:102FA0000004004800080048000C004800100048D9
:102FB00000140048FFFF0000F848006801210843A2
:102FC000F649086008464068F5490840F3494860FA
:102FD00008460068F3490840F04908600846006860
:102FE000012189048843ED490860084640683F2173
:102FF00009048843E94948600846C06A000900019D
:10300000C8620846006BE8490840E449086308467E
:10301000406B4008400048630020886070470021F2
:10302000DE4A917011468870704710B50246002143
:10303000002300205111002902D1D84C23680BE055
:10304000012902D1D54C236A06E0022902D1D34CD2
:10305000636A01E0D14C636BD106C90E01248C4038
:103060001C40002C01D0012000E0002010BD38B52C
:10307000002000900024002500BF1120FFF7D5FF9D
:1030800005460098401C00900521090300988842DD
:1030900001D0002DF1D01120FFF7C7FF002801D08B
:1030A000012400E00024204638BD01460020BB4A30
:1030B0001068F82302469A431046CA001043B74AE4
:1030C00010607047002806D0B449096801221143F6
:1030D000B24A116005E0B149096849084900AF4AA0
:1030E0001160704701460020AC4A506BF82302463D
:1030F0009A431046CA001043A84A506370470028FC
:1031000006D0A649496B01221143A44A516305E048
:10311000A249496B49084900A04A516370470028F9
:1031200006D09E49496B042291439C4A516305E0B5
:103130009A49496B04221143984A51637047974951
:10314000096A49084900954A11621146096A042230
:103150009143924A11621146096A01431162704714
:103160008E49096A182291438C4A11621146096AF4
:10317000014311627047002806D08849496A01223C
:103180001143864A516205E08449496A4908490069
:10319000824A51627047814A52687B23DB039A431B
:1031A0007E4B5A601A46526803460B431A437B4BC8
:1031B0005A607047002807D0784909680122120632
:1031C0001143764A116006E074490968012212062B
:1031D0009143724A11607047002807D06F49496BCC
:1031E0000122120411436D4A516306E06B49496B99
:1031F000012212049143694A51637047014600203D
:10320000664AD06A0009000102460A431046634A32
:10321000D0627047002807D0604909680122D204B3
:1032200011435E4A116006E05C4909680122D2043C
:1032300091435A4A1160704702460020574B586824
:103240000002000A13060B431843544B58607047A2
:1032500001460020514A50688008800002460A4317
:1032600010464E4A506070474C4840680C21084058
:10327000704701460020494A5068F02302469A43AD
:10328000104602460A431046444A506070470146C1
:103290000020424A506807231B0202469A43104608
:1032A00002460A4310463D4A506070473B49496810
:1032B000012292039143394A51601146496882B212
:1032C0001143364A51601146096B92159143334AB6
:1032D00011631146096B020C1143304A11637047A8
:1032E0002E49096B402291432C4A11631146096B08
:1032F0000143116370472949096B10229143274A02
:1033000011631146096B0143116370470021010FDE
:10331000012906D1214A126B920892001F4B1A63B1
:1033200010E0022907D11D4A126B03231B049A43A4
:103330001A4B1A6306E0194A126B03239B049A4343
:10334000164B1A63154A126B0243144B1A637047EB
:103350001249096B80229143104A11631146096B8F
:10336000014311637047FEB5044600250026002086
:103370000290019000900027084840680C21084006
:103380000546002D06D0042D12D0082D13D00C2D8B
:1033900037D133E00548206036E0000000100240DD
:1033A0000CB8FF08FFFFF6FEACFEF0FF00127A003B
:1033B000CE48206028E0CE4840680F2189040840AC
:1033C0000646CB4840680321C90308400290B00C70
:1033D000861C0298002803D1C648374647430BE0B5
:1033E000C348C06A0007000F401C0190BF48019904
:1033F00004F0B8FC70430746276005E0BE48206033
:1034000002E0BA48206000BF00BFB9484068F02120
:10341000084005462D09B948405D00902068009994
:10342000C8406060B248406807210902084005466C
:103430002D0AB248405D009061680098C140A160CB
:10344000AB48006BFF2101310840884202D0AC48F4
:10345000E0600DE0A64840680121890308408842E9
:1034600003D0A0684008E06002E0A0688008E06047
:103470009F48006B40210840402802D0A1482061AD
:1034800002E00120C00320619948006B1021084030
:10349000102802D09548606101E02068606194487E
:1034A000006B8007800F002802D1A068A06119E09E
:1034B0008F48006B8007800F012802D12068A0612F
:1034C00010E08B48006B8007800F022802D1800338
:1034D000A06107E08648006B8007800F032801D1B8
:1034E0008248A0618248006B03210904084000283B
:1034F00002D1A068E06120E07D48006B032109044F
:10350000084001210904884202D12068E06114E0EA
:103510007748006B032109040840012149048842CF
:1035200002D18010E06108E07148006B03210904BA
:103530000840884201D16D48E0616D48006B03216D
:1035400089040840002802D1A068206220E0684871
:10355000006B03218904084001218904884202D1BB
:103560002068206214E06248006B0321890408404F
:103570000121C904884202D10011206208E05C48A0
:10358000006B032189040840884201D1574820621A
:103590005748006B80210840802802D0564860625E
:1035A00000E06762FEBD5249096A0143504A116258
:1035B0007047002807D04E49096A0122D2031143FF
:1035C0004B4A116206E04A49096A0122D20391433B
:1035D000474A11627047002807D04549096A01220D
:1035E00012041143424A116206E04149096A01226C
:1035F000120491433E4A11627047002905D03C4AAB
:10360000526902433A4B5A6104E0394A5269824393
:10361000374B5A617047002905D0354A92690243F9
:10362000334B9A6104E0324A92698243304B9A618B
:103630007047002905D02E4AD26902432C4BDA612B
:1036400004E02B4AD2698243294BDA617047002992
:1036500005D0274A926A0243254B9A6204E0244A25
:10366000926A8243224B9A627047002905D0204A11
:10367000D26802431E4BDA6004E01D4AD2688243DE
:103680001B4BDA607047002905D0194A12690243C2
:10369000174B1A6104E0164A12698243144B1A61EF
:1036A0007047002905D0124A527A0243104B5A72D1
:1036B00004E00F4A527A82430D4B5A7270470C480D
:1036C000406A0121090608430949486270470146DA
:1036D0000020074A92680A40002A01D0012000E039
:1036E00000207047024988727047000000127A007B
:1036F0000010024000093D00006CDC023C0100208B
:10370000809FD5001280000000218278002A27D0F7
:10371000274A03231B02D21803789B109B00D15821
:1037200002789207D30EFF229A400B469343194624
:1037300042789207120E03789B07DB0E9A401143E2
:103740001B4A03231B02D21803789B109B00D15005
:103750000278D306DB0E01229A40154B1A6007E06F
:103760000278D306DB0E01229A40114B80331A6097
:103770007047002905D00F4A126902430D4B1A61A8
:1037800004E00C4A126982430A4B1A61704704280C
:1037900006D10949096904221143074A116105E06C
:1037A0000549096904229143034A116170470000E9
:1037B00000E100E000ED00E000E000E03A483B49B5
:1037C0000860002048608860C860394848617047D8
:1037D000002136498279002A35D00A4612680368EA
:1037E0009A430B461A600A46526803689A430B468E
:1037F0005A60027951180A6803681A430A602B4A12
:10380000926803689A43294B9A601A46D268036803
:103810009A43264BDA604279102A0CD11A469268F4
:1038200003681A43214B9A601A46D26803681A4308
:103830001E4BDA600DE01D49427951180A68036891
:103840001A430A6005E0027951180A6803689A432E
:103850000A6070470021016001710C214171002153
:1038600081717047114909690143104A116170471C
:10387000014600200D4A52690A40002A01D0012069
:1038800000E0002070470949486170470146002068
:10389000064A52690A40002A01D0012000E00020B7
:1038A00070470249486170470000940F00040140CE
:1038B000FFFF6B000168A84A114001600021016010
:1038C00041608160C160A549884208D1A349083997
:1038D00049680F221143A14A083A516094E09F4978
:1038E0001431884208D19D4908394968F0221143B2
:1038F0009A4A083A516087E098492831884209D1AC
:103900009649083949680F2212021143934A083A2E
:10391000516079E091493C31884209D18F49083999
:1039200049680F22120311438C4A083A51606BE038
:103930008A495031884209D18849083949680F229B
:1039400012041143854A083A51605DE083496431AD
:10395000884209D18149083949680F22120511436B
:103960007E4A083A51604FE07C497831884209D15B
:103970007A49083949680F2212061143774A083AF2
:10398000516041E07649884208D175490839496853
:103990000F221143724A083A516035E070491431E0
:1039A000884208D16E4908394968F02211436C4AAF
:1039B000083A516028E06A492831884209D16849AB
:1039C000083949680F2212021143654A083A5160CA
:1039D0001AE063493C31884209D161490839496894
:1039E0000F22120311435E4A083A51600CE05C4911
:1039F0005031884208D15A49083949680F221204C7
:103A00001143574A083A5160704710B500220268C6
:103A1000544B1A400C6A8B6823430C6923434C694E
:103A200023438C692343CC6923434C6A23438C6A28
:103A300023431A430260CB6843600B6883604B6882
:103A4000C36010BD0021016041608160C1600161FF
:103A500041618161C16101624162816270470029F7
:103A600004D0026801231A43026003E002683A4B63
:103A70001A400260704710B5384A083A904200D1A7
:103A800000E000BFA82212580B0F9C000F23A34098
:103A90009A43A8231A50A82212580B011B091A4353
:103AA000A8231A5010BD416070470146486880B293
:103AB0007047002A03D003680B43036002E00368E9
:103AC0008B430360704701460020002201231B073F
:103AD0000B40002B03D0224B083B1A6802E01F4B1F
:103AE000083B1A6813460B40002B01D0012000E070
:103AF00000207047012109070140002903D018491F
:103B00000839486002E015490839486070470146A5
:103B10000020002201231B070B40002B03D0104B79
:103B2000083B1A6802E00D4B083B1A6813460B402D
:103B3000002B01D0012000E000207047012109077F
:103B40000140002903D006490839486002E00349D2
:103B50000839486070470000FEFF0000080002407E
:103B6000080402400F80FFFF10B50446E34884427A
:103B700008D101218014FFF778FD0021A014FFF780
:103B800074FD0AE0DE48844207D101210014FFF7EA
:103B90007AFD00212014FFF776FD10BD0021018081
:103BA00041800721090281800021C180018141817A
:103BB0008181C18107210182704710B500220288EE
:103BC000C1239B011A400B88CC892343CC88234313
:103BD0000C8923434C8923438C8923431A43028055
:103BE0008288C84B1A408B881A4382800B8A0382D2
:103BF0000288C54B1A404B881A430280838BC34C02
:103C00002340838310BD0021018041808180C180D9
:103C100002218160002181817047F0B58FB0054697
:103C20000C4600200E9002270D9001200C900026DB
:103C300000200190A88BB349BF390840A883022017
:103C40002884A88B0E90A068022802D100200D9035
:103C500038E0A088002802D101200C9001E0022069
:103C60000C9002A8FFF77FFB02980190E0880121E9
:103C7000490288420AD1A168019A120A0A235A43CA
:103C8000104604F06FF8401D86B20CE00C9841011C
:103C9000019804F067F80A2148430090A16804F0F5
:103CA00061F8401D86B20A21304604F05BF80646F2
:103CB000F007C00F0D900D98301AC003070C0D9837
:103CC00000020D90022F01DBFF2F02DD02270020F2
:103CD0000D90E0880D99084338432884A088A18975
:103CE000084361880843218808430121C902084329
:103CF0000E9908430E900E98A8830FB0F0BD0029CE
:103D000004D0028840231A43028004E002887E4BDC
:103D10003C3B1A4002807047002904D0828810235F
:103D20001A43828004E08288774B0C3B1A408280E1
:103D30007047002905D0828B01239B021A4382839E
:103D400003E0828B724B1A40828370470A4600213F
:103D500081886C4B19400B4613431946818070478C
:103D600082886C4B1A40828082880A438280704726
:103D700001229203914204D102880B461A43028029
:103D800003E00288644B1A40028070475E4AFC3AA6
:103D9000914205D00288FF2301331A43028004E0D8
:103DA0000288594BFC3B1A4002807047002904D01E
:103DB000828804231A43828003E08288524B1A408F
:103DC00082807047002904D0828808231A438280A9
:103DD00004E082884C4B1B1F1A40828070470022EF
:103DE00002460C32117070478181704701460022F3
:103DF0000A460C321078704701468889704702885D
:103E0000424B1A40028002880A4302807047002910
:103E100005D0028801235B031A43028003E0028875
:103E20003E4B1A4002807047018801221203114361
:103E30000180704702460020012901D0108B00E06C
:103E4000908A70470146088A7047002A03D0838809
:103E50000B43838002E083888B4383807047828892
:103E60002F4B1A40828082880A438280704730B587
:103E7000002400230C110125A540ABB2002A03D079
:103E800085881D43858002E085889D43858030BDFF
:103E9000014608890322D202104070470146088972
:103EA00003225202104070470246002013890B4043
:103EB000002B01D0012000E000207047CA4302819E
:103EC0007047F0B5024600200024002300250F07AC
:103ED0003F0F0126BE40B4B20B1101269E40B3B283
:103EE00096881E40354616892640002E03D0002DA8
:103EF00001D0012000E00020F0BD000000300140B2
:103F000000380040FFF00000FBFF0000FFF700005A
:103F1000FFFB0000FFEF0000FFBF0000FFDF00001D
:103F2000FF9F000010B50121C806FFF7ACFB002180
:103F30000120C006FFF7A7FB10BD614909683F22B9
:103F4000120291435E4A1160114609680202114350
:103F50005B4A11607047002806D059490968202241
:103F60001143574A116005E05549096820229143E1
:103F7000534A11607047002806D051490968402211
:103F800011434F4A116005E04D49096840229143B1
:103F90004B4A116070474A480068802108434849ED
:103FA0000860704746494968090C0904444A516051
:103FB0001146496801435160704741494968FF22F1
:103FC000120491433E4A51601146496801435160D1
:103FD00070473B494968072212069143384A5160AD
:103FE00011464968014351607047354949680322C9
:103FF00012079143324A51601146496801435160AA
:1040000070472F494968490049082D4A51601146B7
:1040100049680143516070472948406880B2704741
:10402000274800683F2109020840000A70472448D9
:104030008068000C00047047214880680121C90392
:1040400008407047002905D01D4A126802431C4BE6
:104050001A6004E01A4A12688243194B1A607047CA
:104060000146174880680840C0B27047072109021E
:104070000140002906D01249C96804221143104AA0
:10408000D16004E00E49C96801430D4AD160704710
:1040900001460B4880680840C0B2704707210902FA
:1040A0000140002906D00649C96804221143044A88
:1040B000D16004E00249C9680143014AD1607047F8
:1040C000006C004010B50446F848844209D1012133
:1040D0008803FFF7CAFA002101208003FFF7C5FA21
:1040E00056E0F348844209D101214804FFF7CBFA96
:1040F000002101204004FFF7C6FA49E0ED48844260
:1041000009D101218804FFF7BEFA002101208004B3
:10411000FFF7B9FA3CE0E848844209D10121C8041C
:10412000FFF7B1FA00210120C004FFF7ACFA2FE03D
:10413000E248844209D101210805FFF7A4FA0021D1
:1041400001200005FFF79FFA22E0DD48844208D1F4
:1041500001212020FFF789FA00212020FFF785FAAE
:1041600016E0D848844208D101214020FFF77DFAAB
:1041700000214020FFF779FA0AE0D348844207D1B2
:1041800001218020FFF771FA00218020FFF76DFAEE
:1041900010BDF0B58BB004460D46002700200A90F4
:1041A000002620684008400020606668032109035B
:1041B000304688430646A868064366602668C348BA
:1041C0000640E96868680843296908430643266091
:1041D000A6680321090230468843064668690643FB
:1041E000A6606846FFF7BFF8B048844202D106983F
:1041F0000A900DE0AE48844202D107980A9007E089
:10420000AC48844202D108980A9001E002980A90D2
:1042100020680121C903084000280CD029680A9AA7
:10422000500003F09FFD074629680A9A500003F0EA
:1042300099FD0E4609E029680A9803F093FD0746A8
:1042400029680A9803F08EFD0E4628684008B0429F
:1042500000D87F1C20680121C9030840002806D02F
:104260003807460F38469A49084030430746A78129
:104270000BB0F0BD4B21C90101600021416081609C
:10428000C1600C21016100214161704710B500221D
:1042900042680F2424021346A3431A464C680B6855
:1042A00023438C682343CC6823431A43426010BDE8
:1042B0000021016041608160C1607047002904D025
:1042C000026801231A43026003E0026852085200A8
:1042D00002607047002A03D003680B43036002E0CA
:1042E00003688B4303607047002905D002680123EF
:1042F000DB031A43026004E002680123DB039A43F4
:1043000002607047002905D082680123DB021A434E
:10431000826004E082680123DB029A438260704776
:10432000002905D042680123DB041A43426004E0FF
:1043300042680123DB049A4342607047002905D09C
:10434000426801239B041A43426004E0426801234F
:104350009B049A4342607047002A03D043680B4392
:10436000436002E043688B4343607047002905D0F7
:1043700042680123DB031A43426004E042680123E0
:10438000DB039A4342607047002905D0426801234D
:10439000DB051A43426004E042680123DB059A43CF
:1043A000426070474269120E1206426142690A4336
:1043B00042617047028AFF231B021A400282028A6E
:1043C0000A4302827047002904D0026802231A437C
:1043D000026003E0026802239A4302607047826829
:1043E00003231B059A43826082680A4382607047F8
:1043F000002905D0426801231B051A43426004E0EE
:10440000426801231B059A434260704742680323B8
:104410005B059A43426042680A4342607047CA059E
:10442000D20D028570470146888CC005C00D7047CB
:1044300042681202120A426042680B061A43426046
:104440007047002905D0026801235B031A4302600C
:1044500004E0026801235B039A430260704702682C
:104460000123DB029A43026002680A43026070473C
:10447000426810239A43426042680A434260704790
:10448000426820239A43426042680A434260704770
:10449000002905D0426801239B031A43426004E0CF
:1044A000426801239B039A434260704700380140F1
:1044B0000044004000480040004C004000500040D4
:1044C0000014014000180140001C0140F3E9FFFF07
:1044D000F0FF0000002904D0826808231A4382609C
:1044E00003E0826808239A4382607047028AD2B24E
:1044F0000282028A0B021A4302827047002904D00A
:10450000826820231A43826003E0826820239A4352
:1045100082607047002904D0826810231A438260A9
:1045200003E0826810239A43826070478268072301
:104530005B049A43826082684B041A43826070472E
:1045400042691202120A426142690B061A43426131
:104550007047826804239A43826082680A438260BB
:104560007047002904D0826802231A43826003E066
:10457000826802239A4382607047002905D08268CE
:1045800001239B031A43826004E0826801239B039A
:104590009A438260704782680123DB039A438260FA
:1045A00082680A438260704702681F235B059A4352
:1045B000026002684B051A430260704702681F23BD
:1045C0001B049A43026002680B041A43026070479E
:1045D000002A03D083680B43836002E083688B4327
:1045E00083607047826801235B039A43826082681C
:1045F0000A4382607047F8B50346002400260096FF
:104600000025002018460E04340ECEB20096012775
:10461000009EB7403D46022C01D1001D02E0032C54
:1046200000D10830002A03D006682E43066002E05D
:104630000668AE430660F8BD002A03D0038B0B4327
:10464000038302E0038B8B4303837047826801235B
:104650001B039A43826082680A4382607047024665
:104660000020D3690B40002B01D0012000E0002086
:1046700070470162704770B502460B460024002166
:10468000002500201E04350ED9B201268E40314689
:10469000012D02D11668314006E0022D02D1566884
:1046A000314001E0966831401C0C0126A64034469A
:1046B000D6693440002903D0002C01D0012000E04D
:1046C000002070BD10B5002300220B0C01249C407B
:1046D0002246026210BD000010B50446F74884422D
:1046E00008D10121C014FEF7C0FF0021E014FEF73D
:1046F000BCFF62E001208007844208D10121084606
:10470000FEF7C1FF00210120FEF7BDFF55E0EC4898
:10471000844208D101210220FEF7B5FF00210220CA
:10472000FEF7B1FF49E0E748844208D1012110209B
:10473000FEF7A9FF00211020FEF7A5FF3DE0E248AB
:10474000844208D101212020FEF79DFF0021202076
:10475000FEF799FF31E0DD48844208D10121801540
:10476000FEF791FF0021A015FEF78DFF25E0D84848
:10477000844209D101210804FEF777FF00210120BE
:104780000004FEF772FF18E0D248844209D10121EB
:104790004804FEF76AFF002101204004FEF765FF90
:1047A0000BE0CD48844208D101218804FEF75DFF6B
:1047B000002101208004FEF758FF10BD002202886E
:1047C000BE4B984206D001239B07984202D0BC4BB7
:1047D000984203D1C14B1A404B881A43B94B9842B7
:1047E00003D0BF4B1A400B891A4302804B68C36247
:1047F0000B880385B14B984208D0B54B984205D041
:10480000B44B984202D0B44B984201D18B7A0386C4
:104810000123838270470021C94341600021018048
:1048200001814180817270470185828270470A460A
:1048300000210188A94B19400B46134319460180FA
:10484000704741627047C16270470146486A7047CD
:104850000146088D7047002904D0028802231A43BC
:10486000028004E002889D4B6E331A40028070473C
:10487000002904D0028804231A43028004E002883D
:10488000964B6C331A4002807047002904D002888E
:1048900080231A43028004E00288904B103B1A40A8
:1048A0000280704702888D4B68331A40028002886C
:1048B0000A43028070470288894B1A4002800288AE
:1048C0000A4302807047002904D0028801231A435A
:1048D000028004E00288814B6F331A4002807047E7
:1048E0000A884B881A438B881A43CB881A430B8952
:1048F0001A434B891A438B891A4344231A5270472F
:104900000021018041808180C180018141818181BC
:104910007047002907D04422125A0123DB031A43AF
:1049200044231A5205E04422125A53045B0C4422D9
:104930001352704770B5002400220023058C674E87
:104940006F3635400584028C8388048B634D2C4080
:10495000B51E2C400D882C43751E2A408D892A4394
:104960004D882A43554DA84208D0594DA84205D03C
:10497000584DA84202D0584DA84212D1574D683523
:104980002A40CD892A43554D6C352A408D882A43CB
:10499000524D903D2B40534D2B400D8A2B434D8A59
:1049A0002B43838004838D684563028470BD70B59A
:1049B000002400220023058C484E603635400584D3
:1049C000028C8388048B484D2C40454D2C400D783B
:1049D0002D062D0C2C43414D50352A408D892D0537
:1049E0002D0C2A434D882D052D0C2A43334DA8420A
:1049F00002D0374DA8421CD13C4D2B400D8AAD044E
:104A00002D0C2B432D4DA84213D1344D103D2A407F
:104A1000CD892D052D0C2A43304D30352A408D8807
:104A20002D052D0C2A43324D2B404D8AAD042D0C03
:104A30002B43838004838D688563028470BD70B5C9
:104A4000002400220023058C244E903E354005842E
:104A5000028C8388848B214D2C40204D6D352C4059
:104A60000D882C431F4D2A400D7B2D062D0C2A430B
:104A70008D782D062D0C2A43104DA84217D11C4DC0
:104A80002A408D7B2D062D0C2A43184D2A400D7986
:104A90002D062D0C2A43174D2B40174D2B400D8A08
:104AA0002D052D0C2B434D8A2D052D0C2B4383807A
:104AB00084838D68C563028470BD0000002C0140B2
:104AC000000400400010004000140040002000409E
:104AD0000040014000440140004801408FFF0000B9
:104AE000FFFC0000FFFD0000FF8F0000FFFB000047
:104AF000FFF70000FFEF0000FFDF000070B50022AD
:104B000000230024058CF94E35400584038C8488ED
:104B1000828BF74D2A40F74D2A400D782D062D0C3B
:104B20002A43F54D2B400D7B2D072D0C2B438D7803
:104B30002D072D0C2B43F14DA84205D1F04D2C40F3
:104B40000D8AAD052D0C2C43848082838D6805640D
:104B5000038470BD0021018041808180816081815A
:104B6000C18101824182704770B503460020002454
:104B70001846183001258D40ACB21D8CA5431D840C
:104B8000002901D0082909D14D1028180568702680
:104B9000B54305600568154305600DE00D1F2D0444
:104BA0006D0C2818056807263603B54305600568AF
:104BB0001606360C3543056070BD4163704781634E
:104BC0007047C1637047016470470A460021018B3A
:104BD000CC4B19400B4613431946018370470A46D4
:104BE0000021018BC24B194013061B0C1943018392
:104BF00070470A460021818BC24B19400B46134374
:104C00001946818370470A460021818BB84B1940B1
:104C100013061B0C194381837047002904D0828836
:104C200001231A43828004E08288B64B6F331A4016
:104C3000828070470A460021018BB24B68331940CD
:104C40000B4613431946018370470A460021018B26
:104C5000AD4B194013061B0C1943018370470A46DC
:104C60000021818BA74B683319400B46134319462B
:104C7000818370470A460021818BA34B194013069C
:104C80001B0C1943818370470A460021018B9D4B01
:104C90006C3319400B4613431946018370470A468B
:104CA0000021018B994B194013061B0C19430183FA
:104CB00070470A460021818B924B6C3319400B469A
:104CC00013431946818370470A460021818B8F4B1D
:104CD000194013061B0C1943818370470A460021B3
:104CE000018B884B103B19400B4613431946018337
:104CF00070470A460021018B4904490C13061B0C1E
:104D00001943018370470A460021818B7D4B103B7C
:104D100019400B4613431946818370470A46002108
:104D2000818B4904490C13061B0C1943818370477E
:104D30000A460021018C734B6E3319400B46134316
:104D40001946018470470A460021018C6D4B683377
:104D500019400B4613431946018470470A46002147
:104D6000018C684B5033194013051B0C1943018407
:104D700070470A460021018C624B103B1940130515
:104D80001B0C1943018470470A460021018C604BBB
:104D9000194013061B0C1943018470470A46002171
:104DA000018C594B194013061B0C194301847047A1
:104DB0000A460021018C504B194013071B0C194364
:104DC0000184704702894F4B68331A40028102897F
:104DD0000A430281704730B5002301248C40A3B2FE
:104DE000048C9C430484048C15468D40ADB22C4346
:104DF000048430BD30B5002304248C40A3B2048C5D
:104E00009C430484048C15468D40ADB22C4304842D
:104E100030BD002904D0828804231A43828004E034
:104E20008288384B6C331A4082807047828B394BB2
:104E30001A408283828B0B061B0C1A4382837047B5
:104E4000F8B50C460021002500260096068C274F59
:104E50003E400684818B058C2607360C00962E4E2C
:104E600031401606360C31431E07360C31432B4EAB
:104E7000354001273F03009E3E433543818305842F
:104E8000F8BD828B1F4B64331A408283828B0A43A6
:104E900082837047F8B50C46002100250026009655
:104EA000068C184F903F3E400684818B058C260669
:104EB000360C0096134E833E31401E05360C1643C9
:104EC0003143174E3540FF270137009E3E4335439F
:104ED00081830584F8BD028B0E4B1A400283028B3E
:104EE0000B061B0C1A43028370470000FFEF000003
:104EF000FF8F0000FFFC0000FFDF0000002C0140DE
:104F0000FFBF00008FFF0000FFF70000FFFB000065
:104F1000FFFD0000FFF30000FF0C0000FF5F00003A
:104F2000FFF50000F8B50C4600210025002600968C
:104F3000068CE64F3E400684018B058C2605360C18
:104F40000096E34E31401E07360C31431606360CF0
:104F50003143DE4E903E35401027009E3E433543A0
:104F600001830584F8BD028BD84B1B1D1A400283B8
:104F7000028B0A4302837047F0B50C4600210025DE
:104F8000068CD24F0F373E400684018B058CCF4EE6
:104F9000E33E31401E05360C16433143CB4EB61D61
:104FA000354001262643354301830584F0BD70B5A5
:104FB00005460C46208800280AD12389A2886188EA
:104FC0002846FFF7D9FFE1882846FFF7CCFF25E008
:104FD000208804280AD12389A28861882846FFF7FF
:104FE000A1FFE1882846FFF776FF17E02088082810
:104FF0000AD12389A28861882846FFF74BFFE18800
:105000002846FFF73EFF09E02389A28861882846E9
:10501000FFF716FFE1882846FFF708FF70BD002163
:1050200001804180012181800021C1800181704780
:10503000F8B505460C46002601276088002801D1F6
:10504000022600E00026A088012801D1022700E006
:1050500001272088002814D12389A2886188284646
:10506000FFF78AFFE1882846FFF77DFF23893A464C
:1050700031462846FFF756FFE1882846FFF72BFF09
:1050800013E02389A28861882846FFF74BFFE18857
:105090002846FFF720FF23893A4631462846FFF786
:1050A0006BFFE1882846FFF75EFFF8BD0146486BBD
:1050B00070470146886B70470146C86B70470146D0
:1050C000086C7047002A03D083890B43838102E078
:1050D00083898B4383817047818270470246002019
:1050E000138A0B40002B01D0012000E00020704704
:1050F000CA430282704730B50246002000230024D4
:10510000158A0D402B4695890D402C46002B03D067
:10511000002C01D0012000E0002030BDCA430282F3
:10512000704710B50B4613434824235210BD002A84
:1051300003D083890B43838102E083898B4383817E
:105140007047002904D0828808231A43828004E033
:1051500082885E4B08331A408280704701895B4A1F
:1051600009321140018170470A4600210189574BDD
:10517000603B19400B46134319460181704730B517
:1051800004460D4629462046FFF7EEFF20890721F9
:105190000843208130BDF8B504460D4616461F462B
:1051A000602D06D13B46012231462046FFF7BAFE6C
:1051B00005E03B46012231462046FFF7DDFE294649
:1051C0002046FFF7D1FF2089072108432081F8BD41
:1051D00030B50C4600210189C9B21D062D0C1543BE
:1051E00025432943018130BDFFB505460E461746CC
:1051F00000243A4631462846039BFFF7E9FF2C89F5
:1052000032480930044007200443304860380440E5
:10521000702004432C81FFBDF0B504460D461646B0
:105220001F463B46324629462046FFF7D1FF2089DC
:105230000121890308432081F0BD8288234B603B14
:105240001A40828082880A438280704702891F4BFD
:1052500009331A40028102890A4302817047028998
:105260001A4B703B1A40028102890A43028170473F
:10527000F0B50C460021002500260189058B068C1F
:10528000124F093739400F4627433946114F3D40E9
:10529000FF2702373D430D4F9A3F3E401F053F0C0D
:1052A00017433E43018105830684F0BD002904D0E5
:1052B000828880231A43828004E08288034B703BFB
:1052C0001A4082807047502211527047EFFF000051
:1052D000FF0C0000FCFC0000FD4908607047FC4822
:1052E000006880B27047FA4948607047F8484068E3
:1052F00080B27047F648806880B27047F449C86051
:105300007047F34948617047F148406980B270477F
:10531000EF48C06880B27047EE490140EC4A116125
:105320007047EB48006980B270478200E84B403B11
:10533000D2181160704701468800E54A403A80184B
:10534000006880B2704710B58200E14B403BD21834
:105350001268E14B1A400A438300DD4C403C1B19A4
:105360001A6010BD01468800D94A403A801800688A
:10537000032252021040704730B58300D44C403CA9
:105380001B191B68D54C23401A4610230B40002BD9
:1053900001D010235A4020230B40002B01D02023A2
:1053A0005A400123DB031343802423438400C84D68
:1053B000403D6419236030BD30B58300C44C403C8F
:1053C0001B191B68C64C23401A4601231B030B40C4
:1053D000002B02D001231B035A4001235B030B4027
:1053E000002B02D001235B035A400123DB0313434C
:1053F000802423438400B64D403D6419236030BDB2
:1054000030B503460C461846FFF795FF0546002CBD
:1054100009D101210903284688439900AC4A403A42
:105420008918086009E0012C07D11021284688431B
:105430009900A74A403A8918086030BD01468800A3
:10544000A34A403A80180068302210407047014655
:1054500088009F4A403A80180068032212031040D7
:10546000704710B582009A4B403BD21812689B4B94
:105470001A401146102251402022514092020A4304
:1054800080231A438300924C403C1B191A6010BDC4
:1054900010B582008E4B403BD2181268904B1A40D8
:1054A00011460122120351405200514092000A431A
:1054B00080231A438300864C403C1B191A6010BDA0
:1054C0008100834A403A8918096892151143834A3A
:1054D000303A1140834A114382007D4B403BD21841
:1054E0001160704781007A4A403A891809687E4AFB
:1054F00011407C4A11438200754B403BD218116029
:1055000070478100724A403A89180968764A11400A
:10551000744A114382006E4B403BD21811607047B1
:1055200081006B4A403A89180968921511436B4A09
:10553000303A11406B4A11438200654B403BD21810
:10554000116070478100624A403A891809689215D3
:105550001143624A303A1140624A114382005C4B67
:10556000403BD218116070478100594A403A89186F
:1055700009685D4A11405B4A11438200544B403B2D
:10558000D2181160704701468800514A403A80188D
:10559000006830221040102801D1012070470020FF
:1055A000FCE7014688004A4A403A80180068032216
:1055B0001203104001221203904201D101207047D2
:1055C0000020FCE78100424A403A891809684904F2
:1055D000490C424A303A114082003D4B403BD218C0
:1055E0001160704781003A4A403A891809683E4A7A
:1055F000803211408200364B403BD2181160704718
:105600008100334A403A89180968344A303A1140D7
:10561000334AF132114382002D4B403BD2181160C6
:10562000704781002A4A403A891809682B4A303A63
:1056300011402C4A403211438200254B403BD21886
:10564000116070478100224A403A89180968121493
:10565000114000290FD081001D4A403A891809687D
:105660001E4A303A11401E4AF13211438200184B53
:10567000403BD218116070478100154A403A8918A2
:1056800009684022114000290FD08100104A403A99
:1056900089180968114A303A1140124A40321143C0
:1056A00082000B4B403BD2181160704710B582004E
:1056B000074B403BD2181268084B303B1A40094B4D
:1056C0001A430A438300024C403C1B191A6010BD68
:1056D000405C0040F8FF00008F890000BF8F000091
:1056E0008FBF0000808000008F8E00000146880080
:1056F000FA4A801800680007000F704710B54A107A
:105700005200F64B40331B699BB2C4001B19F44C8A
:105710001B191A8010BD10B54A105300EF4A4032D1
:10572000126992B2C4001219121DED4C12191380A5
:1057300010BD0146E9484030006980B2CA008018B7
:10574000E74A8018008870470146E4484030006905
:1057500080B2CA008018001DE14A80180088704796
:10576000DE4A4032126992B2C300D218921CDC4B5E
:10577000D2181180704710B502463E290CDD481141
:10578000CB06DB0E002B01D1431E98B2830201240D
:10579000E4032343138009E04810CB07DB0F002B01
:1057A00001D0431C98B283061B0C138010BD30B58A
:1057B0000246CA484030006980B2D4000019801DFA
:1057C000C74C03193E290CDD4811CC06E40E002C11
:1057D00001D1441EA0B284020125ED032C431C809C
:1057E00009E04810CC07E40F002C01D0441CA0B203
:1057F0008406240C1C8030BD0146B8484030006946
:1058000080B2CA008018801CB54A801800888005C4
:10581000800D70470146B1484030006980B2CA002F
:105820008018801DAE4A801800888005800D704762
:1058300030B54B105B00A94C40342469A4B2C500BC
:105840006419A74D6419238053105C00A34B4033A7
:105850001B699BB2C5005B191B1DA14D5B191C8008
:1058600030BD10B54A1052009C4B40331B699BB2AF
:10587000C4001B199A4C1B191A8010BD10B54A1090
:105880005300964A4032126992B2C4001219121D96
:10589000934C1219138010BD0146904840300069A6
:1058A00080B2CA0080188E4A80180088704701466E
:1058B0008A484030006980B2CA008018001D884ABA
:1058C00080180088704770B50346002922D18348AC
:1058D0004030006980B2DD004019801C804D4419C1
:1058E0003E2A0CDD5011D506ED0E002D01D1451ECE
:1058F000A8B285020126F6033543258009E0501041
:10590000D507ED0F002D01D0451CA8B285062D0C42
:1059100025800BE0012909D170484030006980B230
:10592000DC000019801C6E4C00190280002922D175
:105930006A484030006980B2DD004019801D684D22
:1059400044193E2A0CDD5011D506ED0E002D01D173
:10595000451EA8B285020126F6033543258009E0DD
:105960005010D507ED0F002D01D0451CA8B28506BB
:105970002D0C25800BE0012909D1584840300069E1
:1059800080B2DC000019801D554C0019028070BDEA
:1059900070B50346002922D150484030006980B2DA
:1059A000DD004019801C4E4D44193E2A0CDD50117B
:1059B000D506ED0E002D01D1451EA8B285020126A7
:1059C000F6033543258009E05010D507ED0F002D73
:1059D00001D0451CA8B285062D0C25800BE00129BD
:1059E00009D13E484030006980B2DC000019801CBB
:1059F0003B4C0019028070BD70B50346002922D1CE
:105A000036484030006980B2DD004019801D344DB9
:105A100044193E2A0CDD5011D506ED0E002D01D1A2
:105A2000451EA8B285020126F6033543258009E00C
:105A30005010D507ED0F002D01D0451CA8B28506EA
:105A40002D0C25800BE0012909D124484030006944
:105A500080B2DC000019801D214C0019028070BD4D
:105A600001461E484030006980B2CA008018801C80
:105A70001B4A801800888005800D70470146174832
:105A80004030006980B2CA008018801D144A801816
:105A900000888005800D704701461048403000693D
:105AA00080B2CA008018801D0D4A801800883F22ED
:105AB00092021040002801D0002070470748403073
:105AC000006980B2CA008018801C054A80180088CE
:105AD0008005800D002805D00120EEE7005C004025
