:03000000020006F5
:0300710002000387
:030003000200E018
:1000740075890122AE82AF838E048F051EBEFF01F7
:100084001FEC4D6013758CF8758A30C28DD28C309C
:100094008DFDC28CC28D80E022AE82AF838E048F30
:1000A400051EBEFF011FEC4D6013758CF8758A3078
:1000B400C28DD28C308DFDC28CC28D80E022AE8286
:1000C400AF838E048F051EBEFF011FEC4D70F3221B
:1000D400AF82C2C18FC110C10280FB2275A15575C8
:1000E400A1AA75B98675A10075A10075A10075A1B5
:1000F4000075A10075A10075A10075A10075A1008E
:1001040075A10075A10075A10075A10075A1007508
:10011400A10075A100120990120074120267120264
:10012400684392205393DF4392405393BF4392809A
:0E01340053937F4396025397FD12026F80FB98
:10005F00750D00750E00750F007510007511007588
:02006F0012007D
:1001420085823885833985F03A85370C853809856B
:10015200390A853A0BE53724BF40317B00C3EB9562
:10016200375024EB2400F9E43400FAEB2538F8E4A4
:100172003539FCAF3A88828C838FF0122386F88956
:10018200828A83F00B80D68537DD802C7F00EF24B6
:1001920000FDE43400FEEF2538FAE43539FBAC3AD1
:1001A2008A828B838CF0122386FA8D828E83F00FE3
:1001B200BF400040D975DD4075110075DC00228515
:1001C200823885833985F03A85370C853809853937
:1001D2000A853A0BE53724BF40317B00C3EB9537E4
:1001E2005024EB2400F9E43400FAEB2538F8E43526
:1001F20039FCAF3A88828C838FF0122386F8898289
:100202008A83F00B80D68537DD802C7F00EF2400B7
:10021200FDE43400FEEF2538FAE43539FBAC3A8AC6
:10022200828B838CF0122386FA8D828E83F00FBF2D
:10023200400040D975DD4075110175DC4022858290
:100242000985830A85F00B85370C75DC02228582CD
:100252000985830A85F00B85370C75DC822275DDF2
:100262000075DC03222275E22943D1012210DA0251
:1002720080012230D81C75E30075DD4075DC02C2B6
:10028200D9C2D87E007F008EEC8FED750F007510FD
:10029200002220D9012275DC0AE5D9540F600280C0
:1002A20031AED95306307F00BE2008BF00051204CC
:1002B2002B8041AED95306307F00BE3008BF000507
:1002C2001202F9802FE5D9543060028027120361AF
:1002D2008022AED953060F7F00BE0118BF0015AEB3
:1002E200D95306307F00BE2008BF000512093B80AB
:1002F2000312093AC2D9221209997F00EF246CFD38
:10030200E43401FEEF2400F582E43400F583E0FCDE
:100312008D828E83F00FBF080040E1900000E0FF65
:10032200530760E4C403CFC40354076FCF5407CF0D
:100332006FCF30E20244F8FEBF0002800ABF010222
:100342008008BF020B80060204CE02052202053E8F
:1003520075374090004075F000120240020260744E
:1003620001B512028003020413E50C24BF40437F4F
:1003720000C3EF950C5022EF2509FCE4350AFDAECF
:100382000BEF2400F582E43400F583E0FB8C828DD0
:10039200838EF012234E0F80D8E50D6006120D12E7
:1003A200750D007512027537009000D675F00002C7
:1003B20001C17F00EF2509FCE4350AFDAE0BEF24F5
:1003C20000F582E43400F583E08C828D838EF01296
:1003D200234E0FBF400040DCE5DC30E71A744025B5
:1003E20009FDE4350AFEAF0BE50C24C0F5378D821A
:1003F2008E838FF002024074402509FDE4350AFE27
:10040200AF0BE50C24C0F5378D828E838FF002028C
:10041200507402B512127512007537409000407583
:10042200F00012024002099C227401B512028003FC
:100432000204ACE50C24BF4039750C00751202753C
:10044200370090004075F000120250E511601175FE
:100452003700850982850A83850BF0120142800FDD
:10046200753700850982850A83850BF01201C10266
:10047200099CE511601A74402509FDE4350AFEAFB6
:100482000BE50C24C0F5378D828E838FF00201427A
:1004920074402509FDE4350AFEAF0BE50C24C0F5D6
:1004A200378D828E838FF00201C17402B5121CE572
:1004B2000F6006850FE3750F0075120075374090C7
:1004C200004075F00012024002099C2290016DE08A
:1004D200FF24F3500122EF240A83F582EF241183D3
:1004E200F583E4730003210621090C0F1215181B72
:1004F2001E05050505050505050505050505020594
:100502003F0205B30205F802063D0206530208D572
:100512000208E80208FE0209140209290209392226
:1005220090016DE0FFBF0102800EBF09028006BF8D
:100532000A0902093C020942020981222290016C45
:10054200E0FF53071FBF0002800ABF0102801EBFE7
:10055200024D80329000D6E4F09000D7F075370259
:100562009000D675F0001201C1751201229000D6DA
:10057200E4F09000D7F07537029000D675F00012C3
:1005820001C1751201229000D6E4F09000D7F075F7
:1005920037029000D675F0001201C1751201227562
:1005A200374090004075F0001202407512000202BE
:1005B2006090016CE0FF53071FBF00028005BF027D
:1005C2002280107537009000D675F0001201C175B7
:1005D2001202227537009000D675F0001201C17523
:1005E20012022275374090004075F000120240124C
:1005F200026075120022900000E0FF53071FBF0047
:10060200028005BF022280107537009000D675F077
:10061200001201C1751202227537009000D675F0E2
:10062200001201C17512022275374090004075F028
:10063200001202401202607512002290016EE0F573
:100642000F7537009000D675F0001201C1751202C5
:1006520022900173E0FE7F00900172E07C002FFF88
:10066200EC3EFE90016FE0FDBD01028014BD02026E
:100672008059BD0303020717BD2203020871020855
:10068200C28F048E05C3EC9412ED940040047F12D5
:100692007E007C007D00C3EC9FED9E5020EC24D6B2
:1006A200FAED3400FBEC24DEF582ED3423F583E42D
:1006B200938A828B83F00CBC00DC0D80D975120109
:1006C2008F379000D675F0000201C18F048E05C3EA
:1006D200EC9422ED940040047F227E007C007D0099
:1006E200C3EC9FED9E5020EC24D6FAED3400FBECD7
:1006F2002423F582ED3424F583E4938A828B83F0FC
:100702000CBC00DC0D80D97512018F379000D675B4
:10071200F0000201C190016EE0FD24FC50030208CA
:100722005EED2D2D90072A7302073602078002071D
:10073200CA0208148F048E05C3EC9404ED940040A1
:10074200047F047E007C007D00C3EC9FED9E502060
:10075200EC24D6FAED3400FBEC2445F582ED34248A
:10076200F583E4938A828B83F00CBC00DC0D80D984
:100772007512018F379000D675F0000201C18F0407
:100782008E05C3EC9418ED940040047F187E007C23
:10079200007D00C3EC9FED9E5020EC24D6FAED3490
:1007A20000FBEC2449F582ED3424F583E4938A823C
:1007B2008B83F00CBC00DC0D80D97512018F379051
:1007C20000D675F0000201C18F048E05C3EC940EB1
:1007D200ED940040047F0E7E007C007D00C3EC9F00
:1007E200ED9E5020EC24D6FAED3400FBEC2461F5AA
:1007F20082ED3424F583E4938A828B83F00CBC006F
:10080200DC0D80D97512018F379000D675F0000289
:1008120001C18F048E05C3EC941AED940040047F4D
:100822001A7E007C007D00C3EC9FED9E5020EC24DC
:10083200D6FAED3400FBEC246FF582ED3424F58317
:10084200E4938A828B83F00CBC00DC0D80D9751294
:10085200018F379000D675F0000201C175374090C4
:10086200004075F0001202401202607512002290E0
:10087200016EE06001228F048E05C3EC9433ED9487
:100882000040047F337E007C007D00C3EC9FED9E20
:100892005020EC24D6FAED3400FBEC24F0F582ED86
:1008A2003423F583E4938A828B83F00CBC00DC0D45
:1008B20080D97512018F379000D675F0000201C100
:1008C20075374090004075F00012024012026075C8
:1008D20012002275374090004075F000120240125B
:1008E2000260751200229000D6E510F07537019073
:1008F20000D675F0001201C17512012290016EE05E
:10090200F5107537009000D675F0001201C175120E
:1009120002229000D6E4F07537019000D675F000FF
:100922001201C1751201227537009000D675F000D0
:100932001201C175120222222222751200020260E5
:1009420090016EE0FFBF0102800ABF02028005BF74
:10095200042C8015750D01751201900172E0F537B6
:1009620090004075F000020250750D017512019061
:100972000172E0F53790004075F0000202502275D6
:0E0982001201850E379000D675F0000201C1FB
:1023DE001201000200000040EB03B4C8010001022C
:1023EE0003010600FF0901A101150026FF00750873
:1023FE00850195070900B20201850295870900B291
:10240E0002018503957F0900B202018504953F09FB
:10241E0000B20201C009022200010100C03209040B
:10242E000000010300000009210101000122330018
:10243E00070581030800010403090418037A0068E4
:10244E00006900660065006E00670073006F00662D
:10245E000074000E0355005300420048004900442A
:10246E00001A03430048003500350078002D003176
:10247E0000390031003000320033006D6375507248
:10248E006F672076312E3020623138313233310091
:100990005396FE439701C2B022D2B022C2B022AF1A
:1009A0008275FC00EF24F650030209FBEF240A8352
:1009B000F582EF240E83F583E473FBCED3D8DDE21A
:1009C000E7ECF1F60909090909090909090975FBA3
:1009D00006802B75FB0C802675FB18802175FB307B
:1009E000801C75FB60801775FBF0801275FBFE8024
:1009F0000D75FBFE800875FBFE800375FBFE75FA26
:100A000060228582F930FBFD85F98222AE82AF83B8
:100A1000758220C007C006120A02D006D0078F8256
:100A2000C007C006120A02D006D0078E82120A0240
:100A3000758200020A02AE82AF83758220C007C0B1
:100A400006120A02D006D0078F82C007C006120A1B
:100A500002D006D0078E82120A02758200020A02B4
:100A6000AE82AF83758228C007C006120A02D00684
:100A7000D0078F82C007C006120A02D006D0078EA8
:100A800082120A02758200020A02AE82AF83758268
:100A9000A0C007C006120A02D006D0078F82C00786
:100AA000C006120A02D006D0078E82120A02758290
:100AB00000020A02AE82AF8374FFB515012275826F
:100AC00040C007C006120A02D006D0078F058D82EB
:100AD000C007C006C005120A02D005D006D0078E96
:100AE00082C006C005120A02D005D006851582C054
:100AF00006C005120A02D005D0067F00758220C00C
:100B000007C006C005120A02D0058D82C005120A70
:100B100002D005D0068E82C006C005120A02758278
:100B200000120A02AC82D005D006D007ECB5150140
:100B3000220FBF320040C522AE82AF837582C0C093
:100B400007C006120A02D006D0078F82C007C0066F
:100B5000120A02D006D0078E82120A02851682126D
:100B60000A0290000A020078AD82AE83AFF07C00EA
:100B70007B00C3EB9537501FEB2DF8E43EF98F0255
:100B8000888289838AF0122386F8B8FF0280038C5A
:100B900082220B8B0480DB7582FF22AE82AF837DC5
:100BA000008D037C00C3EB951AEC951B4003020CEF
:100BB000438D037C00EB30E032758248C007C006ED
:100BC000C005C004C003120A02758200120A02D0D6
:100BD00003D0047537027538008B828C831223A2F0
:100BE000120A02D005D006D0078030758240C007B7
:100BF000C006C005C004C003120A02758200120AB2
:100C000002D003D0047537027538008B828C8312B2
:100C100023A2120A02D005D006D007ED2517FAE468
:100C20003518FBAC198A828B838CF0122386F582EF
:100C3000C007C006C005120A02D005D006D0070DB5
:100C4000020BA175824CC007C006120A02D006D062
:100C500007EFC313F582C007C006120A02D006D000
:100C6000078E04EFC313CC13CC8C82C007C00612CE
:100C70000A02758200120A02D006D007851A37854B
:100C800017828518838519F0C007C006120B688586
:100C9000821DD006D00774FFB51D02806E751C0042
:100CA000900001C007C006120078D006D007AA1D28
:100CB0007B00EA30E0298E008F018A048B05EC2846
:100CC000F8ED39C313C813C8F988828983C007C0F7
:100CD00006120A60AD82D006D007BDFF3480238E95
:100CE000048F05EA2CFCEB3DC313CC13CCFD8C82A6
:100CF0008D83C007C006120A36AD82D006D007BD6C
:100D0000FF0F051C74F6251C50962290000A020065
:100D10007822900040E0FFBF0102800DBF02030275
:100D20001136BF0403021612227402B513028003A7
:100D3000020DC2900045E0FF7E008F218E1E8E1FA7
:100D40008E20900044E0FF7E008E048F05E4FE2597
:100D50001EF51EEE351FF51FED3520F520EC352173
:100D6000F521900043E0FF7E007D008D048E058F0D
:100D700006E4251EF51EEE351FF51FED3520F52086
:100D8000EC3521F521900042E0FFE4FEFDFCEF256B
:100D90001EF51EEE351FF51FED3520F520EC352133
:100DA000F521900046E0F5327533D67534008E3566
:100DB000851E82851F838520F0E5211221EB750EAB
:100DC0008022900041E0FFBF0800500122EF24F094
:100DD000500122EF24F8FF240A83F582EF240C83CC
:100DE000F583E473BB5D955095721AF40F0F180FDD
:100DF000180E0E0D7E007F00EE24D6F582EF340033
:100E0000F583E4F00EBE00010F8E048F05C3EC9451
:100E100008ED940040E2750E08227E007F009000ED
:100E200047E0FD7C00C3EE9DEF9C5042EE24D6FCD3
:100E3000EF3400FD8E028F0374022AFAE43BFBEAD2
:100E40002440F582EB3400F583E0F582C007C0064C
:100E5000C005C004120A02AB82D004D005D006D06F
:100E6000078C828D83EBF00EBE00B30F80B0750E41
:100E70000822900043E0FF24F95003020F20EF2FD7
:100E80002F900E8573020F20020E9A020EB2020EF0
:100E9000C8020EDE020EF4020F0A900042E0700952
:100EA00075820112099F020F3475820312099F0295
:100EB0000F34900042E0700875820212099F80741E
:100EC00075820412099F806C900042E07008758260
:100ED0000312099F805E75820512099F805690005B
:100EE00042E0700875820412099F804875820612DC
:100EF000099F8040900042E0700875820512099FAA
:100F0000803275820712099F802A900042E07008A3
:100F100075820612099F801C75820812099F801431
:100F2000900042E0700875820712099F8006758262
:100F30000912099F900042E06007751301D2B18049
:100F400005751300C2B15396FD439702750E082232
:100F500075FA005396FD5397FD750E0022900043DD
:100F6000E0FE7F00900042E0FD7C002FFFEC3EFEA3
:100F70008F228E237E007F00EE24D6FCEF3400FD0E
:100F8000EE2522F582EF3523F583C007C006C005A4
:100F9000C004120A8AAB82D004D005D006D0078CD8
:100FA000828D83EBF00EBE00010F8E048F05C3EC23
:100FB0009480ED940040C1750E8022E51360030219
:100FC00010D8900044E0FF7E008E218F208E1E8E70
:100FD0001F900043E0FF7E007D008D048E058F068C
:100FE000E4251EF51EEE351FF51FED3520F520EC2E
:100FF0003521F521900042E0FFE4FEFDFCEF251EC7
:10100000F51EEE351FF51FED3520F520EC3521F5E9
:1010100021C313F521E52013F520E51F13F51FE586
:101020001E13F51E851E22851F2385201E85211F68
:101030008E208E21E51EF524601875824D120A025D
:10104000758200120A02852482120A027582001239
:101050000A027E007F008E048F05EC2CFCED33FD30
:10106000EC24D6FAED3400FBEE2522F582EF352391
:10107000F583C007C006C005C004C003C002120A41
:1010800036A982D002D003D004D005D006D0078A7A
:10109000828B83E9F00CBC00010DEC24D6FCED340E
:1010A00000FDEE2522F582EF3523F583C007C0064B
:1010B000C005C004120A60AB82D004D005D006D0AF
:1010C000078C828D83EBF00EBE00010FC3EE9440BF
:1010D000EF9400505D021056900043E0FE7F0090B8
:1010E0000042E0FD7C002FFFEC3EFE8F228E237E2F
:1010F000007F00EE24D6FCEF3400FDEE2522F582C1
:10110000EF3523F583C007C006C005C004120A0CE2
:10111000AB82D004D005D006D0078C828D83EBF053
:101120000EBE00010F8E048F05C3EC9480ED940079
:1011300040C1750E80227402B5130280030211E0D3
:10114000900045E0FF7E008F218E1E8E1F8E209026
:101150000044E0FF7E008E048F05E4FE251EF51E90
:10116000EE351FF51FED3520F520EC3521F52190EA
:101170000043E0FF7E007D008D048E058F06E42590
:101180001EF51EEE351FF51FED3520F520EC35213F
:10119000F521900042E0FFE4FEFDFCEF251EF51E68
:1011A000EE351FF51FED3520F520EC3521F52190AA
:1011B0000046E0F52D752E47752F008E30851E8276
:1011C000851F838520F0E5211220D7E582600890F5
:1011D00000D67401F080059000D6E4F0750E002270
:1011E000900044E0FF7E000FBF00010E8F258E2689
:1011F000900046E06060900042E0FE7F0090004179
:10120000E0FD7C002FFFEC3EFE8F228E237E007FD0
:1012100000900045E0FD7C00C3EE9DEF9C40012264
:10122000EE2522FCEF3523FD8E028F0374082AFA87
:10123000E43BFBEA2440F582EB3400F583E0F5164D
:101240008C828D83C007C006120B38D006D0070EE3
:10125000BE00BE0F80BB7401B51360900042E0FE7B
:101260007F00900041E0FD7C002FFFEC3EFE8F22CE
:101270008E237E007F00900045E0FD7C00C3EE9D44
:10128000EF9C400122EE2522FCEF3523FD8E028FDC
:101290000374082AFAE43BFBEA2440F582EB3400AD
:1012A000F583E0F5158C828D83C007C006120AB461
:1012B000D006D0070EBE00BE0F80BBAE25AF26C342
:1012C00074809EE49F5003021359900042E0FE7F19
:1012D00000900041E07C002FFFEC3EFE8F228E2329
:1012E000900045E0FF7E008525378526388F828E69
:1012F00083122325AE828E277E007F00AC277D00DF
:10130000C3EE9CEF9D4001228525378526388E82CD
:101310008F83C007C006122369AC82AD83D006D08C
:1013200007EC2522F582ED3523F58374082CFCE4C7
:101330003DFDEC2440FCED3400FD8C178D18751933
:101340000085251A85261BC007C006120B9BD006F8
:10135000D0070EBE00A60F80A3900045E0FFBF801F
:101360000280030214A0900043E0FF7E008E218FD4
:10137000208E1E8E1F900042E0FF7E007D008D04B7
:101380008E058F06E4251EF51EEE351FF51FED3583
:1013900020F520EC3521F521900041E0FFE4FEFD31
:1013A000FCEF251EF51EEE351FF51FED3520F5204F
:1013B000EC3521F521C313F521E52013F520E51FB8
:1013C00013F51FE51E13F51E851E22851F23E5203C
:1013D000F524601875824D120A02758200120A0205
:1013E000852482120A02758200120A027E007F00A2
:1013F0008E048F05EC30E02B758248C007C006C014
:1014000005C004120A02758200120A02D004D00537
:101410008C02EDC313CA13CA8A82120A02D006D004
:10142000078027758240C007C006C005C004120AA5
:1014300002758200120A02D004D005EDC313CC134A
:10144000CC8C82120A02D006D0078E048F05740855
:101450002CFCE43DFDEC2440F582ED3400F583E006
:10146000F582C007C006120A02D006D0070EBE00E1
:10147000010F8E048F05C3EC9480ED94005003029D
:1014800013F075378090004875F000120B68858264
:101490002974FFB5290280047528002275280122CD
:1014A0007E007F008E048F05EC30E02E758248C0F0
:1014B00007C006C005C004120A02758200120A02A3
:1014C000D004D0058C02EDC313CA13CA74402AF5A8
:1014D00082120A02D006D007802A758240C007C057
:1014E00006C005C004120A02758200120A02D00466
:1014F000D005EDC313CC13CC74402CF582120A0234
:10150000D006D0078E048F0574082CFCE43DFDEC5A
:101510002440F582ED3400F583E0F582C007C00673
:10152000120A02D006D0070EBE00010F8E048F05EE
:10153000C3EC9480ED940050030214A475824C1205
:101540000A02852382120A02852282120A02758209
:1015500000120A02E528601975378090004875F07E
:1015600000120B68858229AF2974802FF529752810
:1015700000E528600302160C7E007F00900001C089
:1015800007C006120078D006D007AC297D00EC30E9
:10159000E0327537027538008C828D83C007C00633
:1015A0001223A2AA82AB83A822A923EA28F8EB3946
:1015B000F988828983120A60AB82D006D007BBFF0C
:1015C000028033227537027538008C828D83C00704
:1015D000C0061223A2AC82AD83AA22AB23EC2AFA66
:1015E000ED3BFB8A828B83120A36AD82D006D00790
:1015F000BDFF028001220EBE00010F8E048F05C3C5
:10160000EC940AED9400500302157C2290000A022B
:101610000078900041E0FFBF01028061BF900302AB
:1016200016C6BF91030216CDBF92030216D4BF9314
:10163000030216DBBF94030216E2BF9503021B915F
:10164000BF9603021BC5BFC0030216ECBFC1030255
:101650001CA4BFC203021D28BFC3030216F8BFC4E7
:1016600003021706BFC503021713BFC603021738CC
:10167000BFC903021756BFCA030217F6227E007FB6
:1016800000EE24D6FCEF3400FD8E028F03EA2AFA26
:10169000EB33FB74022AFAE43BFBEA246FF582EB9E
:1016A0003424F583E4938C828D83F00EBE00010F09
:1016B0008E048F05C3EC940CED940040C49000E2BE
:1016C000E4F0750E402212193D750E4022121BB532
:1016D000750E0022121AE5750E0022121B18750EE7
:1016E0004022121A40750E0022021B9175130290BF
:1016F0000042E0F582021CBB121F0EAF829000D6A2
:10170000EFF0750E4022900042E0F582121E6C75DB
:101710000E002290002A75F040121D3CAF8290000E
:10172000D7EFF0E52A60089000D67401F0800590AC
:1017300000D6E4F0750E4022900042E0F582121FC0
:10174000A9E58260089000D67401F080059000D66B
:10175000E4F0750E4022900045E0FF7E008F218E60
:101760001E8E1F8E20900044E0FF7E008E048F05A9
:10177000E4FE251EF51EEE351FF51FED3520F52084
:10178000EC3521F521900043E0FF7E007D008D04C3
:101790008E058F06E4251EF51EEE351FF51FED356F
:1017A00020F520EC3521F521900042E0FFE4FEFD1C
:1017B000FCEF251EF51EEE351FF51FED3520F5203B
:1017C000EC3521F521900046E0F5327533D77534BC
:1017D000008E35851E82851F838520F0E52112212C
:1017E000EBE58260089000D67401F080059000D689
:1017F000E4F0750E4022900045E0FF7E008F218EC0
:101800001E8E1F8E20900044E0FF7E008E048F0508
:10181000E4FE251EF51EEE351FF51FED3520F520E3
:10182000EC3521F521900043E0FF7E007D008D0422
:101830008E058F06E4251EF51EEE351FF51FED35CE
:1018400020F520EC3521F521900042E0FFE4FEFD7B
:10185000FCEF251EF51EEE351FF51FED3520F5209A
:10186000EC3521F521900046E0F52D752E47752FBA
:10187000008E30851E82851F838520F0E521122091
:10188000D7E58260089000D67401F080059000D6FC
:10189000E4F0750E4022AF824393207E00EF30E7E4
:1018A00004D2958002C295900001C007C0061200C4
:1018B000C2D2979000011200C2D006D007C2978F03
:1018C00005ED2DFF0EBE080040D39000010200C2BE
:1018D000AF827E00D2955393DF7D008E04EC2CFE08
:1018E000D297900001C007C006C0051200C2D00503
:1018F000D006D007309503430601C297900001C07F
:1019000007C006C0051200C2D005D006D0070DBD25
:10191000080040C7439320EF6004D2958002C2952F
:10192000900002C0061200C2D2979000011200C2BD
:10193000C2979000011200C2D0068E8222D2B1C29C
:1019400095C29743932043938090000A12009D43D1
:101950009702C2B190000A12009DD2B190000A1203
:10196000009DC2B190000A12009DD2B190000A12EF
:10197000009DC2B190000A12009DD2B190001E12CB
:10198000009DC2B190002812009DD2B190001E129D
:10199000009DC2B190001412009DD2B190000A12B5
:1019A000009DC2B190000A12009DD2B190001412A5
:1019B000009DC2B190000A12009DD2B19000141295
:1019C000009DC2B190000A12009D75825A121896AD
:1019D0007582A512189675820312189690000A1245
:1019E000009D7582001218967582001218967582F5
:1019F0000B1218967582011218D0AF829000D6EFA4
:101A0000F075820012189675820012189675820C75
:101A10001218967582011218D0AF829000D7EFF09D
:101A200075820012189675820012189675824C12F3
:101A300018967582011218D0AF829000D8EFF0226C
:101A4000D2B1C295C29743932043938090000A126B
:101A5000009D439702C2B190000A12009DD2B1903E
:101A6000000A12009DC2B190000A12009DD2B190EE
:101A7000000A12009DC2B190000A12009DD2B190DE
:101A8000001E12009DC2B190002812009DD2B1909C
:101A9000001E12009DC2B190001412009DD2B190A0
:101AA000000A12009DC2B190000A12009DD2B190AE
:101AB000001412009DC2B190000A12009DD2B19094
:101AC000001412009DC2B190000A12009D75825A46
:101AD0001218967582A512189675820312189690A0
:101AE000000A02009D900042E0FF7E00C3EE9F507E
:101AF000268E047D0074032CFCE43DFDEC2440F5AF
:101B000082ED3400F583E0F582C007C00612189616
:101B1000D006D0070E80D522900042E0FF9000430F
:101B2000E0F52B7D008F037C00EB24FFF9EC34FF04
:101B3000FA8D007E00C3E899EE64808AF063F0803D
:101B400095F05029ED24D6FAE43400FE758200C0E9
:101B500007C006C005C0021218D0A982D002D00565
:101B6000D006D0078A828E83E9F00D80B81BBBFFB8
:101B7000011CEB24D6FBEC3400FC852B82C004C096
:101B8000031218D0AF82D003D0048B828C83EFF085
:101B900022900042E06004D2958002C295900043FA
:101BA000E06004D2978002C297900044E06003D2C4
:101BB000B122C2B1225393DFD29553937FD2975370
:101BC00097FDD2B122900042E0FF900043E0FE7DFD
:101BD000008F037C001BBBFF011C8D017A00C3E951
:101BE0009BEA64808CF063F08095F0506574042962
:101BF000FBE43AFCEB2440F582EC3400F583E0F59D
:101C000082C007C006C005121896D005D006D007BE
:101C1000C2957C00C3EC9E5019900001C007C0061D
:101C2000C005C0041200C2D004D005D006D0070CF5
:101C300080E2900001C007C006C0051200C2D29722
:101C40009000011200C2D005D006D007C2970D0245
:101C50001BD1740429F9E43AFAE92440F582EA3404
:101C600000F583E0F582C006121896D006C2957F73
:101C700000C3EF9E5011900001C007C0061200C2C1
:101C8000D006D0070F80EAD2959000011200C2D290
:101C9000979000011200C2C29722220000000000AB
:101CA000220200C2D297439080439280439380D215
:101CB0009543902043922043932022AF82D29753A2
:101CC000927F439380D2955392DF4393208F2C22AF
:101CD000AF825392DF4393207E00EF30E004D29531
:101CE0008002C295C007C006121C9BD006D007C256
:101CF00097EFC313FFD2970EBE080040DD227F008E
:101D00004390204392204393207E00C297C007C097
:101D100006121C9BD006D007D297EFA29513FF0E98
:101D2000BE080040E68F82224390204392204393D6
:101D300020C29790006412009DD29722AD82AE839C
:101D4000AFF0439020439220439320C297C007C036
:101D500006C005121C9BD297900001E4F5F0121CFE
:101D6000A15392DF439320900006E4F5F0121CA1EA
:101D7000C295900001E4F5F0121CA1C297121C9BC1
:101D8000D297900001E4F5F0121CA1C297121C9B9F
:101D9000D297900001E4F5F0121CA1C297121C9B8F
:101DA000D297900001E4F5F0121CA1C297121C9B7F
:101DB000D297900001E4F5F0121CA1900006E4F522
:101DC000F0121CA1D005D006D007439020439220EA
:101DD0004393207C017A007B00C297C007C006C0F5
:101DE00005C004C003C002121C9BD297900001E4FE
:101DF000F5F0121CA1D002D003D004D005D006D03B
:101E0000073095047C00800E0ABA00010BC3EA94E7
:101E100050EB94C340C3EC600E8D828E838FF0E450
:101E200012234E75820022900006E4F5F0C007C030
:101E300006C005121CA1121CFEAC82900006E4F53F
:101E4000F0C004121CA1C297121C9BD297900001F3
:101E5000E4F5F0121CA1D004D005D006D0078D8285
:101E60008E838FF0740112234E8C8222AF824390B6
:101E700020439220439320C297900001E4F5F0C0E4
:101E800007121CA1D297900001E4F5F0121CA15397
:101E900092DF439320900006E4F5F0121CA1D29546
:101EA000900001E4F5F0121CA1C297900001E4F546
:101EB000F0121CA1D297900001E4F5F0121CA1C20F
:101EC00097900001E4F5F0121CA1D297900001E474
:101ED000F5F0121CA1900006E4F5F0121CA1D00749
:101EE0008F82121CD0900006E4F5F0121CA1C2975C
:101EF000900001E4F5F0121CA1D297900001E4F5E6
:101F0000F0121CA14390204392204393202243903F
:101F100020439220439320C297900001E4F5F012F1
:101F20001CA1D297900001E4F5F0121CA15392DF9E
:101F3000439320900006E4F5F0121CA1C295900096
:101F400001E4F5F0121CA1C297900001E4F5F01233
:101F50001CA1D297900001E4F5F0121CA1D295C209
:101F600097900001E4F5F0121CA1D297900001E4D3
:101F7000F5F0121CA1900006E4F5F0121CA1121C51
:101F8000FEAF82900006E4F5F0C007121CA1C297D4
:101F9000900001E4F5F0121CA1D297900001E4F545
:101FA000F0121CA1D0078F8222AF8243902043926F
:101FB00020439320C297900001E4F5F0C007121C63
:101FC000A1D297900001E4F5F0121CA15392DF43D7
:101FD0009320900006E4F5F0121CA1D29590000128
:101FE000E4F5F0121CA1C297900001E4F5F0121C78
:101FF000A1D297900001E4F5F0121CA1C295C297FE
:10200000900001E4F5F0121CA1D297900001E4F5D4
:10201000F0121CA1900006E4F5F0121CA1C29790EA
:102020000001E4F5F0121CA1D297900001E4F5F054
:10203000121CA1C297900001E4F5F0121CA1D297E6
:10204000900001E4F5F0121CA1900006E4F5F012F6
:102050001CA1D0078F82121CD043902043922043B2
:102060009320900006E4F5F0121CA17F007D007E15
:1020700000C297900001E4F5F0C007C006C0051249
:102080001CA1D297900001E4F5F0121CA1D005D05C
:1020900006D0073095047F01800E0DBD00010EC3F0
:1020A000ED9450EE94C340C9900006E4F5F0C007EB
:1020B000121CA1C297900001E4F5F0121CA1D29766
:1020C000900001E4F5F0121CA1D007439020439248
:1020D000204393208F8222AC82AD83AEF0FF852C0B
:1020E00082C007C006C005C004121E6C75820712AC
:1020F0001FA9D004D005D006D007C007C006C00570
:10210000C004121F0EE582D004D005D006D00720EF
:10211000E1E8C007C006C005C004121F0EE582D06A
:1021200004D005D006D00730E0E890003175F040CB
:10213000C007C006C005C004121D3CAB82D004D04D
:1021400005D006D007E5317003F58222BB0D028071
:1021500004758200228D82C007C006C005C004122B
:102160001FA9D004D005D006D007C007C006C005FF
:10217000C004121F0EE582D004D005D006D007207F
:10218000E1E88C82121FA9121F0EE58220E1F8857A
:102190002D82121FA9121F0EE58220E1F87F00C3D5
:1021A000EF952D501FEF252EFCE4352FFDAE308C22
:1021B000828D838EF0122386F582C007121FA9D06C
:1021C000070F80DB121F0EE58230E0F890003175BA
:1021D000F040121D3CAF82E5317003F58222BF0D45
:1021E0000280047582002275820122AC82AD83AE2A
:1021F000F0FF852C82C007C006C005C004121E6C0B
:10220000758206121FA9D004D005D006D007C007DA
:10221000C006C005C004121F0EE582D004D005D050
:1022200006D00720E1E8C007C006C005C004121FA1
:102230000EE582D004D005D006D00730E0E890004B
:102240003675F040C007C006C005C004121D3CAB87
:1022500082D004D005D006D007E5367003F582227F
:10226000BB0D028004758200228D82C007C006C0AB
:1022700005C004121FA9D004D005D006D007C0079E
:10228000C006C005C004121F0EE582D004D005D0E0
:1022900006D00720E1E88C82121FA9121F0EE582EA
:1022A00020E1F8853282121FA9121F0EE58220E17B
:1022B000F8121F0EE58230E0F890003675F04012FB
:1022C0001D3CAF82E5367003F58222BF0D0280040B
:1022D000758200227F00C3EF95325045C007121F60
:1022E0000EE582D00730E0F4EF2533FCE43534FD11
:1022F000AE3590003675F040C007C006C005C0047A
:10230000121D3CAB82D004D005D006D0078C828D44
:10231000838EF0EB12234EE5367003F582220F8098
:10232000B5758201227A10E4FBFCE58225E0F58296
:10233000E58333F583EB33FBEC33FCEB9537F5F0BA
:0E234000EC95384006FCABF0438201DADD225A
:06003500E478FFF6D8FD9F
:100013007900E94400601B7A0090249E787475A0EF
:1000230001E493F2A308B8000205A0D9F4DAF2754B
:02003300A0FF2C
:10234E0020F71130F6138883A88220F509F6A883AA
:10235E007583002280FEF280F5F022E5828537F04B
:10236E00A4C582C0F08538F0A4D0F025F0C58385D1
:08237E0037F0A42583F583224A
:10003B007800E84400600A790075A000E4F309D861
:10004B00FC7874E84401600C7902900000E4F0A3A2
:04005B00D8FCD9FAFA
:0D00060075813A1223DAE5826003020003DF
:1023860020F71430F6148883A88220F507E6A88380
:1023960075830022E280F7E49322E022C2D5E5832A
:1023A60030E70DD2D5E4C39582F582E49583F583B3
:1023B600E53830E70DB2D5E4C39537F537E49538FF
:1023C600F53812232530D50BE4C39582F582E495C2
:0823D60083F5832275820022C9
:00000001FF
