:08000000803102288531682DD2
:10008800080008000030A500CC30F0007008A4007B
:10009800080021009801FC309900903027009B004F
:1000A800080014303D0091008E01900192018E15D8
:1000B8008E1E08005C286400800101310130FE02B8
:1000C8000030FF3B7F087E04031900346028720863
:1000D800F3007308BF007108B9007008B800403019
:1000E800A1008830F3007308A00008007208F3002C
:1000F8007308BF007108B9007008B8004030A1004B
:10010800C830F3007308A00008003208F700770829
:10011800C000C430F0002230F100F20182314622E2
:100128000230F7007708BA000800C4308600223091
:1001380087004108C03FC430F0002230F100F201CE
:10014800F20A82314622BA01BA0A0800123401348E
:100158000034023400340034003440348634193416
:1001680020340034013400340034003400340134C5
:100178000934023412340034013401340034C034F8
:10018800323409340434003400340034FF34FF348A
:10019800FF340034803086002130870001030319C2
:1001A800D928803086002130870040302000A900FF
:1001B800281FE3288830F0007008A8000800C8301D
:1001C800F0007008A8000800F52880318920080090
:1001D80083310D23080080319920080081310421E2
:1001E80008003108053A0319E928033A0319EC28ED
:1001F8000E3A0319EF28013A0319F22803290800D7
:100208003208F7007708C1004030A9008030AA0002
:100218002130AB008830F7007708A800C030AE0066
:100228002130AF004030F7007708AC001E303D00A9
:100238009900C430F0002230F100F20182314622E8
:100248000230F7007708BA00080023008C018E01FD
:1002580021008C1622008C1624008C167F3020007A
:10026800CC004C082100950510302000CC009430BB
:10027800890B3C29CC0B3C29000020008C1E5C29F2
:1002880005302300920080309100BF302000CC0060
:100298004C08230095051514000000002300130ADC
:1002A800031D5A293F30140603195C298A01802D41
:1002B80080314D2081318031552081318231942225
:1002C80081316229C9014908B03E860001308700A2
:1002D8000108C6004908303E8600870146088100AB
:1002E8000130C6004608C90708304902031C6729BF
:1002F800230030082000C6000530C636890B812946
:1003080046080339C7004708C800A1298031E820FA
:1003180008008031442008008331B12308005A3096
:10032800F0002330F1004030C6004608F20080316A
:100338006B2081318031462008004808003A0319B3
:100348008A29013A03198D29033A03199029932917
:1003580008007208F3007308BF007108B90070083C
:10036800B800413072020318D729F60172087602E4
:100378000318D5297608F300F4017308700786007E
:100388007408713D87000108F5007608203E860054
:1003980002308700750881000130F3007308F60702
:1003A800BA297208F329F6017608F300F4017308F4
:1003B800700786007408713D87000108F50076080B
:1003C800203E860002308700750881000130F30066
:1003D8007308F60740307602031CD8294030A50080
:1003E8008830F3007308A400080020003A03031DB6
:1003F8002B2A41303F0203180D2A0230F7007708F4
:10040800BA005A30F0002330F100F20180317A202E
:100418000800241F1D2A3808403EF0000030393DEE
:10042800F1003F08C03EF7007708F2008131AD21A6
:1004380008003808403EF0000030393DF1003F0820
:10044800C03EF7007708F2008231462208000230E9
:100458003A06031D080040080319372A40083D00E2
:1004680096002000C0013E08031DBE01BA015A30A3
:10047800F0002330F1004030F7007708F2008031B7
:100488006B2008007208F30073082000BF00710891
:10049800B9007008B800413072020318712AF601D9
:1004A8007208760203186F2A7608F300F4017308BD
:1004B800700786007408713D87000108F50076080A
:1004C800203E860002308700750881000130F30065
:1004D8007308F607542A72088D2AF6017608F30085
:1004E800F4017308700786007408713D87000108DD
:1004F800F5007608203E86000230870075088100E6
:100508000130F3007308F60740307602031C722AA4
:1005180040302000A500C830F3007308A40008008C
:100528003D00901C992A93010800101F9D2A101362
:100538000800101EA22A10128E140800101DA72AE7
:1005480010118E100800901EB12ABF302000CA007A
:100558004A08A4053D0090120800101CD12A9011E9
:100568009801990140302000A1000030A2002130FC
:10057800A3008830CA004A08A0004030A6002130F5
:10058800A7000830CA004A08A400C001C1013D0004
:1005980096019001163098000800901D08000F0879
:1005A8007839031DF32A0F1DDD2A8131F9218231A3
:1005B800092B20002008CA000230CA36890BE12A1C
:1005C8000F304A05CB000D304B06031DEF2A813151
:1005D80066218231092B843167248231092B0F0867
:1005E8002000CA000330CA36890BF72A0F304A05A3
:1005F800CB004B03031D092B3D000F1D072B80313A
:1006080045208231092B8031CE203D0090110E12F9
:1006180008003708F700F8017708C4007808C50013
:100628000830C435C50D890B152B3608F700F801BD
:100638007708C4077808C53DA52B0030450212305D
:1006480003194402031C2C2B1230C4000030C500CF
:10065800C201C30145084302031D342B440842026A
:100668000318552B4308850042088400AA308407E4
:100678008030853D0008F700C430F8002230F900CA
:1006880042087807FA004308793DFB007A0886009B
:100698007B088700770881000130C2070030C33D1E
:1006A8002E2BBA01BA0AC430F0002230F1004408F7
:1006B800F7007708F2008231462208000030450230
:1006C800123003194402031C6D2B1230C400003091
:1006D800C500C201C30145084302031D752B440828
:1006E80042020318552B4308850042088400BC3099
:1006F80084078030853D0008F700C430F8002230B8
:10070800F90042087807FA004308793DFB007A08A7
:1007180086007B088700770881000130C207003017
:10072800C33D6F2B5A30F0002330F1004030F70002
:100738007708F20080316B20833180314620BA017E
:1007480008003308013A0319212B033A0319622BD5
:10075800013A0319962B962B0800582CFD0120000E
:10076800330823009200200032087D0723009100FF
:10077800BF30F700770895051514000000007D08C4
:10078800F700F801F735F80DC430F9002230FA0007
:1007980077087907FB0078087A3DFC007B0886001B
:1007A8007C0887002300130881007D08F700F80102
:1007B800F735F80DC530F9002230FA0077087907C7
:1007C800FB0078087A3DFC007B0886007C088700DF
:1007D800140881000130F7007708FD0720307D02FA
:1007E800031CB32B2000BA01BA0AC430F00022302F
:1007F800F1004030F7007708F20082314622080005
:10080800BE01BE0A3308F7007708BC003208F700BB
:100818007708BB00BA01BA0A5A30F0002330F10059
:100828003608F7007708F20080317A200800BF30D8
:10083800F70077082300950520003308230092006D
:100848002000320823009100151615155530960022
:10085800AA3096009514000000000230F7007708CF
:100868002000BA00C430F0002230F100F2018231D9
:10087800462208000230F7007708BA00C430F000BA
:100888002230F100F2018231462283310730F8002C
:100898001730F7006A30890B4F2CF70B4F2CF80BE9
:1008A8004F2C0032010008003108013A0319B22B1D
:1008B800033A0319042C013A03191B2C073A0319AC
:1008C8003E2C662C08003A03031D582D41303F0288
:1008D80003181B2DFC013F087C0203188E2C7C0892
:1008E800B03E8600013087000108F7007C08F80058
:1008F800F90178083807FA007908393DFB007A08C9
:1009080086007B088700770881000130F7007708A8
:10091800FC076F2C3E0803190F2DBF30F70077082E
:1009280023009505EF30F7007708950595161515FE
:10093800FC0120003C082300920020003B087C07B3
:10094800230091007C08F700F801F735F80D5A30BC
:10095800F9002330FA0077087907860078087A3D8D
:100968008700010893007C08F700F801F735F80DB7
:100978005B30F9002330FA00770879078600780899
:100988007A3D87000108940055309600AA309600F9
:100998009514000000000130F7007708FC071F30AD
:1009A8007C02031C9D2C20003C08230092002000A0
:1009B8003B087C07230091007C08F700F801F73515
:1009C800F80D5A30F9002330FA00770879078600C5
:1009D80078087A3D8700010893007C08F700F80141
:1009E800F735F80D5B30F9002330FA0077087907FE
:1009F800860078087A3D870001089400DF30F70008
:100A08007708950555309600AA3096009514000091
:100A180000002000BE010230F7007708BA00C43099
:100A2800F0002230F100F201823146220800FC0178
:100A38007C08B03E8600013087000108F7007C087A
:100A4800F800F90178083807FA007908393DFB0001
:100A58007A0886007B088700770881000130F70054
:100A68007708FC0740307C02031C1C2D201F4A2DF0
:100A78003808403EF0000030393DF1003F08C03EE4
:100A8800F7007708F20080316B2008003808403EF4
:100A9800F0000030393DF1003F08C03EF70077080C
:100AA800F20080317A20080002303A06031D08005F
:100AB800BA015A30F0002330F1004030F7007708CF
:100AC800F20080316B200800C43084002230850099
:100AD8002C30FE000130FF0080315F20853130303E
:100AE8008400003085001230FE000030FF008031A5
:080AF8005F2020008131292953
:020000040001F9
:04000E000439CF1FC3
:00000001FF
