:100B00008531822D20008731DF2F0800F100210080
:100B10000E11F201F11F8F2D22000E15912D2200D2
:100B20000E110430890B922D22000E140430890B13
:100B3000972D22000E100310F10D0130F000700807
:100B4000F20708307202031808008A2D5A30860016
:100B50002330870042310108BC00BD015A308600B5
:100B60002330870043310108BE00BF013E08BF00AB
:100B7000BE013C083E07D8003D083F3DD900C801F2
:100B8000C901003049028030031948028D31031831
:100B9000C02D48085807F1004908593DF2009A3124
:100BA000312285312000BC00C430BD002230BE009F
:100BB00048083D07BF0049083E3DC0003F08860089
:100BC000400887003C0881000130C8070030C93D5B
:100BD000C12D5E08031DCB2E5A30860023308700BE
:100BE00044310108BC00BD01BE01BF013F08C70080
:100BF0003E08C6003D08C5003C08C4001030C4359E
:100C0000C50DC60DC70D890BFF2D4708D500460839
:100C1000D4004508D3004408D2005A30860023305F
:100C2000870043310108BC00BD01BE01BF013F0880
:100C3000C7003E08C6003D08C5003C08C400083097
:100C4000C435C50DC60DC70D890B202E4408D2072B
:100C50004508D33D4608D43D4708D53D5A30860067
:100C60002330870042310108BC00BD01BE01BF0135
:100C70003F08C7003E08C6003D08C5003C08C40048
:100C80004408D2074508D33D4608D43D4708D53D22
:100C90000130D536D40CD30CD20C890B492E530815
:100CA000D9005208D8005408BC005508BD00BE0148
:100CB000BF013F08D5003E08D4003D08D3003C08E2
:100CC000D2005208BC003C08E30063080319792EE7
:100CD0004D30883101208531003088310120853147
:100CE00020006308883101208531003088310120DF
:100CF00085312000C801C901003049024030031984
:100D000048028F310318FE2F48085807F1004908A0
:100D1000593DF2009A31512285312000BC0049082A
:100D2000BE004808BD00BD35BE0DC430BF00223036
:100D3000C0003D083F07C1003E08403DC2004108D9
:100D40008600420887003C08810048085807F100E7
:100D50004908593DF2009A31412285312000BC00FA
:100D60004908BE004808BD00BD35BE0DC530BF00F6
:100D70002230C0003D083F07C1003E08403DC20090
:100D800041088600420887003C0881000130C807FE
:100D90000030C93D7C2E5A30860023308700423116
:100DA0000108BC00BD015A30860023308700433162
:100DB0000108BE00BF013E08BF00BE013C083E075F
:100DC000D8003D083F3DD900C801C90100304902A3
:100DD0008030031948028F310318FE2F4808580746
:100DE000F1004908593DF2009C31C12485312000B1
:100DF000BC00C430BD002230BE0048083D07BF0023
:100E000049083E3DC0003F088600400887003C0876
:100E100081000130C8070030C93DE62E5A308600F7
:100E20002330870041310108083A0319E92D013ABE
:100E30000319A62D033A03192E2F013A0319DB2FAC
:100E4000073A03192E2F013A883103190A28033A69
:100E50008D310319C82D013A0319C42D8D31BF2DD1
:100E600002305E06031DDD2F5A30860023308700D6
:100E700045310108BC00BD01BE01BF013F08C700EC
:100E80003E08C6003D08C5003C08C4001830C43503
:100E9000C50DC60DC70D890B472F4708D50046085D
:100EA000D4004508D3004408D2005A3086002330CD
:100EB000870044310108BC00BD01BE01BF013F08ED
:100EC000C7003E08C6003D08C5003C08C4001030FD
:100ED000C435C50DC60DC70D890B682F4408D20750
:100EE0004508D33D4608D43D4708D53D5A308600D5
:100EF0002330870043310108BC00BD01BE01BF01A2
:100F00003F08C7003E08C6003D08C5003C08C400B5
:100F10000830C435C50DC60DC70D890B892F44088F
:100F2000D2074508D33D4608D43D4708D53D5A3041
:100F300086002330870042310108BC00BD01BE019C
:100F4000BF013F08C7003E08C6003D08C5003C0879
:100F5000C4004408D2074508D33D4608D43D47089D
:100F6000D53D5508B3005408B2005308B1005208EB
:100F7000B0005A3086002330870046310108BC009B
:100F80003C08B4006130B5002330B60091314221F5
:100F90008531003A0319D42FC430860022308700EF
:100FA0000130C03F8831C128C4308600223087001C
:100FB0000030C03FD22F8D31C62D9F31A22FC430BB
:100FC0008400223085002C30FE000130FF00993172
:100FD000CD21873152308400003085001730FE006B
:100FE0000030FF009931CD212100A001A101A20113
:100FF000A301A401A501A601A70120009931D929C7
:101000000800F0002400951370089100141C0628B5
:101010001108080021000E100E118E148D285A3070
:1010200086002330870042310108031D1C2801304F
:101030009C31FC248831A62803309C31FC24883163
:10104000A6285A3086002330870042310108031D4C
:101050002E2802309C31FC248831A62804309C3193
:10106000FC248831A6285A3086002330870042317C
:101070000108031D402803309C31FC248831A62838
:1010800005309C31FC248831A6285A308600233054
:10109000870042310108031D522804309C31FC2492
:1010A0008831A62806309C31FC248831A6285A3085
:1010B00086002330870042310108031D6428053073
:1010C0009C31FC248831A62807309C31FC248831CF
:1010D000A6285A3086002330870042310108031DBC
:1010E000762806309C31FC248831A62808309C31B3
:1010F000FC248831A6285A308600233087004231EC
:101100000108031D882807309C31FC248831A6285B
:1011100009309C31FC248831A6285A3086002330BF
:10112000870043310108013A03190F28033A0319D4
:101130002128013A03193328073A03194528013AAF
:1011400003195728033A031969287B285A30860067
:1011500023308700423101080319B4282000DE0142
:10116000DE0A22008E15B8282000DE0122008E1132
:1011700021008E119F31652F21000E140E158E1443
:101180008E152000E6010800F40021000E15220053
:101190000E100030F3000030F2000030F10001309A
:1011A000F00099319921883122000E140030F300AB
:1011B0000030F2000030F1000130F0009931992147
:1011C000883121000E110030F3000030F2000030B1
:1011D000F1000630F00099319921883122000E1576
:1011E0000030F3000030F2000030F1000130F00078
:1011F00099319921883122000E100030F30000301F
:10120000F2000030F1000130F0009931992188316D
:1012100022000E140030F3000030F2000030F10024
:101220000130F00099319921883122000E110E1001
:101230000030F3000030F2000030F1000130F00027
:1012400099319921883122000E140030F3000030CA
:10125000F2000030F1000130F0009931992188311D
:101260000030F3000030F2000030F1000630F000F2
:1012700099319921883122000E100030F30000309E
:10128000F2000030F1000130F000993199218831ED
:1012900022000E140030F3000030F2000030F100A4
:1012A0000130F00099319921883122000E10003070
:1012B000F3000030F2000030F1000130F00099310D
:1012C0009921883122000E140030F3000030F20022
:1012D0000030F1000130F00099319921883100305F
:1012E000F3000030F2000030F1000630F0009931D8
:1012F0009921883174089B317B23883121000E1598
:101300000030F3000030F2000030F1000630F00051
:10131000993199218831F501F601F70122000E106B
:101320000030F3000030F2000030F1000130F00036
:1013300099319921883122000E140030F3000030D9
:10134000F2000030F1000130F0009931992188312C
:1013500020000E1DAE29F501F50AB9290130F60766
:101360000030F73DC3307702503003197602031C7A
:101370008E290030F3000030F2000030F10006301A
:10138000F00099319921883122000E100030F300CD
:101390000030F2000030F1000130F0009931992165
:1013A000883122000E140030F3000030F2000030CB
:1013B000F1000130F0009931992121000E157508D6
:1013C000080021002708F700F80177082000B00086
:1013D0007808B1000830B035B10D890BEB29210038
:1013E0002608F700F80177082000B0077808B13D1B
:1013F0009B2B003020003102123003193002031CF5
:10140000052A1230B0000030B100B201B30131083A
:101410003302031D0D2A3008320203182E2A330826
:10142000850032088400A63084079830853D000886
:10143000F700C430F8002230F90032087807FA00CB
:101440003308793DFB007A0886007B08870077081F
:1014500081000130B2070030B33D072ADF01DF0A07
:10146000C430F0002230F1003008F7007708F200B5
:101470009E31AD26080000302000310222300319D1
:101480003002031C472A2230B0000030B100B20104
:10149000B30131083302031D4F2A3008320203180A
:1014A0002E2A33088500320884005730840798308C
:1014B000853D0008F700C430F8002230F9003208FA
:1014C0007807FA003308793DFB007A0886007B082C
:1014D0008700770881000130B2070030B33D492A08
:1014E000003020003102043003193002031C7C2A32
:1014F0000430B0000030B100B201B3013108330252
:10150000031D842A3008320203182E2A330885006E
:1015100032088400C63084079830853D0008F70003
:10152000C430F8002230F90032087807FA00330896
:10153000793DFB007A0886007B08870077088100E8
:101540000130B2070030B33D7E2A00302000310266
:10155000183003193002031CB12A1830B0000030D3
:10156000B100B201B30131083302031DB92A3008BA
:10157000320203182E2A330885003208840079309D
:1015800084079830853D0008F700C430F800223009
:10159000F90032087807FA003308793DFB007A0831
:1015A00086007B088700770881000130B207003091
:1015B000B33DB32A0030200031020E30031930024F
:1015C000031CE62A0E30B0000030B100B201B301B6
:1015D00031083302031DEE2A3008320203182E2A86
:1015E0003308850032088400B83084079830853D80
:1015F0000008F700C430F8002230F90032087807FC
:10160000FA003308793DFB007A0886007B088700E2
:10161000770881000130B2070030B33DE82A00307E
:1016200020003102243003193002031C1B2B24300C
:10163000B0000030B100B201B30131083302031D24
:10164000232B3008320203182E2A33088500320873
:101650008400333084079830853D0008F700C4309B
:10166000F8002230F90032087807FA003308793D93
:10167000FB007A0886007B0887007708810001302C
:10168000B2070030B33D1D2B5A30F0002330F1007B
:101690004030F7007708F2009A31112289319931F0
:1016A000A921DF0108002208003A0319702A013A33
:1016B0000319A52A033A0319DA2A013A03190F2B51
:1016C000442B003020003102333003193002031C58
:1016D0006D2B3330B0000030B100B201B3013108DE
:1016E0003302031D752B3008320203182E2A3308EB
:1016F000850032088400003084079830853D00085A
:10170000F700C430F8002230F90032087807FA00F8
:101710003308793DFB007A0886007B08870077084C
:1017200081000130B2070030B33D6F2B2208003A30
:101730000319612BAA2B21002308013A0319F92967
:10174000033A03193B2A013A0319532B213A03198F
:10175000962B442B0800C801C90100304902113002
:10176000031948020318D52B49088500480884004E
:101770008435850D353084079830853D0008BC00E0
:10178000C430BD002230BE0048083D07BF004908F4
:101790003E3DC0003F088600400887003C088100AD
:1017A0000130C8070030C93DAD2BC430860022305F
:1017B00087004C31810140302000BC003C08E6002D
:1017C00008009D313D258B31DB2B99319D218B31DB
:1017D0008731D22F9B31DA238B31E82B9E31FB26C8
:1017E0008B31DB2B963145268B31E82B9B31B62391
:1017F00008009231302208000230BC003C08DE00B4
:101800005A30860023308700423101089A31022283
:1018100008009931B82108009A31B8220800C43074
:101820008600223087009431FE248B31C03FDB2BB1
:101830005A30860023308700423101089331BC239F
:101840008B31E82B4330973119278B312000BC00B6
:10185000C5308600223087003C0881004308031908
:10186000382CC4308600223087000130C03FDB2B8B
:10187000C4308600223087000030C03FDB2B5A3056
:10188000860023308700423101088831C4208B3123
:10189000742D5A3086002330870045310108BC0082
:1018A000BD01BE01BF013F08C7003E08C6003D089C
:1018B000C5003C08C4001830C435C50DC60DC70DA1
:1018C000890B5C2C4708D5004608D4004508D30096
:1018D0004408D2005A308600233087004431010882
:1018E000BC00BD01BE01BF013F08C7003E08C600E5
:1018F0003D08C5003C08C4001030C435C50DC60DF8
:10190000C70D890B7D2C4408D2074508D33D4608F6
:10191000D43D4708D53D5A308600233087004331F7
:101920000108BC00BD01BE01BF013F08C7003E0861
:10193000C6003D08C5003C08C4000830C435C50DCC
:10194000C60DC70D890B9E2C4408D2074508D33D10
:101950004608D43D4708D53D5A30860023308700DD
:1019600042310108BC00BD01BE01BF013F08C700F4
:101970003E08C6003D08C5003C08C4004408D20724
:101980004508D33D4608D43D4708D53D5508B3002A
:101990005408B2005308B1005208B0005A30860013
:1019A0002330870046310108BC003C08B400C53034
:1019B000B5002230B6009231AD228B31742D5A30F1
:1019C00086002330870045310108BC00BD01BE01FF
:1019D000BF013F08C7003E08C6003D08C5003C08DF
:1019E000C4001830C435C50DC60DC70D890BF22CC7
:1019F0004708D5004608D4004508D3004408D20063
:101A00005A3086002330870044310108BC00BD01F4
:101A1000BE01BF013F08C7003E08C6003D08C50023
:101A20003C08C4001030C435C50DC60DC70D890B68
:101A3000132D4408D2074508D33D4608D43D470836
:101A4000D53D5A3086002330870043310108BC0061
:101A5000BD01BE01BF013F08C7003E08C6003D08EA
:101A6000C5003C08C4000830C435C50DC60DC70DFF
:101A7000890B342D4408D2074508D33D4608D43D90
:101A80004708D53D5A30860023308700423101088F
:101A9000BC00BD01BE01BF013F08C7003E08C60033
:101AA0003D08C5003C08C4004408D2074508D33DA2
:101AB0004608D43D4708D53D5508B3005408B20048
:101AC0005308B1005208B0005A3086002330870016
:101AD00046310108BC003C08B4006130B500233039
:101AE000B600913142218B31003A2F2C5A308600BA
:101AF0002330870041310108013A0319AB2B913A99
:101B00000319E12B013A0319E52B033A0319EA2BD8
:101B1000013A0319EE2B073A0319F22B013A031984
:101B2000F62B033A0319F92B563A0319FC2B013A09
:101B30000319092C033A03190C2C013A03190F2C31
:101B4000073A0319182C013A0319222C033A0319F6
:101B50003F2C0F3A0319492C033A0319DF2CBF2DF0
:101B60005A308600233087000108013A0319C22D3C
:101B7000033A0319CA2D063A0319762DBF2D080022
:101B80009431F72C94315F2C9F314C2F8831BC2835
:101B90009F316B2F8731302F5E03031D172E5A3074
:101BA00086002330870041310108BC00BD015A3056
:101BB00086002330870042310108BE00BF013E0885
:101BC000BF00BE013C083E07D8003D083F3DD9009C
:101BD000C801C9015A308600233087004531010809
:101BE000BC00BD013D084902031DF82D3C08480218
:101BF0000318080048085807F1004908593DF20049
:101C00006230BC002330BD0048083C07860049080C
:101C10003D3D87000108BE003E08F3009C318A2448
:101C20008D3101302000C8070030C93DEA2D003059
:101C3000570281300319560203188E2E5A3086003F
:101C40002330870041310108BC00BD015A308600B5
:101C50002330870042310108BE00BF013E08BF00AB
:101C6000BE013C083E07D8003D083F3DD90057085B
:101C7000F1005608F0005A308600233087004531C5
:101C80000108BC00BD013C08F2003D08F3009C3196
:101C900056248D317008BE003E08E200C801C9011B
:101CA0006208BC00BD013D084902031D592E3C08D5
:101CB0004802031808004908F1004808F0005708D6
:101CC000F3005608F2009B3160238D3158087007ED
:101CD000F6005908713DF7004908F1004808F00086
:101CE0005708F3005608F2009B3160238D316230B3
:101CF000BC002330BD0070083C07F80071083D3D72
:101D0000F9005708FB005608FA009531A0258D31DF
:101D100001302000C8070030C93D502E5A308600DF
:101D200023308700453180300106031D632F5A3070
:101D300086002330870043310108BC00BD01BE018D
:101D4000BF013F08C7003E08C6003D08C5003C086B
:101D5000C4001030C435C50DC60DC70D890BAA2EA1
:101D60004708D5004608D4004508D3004408D200EF
:101D70005A3086002330870042310108BC00BD0183
:101D8000BE01BF013F08C7003E08C6003D08C500B0
:101D90003C08C4000830C435C50DC60DC70D890BFD
:101DA000CB2E4408D2074508D33D4608D43D47080A
:101DB000D53D5A3086002330870041310108BC00F0
:101DC000BD01BE01BF013F08C7003E08C6003D0877
:101DD000C5003C08C4004408D2074508D33D460866
:101DE000D43D4708D53D0130D536D40CD30CD20CA8
:101DF000890BF42E5308D9005208D8005408BC00AF
:101E00003C08E30063080319162F4D308831012088
:101E10008D310030883101208D31200063088831F8
:101E200001208D310030883101208D312000C80122
:101E3000C9010030490280300319480203184C2FB1
:101E4000481C242F4830252F4030883101208D3107
:101E50000030883101208D3120004908BD0048083C
:101E6000BC00BD36BC0C3C08883101208D3162308D
:101E70002000BC002330BD0048083C07860049080C
:101E80003D3D87000108883101208D31013020005F
:101E9000C8070030C93D192F6230F0002330F1002F
:101EA0008030BC003C08F2009B312C238D31200097
:101EB000BD003D08E000600A0319602FE101080041
:101EC000E101E10A0800C801C9010030490280307F
:101ED000031948020318992F481C702F4830712F9E
:101EE0004030883101208D310030883101208D3122
:101EF00020004908BD004808BC00BD36BC0C3C08A9
:101F0000403E883101208D3162302000BC002330FA
:101F1000BD0048083C07860049083D3D8700010890
:101F2000883101208D3101302000C8070030C93DC3
:101F3000652F4C30883101208D31200059088831BF
:101F400001208D3120005808883101208D3100306A
:101F5000883101208D31200061080319C32F6230C0
:101F6000F0002330F1008030BC003C08F2009B31CF
:101F70002C238D312000BD003D08E0008030BC00E6
:101F80003C08E007E1016108031DF72FC801C90102
:101F9000003049020A3003194802031808000130D2
:101FA000F0000030F1009A31CB228D312000601C0E
:101FB000E42F60365807F10059080318590AF20057
:101FC0009A3141228D31EE2F60365807F1005908C1
:101FD0000318590AF2009A3151228D31FF3A031D3C
:101FE000080001302000C8070030C93DC82F0A3062
:101FF000F0000030F1009A31CB2208008D31C02D65
:10200000230030081F39F70077082000B0005B2854
:10201000C430F0002230F100F2019E31AD260230D2
:10202000F7007708DF000800210024080F39F700C7
:1020300077082000B500210024088039F7007708D0
:102040002000B10021002208F70077082000B2002C
:102050000030B3002030B4003508F700F801F73540
:10206000F80DF735F80DF735F80D7708B307780850
:10207000B43D3108031940280430B3070030B43DA3
:102080003208031D0828350803190828330886007C
:10209000340887008430810008284030A10088304F
:1020A000F7007708A0000030A500CC30F7007708D3
:1020B000A400DF0108003008003A03190828023A9A
:1020C000031914284D280800210020081F39F700A3
:1020D0007708F900C528C430860022308700003018
:1020E000C03FC43086002230870041318101C430B6
:1020F000F0002230F1000230F7007708F2009E3144
:10210000AD26DF01DF0A080024080F39F700770841
:10211000FA0024088039F7007708FB000030FC0043
:102120002030FD007A08F700F801F735F80DF73593
:10213000F80DF735F80D7708FC077808FD3D7B08AA
:102140000319A6280430FC070030FD3D7C088600FA
:102150007D088700011F6B28C4308600223087006D
:102160000130C03F71285A30F0002330F100403078
:10217000F7007708F2009A311122DF010030A50044
:10218000CC30F7007708A40008007908003A03195A
:102190006B28013A03196B28033A03198428B328E2
:1021A0000800210020081F39F70077082000B00040
:1021B0003929C430F0002230F100F2019E31AD2601
:1021C0000230F7007708DF000800210024080F39EB
:1021D000F70077082000B200210024088039F700BA
:1021E00077082000B30021002208F70077082000BC
:1021F000B1000030B4002030B5003208F700F8011B
:10220000F735F80DF735F80DF735F80D7708B40701
:102210007808B53D3308031911290430B40700309C
:10222000B53D3108031DD92832080319D9283308D0
:102230000319202934088600350887008101D92830
:10224000340886003508870088308100D9285A3044
:10225000F0002330F1004030F7007708F2009A31A7
:1022600011220030A500CC30F7007708A400DF0170
:1022700008003008003A0319D928023A0319E52862
:10228000272908005C089331BC239131073088313D
:10229000C42091319431FE2491310239031D4A2921
:1022A0009431FE2491310139031950293930973185
:1022B00019279131FA007A082000B7003908031D68
:1022C0006329003008000D303706031D61293108ED
:1022D0008831C42091319431FE2491310239031D9B
:1022E0006B29200030088831C42091319431FE24BC
:1022F00091310239031D7629200034088831C42029
:1023000091319431FE2491310239031D812920003D
:10231000B801340838020318A0293808FA00FB0174
:102320007A08350786007B08363D8700010888312A
:10233000C42091310130FA007A082000B8078929B9
:102340009431FE24913101390319A0293930973194
:1023500019279131FA007A082000B70039080319CB
:1023600061290D303706031D6129013008003D0049
:10237000901CBC2993010800101FC02910130800ED
:10238000101EC52910128E140800101DCA29101124
:102390008E100800901ED429BF302000D0005008B5
:1023A000A4053D0090120800101CF429901198011A
:1023B000990140302000A1000030A2002130A3008C
:1023C0008830D0005008A0004030A6002130A7007F
:1023D0000830D0005008A400E501E4013D0096015A
:1023E0009001163098000800901D08000F087839F9
:1023F000031D162A0F1D002A9E31602691312C2ABA
:1024000020002008D0000230D036890B042A0F307B
:102410005005D1000D305106031D122A9D31CA25E9
:1024200091312C2A9331312391312C2A0F0820002D
:10243000D0000330D036890B1A2A0F305005D10056
:102440005103031D2C2A3D000F1D2A2A85318525A5
:1024500091312C2A9B3146233D0090110E12080029
:102460005A3086002330870042310108F300730898
:10247000F7005A3086002330870043310108F3000B
:102480007308F800FA017708FF3EF300FF300318E5
:102490000030F4007408803A803C031D512A730810
:1024A0007A020318812A7A08F300F4015E30F500FD
:1024B0002330F6007308750786007408763D8700A0
:1024C00001088531862592310E11F90178087902CB
:1024D0000318722A0430890B6B2A0130F300730849
:1024E000F907662A0430890B732A22000E1404307F
:1024F000890B782A22000E100130F3007308FA07C6
:10250000432A7A08F300F4015E30F5002330F60028
:102510007308750786007408763D870001088531C9
:10252000862592310E11F901780879020318A02A44
:102530000430890B992A0130F3007308F907942AB3
:1025400022000E150430890BA32A22000E14043039
:10255000890BA82A22000E1008005C089331BC23C6
:10256000923106308831C42092319431FE24923168
:102570000239031DB52A9431FE2492310139031921
:10258000BB2A7C309731192792312000B7003708D9
:10259000FA007C08031DCE2A003008000D307A06B0
:1025A000031DCC2A31088831C42092319431FE2495
:1025B00092310239031DD62A200030088831C42008
:1025C00092319431FE2492310239031DE12A200018
:1025D00034088831C42092319431FE24923102397A
:1025E000031DEC2A9431FE24923101390319F22A99
:1025F0007C309731192792312000B7003708FA0054
:102600007C080319CC2A0D307A06031DCC2AFB0165
:1026100034087B0203182F2B9431FE2492310139A8
:1026200003190C2B7C309731192792312000B70009
:102630007B08B800B90138083507BA003908363DBB
:10264000BB003A0886003B088700370881007C08F9
:102650000319CC2A0130B7003708FB07082B0130DB
:1026600008005F03031DA92B4130680203186C2B7F
:10267000CF0168084F020318582B4F08B03E860060
:10268000013087000108CA004F08CB00CC014B087D
:102690005A07CD004C085B3DCE004D0886004E0821
:1026A00087004A0881000130CA004A08CF07392B49
:1026B00067080319602B94315D2493312000E701F2
:1026C0000230CA004A08DF00C430F0002230F100B6
:1026D000F2019E31AD260800CF014F08B03E8600C2
:1026E000013087000108CA004F08CB00CC014B081D
:1026F0005A07CD004C085B3DCE004D0886004E08C1
:1027000087004A0881000130CA004A08CF074030DC
:102710004F02031C6D2B201F9B2B5A08403EF000DC
:1027200000305B3DF1006808C03ECA004A08F20074
:102730009A31112208005A08403EF00000305B3DFB
:10274000F1006808C03ECA004A08F2009A3121220E
:10275000080002305F06031D080022000E12200050
:10276000DF015A30F0002330F1004030CA004A083F
:10277000F2009A3111220800F40021000E15220007
:102780000E100030F3000030F2000030F100013094
:10279000F00099319921933122000E140030F3009A
:1027A0000030F2000030F1000130F0009931992141
:1027B000933121000E110030F3000030F2000030A0
:1027C000F1000630F00099319921933122000E1565
:1027D0000030F3000030F2000030F1000130F00072
:1027E00099319921933122000E100030F30000300E
:1027F000F2000030F1000130F0009931992193315D
:1028000022000E140030F3000030F2000030F1001E
:102810000130F00099319921933122000E100030DF
:10282000F3000030F2000030F1000130F000993187
:102830009921933122000E140030F3000030F20091
:102840000030F1000130F0009931992193310030CE
:10285000F3000030F2000030F1000630F000993152
:102860009921933174089B317B2393310030F3001D
:102870000030F2000030F1000630F000993199216B
:10288000933122000E100030F3000030F2000030CF
:10289000F1000130F00099319921933122000E149A
:1028A0000030F3000030F2000030F1000130F000A1
:1028B0009931992121000E1508008D31B02D02307B
:1028C0005E06031DFC2C5A308600233087004531FC
:1028D0000108BC00BD01BE01BF013F08C7003E08A2
:1028E000C6003D08C5003C08C4001830C435C50DFD
:1028F000C60DC70D890B762C4708D5004608D400B5
:102900004508D3004408D2005A308600233087009F
:1029100044310108BC00BD01BE01BF013F08C70032
:102920003E08C6003D08C5003C08C4001030C43550
:10293000C50DC60DC70D890B972C4408D207450855
:10294000D33D4608D43D4708D53D5A308600233054
:10295000870043310108BC00BD01BE01BF013F0833
:10296000C7003E08C6003D08C5003C08C40008304A
:10297000C435C50DC60DC70D890BB82C4408D20748
:102980004508D33D4608D43D4708D53D5A3086001A
:102990002330870042310108BC00BD01BE01BF01E8
:1029A0003F08C7003E08C6003D08C5003C08C400FB
:1029B0004408D2074508D33D4608D43D4708D53DD5
:1029C0005508B3005408B2005308B1005208B000D3
:1029D0005A3086002330870046310108BC003C088D
:1029E000B400C430B5002230B6009231AD22803040
:1029F000BC003C08E600080087310E2F21000E15B0
:102A000022000E100030F3000030F2000030F10020
:102A10000130F00099319921943122000E140030D8
:102A2000F3000030F2000030F1000130F000993185
:102A30009921943121000E110030F3000030F20092
:102A40000030F1000630F0009931992194312200D4
:102A50000E110030F3000030F2000030F1000130C0
:102A6000F00099319921943122000E100030F300CA
:102A70000030F2000030F1000130F000993199216E
:102A8000943122000E140030F3000030F2000030C8
:102A9000F1000130F00099319921943122000E1596
:102AA0000E100030F3000030F2000030F100013071
:102AB000F00099319921943122000E140030F30076
:102AC0000030F2000030F1000130F000993199211E
:102AD00094310030F3000030F2000030F100063095
:102AE000F0009931992194319B3112239431F400F3
:102AF0007408F5000030F3000030F2000030F100FF
:102B00000630F00099319921943122000E100030E6
:102B1000F3000030F2000030F1000130F000993194
:102B20009921943122000E140030F3000030F2009D
:102B30000030F1000130F00099319921750808004A
:102B4000B1013108FC00FD017B087D02031DAA2DA7
:102B50007A087C020318D12D311CB02D4830B12DDC
:102B60004030883101209531003088310120953185
:102B70002000313688310120953120003108FC00D9
:102B8000FD017C08780786007D08793D87000108F3
:102B90008831012095310130FC007C082000B1070C
:102BA000A12D4C308831012095317708FD00760841
:102BB000FC000930FD36FC0C890BDA2D7C088831CD
:102BC000012095317708FD007608FC00FD36FC0CED
:102BD0007C08883101209531003088310120953101
:102BE0007908F1007808F0007A08FC007C08F2000F
:102BF0009B312C239531FD007D082000B000300A68
:102C000003193C2EB1011030FC009430890B062EC4
:102C1000FC0B062E00322000301C1F2E30087607D9
:102C2000FC0077080318770AFD00FD36FC0C7C08D1
:102C3000F1007D08F2009A31412295312F2E3008A3
:102C40007607FC0077080318770AFD00FD36FC0CB8
:102C50007C08F1007D08F2009A3151229531FF3A4B
:102C6000031D08000130FC007C082000B1070A3079
:102C7000310203180800032E9C30FC00D730890B6A
:102C80003F2EFC0B3F2E0000080022008E150E1177
:102C90000E1021000E110E109C30F300D730890B5E
:102CA0004F2EF30B4F2E000021008E1122008E11AB
:102CB0009C30F300D730890B5B2EF30B5B2E0000AA
:102CC00022008E159C30F300D730890B652EF30B54
:102CD000652E000022008E119C30F300D730890B46
:102CE0006F2EF30B6F2E000022008E159C30F30028
:102CF000D730890B792EF30B792E000022008E112C
:102D00009C30F300D730890B832EF30B832E000009
:102D100022008E150230F400D430F3008530890B88
:102D20008F2EF30B8F2EF40B8F2E000022008E11AE
:102D30000330F4007030F3005C30890B9D2EF30BF0
:102D40009D2EF40B9D2E003222008E150230F400D1
:102D5000D430F3008530890BAB2EF30BAB2EF40B84
:102D6000AB2E000022008E110230F4003830F30048
:102D7000AD30890BB92EF30BB92EF40BB92E000030
:102D800022008E159C30F300D730890BC52EF30B33
:102D9000C52E000022008E119C30F300D730890B25
:102DA000CF2EF30BCF2E000022008E150230F40040
:102DB0003830F300AD30890BDB2EF30BDB2EF40B38
:102DC000DB2E000022008E119C30F300D730890BDF
:102DD000E72EF30BE72E000022008E150230F400E0
:102DE0003830F300AD30890BF32EF30BF32EF40BD8
:102DF000F32E000022008E119C30F300D730890B97
:102E0000FF2EF30BFF2E00005A30853186259631B8
:102E1000A53085318625963103308531862596315A
:102E20009C30F300D730890B132FF30B132F0000C6
:102E30000800F90021000E1522000E109931A22180
:102E4000973122000E140030F3000030F200003001
:102E5000F1000130F00099319921973121000E11D4
:102E60000030F3000030F2000030F1000630F000D6
:102E700099319921973122000E110030F300003072
:102E8000F2000030F1000130F000993199219731C2
:102E900022000E109931A221973122000E14003029
:102EA000F3000030F2000030F1000130F000993101
:102EB0009921973122000E109931A22197312200D9
:102EC0000E140030F3000030F2000030F100013049
:102ED000F00099319921973122000E109931A221E9
:102EE000973122000E140030F3000030F200003061
:102EF000F1000130F00099319921973122000E1034
:102F00009931A221973122000E140030F3000030D5
:102F1000F2000030F1000130F00099319921973131
:102F20000030F3000030F2000030F1000630F00015
:102F300099319921973121000E15F601F60AF70112
:102F4000F80122000E109931A221973122000E14AF
:102F50000030F3000030F2000030F1000130F000EA
:102F600099319921973120000E1DB82FF601C32FFA
:102F70000130F7070030F83DC330780250300319B4
:102F80007702031CA12F76080319CC2F790886003D
:102F900087018101003008000030F3000030F200AA
:102FA0000030F1000630F0009931992197319B31C2
:102FB00012239731F4007408F5000030F30000305C
:102FC000F2000030F1000630F0009931992197317C
:102FD00022000E109931A221973122000E140030E8
:102FE000F3000030F2000030F1000130F0009931C0
:102FF00099217908860087018101810A75080800F6
:1030000006340034FF3409340134A134013415345A
:1030100000342634FF3400347534083485340134E8
:103020009534073409340034B23402340134853421
:1030300002349534873409340034B2340234013414
:103040008534033495347F3409340034B234023487
:1030500001348534043495343F3409340034B234B7
:1030600002340134C034243403345034003449343D
:1030700000344334003431340034363400344634C0
:1030800000343134003434340034353400343434D2
:1030900000342D34003431340034393400343134C8
:1030A00000343034003432340034333400340934E2
:1030B000023422340034013401340034C034323458
:1030C000093404340034003401340334003400344F
:1030D0000034093421340134013400340134223401
:1030E0003334003407340534813403340834003475
:1030F0000134183403347A340034683400346934C9
:10310000003466340034653400346E34003467347F
:103110000034733400346F34003466340034743453
:1031200000346D3463347534503472346F34673422
:103130002034763431342E34303420346234313417
:1031400038343134303431343034003412340134D2
:10315000003402340034003400344034EB3403349F
:10316000B434C8340134003401340234033401343B
:103170000E340334553400345334003442340034B4
:1031800048340034493400344434003404340334C3
:0431900009340434C6
:1033300008000430890B9A29080021008E150E150B
:103340000E14080000000000000000000000000053
:1033500008000030A500CC30F0007008A400080080
:1033600021009801FC309900903027009B00080054
:1033700022000E1421000E1422000E1521000E153D
:103380000800C430F0002230F100F2019E31AD2679
:103390000230F7007708DF00080064008001013187
:1033A0000130FE020030FF3B7F087E040319003429
:1033B000CE2923008C018E019931B02199319931A8
:1033C000E62199319131B7219931E22921000E127C
:1033D00022000E1214303D0091008E0190019201E6
:1033E0008E158E1E0800F1292000DF01DF0AC4308F
:1033F000F0002230F1006608F7007708F2009E31F5
:10340000AD260800F10022000E1421000E1022004B
:103410000E1521000E117108F00070082000DC006C
:1034200008007208F30073082000E8007108DB0050
:103430007008DA004030A1008830F3007308A00063
:1034400008007208F30073082000E8007108DB0030
:103450007008DA004030A100C830F3007308A00003
:103460000800A030883101209A317208883101208B
:103470009A317108883101209A3100308831012059
:1034800008002830883101209A31720888310120E3
:103490009A317108883101209A3100308831012039
:1034A00008002030883101209A31720888310120CB
:1034B0009A317108883101209A3100308831012019
:1034C00008002000DF019931A9219A315A30F0001B
:1034D0002330F1004030F4007408F2009A311122D8
:1034E0000800C4308600223087000030C03FC4305E
:1034F000F0002230F100F201F20A9E31AD26DF0128
:10350000DF0A0800C43086002230870020006408EB
:10351000C03FC430F0002230F100F201F20A9E31C7
:10352000AD26DF01DF0A080021002208F700770836
:103530002000E500C430F0002230F100F2019E319D
:10354000AD260230F7007708DF0008005A30F0009F
:103550002330F1004030F4007408F2009A31112257
:103560000030A500CC30F4007408A400DF0108008E
:1035700021000E1522000E100730F1001730F00068
:103580006A30890BC12AF00BC12AF10BC12A003223
:1035900022000E140800F301F40171087402031DE7
:1035A000D32A70087302031808001030F200943018
:1035B000890BD82AF20BD82A00320130F3070030E9
:1035C000F43DCD2AEC2A9A31612208009B319723E1
:1035D00008009931F421080021002108013A03195B
:1035E000E92A083A0319E62A033A0319E32AF82AD2
:1035F0000800C030883101209A31720888310120DA
:103600009A317108883101209A317308883101207C
:103610009A319C30F400D730890B0C2BF40B0C2B17
:1036200000000800F10121000E15F20122000E1029
:103630009931A2219B3122000E140310F10C2000BD
:103640000E19F1170130F0007008F207083072020D
:10365000031C162B71080800F50172087502031887
:10366000442B7508F300F401730870078600740892
:10367000713D8700010A03193F2B750808000130CE
:10368000F3007308F5072D2BFF300800803086000B
:103690002130870001030319512B8030860021302F
:1036A000870040302000A900281F5B2B8830F000E5
:1036B0007008A8000800C830F0007008A8000800D2
:1036C000F401F501701C682B7208F4077308F53DCE
:1036D0000130F235F30D890B692B0130F136F00C16
:1036E000890B6E2B70087104031D622B7508F100A5
:1036F0007408F0000800F10021000E11F201711CA5
:10370000842B22000E15862B22000E119931A22146
:103710009B3122000E100310F10C0E140130F0004A
:103720007008F20708307202031808007F2BA92BDB
:103730002000E701E70ADF01DF0A5A30F0002330FA
:10374000F10021002608F4007408F2009A312122C9
:10375000080021002208013A0319982B033A0319A3
:10376000982B063A0319982BB52B08005A3086007F
:1037700023308700423101080319C12B22000E15A6
:10378000C32B22000E115A308600233087004331AC
:1037900001080319CD2B0E14CE2B0E105A308600C3
:1037A00023308700443101080319D82B8E150800F7
:1037B0008E1108005A3086002330870042310108FC
:1037C000F3007308F700F80177087802031808007F
:1037D0007808F300F4015D30F5002330F60073083B
:1037E000750786007408763D8700010885318625B7
:1037F0009B310130F3007308F807E42B2100220805
:10380000F70077082000E4004030A9008030AA00CB
:103810002130AB008830F7007708A800C030AE0038
:103820002130AF004030F7007708AC001E303D007B
:103830009900C430F0002230F100F2019E31AD2633
:103840000230F7007708DF000800F100F2012100E4
:103850000E15F3010310F20D22000E140430890B33
:103860002F2C20000E19721422000E100430890B28
:10387000372C0130F0007008F30708307302031C86
:103880002B2C21000E1171080319492C22000E1552
:103890004B2C22000E110E140430890B4D2C2200EB
:1038A0000E100430890B522C72080800F501F60145
:1038B000700871040319852CF701F70AF11B6A2CB3
:1038C0000130F035F10D890B612C0130F4007408E2
:1038D000F7075E2C0130F535F60D890B6B2C71085E
:1038E0007302031D752C70087202031C7C2C700877
:1038F000F2027108F33B75140130F136F00C890BBC
:103900007D2C0130F702031D6A2C7608F100750842
:10391000F0000800730A03190800403088310120C4
:103920009C317208883101209C3171088831012056
:103930009C317308883101209C31F6015030890B8D
:103940009F2C2030883101209C3172088831012061
:103950009C317108883101209C3100308831012070
:103960009C31F4007408F50075087306031908000B
:103970000130F4007408F6073230760203180800AC
:103980009E2C5E080319D42C2030883101209C31F4
:103990007208883101209C317108883101209C31E6
:1039A000003088310120080071080139F30002302D
:1039B000F335FF3E031DD82C7335203888310120A4
:1039C0009C317208F4007108F3000930F436F30CEE
:1039D000890BE62C7308883101209C317208F400B1
:1039E0007108F300F436F30C7308883101209C3120
:1039F0000030883101200800F0004030240094009D
:103A000095012A3095001F2D0230920008000530E4
:103A1000920008000B309200080017309200080056
:103A20002F30920008003B3092000800773092005F
:103A30000800EF3092000800FE3092000800700885
:103A4000013A0319042D033A0319072D013A03190A
:103A50000A2D073A03190D2D013A0319102D033AC7
:103A60000319132D013A0319162D0F3A0319192DB5
:103A7000013A03191C2D3C2D0800963145269D3135
:103A80000030853186259D310030853186259D3178
:103A90000B30853186259D31C43086002230870069
:103AA00001309C3125249D31C03F00308531862571
:103AB0009D310030853186259D310C30853186253C
:103AC0009D3101309C3125249D31F500C5308600A3
:103AD00022308700750881000030853186259D31B0
:103AE0000030853186259D314C30853186259D31CC
:103AF00001309C312524F500C63086002230870035
:103B0000750881000800A52D9031642008009031CF
:103B1000D12008009031002008009A31942208003A
:103B20008931E12108009A31A62208009A318222C7
:103B300008009B31FE2308009A3171220800993158
:103B4000C121080099319821080021002108003A7C
:103B50000319842D013A0319872D023A03198A2D7E
:103B6000063A03198D2D033A0319902D013A0319D2
:103B7000932D0F3A0319962D013A0319992D033A03
:103B800003199C2D013A03199F2D073A0319A22D01
:103B9000C92D080022000E162000B9013908B03ED8
:103BA0008600013087000108B6003908A03E860073
:103BB0008701360881000130B6003608B9070830A1
:103BC0003902031CCE2D230030082000B60005303A
:103BD000B636890BE82D36080339B7003708B80028
:103BE000082E9D31832508009A31E2220800883191
:103BF000002008005A30F0002330F1004030B600B9
:103C00003608F2009A3111229D319931A92108001C
:103C10003808003A0319F12D013A0319F42D033A3B
:103C20000319F72DFA2D08007208F3007308E80055
:103C30007108DB007008DA004130720203183E2E72
:103C4000F6017208760203183C2E7608F300F401A0
:103C50007308700786007408713D87000108F5003D
:103C60007608203E8600023087007508810001300A
:103C7000F3007308F607212E72085A2EF601760813
:103C8000F300F4017308700786007408713D870023
:103C90000108F5007608203E86000230870075088E
:103CA00081000130F3007308F60740307602031CF0
:103CB0003F2E4030A5008830F3007308A4000800B0
:103CC00020005F03031D922E413068020318742EFA
:103CD0000230F7007708DF005A30F0002330F1009F
:103CE000F2019A3121220800241F842E5A08403EF6
:103CF000F00000305B3DF1006808C03EF700770837
:103D0000F2009E31142608005A08403EF0000030B0
:103D10005B3DF1006808C03EF7007708F2009E3175
:103D2000AD26080002305F06031D08006508031970
:103D30009E2E65083D0096002000E50122000E122F
:103D40002000DF015A30F0002330F1004030F7004E
:103D50007708F2009A31112208007208F300730804
:103D60002000E8007108DB007008DA0041307202C0
:103D70000318D82EF601720876020318D62E76089C
:103D8000F300F4017308700786007408713D870022
:103D90000108F5007608203E86000230870075088D
:103DA00081000130F3007308F607BB2E7208F42E71
:103DB000F6017608F300F4017308700786007408B2
:103DC000713D87000108F5007608203E860002302C
:103DD0008700750881000130F3007308F607403052
:103DE0007602031CD92E40302000A500C830F30015
:103DF0007308A40008005A3086002330870042313F
:103E00000108F4007408FC005A3086002330870053
:103E100043310108F4007408FB00FD017C08FF3EFB
:103E2000F400FF3003180030F5007508803A803C3C
:103E3000031D1C2F74087D020318342F00309C31A1
:103E400025249E31F4007D08C43EF500F6012230A1
:103E5000F63D7508860076088700740881000130F9
:103E6000F4007408FD070E2F7B089C312524F40014
:103E70007C08F500F601C330F7002230F800750821
:103E80007707F9007608783DFA00790886007A0805
:103E90008700740881000800C801C9010030490288
:103EA0000830031948020318652FC430BC002230C3
:103EB000BD0048083C07860049083D3D8700810158
:103EC0000130C8070030C93D4E2F08302000BC002B
:103ED0003C08E6000800C801C9015A3086002330BA
:103EE000870047310108BC00BD013D084902031DA0
:103EF0007B2F3C0848020318652F5C30BC00233040
:103F0000BD0048083C07860049083D3D8700010880
:103F1000883101209F312000BE00C430BF00223014
:103F2000C00048083F07C1004908403DC2004108A1
:103F30008600420887003E0881000130C807003033
:103F4000C93D6D2F5A308600233087004431010867
:103F5000013ED600003003180130D7005A308600E9
:103F600023308700463101080319FE2F5A3086009E
:103F70002330870041310108BC00BD015A30860062
:103F80002330870042310108BE00BF013E08BF0058
:103F9000BE013C083E07D8003D083F3DD900C8019E
:103FA000C9015A3086002330870045310108BC0022
:103FB000BD013D084902031DDF2F3C0848020318DC
:103FC000080048085807F1004908593DF2006230DE
:103FD000BC002330BD0048083C07860049083D3D31
:103FE00087000108BE003E08F3009A31F9229F3194
:103FF00001302000C8070030C93DD12F8D31CC2DB4
:020000040001F9
:04000E008439CF1F43
:00000001FF
