:100000006F10A04C1300000013000000130000004C
:100010001300000013000000130000001300000094
:100020001300000013000000130000001300000084
:08003000130000007300100032
:100038000000000000000000060300000A030000A2
:100048000000000010140000000000000000000084
:10005800121400001414000000000000000000004A
:1000680016140000000000000C030000000000004F
:100078001A1400001C1400001E14000020140000B4
:100088002214000024140000261400002814000084
:100098002A1400002C1400002E1400003014000054
:1000A8003214000034140000361400003814000024
:1000B8003A1400003C1400003E14000040140000F4
:1000C80042140000441400004614000048140000C4
:1000D8004A1400004C1400004E1400005014000094
:1000E8005214000054140000561400005814000064
:1000F8005A1400005C1400005E1400006014000034
:100108006214000064140000661400006814000003
:100118006A1400006C1400006E14000070140000D3
:1001280072140000741400007614000078140000A3
:100138007A1400007C1400007E1400008014000073
:100148008214000084140000861400008814000043
:100158008A1400008C1400008E1400009014000013
:1001680092140000941400009614000098140000E3
:100178009A1400009C1400009E140000A0140000B3
:10018800A21400009E080000A6140000A814000095
:10019800AA140000AC140000AE140000B014000053
:1001A800B2140000B4140000B6140000B814000023
:1001B800BA140000BC140000BE140000C0140000F3
:1001C800C2140000C4140000C6140000C8140000C3
:1001D8000000000000000000000000000000000017
:1001E8000000000000000000000000000000000007
:0801F8000000000000000000FF
:10020000397101436EC619A0397141536AC866CA73
:1002100062CC5ECE19A0397101535AD056D252D455
:100220004ED64AD826DA22DC06DE330161408282CD
:1002300041114AC026C222C406C68282B24D410183
:10024000024D924C224CB24B4101024B924A224A3F
:10025000B2494101024992442244B24041018280A4
:10026000EFF21FFD4111EF00F06485452145EF10CD
:10027000800F85454145EF10000FC1473EC60D4434
:10028000930700204C00371501407C8222C4EF0008
:10029000907E9305002037150140EF10600A930708
:1002A00080043EC64C0093070008371501407C824D
:1002B00022C4EF00507C2945EF00D065B7870020AD
:1002C00003A707C0B7271214938767986303F70241
:1002D0009305000837150140EF10E0058547631AC4
:1002E000F500B7E700E0116723A0E71023A0E7209F
:1002F00001A0ED200545D122B7E700E03707200037
:1003000023A4E71001A07300203001A0096802882F
:1003100001A0B71702409843B706FFF8136717000C
:1003200098C3D843758FD8C39843B706F7FEFD1618
:10033000758F98C39843B706FCFFFD16758F98C359
:10034000D843B70681FFFD16758FD8C39843B7060B
:1003500000ECFD16758F98C33707FF0098C723A6DA
:100360000702B746024003A706801367070123A0D0
:10037000E680D843B706C1FFFD16D8C3D843D8C31B
:10038000D84313670740D8C3D843758FD8C3D84321
:10039000B7060001D8C39843558F98C39843931666
:1003A0006700E3DD06FED843B7160240719BD8C351
:1003B000D84313672700D8C32147DC42B18BE39EA3
:1003C000E7FE828038313C212207BA9713978700D5
:1003D0001C310821BA97A2073E958280EFF25FE5B3
:1003E0000545EF1040010545EF00707B0545EF0026
:1003F00070790545EF00507C0545EF00907D05655F
:10040000854513050580EF003074A9B5B737024064
:1004100037072A00938707401307270598CB130750
:100420000004239CE70813070020239EE70823927B
:10043000E70A2394E70A2396E70A2398E70A138733
:100440008184D8CF1387810998D31387818898D75F
:10045000138781C898DB13878129F8CF138781A878
:10046000B8D7138781E8B8DB239C070C0947238D95
:10047000E70CA38D070C13070002A38FE70CA383DF
:10048000E70EA387E70E239E070C13072002238F96
:10049000E70C2394070E2385E70E2398070E238984
:1004A000E70E814713878108C1463306F700230012
:1004B00006008507E39BD7FE8280EFF27FD73734B3
:1004C000024039C599472300F4402945EF003041E7
:1004D000834704409304044093F7B70F2300F4408C
:1004E000C147A300F440A5472300F44093077002DE
:1004F0002301F440213F834704403707200093E75E
:1005000007012300F440B7E700E023A4E71099B304
:1005100099472300F4402945EF00703C834704408D
:100520003707200093F7B70F2300F440B7E700E048
:1005300023A4E718E9BFEFF21FCE914741113EC651
:10054000B737024003C7F74D1377C70FA38FE74CA8
:1005500003C7F74D1384810913672700A38FE74C66
:1005600003C74180938441802DE78147130600042F
:100570003307F4000C23138741821443BE968CA2E8
:100580008507E397C7FE1C43938707041CC31387A3
:1005900041831C43938707041CC303A70183639A09
:1005A000E700854793050020371501409CA0EF0028
:1005B0003059B737024003C7F74D1377C70FA38FE2
:1005C000E74C03C7F74D1377F70FA38FE74C4101B3
:1005D000ADB99305002037150140EF00B0561C203F
:1005E00021476361F71C05678A071307C760BA973D
:1005F0009C43828785660147938781299386C667D6
:10060000130600023385E6000821B385E7000507DD
:1006100088A1E319C7FE3707000898D3096798D760
:10062000F96698DB056723A20702D4D7D8DB98DFE9
:10063000D8DFB737024013070004239EE74C03C7F7
:10064000E74D1377C70F238FE74C03C7E74D1377A9
:10065000F70F238FE74CB9A213051400A533B7E7B2
:10066000FFF7AA9775672A8A138481296375F700B3
:10067000230004007DBF9964739004809149371969
:1006800002404EC6832749009384840893E70708F5
:100690002322F900EF00702B13051003EF00702DDB
:1006A0005285EF0010312AC6EF00D02B8327490076
:1006B00093F7F7F72322F90073900480B247E39988
:1006C00037FB85471CA0B5B79967739007809147A2
:1006D000130514003EC6FD31AA8913055400DD310F
:1006E000371702405C43AA843719002093E70708B4
:1006F0005CC3EF00902F13051003EF00902793F4D5
:1007000004F00144130989CD63968402EF00D02FD1
:10071000371702405C4393F7F7F75CC399679387F9
:10072000870873900780B247F11793B71700238C9F
:10073000F12801B7B305890033858900EF00702DDA
:1007400013040410D1B713051400AD39AA8413059E
:1007500054008D398547B7160020238CF1289386E5
:1007600086CD814713878129E385A7ECB385D70020
:10077000338697008C2110226385C5002300070073
:100780004DBD8507D5B7130514002D3923A8A182C7
:1007900023AA0182B7170020938787CD23A2F18275
:1007A00023800400B737024003C7F74D93050020AC
:1007B000371501401377C70FA38FE74C03C7F74DD9
:1007C0001377F70FA38FE74CEF00903709B51305A8
:1007D0001400CD3E23ACA18223AE0182B7170020C6
:1007E000938687CD23A4D18285462380D184014777
:1007F000938787CD93868129130600043385E7000C
:100800000821B385E600050788A1E319C7FEB737BD
:10081000024025B50145553113054006EF00900F04
:10082000B707EFBE37E700E0938707083CC79DBFD7
:100830009387018498233DC39386C183984213070D
:10084000070498C283A681836315D700238007001D
:1008500082809387818294431306000413870604E1
:1008600098C3014793878129B385E60003C5050432
:10087000B385E700050788A1E318C7FEB737024034
:10088000239EE74C03C7E74D1377C70F238FE74C31
:1008900003C7E74D1377F70F238FE74C82800111D1
:1008A00022CE3734024026CC4ACA4EC852C656C45D
:1008B0005AC21304044038243C341377F70F93765C
:1008C0002700638C062893F7F70F13F707036300DD
:1008D000071693060002631CD70093F7F7039306ED
:1008E00010026389D71063E5F6026386E706B7371F
:1008F000024009472385E740938707407244E2445A
:100900005249C249324AA24A124B05617300203053
:10091000130740026382E70E13076002E399E7FCC6
:100920008347240F93F7C70F93E727002309F40E9B
:100930008347240F93C787002309F40E9387810808
:10094000F8231377E70FF8A38347F40E93F7C70F45
:10095000A307F40E69BF9387C1819E239384C1814D
:10096000C207C18381E7A147A30DF40C83C7E181CE
:1009700093F70706ADFF83C78181154793F7F70FFC
:10098000638CE70419476392E7069E201307F00380
:10099000130400046365F700822042044180138938
:1009A000C182832909002286CE8513858184EF00C8
:1009B000B03A9E20A29923203901818FC207C183BA
:1009C0009EA0B7370240239C874C03C7A74D13470F
:1009D0008700238DE74C21BF03C70181B737024051
:1009E0001377F70FA381E74019B7B7370240239C6D
:1009F000074CF5BD353DE5BD8347A40E93F7C70F02
:100A000093E727002305F40E8347A40E93C78700BE
:100A10002305F40E93878108D8231377E70FD8A313
:100A20008347740E93F7C70FA303F40EC9B513F7EA
:100A3000F7038546630FD7082DC38D466301D70A98
:100A40009546E316D7EA93F70704E38207EA5A24A8
:100A50008347F40E420793C78700A307F40E83472A
:100A6000F40E418393F7C70F93E72700A307F40E13
:100A7000938681E88147138681C893950701C181D8
:100A800063E3E50CB73702402398E74E03C7274FCF
:100A90001377C70F2389E74E99BD5A2493F70704AC
:100AA00093160701C182E38407E483C7E18193873A
:100AB000C1819A23158F420741839AA39E23C207BF
:100AC000C183E39607E2231C040CA147230DF40C19
:100AD00039BD93F70704E38C07E0B13C09BD93F7F8
:100AE0000704E38607E05A248347740E420793C73E
:100AF0008700A303F40E8347740E418393F7C70F57
:100B000093E72700A303F40E938681A881471386F9
:100B1000818893950701C18163EDE500B7370240F5
:100B20002394E74E03C7A74E1377C70F2385E74EDD
:100B30007DBBB305F6008C213385F600850793C590
:100B4000F5FF0CA1F9B7B305F6008C213385F6004B
:100B5000850793C5F5FF0CA10DB793770702638E48
:100B6000074EA947230DF40CA30DF40C9387818441
:100B700098231386E18118A29833F6239385818107
:100B800098A1AA231387C18116A3938601828AA202
:100B9000CA239387A1818AA31C221389C181138A46
:100BA000E18193F707061386818413870182938678
:100BB000A181639D07289C21AD4593F7F70F63E75B
:100BC000F52885658A0793850563AE979C438287E0
:100BD0001E239946A183FD1793F7F70F9389C182CE
:100BE00063EAF60C85668A0793860666B6979C4389
:100BF000828785671387C76F83C7C76F23A0E90004
:100C000001440357090063F4E7002310F9008357F8
:100C100009001307F003930A00046367F700835A7F
:100C20000900C20A93DA0A0103AB0900568613854C
:100C30008184DA85DA9AEF00301223A059019307F4
:100C4000F00F6315F41419A4B737024083C6874028
:100C50008D8A054693877181138741816396C60209
:100C600094A39306002016A39C2305476313F70261
:100C700005671307C76D3C3323A0E9003823A2079B
:100C8000BA97C207C183ADBF238007009306000453
:100C9000D9BF05671307C76BF9BF1E23054793F735
:100CA000F70F6384E70299CB09476388E7020D4792
:100CB000638DE70281471304F00FA1B7138781808A
:100CC00023A0E90083C7818025BF8567138707714B
:100CD00023A0E90083C7077125B7856713870773CA
:100CE00023A0E90083C7077321BF85671387C774F3
:100CF00023A0E90083C7C77421B7856713870774EA
:100D000023A0E90083C70774E5BD93877181982309
:100D10008546639DE60205671307C76B20333C23B6
:100D2000856522043E94370500201306E4FF938571
:100D3000E56B13052502EF003002B707002093870B
:100D4000070223A0F900931704012DBF9C2393F7FA
:100D5000F70FADF305671307C76D20333C23856597
:100D600022043E94370500201306E4FF9385E56DC9
:100D700013052500EF00407EB7070020938707008A
:100D8000C9B71E2393F7F70F2388F18083470A0022
:100D900003570900E207E18763D0072A930700049D
:100DA00063E6E70083570900C207C18303570900C0
:100DB0001D8F420741832310E90037370240231C6F
:100DC000F74CA147230DF74C49A883C711811CA2FA
:100DD000035709008547E3FBE7FA2310F9007DB7C5
:100DE0001E2393F7F70FA388F18005472389E1803D
:100DF00071BF83470A00FD8B91EF1E23054793F7D0
:100E0000F70F6395E7049387618198231377E70FC2
:100E100098A3ADBF83470A000946FD8B6398C702BC
:100E20001A231377F70F1DE39A2215461377F70F4E
:100E30006302C706B7360240938606406364E60243
:100E400005466300C7040D466300C704B737024078
:100E50002D47238DE74CA38DE74CB737024013078E
:100E6000000249BC130640086303C702130660086A
:100E70006307C70213061008E31AC7FC238FF60C9A
:100E800031B7A38FF60C19B7A383F60E01B72385EC
:100E9000F60EEDBD37370240A307F74EC5BD2389D7
:100EA000F60EEDB583470A00FD8B9DE31E23054733
:100EB00093F7F70FE39CE7F8856783C7376C93F7E1
:100EC0000702C9D79387618198231367170089B7F1
:100ED00083470A000946FD8BE39AC7EA1E2393F76E
:100EE000F70FE39507EA9A229546B7370240137742
:100EF000F70F6304D7069387074063EFE600854644
:100F0000630FD7028D46E313D7F403C7770E136739
:100F10003700A383E70E9DBD930640086308D70200
:100F2000930660086302D70493061008E310D7F213
:100F300003C7E70D13673700238FE70C81BD03C795
:100F4000F70D13673700A38FE70C89B503C7A70E0A
:100F5000136737002385E70E15BD03C7F74E1367E8
:100F60003700A387E74E1DB503C7270F1367370068
:100F70002389E70E21BD2300060099BD83470A009F
:100F8000231006000947FD8B639DE7089E229546C6
:100F900093F7F70F638DD7063737024013070740E3
:100FA00063E2F60285466380D7048D466388D704E2
:100FB0001304F00F035709008947E3F2E7C8231031
:100FC000F900B5B9930640086380D704930660081A
:100FD0006386D70493061008E39CD7FC8347E70D8C
:100FE0008D8B0D4739A88347F70D0D4701448D8B35
:100FF000E392E7FC85471CA201446DBF0347770ECF
:101000000D8BE39BE7FEFDB78347A70ED1BFB73734
:1010100002409387074083C7F70ED9B78347270F4E
:10102000C1B783470A000144FD8BC9F783C76181BB
:10103000858BC9D318A2BDBF4207B7370240418391
:101040009387074019E7239C070C2147238DE70C62
:1010500029B52147A38DE70C09B5937717008DC3F8
:10106000A388018023880180238B0180238901804C
:10107000A3010400EFF08FB985473CA46FF01F88EF
:10108000937747008DC791473CA4183493876181BB
:10109000118B01CB98231367270098A39C236FF033
:1010A000FF8598231377D70F98A36FF03F8538A457
:1010B0006FF0DF84B707002083A7070437177A0093
:1010C00013070720B3D7E70293F7F70F2382F184C2
:1010D0001307803EB387E7022391F1848280B7F73C
:1010E00000E0D8438146799BD8C303C741843306C7
:1010F000A70290CBD4CB98431367070198C39843BA
:101100001367170298C3D843058B75DF9843799B03
:1011100098C38280B7F700E0D8438146799BD8C353
:1011200003D721843306A70290CBD4CB984313670F
:10113000070198C398431367170298C3D843058BD8
:1011400075DF9843799B98C38280B7076745372737
:101150000240938737125CC3B797EFCD9387B79A56
:101160005CC38280372702401C4B93E707081CCBE7
:101170008280B7270240C8C78280372702405C4779
:101180000545858B91E748474189133515000D05C5
:101190008280EFF2EF892A848544C5376318950071
:1011A00019E0154529A0D13F7D14CDBF7DD86FF042
:1011B0006F8AEFF2EF87AA8437050B00D93F91477A
:1011C0006313F502372402401C4837050B0093E7F0
:1011D00027001CC844C81C4893E707041CC8553F97
:1011E0001C48F59B1CC86FF0EF86B7066745B7270C
:1011F0000240938636123797EFCDD4C31307B79AC0
:10120000D8C3D4D3D8D38280EFF28F82A13F6FF0BE
:101210006F84372702401C4BC166137505F0D58FCC
:101220001CCB5C47858BF5FF372702405C47898BD9
:10123000F5FF3727024013060010B386F50003A818
:101240000600B306F50023A006015447898AF5FE7F
:101250009107E394C7FE1C4BB7062000D58F1CCB2B
:10126000B7270240D847058B75FF984BC176FD160E
:10127000758F98CB82809C4513F7070113F8F70010
:1012800001C7D8413368E8008E2113F7F50F39C341
:1012900018418146854E3D4F930F80029302800492
:1012A000214E3396DE00B3F8C50063111603939800
:1012B000260033131F011343F3FF3377E300B31802
:1012C000180133E7E800639FF70550C98506E39AE4
:1012D000C6FD18C11307F00F6375B70454412146CA
:1012E000854E3D4F930F800293028004414EB39888
:1012F000CE0033F715016392E80213172600011799
:101300003313EF001343F3FFB376D3003317E80032
:10131000D98E639DF701232A15010506E319C6FD41
:1013200054C18280E39457FA10C94DB7E39757FE32
:1013300023281501DDB708456D8D3335A000828067
:101340000CC982804CC9828099C5371702405C4B1A
:101350005D8D48CB8280B7170240D84B1345F5FF0F
:10136000798DC8CB828099C5371702401C4F5D8D9F
:1013700008CF8280B7170240984F1345F5FF798D4B
:1013800088CF8280B7170240D857B70600F9FD16FC
:10139000758FD8D7D8576205598DC8D78280B717AF
:1013A0000240D857B70600F8FD16758FD8D7D85722
:1013B0006E05598DC8D78280B7170240D857B70637
:1013C00000D0FD16758FD8D7D8577205598DC8D75C
:1013D000828009C9371702405C57B7060040D58F95
:1013E0005CD78280B7160240DC56370700C07D17F5
:1013F000F98FDCD68280371702405C577E0586075E
:1014000085835CD75C575D8D48D7828001A001A0A1
:1014100001A001A001A001A001A001A001A001A0C4
:1014200001A001A001A001A001A001A001A001A0B4
:1014300001A001A001A001A001A001A001A001A0A4
:1014400001A001A001A001A001A001A001A001A094
:1014500001A001A001A001A001A001A001A001A084
:1014600001A001A001A001A001A001A001A001A074
:1014700001A001A001A001A001A001A001A001A064
:1014800001A001A001A001A001A001A001A001A054
:1014900001A001A001A001A001A001A001A001A044
:1014A00001A001A001A001A001A001A001A001A034
:1014B00001A001A001A001A001A001A001A001A024
:1014C00001A001A001A001A001A097F1FF1F93813D
:1014D0006137176100201301E17217050000130541
:1014E000A52897F5FF1F9385E5B11386018163FA5F
:1014F000C5008322050023A0550011059105E3EAEC
:10150000C5FE13850181971500209385257D63779E
:10151000B500232005001105E36DB5FEFD42739073
:1015200002BCAD4273904280B76200009382820891
:1015300073A0023097F2FFFF938242B093E2320031
:1015400073905230EFE0FFDC97F2FFFF938282D17D
:101550007390123473002030B3C7A5008D8B33070E
:10156000C50081E78D4763EDC700AA87637EE50864
:10157000942185078505A38FD7FEE3EBE7FE8280E4
:1015800093763500AA8789CA942185078505A38F9C
:10159000D7FE93F63700C5BF9376C7FF138606FEC6
:1015A00063F0C70683A3050083A2450083AF8500CF
:1015B00003AFC50083AE050103AE450103A385015A
:1015C00083A8C5019385450223A0770003A8C5FF22
:1015D00023A2570023A4F70123A6E70123A8D701DC
:1015E00023AAC70123AC670023AE170193874702E4
:1015F00023AE07FF75B790419107910523AEC7FE53
:10160000E3EBD7FEE3E6E7F682800000F405000096
:1016100058060000C8060000A407000046070000A6
:10162000A407000086070000CE0700001408000091
:101630007C0F0000F20D00004C0E0000A40E000014
:101640004C0E0000820D0000D00B00004C0E00007C
:10165000CA0D0000E00D0000760F00008C0D0000A8
:10166000F20B0000480C00009A0C0000B40C0000C3
:10167000B40C0000FA0C00000A0D00005553422083
:1016800042554C4B20424F4F544C4F414445522001
:10169000323231313136000000000000000000001D
:1016A000000000000000000000000000000000003A
:1016B00000000000000000000000000009022000FF
:1016C000010100C0FA0904000002FFFFFF00070546
:1016D00001024000000705810240000009022000CD
:1016E000010100C0FA0904000002FFFFFF00070526
:1016F000010200020007058102000200120100023F
:10170000FFFFFF40861934000100010203010000C1
:1017100020037600690064006900650075006B00B5
:101720006800690065006E002E006F00720067009F
:101730000E035500530042002000480053000000F3
:101740000A060002FFFFFF40010000001603300000
:1017500039003800390036003900360039003700CA
:041760003100000054
:101764000907000000000000000000000000000065
:101774000000000000000000000000000000000065
:101784000907000000000000000000000000000045
:101794000000000000000000000000000000000045
:1017A400004495080100000004030904000000003F
:00000001FF
