:102000006F10301C130000001300000013000000CC
:102010001300000013000000130000001300000074
:102020001300000013000000130000001300000064
:08203000130000007300100012
:102038000020000000000000182800001C280000F4
:102048000000000008390000000000000000000047
:102058000A3900000C3900000000000000000000F0
:102068000E390000000000001E28000000000000DB
:102078001239000014390000163900001839000020
:102088001A3900001C3900001E39000020390000F0
:1020980022390000243900002639000028390000C0
:1020A8002A3900002C3900002E3900003039000090
:1020B8003239000034390000363900003839000060
:1020C8003A3900003C3900003E3900004039000030
:1020D8004239000044390000463900004839000000
:1020E8004A3900004C3900004E39000050390000D0
:1020F80052390000543900005639000058390000A0
:102108005A3900005C3900005E390000603900006F
:10211800623900006439000066390000683900003F
:102128006A3900006C3900006E390000703900000F
:1021380072390000743900007639000078390000DF
:102148007A3900007C3900007E39000080390000AF
:10215800823900008439000086390000883900007F
:102168008A3900008C3900008E390000903900004F
:10217800923900009439000096390000983900001F
:102188009A390000C42C00009E390000A0390000D4
:10219800A2390000A4390000A6390000A8390000BF
:1021A800AA390000AC390000AE390000B03900008F
:1021B800B2390000B4390000B6390000B83900005F
:1021C800BA390000BC390000BE390000C03900002F
:1021D80000000000000000000000000000000000F7
:1021E80000000000000000000000000000000000E7
:0821F8000000000000000000DF
:10220000397101436EC619A0397141536AC866CA53
:1022100062CC5ECE19A0397101535AD056D252D435
:102220004ED64AD826DA22DC06DE330161408282AD
:1022300041114AC026C222C406C68282B24D410163
:10224000024D924C224CB24B4101024B924A224A1F
:10225000B2494101024992442244B2404101828084
:10226000EFF21FFD4111EF10802785451145EF105A
:10227000C03E85452145EF10403E85454145EF1064
:10228000C03D930700208D4441494C003715014063
:102290007C824AC626C4EF10E02D93050020371536
:1022A0000140EF102039930780044C003EC63715DB
:1022B0000140930700087C8226C4EF10A02B29451B
:1022C000EF10E0273714014085674C00130504C068
:1022D0007C824AC626C4EF10E0298565130504C038
:1022E000EF108035930700024C00130504807C82B8
:1022F0004AC626C4EF100028930500021305048087
:10230000EF108033FD2B0545EF00A06DB7E700E02F
:102310003707200023A4E71001A0930780043305AA
:10232000F502B71700402392078237170040420595
:10233000418183574782E3EEA7FE8280EFF25FEF91
:102340002A8411E001BF1305401FC13F1305401F40
:10235000E9377D14FDB7EFF2BFED01118545114559
:10236000EF10A02F85454145EF10202F85451145E1
:10237000EF10803085473EC437140040C167FD1719
:102380002C00130504803EC623080100EF10604BAB
:10239000130504808545EF1060559305000437153B
:1023A0000140EF102029C1473ECE8D449307000421
:1023B0004C083715014037140140FC8226CCEF1041
:1023C000601B1305048093050020EF10A026D14761
:1023D0004C083ECE1305048093070020FC8226CCD7
:1023E000EF10401993040020232894800545B93745
:1023F00013054002232A94800D371304048004C877
:10240000056189BDEFF2DFE2411193050004371544
:102410000140EF1020229307000411498D444C0025
:10242000371501407C824AC626C437140140EF109C
:1024300060141305048093050020EF10A01F93077C
:1024400000204C00130504807C82371400404AC6EB
:1024500026C4EF10201213050480EF1000308145D0
:1024600013050480EF1080484101EDB3EFF25FDC0B
:102470000547238EE18E81461387C18F05481D468F
:1024800093780504850663830808B308D700238082
:10249000080106051375F50FE394C6FE854614A7DB
:1024A0009387C18F93060702054663D6050690B74A
:1024B00085078605E39BD7FE8146B71501401306C5
:1024C0000020B71700401303F0022D459308900237
:1024D0003308D700034E080013880580232AC8005C
:1024E00023920782630C0E0203DE4782E37EC5FF60
:1024F00023A8C5802392078203D84782E37E05FF85
:102500008506E39716FD0945093DA9B3B308D70031
:1025100023800800BDBFA384070059BF03DE4782A4
:10252000E37EC3FF23A8C5802392078203D8478296
:10253000E37E05FFF1B70547238EE18E054601478F
:102540009387C18F9D461378050405076304080E21
:102550003388E7002300C80006051375F50FE31460
:10256000D7FE23840700814637150140130600205B
:1025700037170040130EF0022D482543B388D700CB
:1025800083CE08009308058023AAC800231207827F
:1025900063870E0A835E4782E37ED8FF2328C580C7
:1025A0002312078283584782E37E18FF8506E3974C
:1025B00066FC37170140814613070780130300208C
:1025C000930E0020371600402D4E93080009938784
:1025D0004183130F0004232AD701231206820358D4
:1025E0004682E37E0EFF23286700231206820847F7
:1025F000130806801375052025C10358480233854A
:10260000D700890623100501E397E6FDEFF25FC2CC
:102610009386070401471D468A2306076364A600C4
:10262000136717008907E399D7FE98C10945F5316B
:1026300005450DB13388E7002300080031BF835EF4
:102640004782E37EDEFF2328C5802312078283585A
:102650004782E37E18FF99BF03554802E3F9A8F8C3
:1026600001458280EFF2DFBCA14741112A84AE848C
:10267000631DF60402C6B247B78572009385350222
:10268000B207DD8D130500023EC6CD33B70510003D
:102690009385350713051002D13BA2851145F93307
:1026A000B715230095055D45D1331304803E6C00BA
:1026B0005945513511C5B247139737016354070483
:1026C0007D1475F40145410171B6C1476315F600EB
:1026D00085473EC64DB7930700026314F60089474D
:1026E000CDBF930700046314F6008D47DDB7930751
:1026F0000008E316F6FE9147E9BF13750570133520
:102700001500D1B793F70770D5FFA6851145B93BE2
:10271000B71527009D055D45913B1304803E6C0075
:102720005945113D11C5324593173501E3D707FCD3
:102730007D1475F441BFEFF2BFAFA1474111AA84E8
:102740002E84631EF60402C6B247B7850200938545
:102750003530B207DD8D130500023EC6013BB705DB
:10276000100093853507130510020933A68511451E
:10277000F539B715270095055D45CD399304803EA1
:102780006C0059454D3B11C5B24713973701635F44
:102790000704FD14F5F4FD571CC00145B1A0C14765
:1027A0006315F60085473EC645B7930700026314DC
:1027B000F6008947CDBF930700046314F6008D47E8
:1027C000DDB793070008E316F6FE9147E9BFB2476D
:1027D00005451CC011A813F707705DFF6C0011457B
:1027E000993B75F5232004004101ADB413F7077040
:1027F00045F7B715220099055D458D399304803E54
:102800006C0059450D3B11C5B24713973701E3548E
:1028100007FCFD14F5F441B77300203001A00968EE
:10282000028801A0B71702409843B706FFF8136764
:10283000170098C3D843758FD8C39843B706F7FEDF
:10284000FD16758F98C39843B706FCFFFD16758F6C
:1028500098C3D843B70681FFFD16758FD8C3984338
:10286000B70600ECFD16758F98C33707FF0098C7B1
:1028700023A60702B746024003A706801367070195
:1028800023A0E680D843B706C1FFFD16D8C3D843BE
:10289000D8C3D84313670740D8C3D843758FD8C36C
:1028A000D843B7060001D8C39843558F98C39843BF
:1028B00093166700E3DD06FED843B7160240719B0E
:1028C000D8C3D84313672700D8C32147DC42B18B54
:1028D000E39EE7FE828038313C212207BA971397A6
:1028E00087001C310821BA97A2073E958280935732
:1028F000850088A19CB1935705016181BCA1A8B155
:102900008280EFF2FF920545EF00D0630545EF00AE
:10291000F05D0545EF00F05B0545EF00D05E054535
:10292000EF0010600565854513050580EF00105127
:102930006FF05F92B737024037072A00938707404E
:102940001307270598CB13070004239CE7081307F8
:102950000020239EE7082392E70A2394E70A2396A0
:10296000E70A2398E70A13870196D8CF1387011B3C
:1029700098D31387019A98D7138701DA98DB1387C6
:10298000013BF8CF138701BAB8D7138701FAB8DB38
:10299000239C070C0947238DE70CA38D070C130715
:1029A0000002A38FE70CA383E70EA387E70E239E05
:1029B000070C13072002238FE70C2394070E2385AF
:1029C000E70E2398070E2389E70E81471387011A24
:1029D000C1463306F700230006008507E39BD7FEB8
:1029E0008280EFF2FF843734024021C999472300E7
:1029F000F4402945EF0050318347044093040440DC
:102A000093F7B70F2300F440C147A300F440A54754
:102A10002300F440930770022301F440213F8347D1
:102A200004403707200093E707012300F440B7E78D
:102A300000E023A4E7106FF0FF8199472300F440E2
:102A40002945EF00702C834704403707200093F797
:102A5000B70F2300F440B7E700E023A4E718E1BF75
:102A6000EFF20FFD37340240411191473EC6130487
:102A700004408347F40D930500203715014093F778
:102A8000C70FA30FF40C8347F40D9384011B93E746
:102A90002700A30FF40CEF00303A9C201307300AF4
:102AA0006385E714636AF70A1307000A638AE70E6F
:102AB0006365F7060147B5EB91669387013B938603
:102AC000C6B4130600023385E6000821B385E7008B
:102AD000050788A1E319C7FE3707000898D30967DF
:102AE00098D798DBF9660567D8DB98DFD8DF23A293
:102AF000070213070004D4D7B7370240239EE74CE0
:102B000003C7E74D1377C70F238FE74C03C7E74D84
:102B10001377F70F238FE74C09A81307100A638474
:102B2000E7081307200A6383E708B737024003C7A3
:102B3000F74D93050020371501401377C70FA38F7A
:102B4000E74C03C7F74D1377F70FA38FE74CEF0060
:102B5000702E41016FF00FF01307500A6387E70AE8
:102B600063EEE7081307600A638EE70A1307F00FA6
:102B7000E39DE7FA0145B53513054006EF00301C2B
:102B8000B727121437870020938767982320F7C050
:102B9000B707EFBE37E700E0938707083CC771B778
:102BA000EFF06FFB59B7EFF0FF8541B713852400B5
:102BB0001D332AC488302C00EFF0FF979385013B2A
:102BC00088A122458505253393070004231EF40CB4
:102BD0008347E40D93F7C70F230FF40C8347E40DED
:102BE00093F7F70F230FF40C89B713852400E53111
:102BF000AA852AC48830EFF07F8705BF13851400AB
:102C0000D939D0302C00053E55BF13851400E13171
:102C10002A8413855400C1319034AA852AC42285A0
:102C2000913421B79C30371401408565130504C0E9
:102C300091CBEF0070209305000213050480EF0094
:102C4000B01FE5B5EF00101F9305000213050480C7
:102C5000EF00501ED9BD9387C18298233DC3938650
:102C6000818298421307070498C283A641826315A4
:102C7000D7002380070082809387C1819443130685
:102C800000041387060498C301479387013BB3856B
:102C9000E60003C50504B385E700050788A1E3182E
:102CA000C7FEB7370240239EE74C03C7E74D1377B3
:102CB000C70F238FE74C03C7E74D1377F70F238F19
:102CC000E74C8280011122CE3734024026CC4ACA1A
:102CD0004EC852C656C45AC21304044038243C3469
:102CE0001377F70F93762700638C062893F7F70F77
:102CF00013F707036300071693060002631CD7004F
:102D000093F7F703930610026389D71063E5F60281
:102D10006386E706B737024009472385E740938774
:102D200007407244E2445249C249324AA24A124B15
:102D3000056173002030130740026382E70E13071A
:102D40006002E399E7FC8347240F93F7C70F93E7EB
:102D500027002309F40E8347240F93C78700230914
:102D6000F40E9387011AF8231377E70FF8A383472C
:102D7000F40E93F7C70FA307F40E69BF9387418141
:102D80009E2393844181C207C18381E7A147A30D9C
:102D9000F40C83C7618193F70706ADFF83C70181F8
:102DA000154793F7F70F638CE70419476392E7061B
:102DB0009E201307F003130400046365F7008220CC
:102DC0004204418013890182832909002286CE852D
:102DD00013850196EF0090479E20A2992320390188
:102DE000818FC207C1839EA0B7370240239C874CC6
:102DF00003C7A74D13478700238DE74C21BF03C7A7
:102E00008180B73702401377F70FA381E74019B7E6
:102E1000B7370240239C074CF5BD353DE5BD8347E0
:102E2000A40E93F7C70F93E727002305F40E8347FB
:102E3000A40E93C787002305F40E9387011AD823A5
:102E40001377E70FD8A38347740E93F7C70FA30335
:102E5000F40EC9B513F7F7038546630FD7082DC3E2
:102E60008D466301D70A9546E316D7EA93F7070420
:102E7000E38207EA5A248347F40E420793C7870088
:102E8000A307F40E8347F40E418393F7C70F93E72C
:102E90002700A307F40E938601FA8147138601DA0F
:102EA00093950701C18163E3E50CB737024023988E
:102EB000E74E03C7274F1377C70F2389E74E99BD06
:102EC0005A2493F7070493160701C182E38407E4A9
:102ED00083C76181938741819A23158F420741837C
:102EE0009AA39E23C207C183E39607E2231C040C26
:102EF000A147230DF40C39BD93F70704E38C07E0D9
:102F0000853609BD93F70704E38607E05A24834713
:102F1000740E420793C78700A303F40E8347740E11
:102F2000418393F7C70F93E72700A303F40E93861B
:102F300001BA81471386019A93950701C18163ED18
:102F4000E500B73702402394E74E03C7A74E137737
:102F5000C70F2385E74E7DBBB305F6008C21338573
:102F6000F600850793C5F5FF0CA1F9B7B305F60088
:102F70008C213385F600850793C5F5FF0CA10DB7AD
:102F80009377070263800750A947230DF40CA30D24
:102F9000F40C9387019698231386618118A29833C5
:102FA000F6239385018198A1AA231387418116A353
:102FB000938681818AA2CA23938721818AA31C22B6
:102FC00013894181138A618193F70706138601965D
:102FD0001387818193862181639F07289C21AD45BA
:102FE00093F7F70F63E9F52891658A07938505B094
:102FF000AE979C4382871E239946A183FD1793F7C2
:10300000F70F9389018263EAF60C91668A0793862B
:1030100006B3B6979C43828791671387C7BC83C763
:10302000C7BC23A0E90001440357090063F4E7008B
:103030002310F900835709001307F003930A0004D3
:103040006367F700835A0900C20A93DA0A0103ABE7
:103050000900568613850196DA85DA9AEF00101F6B
:1030600023A059019307F00F6317F41429A4B7376D
:10307000024083C687408D8A05469387F180138777
:10308000C1806396C60294A39306002016A39C23D6
:1030900005476313F70211671307C7BA3C3323A030
:1030A000E9003823A207BA97C207C183ADBF2380C6
:1030B000070093060004D9BF11671307C7B8F9BF0B
:1030C0001E23054793F7F70F6386E70299CB09475D
:1030D000638AE7020D47638FE70281471304F00F0D
:1030E000A1B7B70700201387470423A0E90083C7CF
:1030F000470415BF9167138707BE23A0E90083C764
:1031000007BE15B79167138707C023A0E90083C7DF
:1031100007C011BF91671387C7C123A0E90083C708
:10312000C7C111B79167138707C123A0E90083C7FF
:1031300007C1D5BD9387F18098238546639DE6023C
:1031400011671307C7B820333C23916522043E94CE
:10315000370500201306E4FF9385E5B81305250223
:10316000EF00D00EB70700209387070223A0F900D5
:10317000931704011DBF9C2393F7F70FB9FF116745
:103180001307C7BA20333C23916522043E943705C8
:1031900000201306E4FF9385E5BA13052500EF0030
:1031A000F00AB707002093870700C9B71E2393F7DB
:1031B000F70F2384F18083470A0003570900E207D1
:1031C000E18763D0072A9307000463E6E70083578B
:1031D0000900C207C183035709001D8F42074183BD
:1031E0002310E90037370240231CF74CA147230D79
:1031F000F74C49A883C791801CA203570900854753
:10320000E3FBE7FA2310F9007DB71E2393F7F70FCE
:10321000A384F18005472385E18071BF83470A00BD
:10322000FD8B91EF1E23054793F7F70F6395E70496
:103230009387E18098231377E70F98A3ADBF834767
:103240000A000946FD8B6398C7021A231377F70F0C
:103250001DE39A2215461377F70F6302C706B736A8
:103260000240938606406364E60205466300C70495
:103270000D466300C704B73702402D47238DE74C46
:10328000A38DE74CB73702401307000279B4130649
:1032900040086303C702130660086307C7021306EA
:1032A0001008E31AC7FC238FF60C31B7A38FF60C76
:1032B00019B7A383F60E01B72385F60EEDBD373798
:1032C0000240A307F74EC5BD2389F60EEDB583472F
:1032D0000A00FD8B9DE31E23054793F7F70FE39C40
:1032E000E7F8916783C737B993F70702C9D7938780
:1032F000E18098231367170089B783470A000946BE
:10330000FD8BE39AC7EA1E2393F7F70FE39507EACD
:103310009A229546B73702401377F70F6304D70612
:103320009387074063EFE6008546630FD7028D461B
:10333000E313D7F403C7770E13673700A383E70EB1
:103340009DBD930640086308D70293066008630298
:10335000D70493061008E310D7F203C7E70D1367ED
:103360003700238FE70C81BD03C7F70D13673700C4
:10337000A38FE70C89B503C7A70E13673700238512
:10338000E70E15BD03C7F74E13673700A387E74E57
:103390001DB503C7270F136737002389E70E21BD2B
:1033A0002300060099BD83470A0023100600094741
:1033B000FD8B639DE7089E22954693F7F70F638D7B
:1033C000D706373702401307074063E2F602854607
:1033D0006380D7048D466388D7041304F00F035726
:1033E00009008947E3F0E7C82310F900A5B993065F
:1033F00040086380D704930660086386D704930669
:103400001008E39CD7FC8347E70D8D8B0D4739A847
:103410008347F70D0D4701448D8BE392E7FC854709
:103420001CA201446DBF0347770E0D8BE39BE7FEA3
:10343000FDB78347A70ED1BFB73702409387074038
:1034400083C7F70ED9B78347270FC1B783470A0051
:103450000144FD8BC9F783C7E180858BC9D318A2CE
:10346000BDBF4207B737024041839387074019E742
:10347000239C070C2147238DE70C29B52147A38DF9
:10348000E70C09B5937717008DC3A38401802384CB
:1034900001802387018023850180A3010400EFF0D0
:1034A0006FC985473CA46FF0DF87937747008DC7CE
:1034B00091473CA418349387E180118B01CB98236A
:1034C0001367270098A39C236FF0BF859823137779
:1034D000D70F98A36FF0FF8438A46FF09F84B707CD
:1034E000002083A7070437177A0013070720B3D7F4
:1034F000E70293F7F70F2388F1821307803EB38723
:10350000E7022397F1828280B7F700E0D843814633
:10351000799BD8C303C701833306A70290CBD4CBD2
:1035200098431367070198C398431367170298C31A
:10353000D843058B75DF9843799B98C38280B7F792
:1035400000E0D8438146799BD8C303D7E182330694
:10355000A70290CBD4CB98431367070198C3984335
:103560001367170298C3D843058B75DF9843799B7F
:1035700098C382809C4513F7070113F8F70001C731
:10358000D8413368E8008E2113F7F50F39C318418D
:103590008146854E3D4F930F800293028004214E59
:1035A0003396DE00B3F8C500631116039398260026
:1035B00033131F011343F3FF3377E300B3181801EC
:1035C00033E7E800639FF70550C98506E39AC6FD17
:1035D00018C11307F00F6375B70454412146854E97
:1035E0003D4F930F800293028004414EB398CE006A
:1035F00033F715016392E8021317260001173313FE
:10360000EF001343F3FFB376D3003317E800D98EEE
:10361000639DF701232A15010506E319C6FD54C170
:103620008280E39457FA10C94DB7E39757FE2328D9
:103630001501DDB70CC982804CC9828099C5371746
:1036400002405C4B5D8D48CB8280B7170240D84B5F
:103650001345F5FF798DC8CB828099C53717024095
:103660001C4F5D8D08CF8280B7170240984F1345DD
:10367000F5FF798D88CF828099C5371702405C4F5E
:103680005D8D48CF8280B7170240D84F1345F5FFB4
:10369000798DC8CF828099C5371702405C475D8D10
:1036A00048C78280B7170240D8471345F5FF798D88
:1036B000C8C7828099C5371702401C4B5D8D08CB67
:1036C0008280B7170240984B1345F5FF798D88CB60
:1036D0008280B7170240D857B70600F9FD16758FDC
:1036E000D8D7D8576205598DC8D78280B7170240FE
:1036F000D857B70600F8FD16758FD8D7D8576E057E
:10370000598DC8D78280B7170240D857B70600D066
:10371000FD16758FD8D7D8577205598DC8D78280B6
:1037200009C9371702405C57B7060040D58F5CD7F0
:103730008280B7160240DC56370700C07D17F98F2C
:10374000DCD68280371702405C577E05860785836A
:103750005CD75C575D8D48D78280EFE27FADB7378D
:103760000140138707C0631DE50005648545130507
:1037700004801537814513050480313F6FE09FAD0C
:10378000938707406318F50085450965293781450A
:103790000965E5B7B7570140138707C0631AE5000D
:1037A000854537050800C53D814537050800F1B757
:1037B000631AF500854537051000F13D8145370551
:1037C000100065BFB70700406319F5008545054542
:1037D000D53581450545F93D55B7938707406318B1
:1037E000F50085450945F93581450945EDB7B71718
:1037F0000040138707806318E500854511455D3D4E
:1038000081451145C9BF138707C06318E500854589
:1038100021454D35814521457DBF6318F50085451E
:103820004145493D814541457DB793870740E317B1
:10383000F5F4854513050002B53D814513050002E9
:1038400059BF1E2137370140930607C0C207C18305
:103850006300D504B7060040630CD502938606408A
:103860006308D502B7160040138606806302C502BE
:10387000938606C0630ED50013070740630AE50070
:1038800037570140930607C06304D5006316E5006F
:10389000BA2193F7F7F8D98F37170040630CE5008A
:1038A000130707406308E50093F7F7CFFA21C20733
:1038B000C183D98F1EA1DE215EB59E211EB5B7370B
:1038C0000140138707C0630EE50093870740630A32
:1038D000F500B7570140138707C06304E500631480
:1038E000F5009C251EB985475EA982801E2189C5E9
:1038F00093E717001EA18280C207C183F99BC2070C
:10390000C183CDBF01A001A001A001A001A001A021
:1039100001A001A001A001A001A001A001A001A09F
:1039200001A001A001A001A001A001A001A001A08F
:1039300001A001A001A001A001A001A001A001A07F
:1039400001A001A001A001A001A001A001A001A06F
:1039500001A001A001A001A001A001A001A001A05F
:1039600001A001A001A001A001A001A001A001A04F
:1039700001A001A001A001A001A001A001A001A03F
:1039800001A001A001A001A001A001A001A001A02F
:1039900001A001A001A001A001A001A001A001A01F
:1039A00001A001A001A001A001A001A001A001A00F
:1039B00001A001A001A001A001A001A001A001A0FF
:1039C00001A097D1FF1F9381E1E717410020130168
:1039D0006123170500001305252697C5FF1F938552
:1039E00065621386818063FAC5008322050023A0E7
:1039F000550011059105E3EAC5FE13858180938585
:103A0000015B6377B500232005001105E36DB5FE6A
:103A1000FD42739002BCAD4273904280B7620000D9
:103A20009382820873A0023097E2FFFF93820261C3
:103A300093E2320073905230EFE0DFDE97F2FFFF47
:103A4000938242827390123473002030B3C7A50072
:103A50008D8B3307C50081E78D4763EDC700AA87CB
:103A6000637EE508942185078505A38FD7FEE3EBE8
:103A7000E7FE828093763500AA8789CA942185075C
:103A80008505A38FD7FE93F63700C5BF9376C7FF92
:103A9000138606FE63F0C70683A3050083A24500D4
:103AA00083AF850003AFC50083AE050103AE4501BA
:103AB00003A3850183A8C5019385450223A0770050
:103AC00003A8C5FF23A2570023A4F70123A6E701FB
:103AD00023A8D70123AAC70123AC670023AE17018F
:103AE0009387470223AE07FF75B790419107910571
:103AF00023AEC7FEE3EBD7FEE3E6E7F682800000E5
:103B0000A63300001C32000076320000CE320000E6
:103B100076320000AC310000F62F00007632000053
:103B2000F43100000A320000A0330000B63100007A
:103B3000183000006E300000C0300000DA300000A5
:103B4000DA30000024310000343100004E48432DAB
:103B50004C696E6B2032333033303500000000008A
:103B60000000000000000000000000000000000055
:103B70000000000000000000000000000000000045
:103B8000000000000000000000000000090220000A
:103B9000010100C0FA0904000002FFFFFF00070551
:103BA00001024000000705810240000009022000D8
:103BB000010100C0FA0904000002FFFFFF00070531
:103BC000010200020007058102000200120100024A
:103BD000FFFFFF40861934000100010203010000CD
:103BE00020037600690064006900650075006B00C1
:103BF0006800690065006E002E006F0072006700AB
:103C00000E035500530042002000480053000000FE
:103C10000A060002FFFFFF4001000000160330000B
:103C200039003800390036003900360039003700D5
:043C3000310000005F
:103C34000907000000000000000000000000000070
:103C44000000000000000000000000000000000070
:103C54000907000000000000000000000000000050
:103C64000000000000000000000000000000000050
:083C7400004495080403090453
:0400000300002000D9
:00000001FF
