:0400000002002132A7
:01000B0032C2
:0100130032BA
:03001B000200954B
:06007A0075086C75096AAF
:0300920002001E4B
:03001E000200FFDE
:10009500C0E0C0D030851D859F0AD284C285C3E5E6
:1000A50008950A5005759B00800AC3E50A95095015
:1000B50003759B9B758DFE758B70D0D0D0E0327526
:1000C500891122AE82AF838E048F051EBEFF011FEC
:1000D500EC4D6013758CF8758A30C28DD28C308DDD
:1000E500FDC28CC28D80E022AE82AF838E048F0567
:1000F5001EBEFF011FEC4D70F32275A15575A1AA17
:1001050075B98675A1001201481200C45396FB53B8
:1001150097FB439A09438003D284539DFD759E0145
:10012500759B005396EF439710439D08D2ABD2AF12
:10013500758DFE758B70D28E12029712029812027F
:100145009F80FB5392FD439302C2915392EF4393D9
:10015500105390EF5396FE43970153B0FE5396FD0F
:0D01650043970243B00222D29122C29122A0
:100080007510007511007512007513007514007558
:02009000150059
:1001720085827685837785F07885750F85760C85FF
:10018200770D85780EE57524BF40317B00C3EB9572
:10019200755024EB2400F9E43400FAEB2576F8E4F8
:1001A2003577FCAF7888828C838FF0123692F8898B
:1001B200828A83F00B80D68575DD802C7F00EF2448
:1001C20000FDE43400FEEF2576FAE43577FBAC78E7
:1001D2008A828B838CF0123692FA8D828E83F00F94
:1001E200BF400040D975DD4075140075DC002285E2
:1001F200827685837785F07885750F85760C85778D
:100202000D85780EE57524BF40317B00C3EB9575F3
:100212005024EB2400F9E43400FAEB2576F8E435B7
:1002220077FCAF7888828C838FF0123692F88982BD
:100232008A83F00B80D68575DD802C7F00EF240049
:10024200FDE43400FEEF2576FAE43577FBAC788ADC
:10025200828B838CF0123692FA8D828E83F00FBFDE
:10026200400040D975DD4075140175DC402285825D
:100272000C85830D85F00E85750F75DC0222858253
:100282000C85830D85F00E85750F75DC822275DD78
:100292000075DC03222275E22943D1012210DA0221
:1002A20080012230D81C75E30075DD4075DC02C286
:1002B200D9C2D87E007F008EEC8FED7512007513C7
:1002C200002220D9012275DC0AE5D9540F60028090
:1002D20031AED95306307F00BE2008BF000512049C
:1002E2005B8041AED95306307F00BE3008BF0005A7
:1002F200120329802FE5D95430600280271203911E
:100302008022AED953060F7F00BE0118BF0015AE82
:10031200D95306307F00BE2008BF000512096B804A
:100322000312096AC2D92212016C7F00EF246CFD0C
:10033200E43401FEEF2400F582E43400F583E0FCAE
:100342008D828E83F00FBF080040E1900000E0FF35
:10035200530760E4C403CFC40354076FCF5407CFDD
:100362006FCF30E20244F8FEBF0002800ABF0102F2
:100372008008BF020B80060204FE02055202056ECF
:1003820075754090004075F0001202700202907480
:1003920001B515028003020443E50F24BF40437FE9
:1003A20000C3EF950F5022EF250CFCE4350DFDAE96
:1003B2000EEF2400F582E43400F583E0FB8C828D9D
:1003C200838EF012365A0F80D8E510600612170E8F
:1003D2007510007515027575009000D675F0000253
:1003E20001F17F00EF250CFCE4350DFDAE0EEF248C
:1003F20000F582E43400F583E08C828D838EF01266
:10040200365A0FBF400040DCE5DC30E71A74402565
:100412000CFDE4350DFEAF0EE50F24C0F5758D829F
:100422008E838FF00202707440250CFDE4350DFEC0
:10043200AF0EE50F24C0F5758D828E838FF0020218
:10044200807402B5151275150075754090004075DF
:10045200F00012027002016F227401B515028003CE
:100462000204DCE50F24BF4039750F0075150275D3
:10047200750090004075F000120280E5146011755D
:100482007500850C82850D83850EF0120172800F36
:10049200757500850C82850D83850EF01201F102BF
:1004A200016FE514601A7440250CFDE4350DFEAFB2
:1004B2000EE50F24C0F5758D828E838FF0020172D6
:1004C2007440250CFDE4350DFEAF0EE50F24C0F59A
:1004D200758D828E838FF00201F17402B5151CE5D1
:1004E2001260068512E3751200751500757540904D
:1004F200004075F00012027002016F2290016DE05F
:10050200FF24F3500122EF240A83F582EF241183A2
:10051200F583E4733033513651393C3F4245484B01
:100522004E05050505050505050505050505020533
:100532006F0205E302062802066D02068302090520
:1005420002091802092E0209440209590209692204
:1005520090016DE0FFBF0102800EBF09028006BF5D
:100562000A0902096C0209720209B1222290016C85
:10057200E0FF53071FBF0002800ABF0102801EBFB7
:10058200024D80329000D6E4F09000D7F0757502EB
:100592009000D675F0001201F1751501229000D677
:1005A200E4F09000D7F07575029000D675F0001255
:1005B20001F1751501229000D6E4F09000D7F07594
:1005C20075029000D675F0001201F17515012275C1
:1005D200754090004075F00012027075150002021D
:1005E2009090016CE0FF53071FBF00028005BF021D
:1005F2002280107575009000D675F0001201F17519
:100602001502227575009000D675F0001201F17581
:1006120015022275754090004075F00012027012AA
:10062200029075150022900000E0FF53071FBF00E3
:10063200028005BF022280107575009000D675F009
:10064200001201F1751502227575009000D675F041
:10065200001201F17515022275754090004075F087
:10066200001202701202907515002290016EE0F5E0
:10067200127575009000D675F0001201F175150221
:1006820022900173E0FE7F00900172E07C002FFF58
:10069200EC3EFE90016FE0FDBD01028014BD02023E
:1006A2008059BD0303020747BD22030208A10208C5
:1006B200F28F048E05C3EC9412ED940040047F1275
:1006C2007E007C007D00C3EC9FED9E5020EC24D682
:1006D200FAED3400FBEC24EAF582ED3436F583E4DE
:1006E200938A828B83F00CBC00DC0D80D9751501D6
:1006F2008F759000D675F0000201F18F048E05C34C
:10070200EC9422ED940040047F227E007C007D0068
:10071200C3EC9FED9E5020EC24D6FAED3400FBECA6
:10072200242FF582ED3437F583E4938A828B83F0AC
:100732000CBC00DC0D80D97515018F759000D67543
:10074200F0000201F190016EE0FD24FC500302086A
:100752008EED2D2D90075A730207660207B002072D
:10076200FA0208448F048E05C3EC9404ED94004011
:10077200047F047E007C007D00C3EC9FED9E502030
:10078200EC24D6FAED3400FBEC2451F582ED34373B
:10079200F583E4938A828B83F00CBC00DC0D80D954
:1007A2007515018F759000D675F0000201F18F0466
:1007B2008E05C3EC9418ED940040047F187E007CF3
:1007C200007D00C3EC9FED9E5020EC24D6FAED3460
:1007D20000FBEC2455F582ED3437F583E4938A82ED
:1007E2008B83F00CBC00DC0D80D97515018F7590E0
:1007F20000D675F0000201F18F048E05C3EC940E51
:10080200ED940040047F0E7E007C007D00C3EC9FCF
:10081200ED9E5020EC24D6FAED3400FBEC246DF56D
:1008220082ED3437F583E4938A828B83F00CBC002B
:10083200DC0D80D97515018F759000D675F0000218
:1008420001F18F048E05C3EC941AED940040047FED
:100852001A7E007C007D00C3EC9FED9E5020EC24AC
:10086200D6FAED3400FBEC247BF582ED3437F583C8
:10087200E4938A828B83F00CBC00DC0D80D9751561
:10088200018F759000D675F0000201F175754090E8
:10089200004075F00012027012029075150022904D
:1008A200016EE06001228F048E05C3EC9433ED9457
:1008B2000040047F337E007C007D00C3EC9FED9EF0
:1008C2005020EC24D6FAED3400FBEC24FCF582ED4A
:1008D2003436F583E4938A828B83F00CBC00DC0D02
:1008E20080D97515018F759000D675F0000201F15F
:1008F20075754090004075F00012027012029075FA
:1009020015002275754090004075F00012027012B9
:100912000290751500229000D6E513F075750190CE
:1009220000D675F0001201F17515012290016EE0FA
:10093200F5137575009000D675F0001201F175156A
:1009420002229000D6E4F07575019000D675F00091
:100952001201F1751501227575009000D675F0002F
:100962001201F1751502222222227515000202904F
:1009720090016EE0FFBF0102800ABF02028005BF44
:10098200042C8015751001751501900172E0F57542
:1009920090004075F00002028075100175150190FB
:1009A2000172E0F57590004075F000020280227538
:0E09B20015018511759000D675F0000201F157
:1036EA0012010002000000404843010001000102EB
:1036FA0003010600FF0901A101150026FF00750854
:10370A00850195070900B20201850295870900B271
:10371A0002018503957F0900B202018504953F09DC
:10372A0000B20201C00902220001010080FA090464
:10373A0000000103000000092101010001223300F9
:10374A00070581030800010403090418037A0068C5
:10375A00006900660065006E00670073006F00660E
:10376A000074000E0355005300420048004900440B
:10377A00001A03430048003500350078002D003157
:10378A0000390031003000320033006D6375507229
:10379A006F672076312E3020623138313233310072
:1009C000AF8275FC00EF24F65003020A1CEF240AE4
:1009D00083F582EF240E83F583E4731CEFF4F9FEB4
:1009E00003080D12170A090909090A0A0A0A0A75F1
:1009F000FB06802B75FB0C802675FB18802175FB90
:100A000030801C75FB60801775FBF0801275FBFE53
:100A1000800D75FBFE800875FBFE800375FBFE757F
:100A2000FA60228582F930FBFD85F98222AE82AF21
:100A300083758220C007C006120A23D006D0078F14
:100A400082C007C006120A23D006D0078E82120A7F
:100A500023758200020A23AE82AF83758220C0070D
:100A6000C006120A23D006D0078F82C007C0061224
:100A70000A23D006D0078E82120A23758200020A4A
:100A800023AE82AF83758228C007C006120A23D026
:100A900006D0078F82C007C006120A23D006D007EF
:100AA0008E82120A23758200020A23AE82AF8375FA
:100AB00082A0C007C006120A23D006D0078F82C0CA
:100AC00007C006120A23D006D0078E82120A2375A9
:100AD0008200020A23AE82AF8374FFB5180122752B
:100AE0008240C007C006120A23D006D0078F058DAA
:100AF00082C007C006C005120A23D005D006D00761
:100B00008E82C006C005120A23D005D00685188241
:100B1000C006C005120A23D005D0067F00758220CA
:100B2000C007C006C005120A23D0058D82C0051279
:100B30000A23D005D0068E82C006C005120A23758E
:100B40008200120A23AC82D005D006D007ECB5187B
:100B500001220FBF320040C522AE82AF837582C032
:100B6000C007C006120A23D006D0078F82C007C074
:100B700006120A23D006D0078E82120A2385198214
:100B8000120A2390000A0200C8AD82AE83AFF07C47
:100B9000007B00C3EB9575501FEB2DF8E43EF98FF9
:100BA00002888289838AF0123692F8B8FF028003A5
:100BB0008C82220B8B0480DB7582FF22AE82AF8396
:100BC0007D008D037C00C3EB951DEC951E40030258
:100BD0000C648D037C00EB30E032758248C007C0A6
:100BE00006C005C004C003120A23758200120A233E
:100BF000D003D0047575027576008B828C83123613
:100C0000AE120A23D005D006D0078030758240C0CE
:100C100007C006C005C004C003120A237582001273
:100C20000A23D003D0047575027576008B828C83FD
:100C30001236AE120A23D005D006D007ED251AFAD7
:100C4000E4351BFBAC1C8A828B838CF0123692F548
:100C500082C007C006C005120A23D005D006D007FF
:100C60000D020BC275824CC007C006120A23D006C3
:100C7000D007EFC313F582C007C006120A23D006BF
:100C8000D0078E04EFC313CC13CC8C82C007C006F0
:100C9000120A23758200120A23D006D007851D751B
:100CA000851A82851B83851CF0C007C006120B893C
:100CB000858220D006D00774FFB52002806E751F94
:100CC00000900001C007C0061200C8D006D007AAD5
:100CD000207B00EA30E0298E008F018A048B05EC2E
:100CE00028F8ED39C313C813C8F988828983C0076F
:100CF000C006120A81AD82D006D007BDFF34802322
:100D00008E048F05EA2CFCEB3DC313CC13CCFD8C79
:100D1000828D83C007C006120A57AD82D006D00765
:100D2000BDFF0F051F74F6251F50962290000A0282
:100D300000C822C294C2B0D2B1C2B122C294C2B021
:100D4000D2B1D29422AF824393207E00EF30E704E9
:100D5000D2958002C295900001C007C0061200ED36
:100D6000D2979000011200EDD006D007C2978F05F0
:100D7000ED2DFF0EBE080040D39000010200EDAF44
:100D8000827E00D2955393DF7D008E04EC2CFED240
:100D900097900001C007C006C0051200EDD005D035
:100DA00006D007309503430601C297900001C007A3
:100DB000C006C0051200EDD005D006D0070DBD0855
:100DC0000040C7439320EF6004D2958002C2959003
:100DD0000002C0061200EDD2979000011200EDC291
:100DE000979000011200EDD0068E8222120E4D75F2
:100DF0008200120D45758200120D4575820B120D91
:100E000045758201120D7FAF829000D6EFF075829A
:100E100000120D45758200120D4575820C120D45AC
:100E2000758201120D7FAF829000D7EFF0758200BE
:100E3000120D45758200120D4575824C120D4575D7
:100E40008201120D7FAF829000D8EFF022120D3395
:100E5000C295C29743932043938090000A1200C822
:100E6000120D3C90000A1200C8120D3390000A12B5
:100E700000C8120D3C90000A1200C8120D339000F9
:100E80000A1200C8120D3C90000A1200C8120D335D
:100E900090001E1200C8120D3C9000281200C812CB
:100EA0000D3390001E1200C8120D3C900014120069
:100EB000C8120D3390000A1200C8120D3C90000AAF
:100EC0001200C8120D339000141200C8120D3C908D
:100ED000000A1200C8120D339000141200C8120D3F
:100EE0003C90000A1200C875825A120D457582A501
:100EF000120D45758203120D4590000A0200C8903C
:100F00000042E0FF7E00C3EE9F50268E047D0074F9
:100F1000032CFCE43DFDEC2440F582ED3400F58328
:100F2000E0F582C007C006120D45D006D0070E803E
:100F3000D522900042E0FF900043E0F5217D008F34
:100F4000037C00EB24FFF9EC34FFFA8D007E00C334
:100F5000E899EE64808AF063F08095F05029ED24E2
:100F6000D6FAE43400FE758200C007C006C005C092
:100F700002120D7FA982D002D005D006D0078A8246
:100F80008E83E9F00D80B81BBBFF011CEB24D6FB60
:100F9000EC3400FC852182C004C003120D7FAF82B7
:100FA000D003D0048B828C83EFF022900042E0606B
:100FB00004D2958002C295900043E06004D29780ED
:100FC00002C297900044E06003020D33020D3C53CF
:100FD00093DFD29553937FD297C294C2B0D2B122FD
:100FE000900042E0FF900043E0FE7D008F037C0014
:100FF0001BBBFF011C8D017A00C3E99BEA64808C56
:10100000F063F08095F05065740429FBE43AFCEB42
:101010002440F582EC3400F583E0F582C007C00679
:10102000C005120D45D005D006D007C2957C00C37F
:10103000EC9E5019900001C007C006C005C0041204
:1010400000EDD004D005D006D0070C80E29000015E
:10105000C007C006C0051200EDD297900001120033
:10106000EDD005D006D007C2970D020FEC7404290D
:10107000F9E43AFAE92440F582EA3400F583E0F530
:1010800082C006120D45D006C2957F00C3EF9E5068
:1010900011900001C007C0061200EDD006D0070F66
:1010A00080EAD2959000011200EDD29790000112D3
:1010B00000EDC297225392DF4393202243902043B6
:1010C00092204393202253927F4393802243908027
:1010D000439280439380220000000000220200ED32
:1010E000D2971210CDD2950210BCAF82D297C00712
:1010F0001210C6D2951210B5D0078F2222AF82C02F
:10110000071210B5D0077E00EF30E004D2958002C0
:10111000C295C007C0061210D7D006D007C297EFFD
:10112000C313FFD2970EBE080040DD227F00C00728
:101130001210BCD0077E00C297C007C0061210D79D
:10114000D006D007D297EFA29513FF0EBE0800403D
:10115000E68F82221210BCC2979000641200C8D29F
:101160009722AD82AE83AFF0C007C006C005121053
:10117000BCC2971210D7D297900001E4F5F012107C
:10118000DD1210B5900006E4F5F01210DDC2959066
:101190000001E4F5F01210DDC2971210D7D297903B
:1011A0000001E4F5F01210DDC2971210D7D297902B
:1011B0000001E4F5F01210DDC2971210D7D297901B
:1011C0000001E4F5F01210DDC2971210D7D297900B
:1011D0000001E4F5F01210DD900006E4F5F01210C5
:1011E000DD1210BCD005D006D0077C017A007B0050
:1011F000C297C007C006C005C004C003C0021210D9
:10120000D7D297900001E4F5F01210DDD002D003A0
:10121000D004D005D006D0073095047C00800E0A9B
:10122000BA00010BC3EA9450EB94C340C3EC600EC8
:101230008D828E838FF0E412365A758200229000E0
:1012400006E4F5F0C007C006C0051210DD12112C2F
:10125000AC82900006E4F5F0C0041210DDC29712D3
:1012600010D7D297900001E4F5F01210DDD004D031
:1012700005D006D0078D828E838FF0740112365A06
:101280008C8222AF82C0071210BCC297900001E48A
:10129000F5F01210DDD297900001E4F5F01210DDA8
:1012A0001210B5900006E4F5F01210DDD295900012
:1012B00001E4F5F01210DDC297900001E4F5F012A0
:1012C00010DDD297900001E4F5F01210DDC2979086
:1012D0000001E4F5F01210DDD297900001E4F5F082
:1012E0001210DD900006E4F5F01210DDD0078F82B9
:1012F0001210FD900006E4F5F01210DDC297900088
:1013000001E4F5F01210DDD297900001E4F5F0123F
:1013100010DD0210BC1210BCC297900001E4F5F081
:101320001210DDD297900001E4F5F01210DD1210DA
:10133000B5900006E4F5F01210DDC295900001E4CE
:10134000F5F01210DDC297900001E4F5F01210DD07
:10135000D297900001E4F5F01210DDD295C297907B
:101360000001E4F5F01210DDD297900001E4F5F0F1
:101370001210DD900006E4F5F01210DD12112CAF12
:1013800082900006E4F5F0C0071210DDC2979000CD
:1013900001E4F5F01210DDD297900001E4F5F012AF
:1013A00010DDD0078F8222AF82C0071210BCC29717
:1013B000900001E4F5F01210DDD297900001E4F501
:1013C000F01210DD1210B5900006E4F5F01210DDF9
:1013D000D295900001E4F5F01210DDC29790000163
:1013E000E4F5F01210DDD297900001E4F5F0121050
:1013F000DDC295C297900001E4F5F01210DDD2979E
:10140000900001E4F5F01210DD900006E4F5F01212
:1014100010DDC297900001E4F5F01210DDD2979034
:101420000001E4F5F01210DDC297900001E4F5F040
:101430001210DDD297900001E4F5F01210DD90005B
:1014400006E4F5F01210DDD0078F821210FD1210A5
:10145000BC900006E4F5F01210DD7F007D007E00F8
:10146000C297900001E4F5F0C007C006C005121055
:10147000DDD297900001E4F5F01210DDD005D00622
:10148000D0073095047F01800E0DBD00010EC3ED25
:101490009450EE94C340C9900006E4F5F0C00712E2
:1014A00010DDC297900001E4F5F01210DDD29790A4
:1014B0000001E4F5F01210DD1210BCD0078F82227B
:1014C000AC82AD83AEF0FF852282C007C006C005A6
:1014D000C0041212837582071213A7D004D005D05E
:1014E00006D007C007C006C005C004121315E58268
:1014F000D004D005D006D00720E1E8C007C006C060
:1015000005C004121315E582D004D005D006D0071B
:1015100030E0E890002775F040C007C006C005C065
:1015200004121162AB82D004D005D006D007E527A3
:101530007003F58222BB0D028004758200228D8229
:10154000C007C006C005C0041213A7D004D005D040
:1015500006D007C007C006C005C004121315E582F7
:10156000D004D005D006D00720E1E88C821213A762
:10157000121315E58220E1F88523821213A71213B6
:1015800015E58220E1F87F00C3EF9523501FEF257A
:1015900024FCE43525FDAE268C828D838EF0123638
:1015A00092F582C0071213A7D0070F80DB12131524
:1015B000E58230E0F890002775F040121162AF82AA
:1015C000E5277003F58222BF0D0280047582002298
:1015D00075820122AC82AD83AEF0FF852282C00706
:1015E000C006C005C0041212837582061213A7D06C
:1015F00004D005D006D007C007C006C005C004123D
:101600001315E582D004D005D006D00720E1E8C04C
:1016100007C006C005C004121315E582D004D0052A
:10162000D006D00730E0E890002C75F040C007C02D
:1016300006C005C004121162AB82D004D005D006EA
:10164000D007E52C7003F58222BB0D028004758261
:1016500000228D82C007C006C005C0041213A7D0A7
:1016600004D005D006D007C007C006C005C00412CC
:101670001315E582D004D005D006D00720E1E88C10
:10168000821213A7121315E58220E1F88528821231
:1016900013A7121315E58220E1F8121315E5823025
:1016A000E0F890002C75F040121162AF82E52C70CA
:1016B00003F58222BF0D028004758200227F00C3E1
:1016C000EF95285045C007121315E582D00730E08A
:1016D000F4EF2529FCE4352AFDAE2B90002C75F0A3
:1016E00040C007C006C005C004121162AB82D0041E
:1016F000D005D006D0078C828D838EF0EB12365A3F
:10170000E52C7003F582220F80B5758201229000CE
:1017100040E0FFBF0102800DBF0203021B38BF047F
:1017200003022014227402B5160280030217BE9031
:101730000045E0FF7E008F308E2D8E2E8E2F900084
:1017400044E0FF7E008E048F05E4FE252DF52DEE8E
:10175000352EF52EED352FF52FEC3530F530900088
:1017600043E0FF7E007D008D048E058F06E4252D6D
:10177000F52DEE352EF52EED352FF52FEC3530F518
:1017800030900042E0FFE4FEFDFCEF252DF52DEE4C
:10179000352EF52EED352FF52FEC3530F530900048
:1017A00046E0F5287529D6752A008E2B852D828571
:1017B0002E83852FF0E5301215D47511802290000C
:1017C00041E0FFBF0800500122EF24F0500122EF5A
:1017D00024F8FF240A83F582EF240C83F583E47355
:1017E000BD5F8F528F6E16F0191923192318181721
:1017F0007E007F00EE24D6F582EF3400F583E4F01E
:101800000EBE00010F8E048F05C3EC9408ED94000A
:1018100040E2751108227E007F00900047E0FD7CC9
:1018200000C3EE9DEF9C5042EE24D6FCEF3400FD49
:101830008E028F0374022AFAE43BFBEA2440F5820D
:10184000EB3400F583E0F582C007C006C005C00494
:10185000120A23AB82D004D005D006D0078C828D2B
:1018600083EBF00EBE00B30F80B07511082290001C
:1018700043E0FF24F9500302191CEF2F2F90188129
:101880007302191C0218960218AE0218C40218DA64
:101890000218F0021906900042E0700975820112E8
:1018A00009C00219307582031209C0021930900074
:1018B00042E070087582021209C0807475820412B9
:1018C00009C0806C900042E070087582031209C064
:1018D000805E7582051209C08056900042E0700853
:1018E0007582041209C080487582061209C08040C2
:1018F000900042E070087582051209C0803275823E
:10190000071209C0802A900042E070087582061212
:1019100009C0801C7582081209C08014900042E042
:1019200070087582071209C080067582091209C005
:10193000900042E0600D751601C294C2B0D2B1C2EF
:10194000B1800B751600C294C2B0D2B1D294751199
:10195000082275FA00C294C2B0D2B175110022906B
:101960000043E0FE7F00900042E0FD7C002FFFEC92
:101970003EFE8F318E327E007F00EE24D6FCEF34A7
:1019800000FDEE2531F582EF3532F583C007C00644
:10199000C005C004120AABAB82D004D005D006D07B
:1019A000078C828D83EBF00EBE00010F8E048F0535
:1019B000C3EC9480ED940040C175118022E516605F
:1019C00003021ADA900044E0FF7E008E308F2F8EE3
:1019D0002D8E2E900043E0FF7E007D008D048E054D
:1019E0008F06E4252DF52DEE352EF52EED352FF550
:1019F0002FEC3530F530900042E0FFE4FEFDFCEFC7
:101A0000252DF52DEE352EF52EED352FF52FEC3558
:101A100030F530C313F530E52F13F52FE52E13F510
:101A20002EE52D13F52D852D31852E32852F2D8513
:101A3000302E8E2F8E30E52DF533601875824D12C5
:101A40000A23758200120A23853382120A237582C3
:101A500000120A237E007F008E048F05EC2CFCED23
:101A600033FDEC24D6FAED3400FBEE2531F582EFA0
:101A70003532F583C007C006C005C004C003C002EC
:101A8000120A57A982D002D003D004D005D006D0C4
:101A9000078A828B83E9F00CBC00010DEC24D6FC94
:101AA000ED3400FDEE2531F582EF3532F583C007C8
:101AB000C006C005C004120A81AB82D004D005D094
:101AC00006D0078C828D83EBF00EBE00010FC3EEB3
:101AD0009440EF9400505D021A58900043E0FE7F5E
:101AE00000900042E0FD7C002FFFEC3EFE8F318E27
:101AF000327E007F00EE24D6FCEF3400FDEE25316F
:101B0000F582EF3532F583C007C006C005C0041268
:101B10000A2DAB82D004D005D006D0078C828D83ED
:101B2000EBF00EBE00010F8E048F05C3EC9480ED28
:101B3000940040C1751180227402B5160280030220
:101B40001BE2900045E0FF7E008F308E2D8E2E8EA2
:101B50002F900044E0FF7E008E048F05E4FE252DCB
:101B6000F52DEE352EF52EED352FF52FEC3530F524
:101B700030900043E0FF7E007D008D048E058F06CF
:101B8000E4252DF52DEE352EF52EED352FF52FEC28
:101B90003530F530900042E0FFE4FEFDFCEF252DEE
:101BA000F52DEE352EF52EED352FF52FEC3530F5E4
:101BB00030900046E0F5237524477525008E268574
:101BC0002D82852E83852FF0E5301214C0E58260CA
:101BD000089000D67401F080059000D6E4F07511ED
:101BE0000022900044E0FF7E000FBF00010E8F3402
:101BF0008E35900046E06060900042E0FE7F0090ED
:101C00000041E0FD7C002FFFEC3EFE8F318E327EE6
:101C1000007F00900045E0FD7C00C3EE9DEF9C40FE
:101C20000122EE2531FCEF3532FD8E028F03740860
:101C30002AFAE43BFBEA2440F582EB3400F583E02A
:101C4000F5198C828D83C007C006120B59D006D0BF
:101C5000070EBE00BE0F80BB7401B5166090004237
:101C6000E0FE7F00900041E0FD7C002FFFEC3EFE97
:101C70008F318E327E007F00900045E0FD7C00C3F6
:101C8000EE9DEF9C400122EE2531FCEF3532FD8EBA
:101C9000028F0374082AFAE43BFBEA2440F582EB46
:101CA0003400F583E0F5188C828D83C007C00612DE
:101CB0000AD5D006D0070EBE00BE0F80BBAE34AF33
:101CC00035C374809EE49F5003021D5B900042E088
:101CD000FE7F00900041E07C002FFFEC3EFE8F3144
:101CE0008E32900045E0FF7E008534758535768F15
:101CF000828E83123631AE828E367E007F00AC3605
:101D00007D00C3EE9CEF9D400122853475853576BC
:101D10008E828F83C007C006123675AC82AD83D029
:101D200006D007EC2531F582ED3532F58374082CA9
:101D3000FCE43DFDEC2440FCED3400FD8C1A8D1BD1
:101D4000751C0085341D85351EC007C006120BBCEE
:101D5000D006D0070EBE00A60F80A3900045E0FF7E
:101D6000BF80028003021EA2900043E0FF7E008E2F
:101D7000308F2F8E2D8E2E900042E0FF7E007D0052
:101D80008D048E058F06E4252DF52DEE352EF52ECE
:101D9000ED352FF52FEC3530F530900041E0FFE4C4
:101DA000FEFDFCEF252DF52DEE352EF52EED352F14
:101DB000F52FEC3530F530C313F530E52F13F52F43
:101DC000E52E13F52EE52D13F52D852D31852E32BB
:101DD000E52FF533601875824D120A2375820012C3
:101DE0000A23853382120A23758200120A237E0099
:101DF0007F008E048F05EC30E02B758248C007C051
:101E000006C005C004120A23758200120A23D004FA
:101E1000D0058C02EDC313CA13CA8A82120A23D0DA
:101E200006D0078027758240C007C006C005C004E1
:101E3000120A23758200120A23D004D005EDC313C1
:101E4000CC13CC8C82120A23D006D0078E048F05C7
:101E500074082CFCE43DFDEC2440F582ED3400F5E3
:101E600083E0F582C007C006120A23D006D0070E11
:101E7000BE00010F8E048F05C3EC9480ED940050DA
:101E800003021DF275758090004875F000120B89F1
:101E900085823874FFB538028004753700227537A3
:101EA00001227E007F008E048F05EC30E02E7582CB
:101EB00048C007C006C005C004120A23758200127C
:101EC0000A23D004D0058C02EDC313CA13CA744090
:101ED0002AF582120A23D006D007802A758240C0D4
:101EE00007C006C005C004120A23758200120A2327
:101EF000D004D005EDC313CC13CC74402CF5821262
:101F00000A23D006D0078E048F0574082CFCE43D0C
:101F1000FDEC2440F582ED3400F583E0F582C00746
:101F2000C006120A23D006D0070EBE00010F8E0491
:101F30008F05C3EC9480ED94005003021EA67582B9
:101F40004C120A23853282120A23853182120A2317
:101F5000758200120A23E537601975758090004874
:101F600075F000120B89858238AF3874802FF538F0
:101F7000753700E537600302200E7E007F00900079
:101F800001C007C0061200C8D006D007AC387D00DB
:101F9000EC30E0327575027576008C828D83C00757
:101FA000C0061236AEAA82AB83A831A932EA28F85D
:101FB000EB39F988828983120A81AB82D006D00777
:101FC000BBFF028033227575027576008C828D838B
:101FD000C007C0061236AEAC82AD83AA31AB32EC7C
:101FE0002AFAED3BFB8A828B83120A57AD82D00618
:101FF000D007BDFF028001220EBE00010F8E048FAC
:1020000005C3EC940AED94005003021F7E22900059
:102010000A0200C8900041E0FFBF01030220C6BFD2
:10202000500122BF51030222DFBF52030222E8BF48
:1020300053030222F1BF5403022307BF55030223B7
:102040001DBF5603022326BF570302232FBF580389
:10205000022338BF5903022345BF5A03022361BF3D
:102060005B0302237DBF900302210FBF9103022176
:1020700016BF920302211DBF9303022124BF9403C4
:1020800002212BBF9503020FABBF9603020FE0BFE7
:10209000C003022135BFC1030210E0BFC203021119
:1020A00054BFC303022141BFC40302214FBFC50374
:1020B00002215CBFC603022181BFC90302219FBF69
:1020C000CA0302223F227E007F00EE24D6FCEF34BA
:1020D00000FD8E028F03EA2AFAEB33FB74022AFA20
:1020E000E43BFBEA247BF582EB3437F583E4938C05
:1020F000828D83F00EBE00010F8E048F05C3EC9419
:102100000CED940040C49000E2E4F07511402212FE
:102110000DEC75114022120FCF75110022120EFF27
:1021200075110022120F3275114022120E4D7511D9
:102130000022020FAB751602900042E0F5820210F9
:10214000EA121315AF829000D6EFF075114022907D
:102150000042E0F582121283751100229000397559
:10216000F040121162AF829000D7EFF0E5396008BD
:102170009000D67401F080059000D6E4F07511400F
:1021800022900042E0F5821213A7E58260089000D9
:10219000D67401F080059000D6E4F07511402290CD
:1021A0000045E0FF7E008F308E2D8E2E8E2F90000A
:1021B00044E0FF7E008E048F05E4FE252DF52DEE14
:1021C000352EF52EED352FF52FEC3530F53090000E
:1021D00043E0FF7E007D008D048E058F06E4252DF3
:1021E000F52DEE352EF52EED352FF52FEC3530F59E
:1021F00030900042E0FFE4FEFDFCEF252DF52DEED2
:10220000352EF52EED352FF52FEC3530F5309000CD
:1022100046E0F5287529D7752A008E2B852D8285F5
:102220002E83852FF0E5301215D4E58260089000EA
:10223000D67401F080059000D6E4F075114022902C
:102240000045E0FF7E008F308E2D8E2E8E2F900069
:1022500044E0FF7E008E048F05E4FE252DF52DEE73
:10226000352EF52EED352FF52FEC3530F53090006D
:1022700043E0FF7E007D008D048E058F06E4252D52
:10228000F52DEE352EF52EED352FF52FEC3530F5FD
:1022900030900042E0FFE4FEFDFCEF252DF52DEE31
:1022A000352EF52EED352FF52FEC3530F53090002D
:1022B00046E0F5237524477525008E26852D8285F9
:1022C0002E83852FF0E5301214C0E582600890005F
:1022D000D67401F080059000D6E4F075114022908C
:1022E000004275F0000223A990004275F00002251B
:1022F000A77551D675520075530090004275F000D5
:102300001229B2751140227557D6755800755900BB
:1023100090004275F000122A577511402290004239
:1023200075F0000226E790004275F00002280D903B
:10233000004275F000022C129000D675F000122EAB
:102340002C75114022900045E0F5647565D67566E0
:102350000075670090004275F000122E6375114001
:1023600022900045E0F5687569D6756A00756B00C6
:1023700090004275F000122FE675114022756F45EE
:1023800075700075710090004275F000023259229C
:1023900022AC8274052CF508EC24FBF50922E582B9
:1023A000FF04F508EF14F5092285823A85833B8501
:1023B000F03C123692FC9001767401F07B00C3EB86
:1023C0009C400122900176E0FA253AF8E4353BF989
:1023D000AF3C888289838FF0123692F8900174F0B6
:1023E000900176EA04F0900174E0FF24F9500302B2
:1023F00025A3EF2F2F9023F9730225A302240E02A9
:1024000024740224C00224CF02250902254290012F
:1024100076E0FF253AFAE4353BFDAE3C8A828D83B7
:102420008EF0123692FA900175F0900176EF04F07A
:10243000900175E0FF24FC50030225A3EF2F9024A8
:1024400042738006800F80188021C294D2B1C2B03E
:10245000D2940225A3C294D2B1C2B0C2B10225A3C4
:10246000C294D2B1C2B0D2B00225A3C294D2B1C23A
:10247000B00225A3900176E0FF253AFAE4353BFD52
:10248000AE3C8A828D838EF0123692FA900175F0FE
:10249000900176EF04F05392DF439320900175E0B2
:1024A00030E004D2958002C29553927F439380908E
:1024B0000175E030E105D2970225A3C2970225A35A
:1024C0005392DF5393DF53927F53937F0225A39060
:1024D0000176E0FF253AFAE4353BFDAE3C8A828D79
:1024E000838EF0123692900175F0900176EF04F031
:1024F000900175E0FF7E008F828E83C004C00312BE
:1025000000EDD003D0040225A3900176E0FF253A28
:10251000FAE4353BFDAE3C8A828D838EF012369212
:10252000900175F0900176EF04F0900175E0FF7E68
:10253000008F828E83C004C0031200C8D003D00471
:102540008061900176E0FFFD7E000DBD00010EED83
:10255000253AFDEE353BFEAA3C8D828E838AF01231
:102560003692FE7D00EF253AF8E4353BF9AA3C8827
:102570008289838AF01236927A002DFDEA3EC313D7
:10258000CD13CDC313CD13CD8D82C007C004C003BE
:1025900012239ED003D004D007900176EF04F0E020
:1025A0002401F00B0223BE85823D85833E85F03FEA
:1025B000123692FC9001777401F07B00C3EB9C40D3
:1025C0000122900177E0FA253DF8E4353EF9AF3F6E
:1025D000888289838FF0123692F8900178F090010A
:1025E0007B747F58F0900177EA04F0900178E02046
:1025F000E7030226A2900177E0FF253DFAE4353E8D
:10260000FDAE3F8A828D838EF012369290017EF06D
:10261000E4A3F0900177EF04F0E0FF253DFAE43504
:102620003EFDAE3F8A828D838EF012369290017904
:10263000F0E4A3F0900177EF04F0E0FF253DFAE429
:10264000353EFDAE3F8A828D838EF0123692FE7A41
:1026500000900179E0F9A3E0FD90017CE92AF0ED1A
:102660003EA3F0900177EF04F090017EE0FEA3E03E
:10267000FF90017BE0F5758E828F83C004C003124A
:102680002B38D003D00490017CE0FEA3E0FF7575E9
:10269000108E828F83C004C003122B38D003D00465
:1026A0008041900177E0FF253DFAE4353EFDAE3FE5
:1026B0008A828D838EF012369290017EF0E4A3F030
:1026C000900177EF04F090017EE0FEA3E0FF90011F
:1026D0007BE0F5758E828F83C004C003122B38D047
:1026E00003D0040B0225BC85824085834185F042DE
:1026F000123692FC74012540F9E43541FAAB428967
:10270000828A838BF0123692FB74022540F8E435FE
:1027100041F9AA42888289838AF0123692F87A00B7
:1027200074032540F9E43541FEAF4289828E838FE0
:10273000F0123692F989438A449001807404F07E45
:1027400000C3EE9C400122C0048B7588828A83C03E
:1027500006C004C003C002C000122B38D000D00253
:10276000D003D004D006900180E0FDFC7F000CBCBB
:1027700000010FEC2540FCEF3541F9AF428C828916
:10278000838FF0123692FC7F008C468F45ED2540FA
:10279000F9E43541FCAF4289828C838FF012369286
:1027A000F98947754800AF48E92545F9EF3546FFF7
:1027B000900181E9F0EFA3F0900180ED04F0E024B6
:1027C00001F0900181E0FDA3E0FF7575108D828F0F
:1027D00083C006C004C003C002C000122B38D00062
:1027E000D002D003D004D0068B7585438285448304
:1027F000C006C004C003C002C000122B38D000D0F5
:1028000002D003D004D0060ED004022741858249AD
:1028100085834A85F04B123692F54C74012549F9AF
:10282000E4354AFAAB4B89828A838BF0123692FBED
:1028300074022549F8E4354AF9AA4B888289838ACB
:10284000F0123692F87A0074032549F9E4354AFE0D
:10285000AF4B89828E838FF0123692F97F00900100
:10286000837404F07E00C001C007AD4C7F001DBD25
:10287000FF011F8E017C00C3E99DEC64808FF06333
:10288000F08095F0D007D00140030229628B758853
:10289000828A83C007C006C003C002C001C0001204
:1028A0002B38D000D001D002D003D006D007900141
:1028B00083E0FDC000C0028D027C000ABA00010C5A
:1028C000EA2549FAEC354AF8AC4B8A8288838CF0C9
:1028D000123692FA7C008A4E8C4DED2549F8E4358B
:1028E0004AFAAC4B88828A838CF0123692F8884F71
:1028F000755000AC50E8254DF8EC354EFC90018445
:10290000E8F0ECA3F0900183ED04F0E02401F090F6
:102910000184E0FCA3E0FD7575108C828D83C007F7
:10292000C006C003C002C001C000122B38D000D0C6
:1029300001D002D003D006D0078B7589828F83C067
:1029400007C006C003C002C001C000122B38D0006F
:10295000D001D002D003D006D0070ED002D00002A2
:1029600028668B7588828A83122B38900183E0FF5A
:10297000FD7E000DBD00010EED2549FDEE354AFE40
:10298000AC4B8D828E838CF0123692FE7D00EF254B
:1029900049FFE4354AFCAB4B8F828C838BF01236B7
:1029A000927C002DFDEC3EFE8D828E8375751002AB
:1029B0002B38AD82AE83AFF0123692FC74012DF944
:1029C000E43EFA8F0389828A838BF0123692F554A3
:1029D00074022DFDE43EFE8D828E838FF0123692BE
:1029E000FD8D55755600900186E4F07E00C3EE9C87
:1029F0005064C004855475855582855683C006C0D1
:102A000004122B38758210122B93A982AA83D0044A
:102A1000D006900186E0F82551FBE43552FCAF5317
:102A200089058B828C838FF0ED12365A900186E8EF
:102A300004F08A017A00E0FF2551FBE43552FCAD39
:102A4000538B828C838DF0E912365A900186EF0405
:102A5000F00ED004809722AD82AE83AFF012369292
:102A6000FC74012DF9E43EFA8F0389828A838BF08E
:102A7000123692FB74022DF8E43EF98F02888289A7
:102A8000838AF0123692F8885C755D0074032DFD20
:102A9000E43EFE8D828E838FF0123692FD8D5A7544
:102AA0005B00900187E4F07E00C3EE9C400122C0F1
:102AB000048B75855C82855D83C006C004C00312EB
:102AC0002B38D003D004758210C003122B93A98237
:102AD000AC83D003D006900187E0FF2557F55EE474
:102AE0003558F55F8559608905855E82855F8385E8
:102AF00060F0ED12365A900187EF04F08C017C00F3
:102B0000E0FF2557F8E43558FAAD5988828A838D5D
:102B1000F0E912365A900187EF04F08B75855A82DE
:102B2000855B83C006C004C003122B38D003D004D9
:102B3000D0060ED004022AA9858276858377539227
:102B40007F4393805392DF439320C295C2977A00CC
:102B50007B007C007D00A87579007E007F00C3EAC1
:102B600098EB99EC9EED9F5029E57630E004D295E4
:102B70008002C295D297E577C313C57613C576F563
:102B800077C2970ABA00090BBB00050CBC00C70D41
:102B900080C42285827553927F4393805392DF5382
:102BA00093DFD295C297900188E4F0A3F07B007C7C
:102BB000007D007E00A87579007A007F00C3EB9845
:102BC000EC99ED9AEE9F503ED297900188E0FAA3DF
:102BD000E0C313CA13CAFF900188EAF0EFA3F030F4
:102BE0009513900188E0FAA3E0FF430780900188E5
:102BF000EAF0EFA3F0C2970BBB00090CBC00050D77
:102C0000BD00B20E80AF900188E0FEA3E08E82F599
:102C1000832285826185836285F063123692FC90FF
:102C2000018A7401F07B00C3EB9C40012290018A71
:102C3000E0FA2561F8E43562F9AF63888289838F11
:102C4000F0123692F890018BF090018AEA04F0902D
:102C5000018BE0FF705890018AE0FE2561F9E435B0
:102C600062FAAD6389828A838DF012369290018C6C
:102C7000F0E4A3F090018AEE04F0E02561FEE43573
:102C800062FDAA638E828D838AF0123692FD7E00E9
:102C900090018CE0F9A3E0FAE92EF582EA3DF58394
:102CA000C004C0031200EDD003D004022E21BF01E6
:102CB0005890018AE0FE2561F9E43562FAAD638936
:102CC000828A838DF012369290018CF0E4A3F0900A
:102CD000018AEE04F0E02561FEE43562FDAA638E10
:102CE000828D838AF0123692FD7E0090018CE0F98D
:102CF000A3E0FAE92EF582EA3DF583C004C0031291
:102D000000C8D003D004022E21BF024F90018AE0F8
:102D1000FE2561F9E43562FAAD6389828A838DF01C
:102D200012369290018EF090018AEE04F0E0256157
:102D3000FEE43562FDAA638E828D838AF01236929C
:102D4000FE7D0090018EE0F5758E828D83C004C0FB
:102D500003122B38D003D004022E21BF03028003BC
:102D6000022E2190018AE0FF2561FAE43562FDAE72
:102D7000638A828D838EF012369290018EF09001DC
:102D80008AEF04F0E0FF2561FAE43562FDAE638A64
:102D9000828D838EF012369290018FF0E4A3F09032
:102DA000018AEF04F0E0FF2561FAE43562FDAE63CD
:102DB0008A828D838EF012369290018CF0E4A3F01B
:102DC00090018AEF04F0E02561FFE43562FEAD6317
:102DD0008F828E838DF0123692FE7F0090018CE000
:102DE000FAA3E0FDEA2FFFED3EFE90018FE0FAA38B
:102DF000E0FD90018EE0F5758A828D83C007C006E4
:102E0000C004C003122B38D003D004D006D00775FD
:102E100075108F828E83C004C003122B38D003D06C
:102E20000490018AE02401F00B022C27AD82AE83CE
:102E3000AFF07C00BC1200501AEC2DF9E43EFA8F82
:102E400003EC9037AA93F889828A838BF012365A62
:102E50000C80E1EC2DFDE43EFE8D828E838FF0E44C
:102E600002365AAD82AE83AFF0757504900000C093
:102E700007C006C005122B38D005D006D007740253
:102E80002DFAE43EFB8F048A828B838CF0123692FB
:102E9000FA7C007575088A828C83C007C006C0055D
:102EA000122B38D005D006D00775750890000EC0DB
:102EB00007C006C005122B38D005D006D00775759F
:102EC00004900000C007C006C005122B38D005D002
:102ED00006D007757510906EF8C007C006C00512C1
:102EE0002B38D005D006D007757504900000C007B8
:102EF000C006C005122B38D005D006D00774012DAE
:102F0000FAE43EFB8F048A828B838CF0123692FAAD
:102F10007C007575088A828C83C007C006C00512C4
:102F20002B38D005D006D00775750890000EC00765
:102F3000C006C005122B38D005D006D00775750421
:102F4000900000C007C006C005122B38D005D0067F
:102F5000D007757510906EF7C007C006C005122B1C
:102F600038D005D006D007757504900000C007C0A2
:102F700006C005122B38D005D006D0078D828E836F
:102F80008FF0123692FD7F007575088D828F831247
:102F90002B3875750890000E122B3875750490004B
:102FA00000122B38757510906EF6122B387F00C307
:102FB000EF95645030757504900009C007122B38E6
:102FC000758210122B93AE83D0078E057E00EF25FD
:102FD00065FAE43566FBAC678A828B838CF0ED1270
:102FE000365A0F80CA2285826C85836D85F06E7596
:102FF0007504900000122B38757510909EA6122B48
:1030000038757504900000122B38757510909CA6C9
:10301000122B387401256CFAE4356DFBAC6E790027
:10302000C3E99568400122757504900000C004C092
:1030300003C002C001122B38D001D002D003D0044B
:10304000856C82856D83856EF0123692F87F0089DB
:10305000057E00ED28F8EE3FFF88828F83757508A6
:10306000C004C003C002C001122B38D001D002D06E
:1030700003D00475750890000EC004C003C002C0E0
:1030800001122B38D001D002D003D0047575049002
:103090000000C004C003C002C001122B38D001D010
:1030A00002D003D004757510906EA9C004C003C08F
:1030B00002C001122B38D001D002D003D0047575A4
:1030C00004900000C004C003C002C001122B38D01D
:1030D00001D002D003D0048A828B838CF012369206
:1030E000FF7E007575088F828E83C004C003C00206
:1030F000C001122B38D001D002D003D0047575085E
:1031000090000EC004C003C002C001122B38D001D1
:10311000D002D003D004757504900000C004C00331
:10312000C002C001122B38D001D002D003D00475E8
:103130007510906EAAC004C003C002C001122B38E3
:10314000D001D002D003D004757504900000C004F3
:10315000C003C002C001122B38D001D002D003D06E
:10316000047575109080A6C004C003C002C001128F
:103170002B38D001D002D003D00475750490000024
:10318000C004C003C002C001122B38D001D002D04D
:1031900003D0047575109050A8C004C003C002C0CD
:1031A00001122B38D001D002D003D00475750490E1
:1031B0000000C004C003C002C001122B38D001D0EF
:1031C00002D003D004757510906EF5C004C003C022
:1031D00002C001122B38D001D002D003D004757583
:1031E00004900000C004C003C002C001122B38D0FC
:1031F00001D002D003D004757510900000C004C047
:1032000003C002C001122B38D001D002D003D00479
:10321000757504900002C004C003C002C001122BE7
:1032200038758210122B93AF83D001D002D003D017
:10323000048F067F00C002C003C004E92569F8E4DA
:10324000356AFCAD6B88828C838DF0EE12365A099C
:10325000D004D003D002023020858272858373852A
:10326000F074AA6FAB70AC718A828B838CF01236CB
:1032700092C313F9757504900000C004C003C00226
:10328000C001122B38D001D002D003D004757510C4
:10329000908EA6C004C003C002C001122B38D0011A
:1032A000D002D003D004757504900000C004C003A0
:1032B000C002C001122B38D001D002D003D0047557
:1032C0007510909CA6C004C003C002C001122B3828
:1032D000D001D002D003D004757504900000C00462
:1032E000C003C002C001122B38D001D002D003D0DD
:1032F0000474022572F8E43573FEAF7488828E83FD
:103300008FF0123692F87F0075750888828F83C01F
:1033100004C003C002C001122B38D001D002D00378
:10332000D00475750890000EC004C003C002C0012F
:10333000122B38D001D002D003D004757504900050
:1033400000C004C003C002C001122B38D001D0025B
:10335000D003D004757510906EF8C004C003C0028D
:10336000C001122B38D001D002D003D004757504EF
:10337000900000C004C003C002C001122B38D0016D
:10338000D002D003D00474012572FDE43573FEAF82
:10339000748D828E838FF0123692FD7F00757508D2
:1033A0008D828F83C004C003C002C001122B38D0AD
:1033B00001D002D003D00475750890000EC004C07F
:1033C00003C002C001122B38D001D002D003D004B8
:1033D000757504900000C004C003C002C001122B28
:1033E00038D001D002D003D004757510906EF7C0AC
:1033F00004C003C002C001122B38D001D002D00398
:10340000D004757504900000C004C003C002C00160
:10341000122B38D001D002D003D00485728285737C
:10342000838574F0123692FF7E007575088F828E48
:1034300083C004C003C002C001122B38D001D002E7
:10344000D003D00475750890000EC004C003C002FC
:10345000C001122B38D001D002D003D004757504FE
:10346000900000C004C003C002C001122B38D0017C
:10347000D002D003D004757510906EF6C004C0035E
:10348000C002C001122B38D001D002D003D004906A
:1034900001917403F07F00C002C003C00489057E5F
:1034A000001DBDFF011E8F007C00C3E89DEC648001
:1034B0008EF063F08095F0D004D003D00240030278
:1034C0003564C00175750490000DC007C004C003C9
:1034D000C002C001122B38D001D002D003D004D0DA
:1034E00007900191E0FE2AF8E43BF98C0588828977
:1034F000838DF0123692F87D0075750888828D8371
:10350000C007C006C004C003C002C001122B38D0DF
:1035100001D002D003D004D006D007900191EE0470
:10352000F0E0FE2AF8E43BF98C05888289838DF06F
:10353000123692F87D0075750888828D83C007C0A9
:1035400006C004C003C002C001122B38D001D00253
:10355000D003D004D006D007900191EE04F00FD034
:103560000102349775750490000FC004C003C002B7
:10357000122B38D002D003D004900191E0FF2AF939
:10358000E43BFD8C0689828D838EF0123692F97EA3
:103590000075750889828E83C007C004C003C0020D
:1035A000122B38D002D003D004D007900191EF0441
:1035B000F0E02AFFE43BFE8C058F828E838DF012B3
:1035C0003692FF7E007575088F828E83C004C0031B
:1035D000C002122B38D002D003D00474012AFDE4BB
:1035E0003BFE8C078D828E838FF012369260397588
:1035F0007503900000C004C003C002122B38D00233
:10360000D003D004D29774022AFAE43BFB8A828B5F
:10361000838CF0123692FA7F008A828F831200C860
:10362000C2979000051200ED757510900000022BF6
:013630003861
:1037AA004348353532204943535020323030363081
:0237BA003200DB
:103631007A10E4FBFCE58225E0F582E58333F5832E
:10364100EB33FBEC33FCEB9575F5F0EC957640062E
:09365100FCABF0438201DADD223A
:06005000E478FFF6D8FD84
:10002E007900E94400601B7A009037BC789275A085
:10003E0001E493F2A308B8000205A0D9F4DAF27530
:02004E00A0FF11
:10365A0020F71130F6138883A88220F509F6A8838B
:10366A007583002280FEF280F5F022E5828575F0EE
:10367A00A4C582C0F08576F0A4D0F025F0C5838574
:08368A0075F0A42583F58322ED
:100056007800E84400600A790075A000E4F309D846
:10006600FC7892E84401600C7902900000E4F0A369
:04007600D8FCD9FADF
:0D0021007581781236E6E582600302001E4C
:1036920020F71430F6148883A88220F507E6A88361
:1036A20075830022E280F7E49322E022C2D5E5830B
:1036B20030E70DD2D5E4C39582F582E49583F58394
:1036C200E57630E70DB2D5E4C39575F575E49576E8
:1036D200F57612363130D50BE4C39582F582E49546
:0836E20083F5832275820022AA
:00000001FF
