:1020000008EF2DF0000600FF0901A101150026FFD1
:10201000007508850195070900B2020185029587C0
:102020000900B202018503957F0900B2020185040F
:10203000953F0900B20201C024035000490043004B
:1020400031003800460032003500350030002D00E8
:102050003200300030003600320037000902220022
:10206000010100C032090400000103000000092141
:10207000010100012233000705810308000120034C
:102080007600690064006900650075006B006800F7
:10209000690065006E002E006F00720067001C036F
:1020A00056004E00500072006F002D0031003800C5
:1020B000460032003500350030006D637550726F98
:1020C000672076312E3020623138313031300012C5
:1020D0000100020000004086191F000100010203F8
:0620E000010403090400E5
:1056F600120012001200040EE82EFED71200898650
:105706009286898492841200928492869384928AE5
:105716001200000E056FCC0E046F120000F000F0B0
:1057260000F000F000F000F01200226E89869296DA
:105736008984929422C016F01200010E186E000E93
:10574600226E010E236E1FC024F04BEC30F01200C7
:10575600000E226E010E236E000E246E4BEC30F00E
:10576600020E186E120024C021F022C013F023C0CE
:1057760014F0400E0401016F880E006F120024C061
:1057860021F022C013F023C014F0400E0401016F73
:10579600C80E006F1200000E186E8CEC2BF0600E17
:1057A600226E236A400E246EB6EC2BF01200A00E79
:1057B60029EC2CF0275029EC2CF0265029EC2CF063
:1057C600000E29EC2CF01200280E29EC2CF02750A4
:1057D60029EC2CF0265029EC2CF0000E29EC2CF0AC
:1057E6001200200E29EC2CF0275029EC2CF0265024
:1057F60029EC2CF0000E29EC2CF012001DC000F153
:10580600000E226E010E236E010E246E4BEC30F05C
:10581600010E186E120003C01EF0000E226E010E5D
:10582600236E000E246E4BEC30F0020E186E120042
:1058360094908B90140E6F6E000E6D6E000E686E57
:10584600000E696E6D866DAA1200FDD7256E01D811
:1058560012000500FA6E0D50FD6E0E50FE6EF850E9
:10586600FF6EFA5025501200000E0101006F000E67
:10587600226E010E236E010E246E4BEC30F0010EEB
:10588600186E1200600E226E236A400E246EB6EC6D
:105896002BF0000E056FCC0E046F000E186E120072
:1058A60004019005D8A49051400E096F08AD03D0AD
:1058B600880E086F1200C80E086F12008B9494941D
:1058C6008B848A8693968A9893980F0EC16E1BECEA
:1058D6002CF056EC33F0FDD792848996070E236E92
:1058E600170E226E6A0EE82EFED7222EFCD7232E26
:1058F600FAD700D08986120062C024F0000E256E09
:1059060008D02550630FD96EDA6ADF501FEC2DF0F0
:10591600252A2450255CD8B01200F3D7000E226E3B
:105926009284000E236E899691EC2BF08986D8908E
:10593600223280B4228E232A070E2364F4D7225003
:10594600120022502402F3CF26F0F4CF27F0225083
:105956002502F350272623502402F350272626C07B
:1059660022F027C023F01200000E256E0AD0225026
:105976002524D96EDA6ADE28D8B402D02550120062
:10598600252A2350255CD8A0F2D7FF0E1200226EDE
:105996009294000E236E22A002D0898401D08994AD
:1059A60091EC2BF08996D89022328986232A070E0D
:1059B6002364F1D71200C00E29EC2CF0275029ECF5
:1059C6002CF0265029EC2CF0285029EC2CF09C0EBB
:1059D600296ED70EE82EFED7292EFCD700F012002E
:1059E60009D0CEEC2BF012004FEC2DF01200A0ECFB
:1059F6002BF012000250010AD8B4F9D7080AD8B41D
:105A0600F3D7030AD8A41200ECD701EE00F0960EE5
:105A1600EE6AE806FDE100EE60F0960EEE6AE80634
:105A2600FDE100EE01F0210EEE6AE806FDE1000E52
:105A3600F86E000161EF2CF0226E9294000E236E38
:105A460022AE02D0898401D08994040EE82EFED7B6
:105A56008986040EE82EFED78996D8902236232A08
:105A6600070E2364EDD7120000016251D8B402D0AC
:105A7600898401D089946351D8B402D0898601D033
:105A860089966451D8B404D08A94899A8A8412007B
:105A96008A94899A898A12000CD0010E206E010E12
:105AA600186E600E226E236A07C024F0C2EC2BF03B
:105AB60012000350010AD8B4F0D7030AD8B4EDD7C0
:105AC600060AD8A41200E9D7226E000E236E000E35
:105AD600246ED890233680B8238022AE02D08984E3
:105AE60001D0899400F0898600F000F08996D8905C
:105AF6002236242A070E2464ECD72350120003C052
:105B06001DF0400E096F800E0A6F210E0B6F880E76
:105B1600086FC00E0E6F210E0F6F400E0C6F1E0E1B
:105B2600716E000E226E010E236E000E246E4BEC7B
:105B360030F0020E186E1200226E000E236E000E5A
:105B4600246ED890233680B8238022AE02D0898472
:105B560001D0899400F000F0898600F000F000F092
:105B660000F0899600F0D8902236242A070E246485
:105B7600E8D723501200226E000E236E000E246E0C
:105B8600D890233680B8238022AE02D0898401D0F3
:105B96008994800EE82EFED78986000EE82EFED761
:105BA6008996800EE82EFED7D8902236242A070E34
:105BB6002464E6D723501200226E000E236E000ED8
:105BC600246ED890233680B8238022AE02D08984F2
:105BD60001D08994080EE82EFED78986100EE82E8D
:105BE600FED78996080EE82EFED7D8902236242AAC
:105BF600070E2464E6D723501200226E000E236E91
:105C0600000E246ED890233680B8238022AE02D0B0
:105C1600898401D08994100EE82EFED78986200E3D
:105C2600E82EFED78996100EE82EFED7D89022369B
:105C3600242A070E2464E6D723501200226E000E93
:105C4600236E000E246ED890233680B8238022AEB1
:105C560002D0898401D08994200EE82EFED7898649
:105C6600400EE82EFED78996200EE82EFED7D89055
:105C76002236242A070E2464E6D723501200226E09
:105C8600000E236E000E246ED890233680B8238033
:105C960022AE02D0898401D08994400EE82EFED728
:105CA6008986800EE82EFED78996400EE82EFED70E
:105CB600D8902236242A070E2464E6D723501200F1
:105CC600226E000E236E000E246ED890233680B806
:105CD600238022AE02D0898401D0899400F000F09E
:105CE60000F000F0898600F000F000F000F000F00F
:105CF60000F000F000F0899600F000F0D89022360F
:105D0600242A070E2464E1D723501200000E276EC2
:105D1600000E266E24502510D8B41CD0010E286E15
:105D260004D0D89024362536282A25AEFAD7D8901E
:105D3600263627362450225C25502358D8A005D075
:105D46002450225E2550235A2680D89025322432AC
:105D5600282EEDD726C022F027C023F01200226E8F
:105D6600000E236E9284000E246ED8902336898608
:105D7600040EE82EFED780B423808996040EE82E02
:105D8600FED7242A070E2464F0D792942250D8B462
:105D960002D0898401D08994080EE82EFED7898620
:105DA600040EE82EFED78996040EE82EFED7235061
:105DB60012002828D8B41200400E29EC2CF02750E7
:105DC60029EC2CF0265029EC2CF0285029EC2CF04C
:105DD600000E2A6E500EE82EFED7200E29EC2CF06F
:105DE600275029EC2CF0265029EC2CF0000E29EC3B
:105DF6002CF0296E28502918D8B412002A2A310E00
:105E06002A64E8D71200226E000E236E000E246E5E
:105E1600D890233680B8238022AE02D0898401D060
:105E2600899400F000F000F000F000F000F000F0BF
:105E360000F0898600F000F000F000F000F000F0BD
:105E460000F000F000F000F000F000F000F000F0CC
:105E560000F000F0899600F000F0D8902236242A4F
:105E6600070E2464D5D72350120086EC36F09C0E1C
:105E7600266ED70EE82EFED7262EFCD700F0000E93
:105E86001FEC2DF0000E1FEC2DF00B0E1FEC2DF06D
:105E9600010EB2EC2EF00101006F000E1FEC2DF08A
:105EA600000E1FEC2DF00C0E1FEC2DF0010EB2ECC7
:105EB6002EF00101016F000E1FEC2DF0000E1FECFD
:105EC6002DF04C0E1FEC2DF0010EB2EC2EF0010160
:105ED600026F120062C02DF063C02CF0000E2E6E11
:105EE6000BD0000E2E24D96EDA6A010EDA22000ECD
:105EF600B2EC2EF0DF6E2E2AFF0E256EFF0E266EFA
:105F06002D50276E286A25502726265028222E50E7
:105F1600296E2A6A2750295C2A50800A2B6E28503F
:105F2600800A2B58D8A0DDD7FF0E2D24D96EDA6A49
:105F3600000EDA222C50B2EC2EF0DF6E1200175053
:105F4600D8B40DD0200E29EC2CF0275029EC2CF0DB
:105F5600265029EC2CF0000E29EC2CF0120026C05D
:105F660028F0010E2816D8902836D8902836D890D2
:105F76002834200929EC2CF026C028F027C029F067
:105F8600090E2A6ED890293228322A2EFBD728509D
:105F960029EC2CF0D8902730296E2630286E285010
:105FA60029EC2CF0000E29EC2CF012008B80000E50
:105FB6002D6E100E2D24D96EDA6A040EDA222D50BB
:105FC600010FE16EE26ADFCFE7FF2D2A070E2D648F
:105FD600F0D71039E842070B030B2C6E13D0C9EC2F
:105FE60030F01200F3EC2CF012007CEC2BF01200D7
:105FF600600E226E236A400E246EB6EC2BF08CECFB
:106006002BF012002C50000AD8B4E9D7010AD8B4F4
:10601600E9D7030AD8B4E9D7EBD724C021F022C0C8
:1060260013F023C014F0410E246019D0000E256E23
:106036000FD025502224D96E000E2320DA6E500E82
:106046002524E16EE26A040EE222DFCFE7FF252A6D
:106056002450255CD8A0EDD724C005F416D0000E38
:10606600256E25502224D96E000E2320DA6E500E9E
:106076002524E16EE26A040EE222DFCFE7FF252A3D
:106086003F0E2564EED7400E056F880E046F120092
:1060960024C021F022C013F023C014F0410E246066
:1060A60019D0000E256E0FD025502224D96E000E71
:1060B6002320DA6E500E2524E16EE26A040EE222F7
:1060C600DFCFE7FF252A2450255CD8A0EDD724C0D2
:1060D60005F417D0000E256E25502224D96E000E29
:1060E6002320DA6E500E2524E16EE26A040EE222C7
:1060F600DFCFE7FF252A3F0E2564EED7400E0401C9
:10610600056FC80E0401046F12001804D8A428D025
:10611600410E21600AD0020E186E600E226E236AAE
:10612600000E246EC2EC2BF01200040104AD0CD05C
:10613600400E1324226E000E1420236E2150C00F31
:10614600246E10EC30F01200400E1324226E000E66
:106156001420236E2150C00F246E4BEC30F0120039
:10616600020E1818D8A412001E50D8B404D01EC0AF
:106176006EFF000E1E6E8B90000E186E600E226E65
:10618600236A400E246EB6EC2BF0120021D0A0EC50
:1061960031F01200ECEC31F012000EEC31F012008E
:1061A6000EEC2CF012005DEC38F0120045EC2CF0F1
:1061B600120001EC2CF0120082EC2DF0120037ECEC
:1061C6002CF01200ABEC2BF012007BEC2BF0120043
:1061D6000250000AD8B4DBD7010AD8B4DBD7020ACA
:1061E600D8B4DBD7060AD8B4DBD7030AD8B4DBD7D2
:1061F600010AD8B4DBD70F0AD8B4DBD7010AD8B462
:10620600DBD7030AD8B4DBD7010AD8B4DBD7070A31
:10621600D8A41200DAD710511F0B266E3CD0000E00
:10622600226E010E236E000E246E4BEC30F0020E31
:10623600186E120005500F0B2B6E0550800B276E43
:1062460003C028F0200E2A6E000E296E2B50080D72
:10625600F3502926F4502A222750D8B404D0040E2D
:106266002926000E2A222850D8A4D9D72B50D8B4D4
:10627600D6D729C0D9FF2AC0DAFF840EDF6ECFD762
:10628600400E016F880E006F000E056FCC0E046F76
:10629600000E186E12002650000AD8B4C0D7020AA3
:1062A600D8B4C8D7EDD7226E2DD0CE0E0D6E5A0EAD
:1062B6000E6E12003E0E0D6E5B0E0E6E1200C60EB8
:1062C6000D6E5C0E0E6E12000C0E0D6E5E0E0E6ED8
:1062D6001200BE0E0D6E5B0E0E6E1200000E0D6EDF
:1062E6005C0E0E6E1200420E0D6E5C0E0E6E1200ED
:1062F600840E0D6E5C0E0E6E12007C0E0D6E5B0E25
:106306000E6E12002250010AD8B4CFD7030AD8B4B1
:10631600D1D7010AD8B4D3D7070AD8B4D5D7010A3A
:10632600D8B4D7D7030AD8B4D9D7010AD8B4DBD79B
:106336000F0AD8B4DDD7010AE0D701501F0B266E2D
:106346003DD0000E0101006F000E016F000E226E9F
:10635600010E236E020E246E4BEC30F0010E186E09
:10636600120005500F0B276E0550800B286E200E6D
:106376002A6E000E296E2750080DF3502926F45078
:106386002A222850D8B404D0040E2926000E2A2228
:1063960029C0D9FF2AC0DAFFDFACD3D7010ED2D786
:1063A600600E226E236A400E246EB6EC2BF0000EB1
:1063B600186E000E056FCC0E046F12002650000AF0
:1063C600D8B4BFD7010AD8B4BCD7030AD8B4C9D742
:1063D600E7D701501F0B266E48D0000E226E010E25
:1063E600236E000E246E4BEC30F0020E186E120077
:1063F60005500F0B286E0550800B296E03C027F041
:10640600200E2B6E000E2A6E2850080DF3502A26F9
:10641600F4502B222950D8B404D0040E2A26000E9C
:106426002B222750D8A4D9D72850D8B4D6D729504C
:10643600D8B406D02AC0D9FF2BC0DAFF000E05D08B
:106446002AC0D9FF2BC0DAFF880EDF6EC6D7600ED2
:10645600226E236A400E246EB6EC2BF0000E056FFA
:10646600CC0E046F000E186E12002650000AD8B427
:10647600B4D7020AD8B4BCD7EAD71650B0EC34F079
:10648600070E68EC37F027EC34F0316E31B2FBD7EB
:1064960027EC34F0316E31A0FBD7340E266EC7ECF4
:1064A60035F0326E3450D8A402D0000E12000D0E14
:1064B6003218D8A4FAD72C5068EC37F027EC34F011
:1064C600316E31B2FBD72B5068EC37F027EC34F045
:1064D600316E31B2FBD72F5068EC37F027EC34F031
:1064E600316E31B2FBD7000E336E08D030503324F4
:1064F600D96EDA6ADF5068EC37F0332A2F50335CF6
:10650600D8A0F4D727EC34F0316E31A0FBD7340E87
:10651600266EC7EC35F0326E3450D8B4C6D70D0EA1
:106526003218D8A4C2D7010E120062C02BF063C085
:106536002CF0000E2E6E1CD02E50640FD96EDA6A27
:10654600DF501FEC2DF08994000E2D6E04D0040E42
:10655600E82EFED72D2A2C502D5CD8A0F8D7040E95
:10656600E82EFED78986040EE82EFED789962E2AB7
:10657600FF0E246EFF0E256E2B50266E276A2450C2
:106586002626255027222E50286E296A2650285C5A
:106596002950800A2A6E2750800A2A58D8A0CCD7BC
:1065A6002E50640FD96EDA6ADF501FEC2DF08994F5
:1065B600000E2D6E04D0040EE82EFED72D2A2C5088
:1065C6002D5CD8A0F8D78984040EE82EFED78986DC
:1065D600040EE82EFED7899612001650B0EC34F061
:1065E600060E68EC37F027EC34F0326E32B2FBD789
:1065F60027EC34F0326E32A0FBD7350E266EC7EC90
:1066060035F0336E3550D8A402D0000E12000D0EB0
:106616003318D8A4FAD72C5068EC37F027EC34F0AE
:10662600326E32B2FBD72B5068EC37F027EC34F0E1
:10663600326E32B2FBD72F5068EC37F027EC34F0CD
:10664600326E32B2FBD727EC34F0326E32A0FBD773
:10665600350E266EC7EC35F0336E3550D8B4D5D727
:106666000D0E3318D8A4D1D7000E346E16D027ECF1
:1066760034F0326E32A0FBD7350E266EC7EC35F0FD
:10668600326E34503024D96E000E3120DA6E32C0AC
:10669600DFFF3550D8B4B9D7342A2F50345CD8A090
:1066A600E6D7010E120068A203D0000E6A6E120031
:1066B60068AC02D0689C120068A803D068986D8206
:1066C600120068A403D068946D92120068AA04D0E0
:1066D6000401049D689A120068A01FD06896000EF7
:1066E600706E000E716E400E0401016F100E026F87
:1066F600040E036F880E006F500E066F040E076FB0
:10670600080E046F000E1E6E000E1D6E000E6E6EDD
:10671600000E686E160E706E120068A612006CCF20
:1067260040F0780E4016D8A413D06CA403D088ECA1
:1067360030F01CD004010041E8423F0B0F0B0D0A5C
:10674600D8A403D0D9EC2FF011D0BCEC33F00ED086
:106756006C38E8461F0B0F0BE806D8A407D06CA4CC
:1067660003D07DEC2BF002D053EC2CF068966D989C
:1067760012001804D8A459D0410E216028D0000E6A
:106786003F6E0FD0100E3F24D96EDA6A040EDA225D
:106796003F501324E16E000E1420E26EDFCFE7FFB8
:1067A6003F2A21503F5CD8A0EDD72050D8B404D062
:1067B600B7EC39F0000E206E020E186E000E226E37
:1067C600010E236E000E246E4BEC30F01200000E0C
:1067D6003F6E100E3F24D96EDA6A040EDA223F505D
:1067E6001324E16E000E1420E26EDFCFE7FF3F2A8E
:1067F6003F0E3F64EED700AD0CD0400E1324226E40
:10680600000E1420236E2150C00F246EB6EC2BF020
:106816001200400E1324226E000E1420236E215007
:10682600C00F246EC2EC2BF01200020E1818D8A46A
:1068360012008B90000E186E600E226E236A400EB8
:10684600246EB6EC2BF0120092848996010E226E0D
:10685600000E236E000E246E000E256E7EEC2BF0CD
:106866008986010E226E000E236E000E246E000E27
:10687600256E7EEC2BF09294060E226E000E236E91
:10688600000E246E000E256E7EEC2BF08994010E10
:10689600226E000E236E000E246E000E256E7EEC18
:1068A6002BF08996010E226E000E236E000E246ECA
:1068B600000E256E7EEC2BF08986010E226E000EF0
:1068C600236E000E246E000E256E7EEC2BF089845E
:1068D6008996010E226E000E236E000E246E000EA7
:1068E600256E7EEC2BF08986010E226E000E236E3D
:1068F600000E246E000E256E7EEC2BF0060E226E28
:10690600000E236E000E246E000E256E7EEC2BF01C
:1069160091EC2CF0266E060E226E000E236E000EF3
:10692600246E000E256E7EEC2BF08996010E226EEB
:10693600000E236E000E246E000E256E7EEC2BF0EC
:106946008986010E226E000E236E000E246E000E46
:10695600256E7EEC2BF026501200266E92848996C8
:10696600010E226E000E236E000E246E000E256EA2
:106976007EEC2BF08986010E226E000E236E000E31
:10698600246E000E256E7EEC2BF09294060E226E7F
:10699600000E236E000E246E000E256E7EEC2BF08C
:1069A6008984010E226E000E236E000E246E000EE8
:1069B600256E7EEC2BF08996010E226E000E236E5C
:1069C600000E246E000E256E7EEC2BF08986010EDD
:1069D600226E000E236E000E246E000E256E7EECD7
:1069E6002BF08996010E226E000E236E000E246E89
:1069F600000E256E7EEC2BF08986010E226E000EAF
:106A0600236E000E246E000E256E7EEC2BF0060E15
:106A1600226E000E236E000E246E000E256E7EEC96
:106A26002BF02650CAEC2CF0060E226E000E236EBA
:106A3600000E246E000E256E7EEC2BF08996010E5C
:106A4600226E000E236E000E246E000E256E7EEC66
:106A56002BF08986010E226E000E236E000E246E28
:106A6600000E256E7EEC2BF092841200000E326E24
:106A76001FD032A00BD0480E29EC2CF0000E29ECCA
:106A86002CF0D890323029EC2CF00AD0400E29ECAC
:106A96002CF0000E29EC2CF0D890323029EC2CF09A
:106AA6002A503224D96EDA6ADF5029EC2CF0322AC9
:106AB60032502D6E2E6A2B502D5C2C502E58D8A09D
:106AC600D8D74C0E29EC2CF028C02DF029C02EF07A
:106AD600090E2F6ED8902E322D322F2EFBD72D5029
:106AE60029EC2CF0D89029302E6E28302D6E2D50A2
:106AF60029EC2CF0000E29EC2CF02AC022F02BC039
:106B060023F0B7EC2CF0316E3128D8B434D0000E17
:106B1600326E100E2D6E940EE82EFED72D2EFCD75B
:106B260000D031A013D0315028242D6E000E29201C
:106B36002E6ED8902E302F6E2D30266E2FC027F059
:106B4600E7EC2BF0FF0AD8A4120010D0315028240D
:106B56002D6E000E29202E6ED8902E302F6E2D30E1
:106B6600266E2FC027F0F4EC2BF0ECD7322A090E54
:106B76003264CFD712009C0E2D6ED70EE82EFED7AC
:106B86002D2EFCD700F012009284899691EC2BF002
:106B96008986010E226E000E236E000E246E000EF4
:106BA600256E7EEC2BF09294060E226E000E236E5E
:106BB600000E246E000E256E7EEC2BF08994010EDD
:106BC600226E000E236E000E246E000E256E7EECE5
:106BD6002BF0899691EC2BF08986010E226E000E21
:106BE600236E000E246E000E256E7EEC2BF0899629
:106BF60091EC2BF08986010E226E000E236E000E9C
:106C0600246E000E256E7EEC2BF0899691EC2BF00F
:106C16008986010E226E000E236E000E246E000E73
:106C2600256E7EEC2BF0899691EC2BF08986010E71
:106C3600226E000E236E000E246E000E256E7EEC74
:106C46002BF0060E226E000E236E000E246E000E32
:106C5600256E7EEC2BF09284010E286E000E2A6EB5
:106C6600000E296E899691EC2BF08986010E226E14
:106C7600000E236E000E246E000E256E7EEC2BF0A9
:106C860080A403D0000E286E08D0294A2A2A500E66
:106C9600295CC30E2A58D8A0E5D72850D8B407D007
:106CA6002650D96EDA6A000EDF6E000E1200060E4E
:106CB600226E000E236E000E246E000E256E7EECF4
:106CC6002BF091EC2CF0276E060E226E000E236E32
:106CD600000E246E000E256E7EEC2BF0899691EC4C
:106CE6002BF08986010E226E000E236E000E246E96
:106CF600000E256E7EEC2BF02650D96EDA6A010E58
:106D0600DF6E275012008A94899A8A84899489961C
:106D1600929492969C0E246ED70EE82EFED7242EC1
:106D2600FCD700F08A94899A9394929A8A94899AC5
:106D3600898A9C0E246ED70EE82EFED7242EFCD709
:106D460000F08A94899A8A849C0E246ED70EE82EC7
:106D5600FED7242EFCD700F08A94899A898A9C0E45
:106D6600246ED70EE82EFED7242EFCD700F08A9488
:106D7600899A8A849C0E246ED70EE82EFED7242E7E
:106D8600FCD700F08A94899A898A9C0E246ED70EC5
:106D9600E82EFED7242EFCD700F08A94899A8A849E
:106DA600020E256ED40E246E850EE82EFED7242EF6
:106DB600FCD7252EFAD700F08A94899A898A030E81
:106DC600256E700E246E5C0EE82EFED7242EFCD7A0
:106DD600252EFAD700D08A94899A8A84020E256EC7
:106DE600D40E246E850EE82EFED7242EFCD7252E33
:106DF600FAD700F08A94899A898A020E256E380E8F
:106E0600246EAD0EE82EFED7242EFCD7252EFAD7FB
:106E160000F08A94899A8A849C0E246ED70EE82EF6
:106E2600FED7242EFCD700F08A94899A898A9C0E74
:106E3600246ED70EE82EFED7242EFCD700F08A94B7
:106E4600899A8A84020E256E380E246EAD0EE82EBF
:106E5600FED7242EFCD7252EFAD700F08A94899ADD
:106E6600898A9C0E246ED70EE82EFED7242EFCD7D8
:106E760000F08A94899A8A84020E256E380E246E52
:106E8600AD0EE82EFED7242EFCD7252EFAD700F01D
:106E96008A94899A898A9C0E246ED70EE82EFED78C
:106EA600242EFCD700F05A0E1FEC2DF0A50E1FEC79
:106EB6002DF0030E1FEC2DF09C0E246ED70EE82E3F
:106EC600FED7242EFCD700F01200266E92848996F7
:106ED600010E226E000E236E000E246E000E256E2D
:106EE6007EEC2BF08986010E226E000E236E000EBC
:106EF600246E000E256E7EEC2BF09294060E226E0A
:106F0600000E236E000E246E000E256E7EEC2BF016
:106F16008984010E226E000E236E000E246E000E72
:106F2600256E7EEC2BF08996010E226E000E236EE6
:106F3600000E246E000E256E7EEC2BF08986010E67
:106F4600226E000E236E000E246E000E256E7EEC61
:106F56002BF089948996010E226E000E236E000E88
:106F6600246E000E256E7EEC2BF08986010E226EB5
:106F7600000E236E000E246E000E256E7EEC2BF0A6
:106F8600060E226E000E236E000E246E000E256E77
:106F96007EEC2BF08996010E226E000E236E000EFB
:106FA600246E000E256E7EEC2BF08986010E226E75
:106FB600000E236E000E246E000E256E7EEC2BF066
:106FC6008996010E226E000E236E000E246E000EB0
:106FD600256E7EEC2BF08986010E226E000E236E46
:106FE600000E246E000E256E7EEC2BF0060E226E31
:106FF600000E236E000E246E000E256E7EEC2BF026
:107006002650CAEC2CF09284060E226E000E236ED9
:10701600000E246E000E256E7EEC2BF0000E276E01
:10702600000E296E000E286E8996010E226E000E45
:10703600236E000E246E000E256E7EEC2BF08986E4
:10704600010E226E000E236E000E246E000E256EBB
:107056007EEC2BF080A403D0010E276E08D0284AC0
:10706600292A500E285CC30E2958D8A0DDD7060E53
:10707600226E000E236E000E246E000E256E7EEC30
:107086002BF08996010E226E000E236E000E246EE2
:10709600000E256E7EEC2BF08986010E226E000E08
:1070A600236E000E246E000E256E7EEC2BF092846D
:1070B6002750120008C027F0286A2750286E276A32
:1070C60007502726000E282241D1285004E1120E2F
:1070D600275CD8A004D0000E286E120E276E000E74
:1070E6002A6E000E296E12D02950CF0F266E26C0AA
:1070F600F6FF200EF76E000E2924D96E010E2A2007
:10710600DA6E0800F5CFDFFF294A2A2A2750295CC4
:1071160028502A58D8A0E8D7010E186E000E226E05
:10712600010E236E27C024F04BEC30F012002850DD
:1071360004E1220E275CD8A004D0000E286E220E91
:10714600276E000E2A6E000E296E12D029505C0F93
:10715600266E26C0F6FF200EF76E000E2924D96E85
:10716600010E2A20DA6E0800F5CFDFFF294A2A2A07
:107176002750295C28502A58D8B0CED7E7D72850B0
:1071860004E1040E275CD8A004D0000E286E040E7D
:10719600276E000E2A6E000E296E12D02950E10FBE
:1071A600266E26C0F6FF200EF76E000E2924D96E35
:1071B600010E2A20DA6E0800F5CFDFFF294A2A2AB7
:1071C6002750295C28502A58D8B0A6D7E7D7285088
:1071D60004E1200E275CD8A004D0000E286E200EF5
:1071E600276E000E2A6E000E296E12D029507E0FD1
:1071F600266E26C0F6FF200EF76E000E2924D96EE5
:10720600010E2A20DA6E0800F5CFDFFF294A2A2A66
:107216002750295C28502A58D8B07ED7E7D728505F
:1072260004E11C0E275CD8A004D0000E286E1C0EAC
:10723600276E000E2A6E000E296E12D029509E0F60
:10724600266E26C0F6FF200EF76E000E2924D96E94
:10725600010E2A20DA6E0800F5CFDFFF294A2A2A16
:107266002750295C28502A58D8B056D7E7D7285037
:1072760004E1240E275CD8A004D0000E286E240E4C
:10728600276E000E2A6E000E296E12D02950380F76
:10729600266E26C0F6FF200EF76E000E2924D96E44
:1072A600010E2A20DA6E0800F5CFDFFF294A2A2AC6
:1072B6002750295C28502A58D8B02ED7E7D7600E19
:1072C600226E236A400E246EB6EC2BF08CEC2BF06B
:1072D600000E186E12000350000AD8B450D7010AE7
:1072E600D8B475D7030AD8B49AD7010AD8B4BFD789
:1072F600E6D7285004E1330E275CD8A004D0000E50
:10730600286E330E276E000E2A6E000E296E12D0DE
:107316002950050F266E26C0F6FF200EF76E000ECA
:107326002924D96E010E2A20DA6E0800F5CFDFFF78
:10733600294A2A2A2750295C28502A58D8B0ECD640
:10734600E7D70350000AD8A41200D3D70450010A85
:10735600D8B4BBD6030AD8B4EAD6010AD8B4BBD788
:10736600210AD8B4EED7ABD773EF3FF0020E171849
:10737600D8A4F3D16551396E3A6A3B6A3C6A180E55
:10738600D89039363A363B363C36E82EF9D739C0EE
:1073960009F03AC00AF03BC00BF03CC00CF0645157
:1073A600396E3A6A3B6A3C6A100ED89039363A36DC
:1073B6003B363C36E82EF9D7395009263A500A2290
:1073C6003B500B223C500C226351396E3A6A3B6AA1
:1073D6003C6A3BC03CF03AC03BF039C03AF0396AEF
:1073E600395009263A500A223B500B223C500C22B7
:1073F6006251396E3A6A3B6A3C6A395009263A50FC
:107406000A223B500B223C500C2209C02BF00AC02A
:107416002CF00BC02DF00CC02EF066C02FF0000E25
:10742600306E010E316EF0EC32F0800E1F6E1200DF
:10743600000E3E6E000E3D6E3E500FE1080E3D5CA6
:10744600D8B00BD0000E3D24D96E010E3E20DA6E68
:10745600000EDF6E3D4A3E2AEFD7080E1F6E120061
:10746600000E3E6E000E3D6E10D0000E3D24D96E0D
:10747600010E3E20DA6E3D50620FE16EE26AE75081
:1074860029EC2CF0DF6E3D4A3E2A00016751366E2C
:10749600376A36503D5C37503E58D8B0DED7E5D710
:1074A600899489969294929692884DD06251D8A4E6
:1074B60004D0010E56EC31F05AD0030E56EC31F0E2
:1074C60056D06251D8A404D0020E56EC31F04FD0FB
:1074D600040E56EC31F04BD06251D8A404D0030E02
:1074E60056EC31F044D0050E56EC31F040D06251E6
:1074F600D8A404D0040E56EC31F039D0060E56EC62
:1075060031F035D06251D8A404D0050E56EC31F0D6
:107516002ED0070E56EC31F02AD06251D8A404D0F2
:10752600060E56EC31F023D0080E56EC31F01FD083
:107536006251D8A404D0070E56EC31F018D0090ECB
:1075460056EC31F014D06351010AD8B4AFD7030A10
:10755600D8B4B7D7010AD8B4BFD7070AD8B4C7D7A3
:10756600010AD8B4CFD7030AD8B4D7D7E1D70001D8
:107576006251D8B406D0010E176E8A94899A8A840D
:1075860005D0000E176E8A94899A898A9394929AE6
:10759600080E1F6E12009284928692888A94899AA7
:1075A600000E1F6E12006351376E366A6251362422
:1075B600116E000E3720126E000E3E6E000E3D6EEE
:1075C6003E5005E1800E3D5CD8B02FD701D02DD7B7
:1075D600000E3D24D96E010E3E20DA6E3D50112478
:1075E600266E3E501220276EDAEC2BF0DF6E3D4AF7
:1075F6003E2AE6D71750D8A489D06451396E3A6A24
:107606003B6A3C6A100ED89039363A363B363C36E1
:10761600E82EF9D739C009F03AC00AF03BC00BF0A2
:107626003CC00CF06351396E3A6A3B6A3C6A3BC017
:107636003CF03AC03BF039C03AF0396A3950092675
:107646003A500A223B500B223C500C226251396EB2
:107656003A6A3B6A3C6A395009263A500A223B503C
:107666000B223C500C22D8900C320B320A320932D3
:1076760009C011F00AC012F00BC009F00CC00AF0E4
:107686000B6A0C6A09C01CF01C50D8B40CD04D0E05
:1076960029EC2CF0000E29EC2CF01C5029EC2CF0D7
:1076A600000E29EC2CF0000E3E6E000E3D6E3E5094
:1076B60005E1400E3D5CD8B0B8D601D0B6D6D8901C
:1076C6003D34D96E3E34DA6E000ED926010EDA222A
:1076D6003D501124266E3E501220276EF4EC2BF0FE
:1076E600DF6ED8903D34D96E3E34DA6E010ED9265F
:1076F600010EDA223D501124266E3E501220276ECE
:10770600E7EC2BF0DF6E3D4A3E2AD1D76351376E48
:10771600366A62513624116E000E3720126E000E44
:107726003E6E000E3D6E3E5005E1800E3D5CD8B0CB
:107736007CD601D07AD6000E3D24D96E010E3E20AD
:10774600DA6E3D501124266E3E501220276EA2ECB2
:107756002FF0DF6E3D4A3E2AE6D76151080AD8B4BB
:1077660049D7010AD8B41FD7030AD8B41200010AB0
:10777600D8B411D7070AD8B41200010AD8B490D6E3
:10778600030AD8B46DD6010AD8A4120051D6020E47
:107796001718D8A462D06551396E3A6A3B6A3C6ABA
:1077A600180ED89039363A363B363C36E82EF9D79D
:1077B60039C009F03AC00AF03BC00BF03CC00CF0EF
:1077C6006451396E3A6A3B6A3C6A100ED890393673
:1077D6003A363B363C36E82EF9D7395009263A5028
:1077E6000A223B500B223C500C226351396E3A6AF6
:1077F6003B6A3C6A3BC03CF03AC03BF039C03AF0C9
:10780600396A395009263A500A223B500B223C501D
:107816000C226251396E3A6A3B6A3C6A3950092633
:107826003A500A223B500B223C500C2209C02BF046
:107836000AC02CF00BC02DF00CC02EF066C02FF045
:10784600670E306E40EC32F00009D8B402D0010E5B
:1078560001D0000E0101006FA3D6010E64250F6E44
:10786600106A000E10226651D8B429D06251376EC4
:10787600366A61513624116E000E3720126E000EE4
:107886003E6E000E3D6E10D03D501124266E3E50C9
:107896001220276E3D50680FD96EDA6ADF50286EC7
:1078A600DEEC2CF03D4A3E2A00016551366E376A01
:1078B60036503D5C37503E58D8B01200E5D7170415
:1078C600D8A429D06251376E366A61513624116EBA
:1078D600000E3720126E000E3E6E000E3D6E10D06A
:1078E6003D501124266E3E501220276E3D50680FE3
:1078F600D96EDA6ADF50286EDCEC2EF03D4A3E2A5D
:1079060000016551366E376A36503D5C37503E5839
:10791600D8B01200E5D7105044E1810E0F5CD8B004
:1079260040D06251376E366A61513624116E000EB0
:107936003720126E65C022F0236A0FC024F010C0F3
:1079460025F089EC2EF022501B6E000E3E6E000EC6
:107956003D6E1DD03DC022F03EC023F00FC024F086
:1079660010C025F0A4EC2CF011502224286E1250E1
:107976002320296E3D500F02F350680F2A6E0FC068
:107986002BF010C02CF039EC35F03D4A3E2A1B5046
:10799600366E376A36503D5C37503E58D8B01200C6
:1079A600D9D7800E6519D8A493D06351396E3A6A37
:1079B6003B6A3C6A100ED89039363A363B363C362E
:1079C600E82EF9D739C009F03AC00AF03BC00BF0EF
:1079D6003CC00CF06251396E3A6A3B6A3C6A3BC065
:1079E6003CF03AC03BF039C03AF0396A39500926C2
:1079F6003A500A223B500B223C500C226151396E00
:107A06003A6A3B6A3C6A395009263A500A223B5088
:107A16000B223C500C22D8900C320B320A3209321F
:107A260009C011F00AC012F00BC01CF01C50D8B4EB
:107A36000CD04D0E29EC2CF0000E29EC2CF01C502D
:107A460029EC2CF0000E29EC2CF0000E3E6E000EF8
:107A56003D6E3E502DE1800E3D5CD8B029D03DA054
:107A66000FD0480E29EC2CF0000E29EC2CF0D89003
:107A76003E30376E3D30366E365029EC2CF00ED047
:107A8600400E29EC2CF0000E29EC2CF0D8903E305C
:107A9600376E3D30366E365029EC2CF03D50680F6F
:107AA600D96EDA6ADF5029EC2CF03D4A3E2AD1D74E
:107AB600680E226E800E236EB7EC2CF0196E192814
:107AC600D8B403D0000E1A6E1200010E1A6E120000
:107AD600000E3E6E000E3D6E3E502FE1800E3D5C68
:107AE600D8B02BD03DA010D0480E29EC2CF0000EBB
:107AF60029EC2CF0D8903E30376E3D30366E36503D
:107B0600400F29EC2CF00FD0400E29EC2CF0000E83
:107B160029EC2CF0D8903E30376E3D30366E36501C
:107B2600400F29EC2CF03D50680FD96EDA6ADF5011
:107B360029EC2CF03D4A3E2ACFD74C0E29EC2CF0EE
:107B4600125029EC2CF0115029EC2CF0000E29ECE7
:107B56002CF01A50D8B40BD0680E226E800E236E0D
:107B6600B7EC2CF0196E800E1926000E1A6E1A50FC
:107B7600D8A436D0000E3E6E000E3D6E3E5005E196
:107B86000A0E3D5CD8B0120001D01200100E366EFF
:107B9600940EE82EFED7362EFCD700D019A010D0B2
:107BA60019C036F0D890363236501124266E000EA3
:107BB6001220276EE7EC2BF0FF0AD8A412000DD096
:107BC60019C036F0D890363236501124266E000E83
:107BD6001220276EF4EC2BF0EFD73D4A3E2ACED783
:107BE6009C0E366ED70EE82EFED7362EFCD700F04A
:107BF6001200000E6D6E000E696E000EF86E7F0E9E
:107C0600F76EFE0EF66EA68EA69CA684A688550E68
:107C1600A76EAA0EA76EA682040E376E0C0E366EDF
:107C2600340EE82EFED7362EFCD7372EFAD7FF00B5
:107C36001200000E3E6E000E3D6E3E501DE1110E0E
:107C46003D5CD8B019D03D50020DF3CF36F0020E90
:107C560036263650380F376E37C0F6FF200EF76ED1
:107C6600000E3D24D96E010E3E20DA6E0800F5CFD7
:107C7600DFFF3D4A3E2AE1D7000E01010C6F400EA0
:107C86001F6E120038EC2FF0400E1F6E120087ECAC
:107C96002BF086D47FEC2CF083D46DEC2FF0F4D748
:107CA60086EC36F07DD437EC2DF0120098EC32F0ED
:107CB6001200020E176E625198EC2BF0120082EC45
:107CC6002BF012006FEC2CF0120027EC34F010D0E1
:107CD6006251B0EC34F064D4380E266EC7EC35F041
:107CE6000101016F3850D8B402D0010E01D0000E48
:107CF6000101006FC9D7625168EC37F00009D8A4BA
:107D0600F4D7F5D76551396E3A6A3B6A3C6A180E64
:107D1600D89039363A363B363C36E82EF9D739C054
:107D260009F03AC00AF03BC00BF03CC00CF06451BD
:107D3600396E3A6A3B6A3C6A100ED89039363A3642
:107D46003B363C36E82EF9D7395009263A500A22F6
:107D56003B500B223C500C226351396E3A6A3B6A07
:107D66003C6A3BC03CF03AC03BF039C03AF0396A55
:107D7600395009263A500A223B500B223C500C221D
:107D86006251396E3A6A3B6A3C6A395009263A5062
:107D96000A223B500B223C500C2209C02BF00AC091
:107DA6002CF00BC02DF00CC02EF066C02FF0010E8B
:107DB600306E010E316EF0EC32F0A0D76551396E9F
:107DC6003A6A3B6A3C6A180ED89039363A363B36E0
:107DD6003C36E82EF9D739C009F03AC00AF03BC064
:107DE6000BF03CC00CF06451396E3A6A3B6A3C6A4F
:107DF600100ED89039363A363B363C36E82EF9D74F
:107E0600395009263A500A223B500B223C500C228C
:107E16006351396E3A6A3B6A3C6A3BC03CF03AC0F1
:107E26003BF039C03AF0396A395009263A500A22ED
:107E36003B500B223C500C226251396E3A6A3B6A27
:107E46003C6A395009263A500A223B500B223C50D4
:107E56000C2209C02BF00AC02CF00BC02DF00CC070
:107E66002EF066C02FF0670E306E40EC32F046D72B
:107E76006151010AD8B4DDD6910AD8B403D7010AF4
:107E8600D8B405D7030AD8B405D7010AD8B405D79C
:107E9600070AD8B405D7010AD8B405D7030AD8B457
:107EA60005D7560AD8B405D7010AD8B408D7030AA5
:107EB600D8B408D7010AD8B408D7070AD8B408D75F
:107EC600010AD8B409D7030AD8B415D70F0AD8B40B
:107ED60019D7030AD8B472D7350AD8A4120089D69E
:107EE60000016051010AD8B4B9EF39F0030AD8B4D9
:0A7EF6004ED4060AD8A41200BBD730
:027FFE005555D7
:020000040030CA
:0E000000210E2100FF0080FF0FC00FE00F4017
:00000001FF
