:020000040000FA
:1000000031EF05F01200FFFF04EF08F01200FFFFD0
:10001000FFFFFFFFFFFFFFFF0CEF08F01200FFFFE5
:1000200000007DD9E652635032E162960201005130
:100030003C0BE842E8420D0828E1180E021923E1C2
:10004000020E031920E1100E026F020E036FDF6A29
:10005000DF50006E016A080E005C000E015813E2CA
:10006000DF50EA6A180FE96E020EEA22EF50E66EE0
:10007000DF50EA6A100FE96E020EEA22E552E750FD
:10008000EF6EDF2AE5D70ED80AD03FD808D0040E8D
:10009000635C03E1629650D802D0000E01D0010EDD
:1000A000E55242D13CD9E652020104BF046B000183
:1000B000E96BE16BE26BE76BE86BA0EC01F0DF6AE8
:1000C000DF50006E016A010E005C000E01581AE25A
:1000D0000001E25117E1F76ADF34FE0BF736F66EE6
:1000E000DC0EF6260B0EF7220900F5CF00F0080013
:1000F000F5CF01F004D001C0FAFF0050F96EFBDF2C
:10010000DF2ADED7B7D8E5520FD1020E0001E15D3C
:100110000EE184D80201180E026F020E036F080E62
:10012000016F00BD02D0C80E05D0880E03D0DBD809
:10013000E7D88C0E006F1200040E0001EA5D0CE19E
:1001400012C25CFF0F015C51000803E20001050EC2
:1001500002D00001030EEA6F0001E10510E111D8A1
:10016000020E0001E95D03E10201840E06D00201E6
:1001700004BD02D0C80E01D0880E046F120073EFC8
:1001800001F0CDD8020EE1260001080EE75D000E59
:10019000E8590DE2E7C0DEFFE8C0DDFFE95102E10A
:1001A000010E03D0E90506E1020EE96F03D0080E47
:1001B000DE6EDD6A020104930491010EDB5004132C
:1001C000DFCF05F2000EDB500001E75F010EDB50D0
:1001D000E85B180EE56F020EE66F0001EBA30CD092
:1001E00097D815E0E3C0F6FFE4C0F7FF0800F5502C
:1001F0007FD8F6E2DB06F4D78BD809E0E3C0E9FF4D
:10020000E4C0EAFFEF5074D8F7E2DB06F5D7020E40
:10021000E15C02E2E16AE552E16E86D080D8020E2E
:10022000E126030E02010015E76E010EE7CFDBFFAA
:1002300001C2DFFFDE500001E727DD50E823180E82
:10024000E36F020EE46F64D80EE0E3C0E9FFE4C0A0
:10025000EAFFEF50E5C0E9FFE6C0EAFFEF6E68D8BD
:10026000F2E2DB06F0D7020EE15C02E2E16AE5525F
:10027000E16E5AD064980001E25105E141D8840E44
:10028000006F02011DD0020110AF1CD00001E75128
:100290000201165D0001E8510201175904E216C27D
:1002A000E7F017C2E8F06DDF0001010EE16F28D81A
:1002B000800E006F0201180E066F020E076FC80E47
:1002C000046F12000001020EE16F0201056BC80EFF
:1002D000046F0201080E016F180E026F020E036F09
:1002E000C80E006F12000001E16B0201046B1200E6
:1002F000E5C0E9FFE6C0EAFFEF6E000198EF01F00C
:100300000201080E016F100E026F020E036F120041
:10031000D9CFE9FFDACFEAFFEE50ED101200D9CFC6
:10032000E6FFE1CFD9FF1200E552E7CFD9FF120077
:10033000E52B000EE623E32BE423DF06010E12007B
:1003400002011051600BE842E842E842E842E8420C
:10035000000901E012001151070A40E00B0A3EE0DB
:10036000070A33E0010A23E00B0A1FE0020A1DE03E
:10037000030A19E0080A10E0010A0CE00F0A08E07D
:10038000030A01E0120012D90001040EEA6F120004
:10039000EFEF01F026EF02F009D90001EC0EE36F58
:1003A000000EE46F0CD041EF02F073EF02F002D9BF
:1003B0000001E36FE46BED0EE327000EE423000180
:1003C000EB930001010EE76F1200F4D8EA6AED0F1B
:1003D000E96E000EEA2212C2EFFF12001200800E38
:1003E0000201105D32E11351030A1FE0010A0AE025
:1003F000030A29E1DBD80001400EE36F0B0EE46F26
:10040000120E1ED0B2D8D20EF6260B0EC0D8020E97
:100410000001F76AE325F66EE451F7220900F5CFF3
:10042000E7F00A00F5CFE8F00ED09FD8D60EF626FA
:100430000B0EADD8E3C0F6FFE4C0F7FF0800F5509F
:100440000001E76FE86B0001EB831200AFD8070EE5
:10045000E66E540EE66E0F0EA2D8010EE66EED0E9D
:10046000E66E000E9CD812C2ECF00201125104E1BB
:100470000001050EEA6F12000001060EEA6F41EF5F
:1004800003F00201186B196B020110511F0B020AD5
:100490000FE0030A0BE0010A18E188D80201188175
:1004A0000001EBA112D0020118830FD07FD80DD02C
:1004B00050D801E0010E62D8E5C0E9FFEA6EEF50C6
:1004C000040B03E00201010E186F0001E2050AE1CE
:1004D0000001180EE36F020EE46F0001EB930001C0
:1004E000020EE76F1200020112050EE110511F0B00
:1004F00000090AE15BD8030E0201115D03E100016E
:10050000EB8102D00001EB910201125121E1105167
:100510001F0B02081DE114510F0B000919E019D837
:1005200001E0010E2BD8030E0201115D02E1840EE1
:1005300003D014AF07D0400EE5C0E9FFE6C0EAFFE4
:10054000EF6E1200880EE5C0E9FFE6C0EAFFEF6E2D
:10055000120030D80F0B080DF350016A000F006E27
:10056000020E01221451800B120020D802011251F8
:10057000F66EF76AD890F636F7361200040DF3508F
:1005800000010024E56F000E0120E66F1200F72243
:100590000900F5CFE3F00A00F5CFE4F01200E66EB3
:1005A0001CEC05F0E552E552E55212000001010E87
:1005B000E26F1200FBDF0201145112000201105120
:1005C0001F0B010801E01200145101E01200060E99
:1005D000115D24E11351230A1FE0010A0DE0030A13
:1005E0001BE1D6D80001EC0505E10001640EE36FC4
:1005F0000B0EE46F090E0DD0CBD80001EC0505E120
:100600000001B50EE36F0B0EE46F0001EC0504E191
:100610001D0E0001E76FE86B0001EB830201105132
:10062000600BE842E842E842E842E842010801E0A3
:10063000120011510B0A21E0080A13E0090A0DE02B
:10064000080A05E00B0A1CE0080A1AE01200A0D80C
:100650000001EE0EE36F000E09D09AD813C2EEF03F
:10066000120096D80001EF0EE36F000EE46F000158
:10067000EB930001010EE76F12008AD812C2EFF06F
:1006800012000001F06B0F011E0E546F0201400EAC
:10069000096F200E0A6F020E0B6F880E086F0201A1
:1006A000600E0E6F020E0F6F400E0C6F1200D9CF4E
:1006B000E6FFE1CFD9FFE652FC0EDB50400805E231
:1006C000400EF36EFC0EF3CFDBFFDF6AFC0EDB5057
:1006D000DF5C0FE2DF5050D8EF50E66EDF50EA6A81
:1006E000600FE96E020EEA22E552E750EF6EDF2A54
:1006F000EDD7FC0EDBCF0DF2400E02010C170C7D86
:10070000880E0C13E552E552E7CFD9FF1200D9CF7E
:10071000E6FFE1CFD9FF0001F06B020108BF26D050
:10072000FC0EDBCF00F00951D880005403E2FC0E30
:1007300009C2DBFF0001F06BFC0EDB50F05D0FE245
:10074000F051EA6A200FE96E020EEA22EF50E66EDF
:10075000F05112D8E552E750EF6EF02BEDD70201C1
:10076000400E096F0817087D880E08130001F0512C
:10077000E552E7CFD9FF1200E76EFD0EDBCFE9FFB0
:10078000FE0EDBCFEAFFE750E926000EEA22120058
:100790000001020EE26F1200550EA76EAA0EA76EA0
:1007A000A68212000001E06BA151E05D0AE2B1D81F
:1007B0000800F550E66EA6D8E552E750EF6EE02B44
:1007C000F3D7F86A1200840EA66E0001E06BA15107
:1007D000E05D12E297D8EFCF03F09BD803C0F5FF9E
:1007E0000C000F0EE0150F0803E0A105E05D01E12C
:1007F000D3DF0001E02BEBD712000001E06BA15129
:10080000E05D14E2940EA66EE051006E016A060EE1
:10081000D89000360136E804FBE1026A01BE0268A6
:10082000000162D8B9DF0001E02BE9D7F86A1200B5
:10083000020108BF58D0400EE66EA00EE66E000E14
:10084000E66E87EC03F0E552E552E5520001E06BFD
:100850000001A051FF0A43E0FC0A3CE0010A35E038
:10086000030A20E0070A1EE0700A01E03CD0000104
:10087000420EA56F0001020EA66F0001010EA76FC8
:100880000001040EE06F02010CBFFDD7400EE66EC2
:10089000A00EE66E000EE66E57EC03F0E552E55250
:1008A000E55221D07FDF050E0001E02702010CBFD9
:1008B000FDD7400EE66EA00EE66E000EE66E57EC1B
:1008C00003F0E552E552E5520ED07DDF0001010E46
:1008D000E06F09D092DF0001010EE06F04D0649256
:1008E000646A00EF06F01200A2510024F36EA351D7
:1008F0000120F46EA4510220F86EF4CFF7FFF3CF7D
:10090000F6FF1200E051EA6AA50FE96E000EEA2236
:100910001200E0C000F0016A026A74EF04F064A6FD
:100920000CD80001EA0508E164BA06D0626A606A80
:1009300060806088020EEA6F1200646A606A6486F2
:100940000001010EEA6F12000001EA5101E11200FC
:1009500062B425D864B2120062B03AD862B817D82F
:1009600062BA24D8030E0001EA5D01E21200000120
:10097000F16B040EF15D0AE262A608D011EC00F002
:10098000000901E162960001F12BF3D712006084A7
:1009900062986482A194A0840300A09412006492DF
:1009A000609462A402D06294FCD712000F0153A19C
:1009B0000DD0800E0201005D07E1840E0201045D8E
:1009C00003E102018C0E006F0F015391629A120035
:1009D0000F015F6B626A0F019F0E5B6F7B0E606E93
:1009E0000F015C6B070EE66E540EE66E0F0EE66EA0
:1009F00023D8E552E552E5520F01160E536F62A659
:100A000005D0629600D000D00000F9D7649873EC4E
:100A100001F00201080E016F0201100E026F020EBA
:100A2000036F02018C0E006F0001EB910001EC6B73
:100A30000001030EEA6F1200D9CFE6FFE1CFD9FF24
:100A4000FD0EDBCFE9FFFE0EDBCFEAFFFC0EDB5035
:100A500004E0EE6AFC0EDB06F9D7E552E7CFD9FFDA
:100A60001200D9CFE6FFE1CFD9FFE65210EE60F0D9
:100A700020EE60F0F86A080EF66EF76A300EF86E37
:100A80000800F55008E1090EF66EF76A300EF86EB0
:100A90000800F55001E0FFD7D00E006EFE0EF66E96
:100AA0003F0EF76EF86A0800F550005C25E1786AA1
:100AB000776AF19E788C938C9398DF6A100EDF5CD6
:100AC00012E28A780000000000008150400B01E033
:100AD000010E006E8A50100B01E0010E005C01E077
:100AE00002D0DF2AEBD7938878687768F18E100EF2
:100AF000DF5C02E000EF08F0140E616E0001EA6BAB
:100B00000001EB6B0001EC6B9496850ED56E040032
:100B100013D8060E0001EA5D05E16450020B02E104
:100B200018EC04F0F2A402D0F2948B76F0D7E552E0
:100B3000E552E7CFD9FF12008FEC04F0A4EF04F0E8
:100B40001201000200000008D8040F000200010298
:100B5000000109022900010100C0FA090400000295
:100B600003000000092111010001221D0007058179
:100B700003400001070501034000010403090412BA
:100B8000035000640075007900740065006300681C
:100B90000024034200750072006E002D0045002005
:100BA00000500072006F006700720061006D006D00
:100BB00000650072000600FF0901A101190129402A
:100BC000150026FF00750895408100190129409104
:100BD00000C0520B520B7B0B7F0B910BBC05000E20
:100BE000F36E00EE00F0030E01D81200EA6002D0AE
:100BF000EE6AFCD7F350E9601200EE6AFCD7FFFF03
:100C00000101100EF76E000EF66EF6CF61F1F7CF10
:100C100062F138D8F6CF63F1F7CF64F136D83CD81B
:100C20001ED863C1F6FF64C1F7FF2CD82ED834D884
:100C300061C1F6FF62C1F7FF2FD901EE00F0040E8B
:100C4000606F32D93CD90900602FFBD7400EF75CAA
:100C5000DCE1A6940000000000000000FF0001EEAF
:100C600020F011EE00F0200E6C6FEECFE6FF6C2F3F
:100C7000FCD71200200E6C6F0900F5CFEEFF6C2F31
:100C8000FBD7120001EE20F0F5D7E00EF66E0E0E47
:100C9000F76E01EE40F0EED70BD80E0E606F01D06C
:100CA0004FD8D6D810D8ADD803D8602FF9D71200B6
:100CB00001EE40F011EE20F0200E6C6FEE50E61ABF
:100CC0006C2FFCD712002151656F3D51216F3951B6
:100CD0003D6F3551396F3151356F2D51316F29517C
:100CE0002D6F2551296F6551256F2251656F365142
:100CF000226F2A51366F3E512A6F32513E6F265174
:100D0000326F3A51266F2E513A6F65512E6F235133
:100D1000656F3351236F6551336F2751656F3751BD
:100D2000276F6551376F2B51656F3B512B6F6551A5
:100D30003B6F2F51656F3F512F6F65513F6F120011
:100D400001EE20F0E9CF6DF1080E6C6FEE50EE1859
:100D5000EE18EE18656F6DC1E9FFEE50EE52ED181A
:100D6000666F1B0ED8906637D8B0661BEE50EE52F9
:100D7000EE18676F1B0ED8906737D8B0671B6651A7
:100D80006719686F1B0ED8906837D8B0681BD89069
:100D90006837D8B0681B6551681B6DC1E9FFEE501C
:100DA000EF186619696F1B0ED8906937D8B0691BA8
:100DB000EE50EF1867196A6F1B0ED8906A37D8B0DB
:100DC0006A1BEE50EE1866196B6F1B0ED8906B37CE
:100DD000D8B06B1B6DC1E9FF69516819EE1A6A51F1
:100DE0006819EE1A6B516819EE1A6DC1E9FFEE50E1
:100DF000EE18EE186519EE6EE9CF6DF16C2FA6D7DF
:100E0000120001EE5BF011EE5FF00C0E6C6FED5016
:100E1000E51A6C2FFCD7040E6C6FED5023D8E51A41
:100E20006C2FFBD70C0E6C6FED50E51A6C2FFCD7B6
:100E3000605128D8401B5C5115D8E51A01EE5FF0CF
:100E4000030E6C6FED500ED8E51A6C2FFBD7120015
:100E500001EE20F0200E6C6FEF500ED8EE6E6C2F6E
:100E6000FBD71200F66EF76A000EF6260F0EF72279
:100E70000900F5CFE8FF1200A96EA69EA69CA680E9
:100E8000A8501200F66EF76AD00EF6260E0EF72264
:100E90000900F5CFE8FF1200940EA66E550EA76E5E
:100EA000AA0EA76EA68212000F0E6C6FEECFF5FF92
:100EB0000D006C2FFBD7EECFF5FF0C001200A68EB5
:100EC000A69CA684550EA76EAA0EA76EA682120037
:100ED0008D01020408102040801B366CD8AB4D9A5F
:100EE0004F39F50FD7AFF1ADCA95A3078674ECE182
:100EF0002930EE20F37ECB143F0C10D040FADFD423
:100F0000637C777BF26B6FC53001672BFED7AB76C6
:100F1000CA82C97DFA5947F0ADD4A2AF9CA472C071
:100F2000B7FD9326363FF7CC34A5E5F171D83115DE
:100F300004C723C31896059A071280E2EB27B275FF
:100F400009832C1A1B6E5AA0523BD6B329E32F8477
:100F500053D100ED20FCB15B6ACBBE394A4C58CF6F
:100F6000D0EFAAFB434D338545F9027F503C9FA843
:100F700051A3408F929D38F5BCB6DA2110FFF3D211
:100F8000CD0C13EC5F974417C4A77E3D645D1973C5
:100F900060814FDC222A908846EEB814DE5E0BDBBF
:100FA000E0323A0A4906245CC2D3AC629195E479F6
:100FB000E7C8376D8DD54EA96C56F4EA657AAE0850
:100FC000BA78252E1CA6B4C6E8DD741F4BBD8B8AEB
:100FD000703EB5664803F60E613557B986C11D9E51
:100FE000E1F8981169D98E949B1E87E9CE5528DFC8
:100FF0008CA1890DBFE6426841992D0FB054BB16F4
:10100000B4EF1EF01200120016EF08F0120080007C
:101010008000FFFFFFFFFFFF60EF08F012000100FC
:101020000E100000F302000004000000DACFE4FF1D
:10103000E2CFDAFFE9CFE4FFEACFE4FFF6CFE4FF47
:10104000F7CFE4FFF5CFE4FFF3CFE4FFF4CFE4FF05
:10105000FACFE4FF00EE00F0140EE80403E3EECF55
:10106000E4FFFBD700EE14F0040EE80403E3EECF38
:10107000E4FFFBD7E65235D8E55200EE17F0040E38
:10108000E80403E3E5CFEDFFFBD700EE13F0140E09
:10109000E80403E3E5CFEDFFFBD7E5CFFAFFE5CFAB
:1010A000F4FFE5CFF3FFE5CFF5FFE5CFF7FFE5CFA1
:1010B000F6FFE5CFEAFFE5CFE9FFE5CFDAFF110064
:1010C000D8CFE4FFE0CFE4FFE46EDACFE4FFE652EE
:1010D000E552E5CFDAFFE550E5CFE0FFE5CFD8FFF9
:1010E00010009EA015D09E90FA0ECF6E380ECE6ED8
:1010F0000C0EBD5C0CE10201F951D880C45402E22F
:10110000BE6A05D0FA51C45C02E2400EBE6EC282D5
:1011100012008B86949674D8B10EB16E54EC17F011
:1011200059D9FCD7F5C2B3F0F6C2B4F000010F0EE6
:10113000D880B357010EB457F00EB327000EB42376
:10114000FF0EB16F010EB26FB1C0ABF0AC6FB1C0AA
:10115000ADF0AE6FAF6BB06B1200F00E0201F32575
:101160000001BD6F000E0201F4210001BE6FF00E00
:10117000BB6F000EBC6FBBC0B5F0B66FBBC0B7F0A5
:10118000B86FB96BBA6B120094807E88C16A260E64
:10119000C06EC294C296C288C29AC280938A819A53
:1011A0008A9A938C819C8A9C8B9E949E8A8E939E15
:1011B000F19E8B9C949C8B9A949A0001030EA46FD1
:1011C000040EA56F010EA66FC8DFACDF070ED56E4B
:1011D000040ECA6E4F0ECB6E02013E0EF96F3C0E2E
:1011E000FA6FF28CF28E800ECD6EFA0ECF6E380E44
:1011F000CE6E9E909D80CD809E9C9D9CC282120052
:101200007E6A7F6A11EC17F0BFDF22EC1DF000014F
:10121000A06BA16BA26BA36B12002CEC16F082ECFE
:1012200016F03F0ED880EE54000EED5403E23F0E50
:10123000BBEC16F0010EDBCF80F2DF6EB2EC16F0E5
:101240001450155C000E16580CE33EEC16F007E146
:10125000B451AE1904E1B1C0ADF0B2C0AEF0DF2AB6
:10126000EDD794EC16F0A251A31102E1000E04D0C8
:10127000C2EC16F001E0010E0009F5E154EC16F0A5
:1012800002E2E16AE552E16E31EF16F02CEC16F065
:1012900082EC16F0400ED880EE54000EED5403E2BE
:1012A000400EBBEC16F0DF6AB2EC16F01550145C81
:1012B000000E16540CE23EEC16F007E1B451AE19E4
:1012C00004E1B1C0ADF0B2C0AEF0DF2AEDD794ECCE
:1012D00016F0A251A31102E1000E04D0C2EC16F0E8
:1012E00001E0010E0009F5E154EC16F002E2E16ABA
:1012F000E552E16E31EF16F02CEC16F0040EE1260B
:101300006DEC16F0E66ED950020FE96EDACFEAFF07
:10131000E552E750EE6EED6A020EDB500001B92592
:10132000146E030EDB50BA21156E02011450F35DEA
:101330001550F4592DE3DE6ADD6ADECF14F0DDCFFF
:1013400015F0020EDBCF16F0030EDBCF17F01650B0
:10135000145C1750155811E26DEC16F0A0EC16F065
:1013600007E1BE51B61904E1BBC0B5F0BCC0B6F090
:10137000DF2A010EE2E3DB2AE0D7020EDBCF08F022
:10138000030EDBCF09F008500001B9270950BA233A
:10139000040EE15C02E2E16AE552E16E31EF16F023
:1013A000F29E646A606A0201C06B840EA66EFE0E35
:1013B000F66E3F0EF76EF86AF56A0C00550EA76ED2
:1013C000AA0EA76EA6824E0EE66E78EC1EF0E552CF
:1013D000FF001200D9CFE6FFE1CFD9FFE652200E81
:1013E0000201E76EC019E8AE02D0E73402D0E75040
:1013F000C05D03E36450020B01E0F7D1A1A202D06B
:10140000A1928B760001A051A11102E1000E08D03B
:10141000A0C0E9FFA1C0EAFFEF50800B01E0010E80
:10142000000901E0E2D18B96B190DF6ADF50EA6AF1
:10143000400FE96E020EEA22EF505D6E5D50420AE7
:1014400035E0340A05E02C0A01E032D0DF2AB3D1BE
:101450000201806B0201816B02010D0E826F00019F
:10146000A251A31102E1000E08D0A2C0E9FFA3C05F
:10147000EAFFEF50800B01E0010E000901E0EFD719
:10148000400EE66E800EE66E020EE66E010EE66E11
:10149000010EE66E85EC1BF0146E050EE15E145035
:1014A000F3CFA2F0F4CFA3F0DF2A85D179DF83D187
:1014B000A00E5D5C03E35D50B90803E2400EDF6EF1
:1014C0007AD1A00E5D5E5D9E5D46080E5D26F950E8
:1014D0005D24D8B0FA2AF96E1FD021D032D05DD069
:1014E0008BD096D09AD0B9D0BBD0C3D0C5D00FD0B6
:1014F000C6D0C8D0CAD00BD0CAD0CCD0F1D007D07B
:1015000006D007D004D003D002D013D154D1DF2AA3
:10151000FDD7040EDF26FAD7040EDF26F7D7020E1A
:10152000DF24EA6A400FE96E020EEA22EF28020188
:10153000F96F020E0201F95D0201FA6F040EDF2657
:10154000E5D702018F0E806F0201816B0001A2516D
:10155000A31102E1000E08D0A2C0E9FFA3C0EAFF78
:10156000EF50800B01E0010E000901E0EFD7400EC3
:10157000E66E800EE66E020EE66E010EE66E010E5F
:10158000E66E85EC1BF0146E050EE15E1450F3CF91
:10159000A2F0F4CFA3F0DF2AB9D70201806B0201D9
:1015A000816B0201826B0201836B0001A251A311C6
:1015B00002E1000E08D0A2C0E9FFA3C0EAFFEF508D
:1015C000800B01E0010E000901E0EFD7400EE66E4E
:1015D000800EE66E020EE66E010EE66E010EE66EFF
:1015E00085EC1BF0146E050EE15E1450F3CFA2F0F3
:1015F000F4CFA3F0DF2A8AD7DF2ADF2ADF50EA6A96
:10160000400FE96E020EEA22EF50DF26DF2A7ED776
:10161000DF2AFFD7020EDF2679D7DF2ADF50EA6AFA
:10162000400FE96E020EEA22EF50E66EDF28156ADF
:10163000400F146E020E152214C0E6FF15C0E6FF1F
:10164000AADBE552E552E552DF50EA6A400FE96E47
:10165000020EEA22EF28DF2659D77FDDDF2A56D790
:10166000DF2AD9CFE6FFDACFE6FF46DEE552E552C4
:101670004DD758DDDF2A4AD7D0DDDF2A47D706DE2F
:10168000DF2A44D7400EDF6E41D7DF2A3FD7050E51
:10169000DF263CD7DF2ADF50EA6A400FE96E020EF0
:1016A000EA22EFCFA7F0DF2ADF50EA6A400FE96EA7
:1016B000020EEA22EFCFA8F0DF2ADF50EA6A400FDD
:1016C000E96E020EEA22EFCFA9F0DF2ADF50EA6AC4
:1016D000400FE96E020EEA22EFCFAAF0DF2A16D7FA
:1016E000DF2A0001A251A31102E1000E08D0A2C01E
:1016F000E9FFA3C0EAFFEF50800B01E0010E0009F3
:1017000001E0EFD7400EE66E800EE66E020EE66E4A
:10171000010EE66E010EE66E85EC1BF0146E050EF2
:10172000E15E1450F3CFA2F0F4CFA3F0020EDF2657
:10173000EDD6020EDF24EA6A400FE96E020EEA22BD
:10174000EF500201F36FF46BF3C2F4F20201F36B9A
:10175000DF28EA6A400FE96E020EEA22EF50146EAB
:10176000156A14500201F31315500201F413040E0C
:10177000DF24EA6A400FE96E020EEA22EF5002010E
:10178000F56FF66BF5C2F6F20201F56B030EDF247E
:10179000EA6A400FE96E020EEA22EF50146E156AF3
:1017A00014500201F51315500201F613050EDF2641
:1017B000B9DCD3DCABD6400EDF5C01E237D6400E9D
:1017C000E66E400EE66E020EE66EE66A010EE66E0C
:1017D00085EC1BF0146E050EE15E1450F3CFA0F003
:1017E000F4CFA1F0B26AB36AB180E552E552E7CF17
:1017F000D9FF1200D9CFE6FFE1CFD9FF9D90FE0EB1
:10180000DB505D6EFD0EDB505E6E020E0001A55DCD
:101810000CE25DA08A9A5DB08A8A00008A8C000082
:101820008A9C5D425E2EF5D718D00001A5055F6E3B
:101830005DA08A9A5DB08A8A5F50000000000000B7
:10184000E82EFBD78A8C5F50000000000000E82ED5
:10185000FBD78A9C5D425E2EEBD79D80E552E7CF99
:10186000D9FF1200D9CFE6FFE1CFD9FFE652FE0E35
:10187000DB505D6EFD0EDB505E6E020E0001A55D5D
:101880000CE25DA08A9A5DB08A8A8A8C00008A9CEC
:1018900000005D425E2EF5D718D00001A5055F6EF1
:1018A0005DA08A9A5DB08A8A5F508A8C0000000031
:1018B0000000E82EFBD78A9C5F500000000000006B
:1018C000E82EFBD75D425E2EEBD7E552E552E7CF1F
:1018D000D9FF12000BEC17F00001B951BA1102E167
:1018E000000E16D0B7C0E9FFB8C0EAFFEFCFDFFFA8
:1018F000B72B000EB823B907BA5BBD51B71907E182
:10190000BE51B81904E1BBC0B7F0BCC0B8F0DF509D
:10191000E55231EF16F02CEC16F00201F551000102
:10192000AF1905E10201F6510001B01917E0FE0EF2
:10193000DB50ABC0E9FFACC0EAFFEF6EAB07000EB7
:10194000AC5BB351AB1907E1B451AC1904E1B1C0C0
:10195000ABF0B2C0ACF0AF2B000EB02331EF16F0FD
:101960002CEC16F0FE0EDBA402D08A8C01D08A9CEF
:10197000DBA602D08A8A01D08A9ADBA002D0938C9F
:1019800001D0939CDBA202D0938A01D0939A31EFCD
:1019900016F0D9CFE6FFE1CFD9FF938A9D905D6A1B
:1019A000FE0EDB505E6E020E0001A55D0CE28A8C1D
:1019B00000000000000081BA5D808A9C00005D424A
:1019C0005E2EF5D718D00001A5055F6E8A8C000049
:1019D00000005F50000000000000E82EFBD781BA35
:1019E0005D808A9C5F50000000000000E82EFBD75D
:1019F0005D425E2EEBD7FE0EDBCFE6FF080EE55212
:101A0000D880E754070B04E05D425D9EE806FCE1E8
:101A10000001A4A3939A9D805D5000D0E552E7CFCA
:101A2000D9FF1200D9CFE6FFE1CFD9FF938A9D906D
:101A30005D6AFE0EDB505E6E020E0001A55D0CE2DB
:101A400081BA5D808A8C0000000000008A9C000042
:101A50005D425E2EF5D718D00001A5055F6E5F5080
:101A600081BA5D808A8C0000000000000000000048
:101A7000E82EFBD78A9C5F50000000000000E82E93
:101A8000FBD75D425E2EEBD7FE0EDBCFE6FF080EE6
:101A9000E552D880E754070B04E05D425D9EE806FE
:101AA000FCE10001A4A3939A9D805D5000D0E55213
:101AB000E7CFD9FF12002CEC16F0FE0EDBA202D00D
:101AC0008A8801D08A98DBA002D0938801D09398AD
:101AD00031EF16F081B8010C000C8A8CFCEC16F08A
:101AE0008A9C67EC16F0938812008A9CFCEC16F036
:101AF0008A8C67EC16F093881200D9CFE6FFE1CF0D
:101B0000D9FFFE0EDB505D6E080E5E6E8A98020EE7
:101B10000001A55D23E25DAE93985DBE938800D081
:101B200000D000D08A8C000000D000D000D000D0BF
:101B30008A9C000000D000D05D465E2EECD79388D2
:101B400000D000D000D000D000D08A8C000000D09F
:101B500000D000D081B85E808A9C2FD00001A551B2
:101B6000E824FF0F5F6E5DAE93985DBE93885F5073
:101B7000000000D000D000D0E82EFAD78A8C5F5049
:101B800000D000D000D0E82EFDD78A9C00005D4632
:101B90005E2EE9D793885F5000D000D0000000D0BF
:101BA00000D000D0E82EFAD78A8C5F5000D000D049
:101BB000E82EFDD781B85E808A9CE552E7CFD9FF39
:101BC0001200D9CFE6FFE1CFD9FF5D6A080E5E6E45
:101BD000010E5F6E9388020E0001A55D14E25D4662
:101BE00000D000D000D000D000008A8C00D000D0FF
:101BF00000D0000081B85D808A9C00D000D000D069
:101C00005E2EEDD725D00001A551E824FF0F5F6EB1
:101C10005D46000000D05F5000D000D000D0000032
:101C2000E82EFAD78A8C5F5000D000D0E82EFDD77E
:101C300081B85D808A9C00D05E2EEAD700005F509C
:101C400000D000D000D000D000D00000E82EFAD79D
:101C50008A98FE0EDB5001E193985F5000D000D0CF
:101C600000D000D000D00000E82EFAD78A8C5F5058
:101C700000D000D0E82EFDD700D08A9C00D0000014
:101C8000000093885D5000D0E552E7CFD9FF1200E5
:101C9000D9CFE6FFE1CFD9FFE652FE0EDB505D6EF5
:101CA000080E5E6E020E0001A55D0DE25DAE8A9823
:101CB0005DBE8A888A8C5D465D9081BA5D808A9C13
:101CC0005E2EF4D71BD00001A5055F6E5DAE8A982D
:101CD0005DBE8A885F50000000000000E82EFBD740
:101CE0008A8C5D465D9081BA5D805F500000000087
:101CF0000000E82EFBD78A9C5E2EE8D78A985D50BC
:101D000000D0E552E552E7CFD9FF12002CEC16F0D7
:101D1000F294D768080EE66EC2EC1EF0E552FE0E95
:101D2000DB040AE0FE0EDB06DB50FF0DF350D66E3F
:101D3000D58EF2A4FED7D59E31EF16F02CEC16F01E
:101D4000FE0EDB50A0EC16F007E1BE51B61904E11F
:101D5000BBC0B5F0BCC0B6F0B92B000EBA2331EF52
:101D600016F02CEC16F0F294FE0EDB50FF0DF35043
:101D7000D76ED66AD58EF2A4FED7D59E31EF16F077
:101D80000BEC17F0DF6A81BADF8281BCDF80DF50A5
:101D9000E55231EF16F0D9CFE6FFE1CFD9FF080EBB
:101DA000E126DF6A010EDB6A040EDB6AFC0EDB5003
:101DB00004E0FC0EDB503D0802E2BAEF14F0FC0E2A
:101DC000DB50DF5C02E3BAEF14F0DF50E76EFD0E8C
:101DD000DBCFE9FFFE0EDBCFEAFFE750E926000E7E
:101DE000EA22EF505D6EB30E5D5C04E2FC0EDB5048
:101DF000DF6EE5D7D50E5D5C01E2CCD2D50E5D5E1F
:101E00005D9E5D46080E5D26F9505D24D8B0FA2A25
:101E1000F96EA7D29CD279D25BD212D2DED1DAD1BE
:101E2000D3D169D14ED14DD14CD14BD14AD15FD113
:101E30004AD147D146D133D120D1DED0CDD0BAD08E
:101E4000A4D08ED066D060D057D04ED038D023D01A
:101E500020D01DD01AD017D013D00FD00CD009D05D
:101E600007D006D003D000D08A9E92D28A8E90D21C
:101E70008FD28B8C8DD28B9C8BD20C0EBD6E88D268
:101E8000BD6A8B9A85D28B8E83D28B9E81D28B86B4
:101E90007FD28B967DD2DF2ADF50E76EFD0EDBCF3F
:101EA000E9FFFE0EDBCFEAFFE750E926000EEA224B
:101EB000EFCFA4F0A4C0E6FF53DDE55269D2DF2ADC
:101EC000080EE66EDF50E76EFD0EDBCFE9FFFE0E7B
:101ED000DBCFEAFFE750E926000EEA22EF50E66E7C
:101EE00089DCE552E55254D2080EE66EF3DCE66E6C
:101EF00081DCE552E5524CD2080EE66E4ADDE55231
:101F0000E66E09DDE55244D2080EE66E42DDE5528A
:101F10003FD2DF2ADF50E76EFD0EDBCFE9FFFE0E7A
:101F2000DBCFEAFFE750E926000EEA22EF50E66E2B
:101F3000DF50E76EFD0EDBCFE9FFFE0EDBCFEAFFE1
:101F4000E750E926000EEA22010EE926000EEA22F9
:101F5000EF50E66E4FDCE552E552020EDF2619D255
:101F6000DF2ADF50E76EFD0EDBCFE9FFFE0EDBCF91
:101F7000EAFFE750E926000EEA22EF50E66EAADCFF
:101F8000E66E38DCE552E55203D2DF2ADF50E76E19
:101F9000FD0EDBCFE9FFFE0EDBCFEAFFE750E926BF
:101FA000000EEA22EF50E66EF4DCE552E66EB3DC9A
:101FB000E552EED1DF2ADF50E76EFD0EDBCFE9FF01
:101FC000FE0EDBCFEAFFE750E926000EEA22EF50D3
:101FD000E66EDFDCE552DCD1DF2ADF50E76EFD0E76
:101FE000DBCFE9FFFE0EDBCFEAFFE750E926000E6C
:101FF000EA22EFCFA5F0CCD1010EDB500EE0020EAD
:10200000DB06020EDB5005E1010EDB6A030EDF2664
:10201000C0D1030EDB50DF6EBCD1DE52010EDD6E8F
:10202000DF50E76EFD0EDBCFE9FFFE0EDBCFEAFFF0
:10203000E750E926000EEA22010EE926000EEA2208
:10204000EF50DF5CE76E030EE7CFDBFFDF50E76E9C
:10205000FD0EDBCFE9FFFE0EDBCFEAFFE750E926FE
:10206000000EEA22020EE926000EEA22020EEFCF4F
:10207000DBFF030EDB50DF6E8CD1DF2ADF50E76E13
:10208000FD0EDBCFE9FFFE0EDBCFEAFFE750E926CE
:10209000000EEA22EF50E66E64DEE55279D1DF2AC7
:1020A000DF50E76EFD0EDBCFE9FFFE0EDBCFEAFF70
:1020B000E750E926000EEA22EF50E66E27DEE552F1
:1020C00067D1FFD766D1DF50E76EFD0EDBCFE9FFAA
:1020D000FE0EDBCFEAFFE750E926000EEA22010EF2
:1020E000E926000EEA22EF50DF24DF6E52D1FC0E0B
:1020F000DB50DF6E4ED1040EDB5016E0060EDB0621
:10210000070E01E2DB06D950060FE96EDACFEAFFCF
:10211000EE50ED1005E1040EDB6A020EDF2639D128
:10212000050EDB50DF6E35D1DF50E76EFD0EDBCFE5
:10213000E9FFFE0EDBCFEAFFE750E926000EEA22B8
:10214000010EE926000EEA22EF50DF5CE76E050E75
:10215000E7CFDBFF6AEC0CF0E66ED950060FE96EB4
:10216000DACFEAFFE552E750EE6EED6A6AEC0CF06A
:10217000166E176A086A010E096E16C00DF017C0B8
:102180000EF031EC1EF006C014F007C015F0D95067
:10219000060FE96EDACFEAFF1450EE261550ED2255
:1021A000D950060FE96EDACFEAFFEE50ED1003E1E9
:1021B000020EDF26EED0010EF36E040EF3CFDBFF2E
:1021C000050EDB50DF6EE5D0DBDDE66E8BEC0CF050
:1021D000E552DED06AEC0CF0DBD0DF2A040EE66EAE
:1021E000E66AFAEC0BF0E552E552080EE66EDF50B7
:1021F000DF2AE76EFD0EDBCFE9FFFE0EDBCFEAFF45
:10220000E750E926000EEA22EF50E66EFAEC0BF0FA
:10221000E552E552080EE66EDF50DF2AE76EFD0E4E
:10222000DBCFE9FFFE0EDBCFEAFFE750E926000E29
:10223000EA22EF50E66EFAEC0BF0E552E552A9D037
:10224000DF2A040EE66EE66AFAEC0BF0E552E55280
:10225000080EE66EDF50DF2AE76EFD0EDBCFE9FFEA
:10226000FE0EDBCFEAFFE750E926000EEA22EF5030
:10227000E66EFAEC0BF0E552E552080EE66EDF5022
:10228000DF2AE76EFD0EDBCFE9FFFE0EDBCFEAFFB4
:10229000E750E926000EEA22EF50E66EFAEC0BF06A
:1022A000E552E552080EE66EDF50DF2AE76EFD0EBE
:1022B000DBCFE9FFFE0EDBCFEAFFE750E926000E99
:1022C000EA22EF50E66EFAEC0BF0E552E55261D0EF
:1022D000040EE66EE66AFAEC0BF0E552E552080EE3
:1022E000E66EE66AFAEC0BF0E552E552080EE66E91
:1022F000E66AFAEC0BF0E552E552080EE66EE66A85
:10230000FAEC0BF0E552E55243D0040EE66E010EF6
:10231000E66EFAEC0BF0E552E552080EE66EE66A60
:10232000FAEC0BF0E552E552080EE66E12EC0DF0F9
:10233000E552E66E8BEC0CF0E552080EE66E12EC00
:102340000DF0E552E66E8BEC0CF0E55221D0080E54
:10235000E66E12EC0DF0E552E66E8BEC0CF0E552F9
:1023600017D0DF2ADF50E76EFD0EDBCFE9FFFE0E50
:10237000DBCFEAFFE750E926000EEA22EF50E66ED7
:1023800012EC0DF0E552E66E8BEC0CF0E55200D04D
:10239000DF2A15D5B30E5D5E5D9E5D46080E5D2697
:1023A000F9505D24D8B0FA2AF96EDCD2D4D2CBD25F
:1023B000C8D2B5D267D217D204D2F1D1C9D199D13E
:1023C00068D166D165D164D163D157D13FD135D1C0
:1023D0002DD119D10ED104D1FCD0E8D0E4D0E0D079
:1023E000D8D0C2D0AAD081D06ED001D035D0DF2ACB
:1023F000040EE66EE66AFAEC0BF0E552E552040EC6
:10240000E66EDF50E76EFD0EDBCFE9FFFE0EDBCFA1
:10241000EAFFE750E926000EEA22EF50E66EFAECFA
:102420000BF0E552E552080EE66E6AEC0CF0E66E33
:10243000FAEC0BF0E552E552080EE66EE66AFAECAD
:102440000BF0E552E552040EE66E020EE66EFAEC73
:102450000BF0E552E5529CD7DF2A040EE66EE66AE1
:10246000FAEC0BF0E552E552040EE66EDF50E76E33
:10247000FD0EDBCFE9FFFE0EDBCFEAFFE750E926DA
:10248000000EEA22EF50E66EFAEC0BF0E552E55250
:10249000080EE66E6AEC0CF0E66EFAEC0BF0E55214
:1024A000E552080EE66E6AEC0CF0E66EFAEC0BF004
:1024B000E552E552040EE66E020EE66EFAEC0BF003
:1024C000E552E55265D7DF2ADF50E76EFD0EDBCF20
:1024D000E9FFFE0EDBCFEAFFE750E926000EEA2215
:1024E000EF50E66E2BDCE55253D7DF2ADF50E76E64
:1024F000FD0EDBCFE9FFFE0EDBCFEAFFE750E9265A
:10250000000EEA22EF50E66EDF50E76EFD0EDBCFE5
:10251000E9FFFE0EDBCFEAFFE750E926000EEA22D4
:10252000010EE926000EEA22EF50E66E32EC0CF0C6
:10253000E552E552020EDF262CD7DF2ADF50E76E88
:10254000FD0EDBCFE9FFFE0EDBCFEAFFE750E92609
:10255000000EEA22EF50E66E6AEC0CF0E66E32EC0A
:102560000CF0E552E55214D7DF2ADF50E76EFD0E7E
:10257000DBCFE9FFFE0EDBCFEAFFE750E926000ED6
:10258000EA22EFCFA6F0A6C0E6FF5BEC0DF0E55225
:10259000FFD66AEC0DF0E66E8BEC0CF0E552F8D647
:1025A0006DEC0DF0F5D675EC0DF0F2D6DF2ADF50AC
:1025B000E76EFD0EDBCFE9FFFE0EDBCFEAFFE75053
:1025C000E926000EEA22EF50E66E7DEC0DF0E552B2
:1025D000DFD66AEC0CF0E66E7DEC0DF0E552D8D655
:1025E000E66AE1EC0DF0E552E66E8BEC0CF0E5529C
:1025F000CFD60F0EE66EE1EC0DF0E552E66E8BECF9
:102600000CF0E552C5D6DF2ADF50E76EFD0EDBCFBA
:10261000E9FFFE0EDBCFEAFFE750E926000EEA22D3
:10262000EF50E66E48EC0EF0E552B2D66AEC0CF0D4
:10263000E66E48EC0EF0E552ABD6E66A48EC0EF0DA
:10264000E552E66E8BEC0CF0E552A2D6DF2ADF50A5
:10265000E76EFD0EDBCFE9FFFE0EDBCFEAFFE750B2
:10266000E926000EEA22EF50E66E48EC0EF0E55245
:10267000E66E8BEC0CF0E5528BD66AEC0CF0E66E55
:1026800048EC0EF0E552E66E8BEC0CF0E55280D68D
:10269000FFD7DF2ADF50E76EFD0EDBCFE9FFFE0E2E
:1026A000DBCFEAFFE750E926000EEA22EF50030AEB
:1026B00019E0010A11E0030A09E0010A01E018D05B
:1026C000A7C0E6FF48EC0EF0E55212D0A8C0E6FF26
:1026D00048EC0EF0E5520CD0A9C0E6FF48EC0EF035
:1026E000E55206D0AAC0E6FF48EC0EF0E55200D055
:1026F0004FD6DF2ADF50E76EFD0EDBCFE9FFFE0E7F
:10270000DBCFEAFFE750E926000EEA22EF5017E0A0
:10271000DF50E76EFD0EDBCFE9FFFE0EDBCFEAFFF9
:10272000E750E926000EEA22EFCF14F00001145022
:102730000001A727000EA823A923AA2308D000017F
:10274000A82B000E0001A923000E0001AA2320D609
:10275000DF2ADF50E76EFD0EDBCFE9FFFE0EDBCF99
:10276000EAFFE750E926000EEA22010EE926000EF4
:10277000EA22EF50E66EDF50E76EFD0EDBCFE9FF99
:10278000FE0EDBCFEAFFE750E926000EEA22EF500B
:10279000E66E10D9E552E552020EDF26FAD5DF2AA1
:1027A000DF50E76EFD0EDBCFE9FFFE0EDBCFEAFF69
:1027B000E750E926000EEA22EF50E66E31D9E552E5
:1027C000E7D5DF2ADF50E76EFD0EDBCFE9FFFE0E17
:1027D000DBCFEAFFE750E926000EEA22EF50E66E73
:1027E0002DD9E552D5D5DF2A010EE66EDF50E76E12
:1027F000FD0EDBCFE9FFFE0EDBCFEAFFE750E92657
:10280000000EEA22EF50E66EDF50E76EFD0EDBCFE2
:10281000E9FFFE0EDBCFEAFFE750E926000EEA22D1
:10282000010EE926000EEA22EF50E66EDF50E76E59
:10283000FD0EDBCFE9FFFE0EDBCFEAFFE750E92616
:10284000000EEA22020EE926000EEA22EF50E66EA2
:10285000DF50E76EFD0EDBCFE9FFFE0EDBCFEAFFB8
:10286000E750E926000EEA22030EE926000EEA22CE
:10287000EF50E66EF3D8146E050EE15E1450040EB0
:10288000DF2687D5DF2ADF50E76EFD0EDBCFE9FFBD
:10289000FE0EDBCFEAFFE750E926000EEA22EF50FA
:1028A000E66EDF50E76EFD0EDBCFE9FFFE0EDBCFFD
:1028B000EAFFE750E926000EEA22010EE926000EA3
:1028C000EA22EF50E66EDF50E76EFD0EDBCFE9FF48
:1028D000FE0EDBCFEAFFE750E926000EEA22020EE9
:1028E000E926000EEA22EF50E66EDF50E76EFD0E9D
:1028F000DBCFE9FFFE0EDBCFEAFFE750E926000E53
:10290000EA22030EE926000EEA22EF50E66EE0D836
:10291000E552E552E552E552040EDF263AD56AEC5F
:102920000CF0E66E6AEC0CF0E66E6AEC0CF0E66E0B
:102930006AEC0CF0E66ECCD8E552E552E552E55271
:1029400027D5E1D825D5010EE66E010EE66EEED84C
:10295000E552E5521DD5010EE66EE66AE7D8E5526E
:10296000E55216D5E66AE66AE1D8E552E55210D599
:10297000DFEF0EF0080EE15C02E2E16AE552E16E83
:10298000E552E7CFD9FF12008A8C8A9A5DB08A8A15
:10299000939A00008A9C5EA08A9A8A8C5EB08A8A8A
:1029A0005F9E8A9C8A8C938A8A9C8A8C81BA5F8E6D
:1029B0008A9C120030DAFE0EDB5010E05D6AFD0EDC
:1029C000DB505E6E9D90DF6AFE0EDB50DF5C05E241
:1029D000DBDF5E905E42DF2AF7D79D80E55241D172
:1029E0001ADAFE0EDB5002E1000E18D0FD0EDB50AD
:1029F0005D6EFC0EDB505E6E5F6A9D90DF6AFE0EC0
:102A0000DB50DF5C09E25F905F42BEDF5D905D42BC
:102A10005E905E42DF2AF3D79D805F50E55221D160
:102A20001BD9030EE66E040E20D9100EE66EFE0EC4
:102A3000DBCFE6FF050EE5D9D0D913D1ECD9DF6A9B
:102A4000010EE5D95FAE02D0010EDF6ECBD95F502B
:102A50005F24DF1251D9C1D9E55203D1FDD8020E4E
:102A6000E126DF6A010EDB6AD2D95FAE02D0010E29
:102A7000DF6EE66AFB0ED2D901E03ED9DF6A5FAEB7
:102A800002D0010EDF6EE66AFC0EC8D901E034D92F
:102A9000DF6A5FAE02D0010EDF6EE66AFD0EBED9C0
:102AA00001E02AD9010EDFCFDBFFDF6A5FBEDF6EF8
:102AB00099D952D901E020D990D9010EDB50146E7A
:102AC000020EE15C02E2E16AE552E16E1450C9D007
:102AD000C3D8010E9CD95FBE04D01F0EE66E050E52
:102AE00010D0E66A010EC1D8E66AFB0EB0D8E66ADD
:102AF000FC0EADD8E66AFD0EAAD874D9010EE66EBA
:102B0000020EB3D8AED04CD954D903E1F250040B25
:102B1000FBE0D59EF2B408D0090E02D9E66A39D995
:102B200038D99CDF64D950D9E5529BD039D941D9E5
:102B300003E1F250040BFBE0D59EF2B40DD0090E78
:102B4000EFD8FE0EDBCFE6FFE66AE66AE66A92D8C9
:102B5000FD0EDB5001E038D9E55283D0120012009F
:102B600012001200BEEF1CF012001E0EE66E010EE7
:102B7000E66E3BEC1BF0E552E552400EE66E400E71
:102B8000E66E020EE66EE66A010EE66E85EC1BF05E
:102B90002ED9F3CFA0F0F4CFA1F01200648400018D
:102BA000080EBF6F070EC06FBF07000EC05BBF519E
:102BB000C011FAE164941200D9CFE6FFE1CFD9FF4A
:102BC000FD0EDBCF08F0FE0EDBCF09F0720E081809
:102BD00001E1095033E0E868081802E17F0E0918A6
:102BE0002BE0740E081801E1095024E0750E081856
:102BF00001E109501DE0730E081801E1095016E0CB
:102C0000030E081801E109500FE0020E081801E157
:102C1000095008E0010E081801E1095001E010D048
:102C2000A4DF0FD0A1DF0DD09DDF0BD099DF09D03D
:102C300095DF07D094DF05D094DF03D0000001D0EA
:102C400000D0010E00D0E552E7CFD9FF1200DBCF54
:102C5000E6FF080E01EF17F0D9CFE6FFE1CFD9FF6D
:102C60001200E552E7CFD9FF1200E66EA3DEE5526F
:102C7000E5521200E66AF2DEF7EF16F0ADC0E9FFAA
:102C8000AEC0EAFFEF50E66EDF50EA6A800FE96EF1
:102C9000020EEA22E552E750EF6E0001AD07000E8A
:102CA000AE5BB351AD191200400EE66E800EE66EBB
:102CB000020EE66E010EE66EE66E85EC1BF097D80E
:102CC000F3CFA2F0F4CFA3F0030EE15C1200060EE6
:102CD000E66EC2EC1EF0E5521200FD0EDBCFE9FFFE
:102CE000FE0EDBCFEAFFEF50EF2AEA6A400FE96EF3
:102CF000020EEA22EF501200DFCFE6FF8BEC0CF061
:102D0000E5521200030EE126010EAFC0DBFF020EFA
:102D1000B0C0DBFFD950010FE96EDACFEAFF120035
:102D2000E66E7EDEE5521200010EDBCF08F0020EE9
:102D3000DBCF09F008500001AF5F0950B05B120013
:102D4000B5C0E9FFB6C0EAFFEF6E0001B52B000E7B
:102D5000B623BD51B51912005F505F24DF12FA0E81
:102D6000DB501200DFCF14F0010EDBCF15F0020EA6
:102D7000DBCF16F01200F36E010EF3CFDBFF020E75
:102D8000DB6A1200A2C0E9FFA3C0EAFFEF50800B8C
:102D900012006AEC0CF0E66E6AEC0CF0E66E1200C3
:102DA0003AD8D76AD66AF294870ED56E0A0E90EF9B
:102DB00016F0E66AE66AD00EE66E040EE66E5ADF9C
:102DC000DF6E040EDF1412000A0EAADFE66AE66A5E
:102DD000C00EE66EE66A3AEF16F0010EE66E020EDF
:102DE00035EF16F0800EE66EFE0E27EF16F0146E2D
:102DF000050EE15E145012006ADF8A98939867EF1F
:102E000016F0E66EEDDDE552E552E5521200E66E93
:102E1000030E35EF16F020DFE652120018DFACEF9C
:102E200016F019EC1CF0A0940F015F6B626A140E8F
:102E3000616E9F0E5B6F7B0E606E648C5C6B10EC42
:102E40001CF0649CDF6A47EC1CF003E200EC1CF011
:102E5000FAD70F01160E536F62A602D06296FCD706
:102E60000201D36BD86BD96BDA6B6498DF6A020E00
:102E7000DF5C10E2EA6ADF349DEC1CF0EA22EE6AC5
:102E8000ED6AEA6ADF34A4EC1CF0EA22EE6AED6A2D
:102E9000DF2AEDD70201040ECB6F020ECC6FC16B9F
:102EA000C06BE552E4EF1BF019EC1CF00201C051BD
:102EB00010E1646A606A140E616E0F019F0E5B6F11
:102EC0007B0E606E64B602D06486FCD70201010EF0
:102ED000C06FC00508E164BA06D0626A606A6080AB
:102EE0006088020EC06F6250040B05E06050040B56
:102EF00002E062948AD864B24AD06250010B12E0B8
:102F00006050010B0FE08DDF0201040EC06F020163
:102F1000100E026F020E036F080E016F006B8C0E15
:102F2000001362906250100B05E06050100B02E03D
:102F300064D862986250400B09E06050400B06E094
:102F400066EC1CF0730ED7EC1BF0629C6250200BF9
:102F500004E06050200B01E03DD86250020B0CE011
:102F60006050020B09E066EC1CF0E6687F0EE66E2E
:102F7000ABEC1CF00F015F6B040E0201E76EC01991
:102F8000E8AE02D0E73402D0E750C05D02E2A1947F
:102F90001ED060A61BD0DF6A040EDF5C17E262A6BB
:102FA00015D063CFDFF26296780E0201DF1502E1E1
:102FB00037D80AD0000EE66EE66ADF0EE66E020E25
:102FC000E66E720ED7EC1BF0DF2AE6D7A194E5522D
:102FD000E4EF1BF00F0153A10ED01CEC1CF0EF50DE
:102FE000800808E1DFDBEF50840804E11CEC1CF0F2
:102FF0008C0EEF6E5391629A120060846298648224
:103000002FEC1CF0750ED7EF1BF02FEC1CF0740E9C
:10301000CEDB6492609462A402D06294FCD712006A
:1030200019EC1CF0FD0E0201DF1548E17E0EDF15E4
:10303000E8407F0B040DF3CFC3F2F4CFC4F2000ECF
:10304000C327020EC423C3C2C5F2C4C2C6F21CEC1D
:103050001CF0EF503C0BE842E8420D082DE1ECDBA0
:1030600080EC1CF0EECF14F0EFCF15F0180E141812
:1030700021E1020E15181EE1DFDB80EC1CF0100EC2
:10308000EE6E020EED6EDF6ADF50146E156A080EEA
:10309000145C000E15580EE2DF504FEC1CF0DF50B0
:1030A000EA6A100FE96E020EEA22E552E750EF6E6F
:1030B000DF2AEAD70AD807D01AD805D0FD0EDF15C7
:1030C000040801E122D8E5527FD36CDBEF50800B7E
:1030D00002E068DBEF6A0201CF6BD06BD46BD56B7B
:1030E000D36B66D8BCDB030E62DBEDEF19F0020E8A
:1030F0000201D05D02E170EF1AF036D80201E05112
:1031000002E185EF1CF0E06B120093DB4BDBEF502C
:10311000400B01E0010EDF6E080E0201C05D0CE104
:1031200012C25CFF0F015C51000803E20201100EA5
:1031300002D00201040EC06FD00513E1B7EC1CF001
:103140007CD9020E0201CF5D03E12CDB840E07D097
:10315000DF5003E127DBC80E02D024DB880EEF6EC0
:1031600001D002D8E55230D32BDB0201D06B1ADB41
:10317000EF6A000ECB19146ECCC215F0DE6ECCC215
:10318000DDFF26DBEF6AD8AF0CD0DB51DC1107E0A6
:1031900005D0DCC2FAFF0201DB51F96EFADF020151
:1031A000D89F020EE15C02E2E16AE552E16E0CD3C7
:1031B00002011051600BE842E842E842E842E8426E
:1031C000000901E0120011510C0A45E00B0A3FE032
:1031D0000C0A31E0010A22E00B0A1EE0020A1CE0A0
:1031E000030A18E0080A10E0010A0CE00F0A08E0E0
:1031F000030A01E012000201D38F080EC06F120013
:1032000072EF19F0CBEF1AF00201C10ED16F020E6E
:10321000D26F0CD0B3EF19F02CEF19F0145102015A
:10322000D16FD26BC20ED127020ED223D381010EF1
:10323000D46FD38F12000201D38F02011451EA6AB6
:10324000C20FE96E020EEA2212C2EFFF120007DB84
:10325000020ED7EF1BF012005CDB040EE126020128
:10326000125139E110511F0B020835E114510F0BB7
:10327000000931E00201D38F020114BF05D0B3DA97
:10328000C70EE926020E04D0AEDACB0EE926020EF6
:10329000F8DA030E115D03E19BDA840E1BD01451A2
:1032A0000F0B156A530F146E0F0E1522020E14C069
:1032B000DBFF030E15C0DBFF020EDBCFE9FF030EC1
:1032C000DBCFEAFFEF9014AF03D082DA400E02D0DA
:1032D0007FDAC80EEF6E040EE15C02E2E16AE552AD
:1032E000E16E72D2800E0201105D3CE10201C00E5F
:1032F000D36F02011351030A1EE0010A09E0030A19
:103300002FE10201060ED16F3B0ED26F120E22D0BA
:10331000E4DAB80EF6263B0ECADA020E0201F76AAC
:10332000D125F66ED251F7220900F5CFD4F20A006A
:10333000F5CFD5F21200030E125D0FE2CEDABC0E0D
:10334000F6263B0EB4DAD1C2F6FFD2C2F7FF080070
:10335000F5500201D46FD56B12000201D36B12003D
:103360000201D36B12002CDA0201186B196B105199
:103370001F0B020A0CE0030A07E0010A1DE102012B
:10338000D38F0201188118D00201D38F15D002010A
:10339000D38F020114BF05D026DAC70EE926020E2C
:1033A00004D021DACB0EE926020E6BDA11DAEF50E7
:1033B000040B02E0010E186F0201D3AF07D0180E04
:1033C000D16F020ED26FD381020ED46F020EE15C78
:1033D00002E2E16AE552E16EF7D164980201D3BFDF
:1033E00008D0D8AF02D080DA20D08FDADBD9840EB3
:1033F0001DD0D8BF21D0020110AF1AD00201D45184
:103400000201165D0201D5510201175904E216C2EC
:10341000D4F217C2D5F211D80201010ED06FABDA87
:10342000800EEF6EE06BA3DABDD9C80EEF6E12000E
:1034300002015ADAC80EEF6E1200C2D90201080E5C
:10344000D45D000ED5590DE2D4C2DEFFD5C2DDFF3A
:10345000CF5102E1010E03D0CF0506E1020ECF6F7E
:1034600003D0080EDE6EDD6A9DD9EF929BD9EF90F6
:1034700099D9010EDB50EF1295D9EE52DFCFEFFF55
:10348000000EDB50D45F010EDB50D55B180EDD6FF4
:10349000020EDE6FD3B10FD0E8D91BE0D1C2F6FF28
:1034A000D2C2F7FFD12B000ED2230800F550C9D9A4
:1034B000F3E2DB06F1D7D9D90CE0D1C2E9FFD2C2E1
:1034C000EAFFD12B000ED223EF50BBD9F4E2DB068A
:1034D000F2D7020EE15C02E2E16AE552E16E74D1DC
:1034E0006FD9AAD9EE52EFCFDFFFDFCF14F014501F
:1034F0000201D95D000EDA5902E2D9C2DFFFDF50C6
:10350000146E156AE850D95DD96F1550DA59DA6F23
:10351000010EDB6ADF50F36E010EDBCFF4FFF350D8
:10352000F45C10E2010EDB50BAD9D6C2E9FFD7C273
:10353000EAFFD62B000ED723E552E750EF6E010EBF
:10354000DB2AE8D7000ED880D955000EDA550DE2F7
:1035500022D992D971D9EF50400B03E103DAC80E9A
:1035600002D000DA880EEF6E0FD005DA840EEF6E0F
:10357000DB51DC1107E005D0DCC2FAFF0201DB51B0
:10358000F96EFADF0201D89F020EE15C02E2E16A05
:10359000E552E16E19D14DD90201D38F41D9DF6ACD
:1035A00076D902E22DD9FCD7648C010EE66EE66A6C
:1035B000E66AC20EE66E020EB1D9649C0201040EE8
:1035C000CB6F020ECC6F000EC36F020EC46FC3C26E
:1035D000C5F2C66F12C2C1F2C15102E1100E0BD08A
:1035E000010EE66EE66AC10EE66E020EE66E010E92
:1035F000DED80201200EC06FE552E6D0E1D8000E01
:10360000DE6E020EDD6EFD0EDB50040DF3CF16F004
:10361000FE0EDB50080DF3501624146E156A020ED0
:103620000F0B05E0D89015321432E806FBE1D89074
:1036300014361536D89014361536D9CFE9FFDACFBF
:10364000EAFF1450EE261550ED22C2D8EF9EFD0E73
:10365000DB5002E1D0D801D0AED8EA22DECFEEFFB7
:10366000DDCFEDFFB5D8EF8C020EE15C02E2E16A3E
:10367000E552E16EA9D0A4D8FE0EDB50156A530FB7
:10368000146E0F0E152214C0DEFF15C0DDFFA0D88A
:10369000FD0EDBCFEFFFDBA402D0E66A10D9FD0EF2
:1036A000DBA203D0010EE66E0AD9020EE15C02E253
:1036B000E16AE552E16E88D083D8FE0EDB5005E169
:1036C00024D970D8840EEF6E19D0FD0EDBCFE6FF43
:1036D000FE0EDB50E824E552E724040DF3CF14F08E
:1036E000F4CF15F0000E1426020E152214C0DEFFD2
:1036F00015C0DDFF840E6CD8E850EF12020EE15CBD
:1037000002E2E16AE552E16E5FD05AD8FD0EDB506D
:1037100002E051D801D06FD8B4D8A7D803E1F36A3A
:10372000F46A26D055D8EF7C53D8EAD8FB0EDBCF0D
:10373000EEFFFC0EDBCFEDFF4BD8EE52FA0EDBCFE7
:10374000EFFF400E45D8E850EF16880E41D8E850FC
:10375000EF12FD0EDB5002E02ED801D04CD8EA2249
:10376000DECF14F0DDCF15F014C0F3FF15C0F4FF69
:10377000020EE15C02E2E16AE552E16E25D0C9D8B1
:1037800064A808D0D3D8400EEE16EE6AEE6AEE6A50
:10379000CDD8EE7C19D0E6D8EE52080EEF6EE2D806
:1037A00080EF1CF0CBC2E9FFCCC2EAFF1200E66E4C
:1037B000E66AABEF1CF0FE0EEA6ADB349DEF1CF00C
:1037C000A8D8020EE1261200E552E7CFD9FF120079
:1037D000DECFE9FFDDCFEAFF1200100EEE6E020E23
:1037E000ED6EB2EF1CF014510F0BE96EEA6AD8903F
:1037F000E936EA361200FE0EEA6ADB34A4EF1CF06A
:10380000DF50040DF3CFE9FFF4CFEAFF000EE92605
:10381000020EEA22EE6AEE6AEE6AEE6ADF2A120011
:10382000010EE66EE66AE66A540EE66E0F0E8EEF45
:103830001CF06FD8E6521200C3C2E9FFC4C2EAFF0F
:103840001200E66EDDC2E9FFDEC2EAFFDD2B000EEC
:10385000DE23E552E750EF6EDF06010E1200000E88
:10386000E66EE66AE66EE66A1200D9CFE9FFDACFC5
:10387000EAFFEE50ED101200180EEE6E020EED6E25
:103880001200EA22EECFDEFFEDCFDDFF1200DF50A7
:10389000146E156A040E145C000E15581200EA6AC4
:1038A000180FE96E020EEA22EF50E66E1200F722C0
:1038B0000900F5CFD1F20A00F5CFD2F21200FE0EC8
:1038C000DBCFE6FF9BDEE552E5521200010EE66E0D
:1038D000E66A000EE66EE66A12001251F66EF76AAC
:1038E000D890F636F7361200020ED06F5BDFEE523C
:1038F000EF6A58DFC80EEF6E4EDFBEDFB2EF1CF08E
:10390000020EE926000EEA22120035D88C0EEF6E68
:103910001200D9CFE6FFE1CFD9FF1200E66E5EECD0
:103920001EF0146E050EE15E1450120044DFEA2210
:10393000EE50EFCFEAFFE96E1200FE0BEA36E96EB9
:10394000CB0EE926020E1200FE0BEA36E96EC70E18
:10395000E926020E1200DCEC15F0146E060EE15E94
:1039600014501200C5C2E9FFC6C2EAFF12001ADFF6
:10397000C7DF3CEF1CF00FDFEDEF1BF00201105131
:103980001F0B010801E01200145101E01200060EA5
:10399000115D1EE11351230A1BE0010A0CE0030A2A
:1039A00017E10201C10514E10201300ED16F3D0E95
:1039B000D26F090E09D00201C1050AE102019B0E76
:1039C000D16F3B0ED26F1D0ED46FD56BC00ED36F6F
:1039D00002011051600BE842E842E842E842E84246
:1039E000010801E0120011510B0A26E0080A19E053
:1039F000090A11E0080A05E00B0A23E0080A21E0A1
:103A000012000201F70ED16F020ED26F010ED46FB9
:103A1000D56BC10E0FD00201800ED36F13C2F7F227
:103A200012000201F80ED16F020ED26F010ED46F98
:103A3000D56B810ED36F12000201800ED36F12C2BC
:103A4000F8F21200080E646E64BAFED7626A110EB4
:103A5000606E0201020EEF6F1200646A606A02017A
:103A6000EF6B12006250040B09E06050040B06E09B
:103A70006492609462A402D06294FCD76250010BFD
:103A800004E06050010B01E023D86250200B07E0F6
:103A90006050200B04E00F0153B15391629A030E62
:103AA0000201EF5D01E212000201FB6B040EFB5DFF
:103AB0000EE26250080B0BE06050080B08E010ECBF
:103AC00018F0000901E162960201FB2BEFD712000A
:103AD000626A7B0E606E0F015C6B0F01160E536FF6
:103AE00062A608D0629600000000000000000000FE
:103AF0000000F6D76498B4EC18F00201F16B0201F3
:103B0000030EEF6F12001201000200000008D8043B
:103B10000F000200010203020902290001010280D4
:103B2000FA0904000002030000000921010000015D
:103B3000221D000705810340000107050103400025
:103B4000010902200001020480FA0904000002FFBA
:103B50000000000705810340000107050103400044
:103B60000104030904120350006400750079007415
:103B70000065006300680024034200750072006E57
:103B8000002D0045002000500072006F0067007299
:103B90000061006D006D00650072000600FF090104
:103BA000A10119012940150026FF007508954081E3
:103BB00002190129409102C0183B413B613B653B22
:103BC000773B7C391E0EF66E100EF76E000EF86E07
:103BD00002010900F550EA6F0900F550EB6F03E1AF
:103BE000EA6701D03DD00900F550E56F0900F550B6
:103BF000E66F0900F550E76F09000900F550E96E1E
:103C00000900F550EA6E090009000900F550E86F57
:103C10000900F550E96F09000900F6CFECF2F7CF83
:103C2000EDF2F8CFEEF2E5C2F6FFE6C2F7FFE7C22B
:103C3000F8FF0201E85302E1E95307E00900F550FB
:103C4000EE6EE807F8E2E907F9D7ECC2F6FFEDC23D
:103C5000F7FFEEC2F8FF0201EA07000EEB5BBFD7E9
:103C6000120009C013F008C012F008500D02F4CF82
:103C700007F0F3CF06F009500E02F4CF09F0F3CFAE
:103C800008F00D02F3500726F4500822E86A0922D2
:103C900012500E02F3500726F4500822E86A092257
:103CA0000EAE57EF1EF01250085E1350095A13AEB5
:103CB000000C0D50085E0E50095A000CFE0EE3CFAA
:103CC000E9FFFF0EE3CFEAFFE9CFF3FFEACFF4FF0E
:103CD000FB0EE35003E1FC0EE35009E0FB0EE306AC
:103CE00002E2FC0EE306FD0EE350EE6EF1D7120089
:103CF000FF0EE350196EEF0E01D0F30EE76EE72EC4
:103D00007FEF1EF00C0E186EE76AE72E85EF1EF0AF
:103D1000182E84EF1EF0192E7DEF1EF012000902FE
:103D20002900010100C0FA0904000002030000009C
:103D3000092111010001221D000705810340000136
:103D400007050103400001FF000EF36E00EE00F0D6
:103D5000030E01D81200EA6002D0EE6AFCD7F350DD
:103D6000E9601200EE6AFCD710EE60F020EE60F021
:103D7000F86A019CE2EC1DF003EC08F089EC08F015
:103D8000FBD71200FF0EE350E84E1200000000D0F7
:103D900000D000D0E82EFAD71200FFFFFFFFFFFF90
:103DA00035D3A74B809D3D03C9B8210566DAFA9447
:103DB0009C23FA4FC02979E27C51376DA42E777F7E
:103DC00035D3A74B809D3D03C9B8210566DAFA9427
:103DD0009C23FA4FC02979E27C51376DA42E777F5E
:103DE00035D3A74B809D3D03C9B8210566DAFA9407
:103DF0009C23FA4FC02979E27C51376DA42E777F3E
:103E000035D3A74B809D3D03C9B8210566DAFA94E6
:103E10009C23FA4FC02979E27C51376DA42E777F1D
:103E200035D3A74B809D3D03C9B8210566DAFA94C6
:103E30009C23FA4FC02979E27C51376DA42E777FFD
:103E400035D3A74B809D3D03C9B8210566DAFA94A6
:103E50009C23FA4FC02979E27C51376DA42E777FDD
:103E600035D3A74B809D3D03C9B8210566DAFA9486
:103E70009C23FA4FC02979E27C51376DA42E777FBD
:103E800035D3A74B809D3D03C9B8210566DAFA9466
:103E90009C23FA4FC02979E27C51376DA42E777F9D
:103EA00035D3A74B809D3D03C9B8210566DAFA9446
:103EB0009C23FA4FC02979E27C51376DA42E777F7D
:103EC00035D3A74B809D3D03C9B8210566DAFA9426
:103ED0009C23FA4FC02979E27C51376DA42E777F5D
:103EE00035D3A74B809D3D03C9B8210566DAFA9406
:103EF0009C23FA4FC02979E27C51376DA42E777F3D
:103F000035D3A74B809D3D03C9B8210566DAFA94E5
:103F10009C23FA4FC02979E27C51376DA42E777F1C
:103F200035D3A74B809D3D03C9B8210566DAFA94C5
:103F30009C23FA4FC02979E27C51376DA42E777FFC
:103F400035D3A74B809D3D03C9B8210566DAFA94A5
:103F50009C23FA4FC02979E27C51376DA42E777FDC
:103F600035D3A74B809D3D03C9B8210566DAFA9485
:103F70009C23FA4FC02979E27C51376DA42E777FBC
:103F800035D3A74B809D3D03C9B8210566DAFA9465
:103F90009C23FA4FC02979E27C51376DA42E777F9C
:103FA00035D3A74B809D3D03C9B8210566DAFA9445
:103FB0009C23FA4FC02979E27C51376DA42E777F7C
:103FC00035D3A74B809D3D03C9B8210566DAFA9425
:103FD0009C23FA4FC02979E27C51376DA42E777F5C
:103FE0002483223B3E8132F9675B8F6F89C7F75488
:103FF0001894204C1574EFACF13F65902D14D0D07F
:0200000400F00A
:1000000052096AD53036A538BF40A39E81F3D7FB8D
:100010007CE339829B2FFF87348E4344C4DEE9CBD7
:10002000547B9432A6C2233DEE4C950B42FAC34E4C
:10003000082EA16628D924B2765BA2496D8BD12502
:1000400072F8F66486689816D4A45CCC5D65B692A6
:100050006C704850FDEDB9DA5E154657A78D9D844A
:1000600090D8AB008CBCD30AF7E45805B8B345066A
:10007000D02C1E8FCA3F0F02C1AFBD0301138A6B84
:100080003A9111414F67DCEA97F2CFCEF0B4E673B4
:1000900096AC7422E7AD3585E2F937E81C75DF6E62
:1000A00047F11A711D29C5896FB7620EAA18BE1BC8
:1000B000FC563E4BC6D279209ADBC0FE78CD5AF46E
:1000C0001FDDA8338807C731B11210592780EC5FB4
:1000D00060517FA919B54A0D2DE57A9F93C99CEF10
:1000E000A0E03B4DAE2AF5B0C8EBBB3C8353996111
:1000F000172B047EBA77D626E169146355210C7D4F
:020000040030CA
:0E0000000032211E00800900000003000340B2
:00000001FF
