:041000001CEF12F0DF
:10220800120012001200040EE82EFED712008A8C6B
:10221800938C8A8A938A1200948C948E938A938CD6
:102228001200000E056FCC0E046F120000F000F0D3
:1022380000F000F000F000F01200016E8A8C939C10
:102248008A8A939A01C032F01200000E7E6E7ECF09
:102258007FFF86EC11F060EC16F0FDD7010E346EAE
:10226800000E016E010E026E3BC003F09FEC13F0EE
:102278001200000E016E010E026E000E036E9FEC3E
:1022880013F0020E346E120003C03DF001C030F0AE
:1022980002C031F0400E0201016F880E006F12007B
:1022A80003C03DF001C030F002C031F0400E020121
:1022B800016FC80E006F1200000E346E15EC11F09D
:1022C800600E016E026A400E036E48EC11F01200B7
:1022D80039C000F1000E016E010E026E010E036E90
:1022E8009FEC13F0010E346E120022C03AF0000E7B
:1022F800016E010E026E000E036E9FEC13F0020ECB
:10230800346E120094968B96140E616E000E646EF5
:10231800000E626E000E606E648664AA1200FDD71D
:10232800000E0101006F000E016E010E026E010E1B
:10233800036E9FEC13F0010E346E1200600E016EF6
:10234800026A400E036E48EC11F0000E056FCC0EC9
:10235800046F000E346E120002019005D8A490514B
:10236800400E096F08AD03D0880E086F1200C80E22
:10237800086F1200938A8A9C070E026E170E016E70
:102388006A0EE82EFED7012EFCD7022EFAD700D00F
:102398008A8C120062C003F0000E046E08D004504C
:1023A800630FD96EDA6ADF5033EC12F0042A035057
:1023B800045CD8B01200F3D7000E016E938A000EA9
:1023C800026E8A9C1AEC11F08A8CD890013281BA7C
:1023D800018E022A070E0264F4D701501200016E22
:1023E800939A000E026E01A002D08A8A01D08A9ABE
:1023F8001AEC11F08A9CD89001328A8C022A070EB6
:102408000264F1D7120009D060EC11F0120063ECFD
:1024180012F0120032EC11F012002150010AD8B467
:10242800F9D7080AD8B4F3D7030AD8A41200ECD70E
:1024380001EE00F0960EEE6AE806FDE100EE60F0AF
:10244800960EEE6AE806FDE100EE20F01E0EEE6A3A
:10245800E806FDE1000EF86E000129EF11F0016EAB
:10246800939A000E026E01AE02D08A8A01D08A9A2F
:10247800040EE82EFED78A8C040EE82EFED78A9C1E
:10248800D8900136022A070E0264EDD71200000127
:102498006251D8B402D08A8A01D08A9A6351D8B4DA
:1024A80002D08A8C01D08A9C6451D8B404D08B9C09
:1024B8008B9E8B8C12008B9C8B9E8B8E12000CD06B
:1024C800010E3C6E010E346E600E016E026A26C06B
:1024D80003F054EC11F012002250010AD8B4F0D7DE
:1024E800030AD8B4EDD7060AD8A41200E9D722C047
:1024F80039F0400E096F800E0A6F210E0B6F880E9F
:10250800086FC00E0E6F210E0F6F400E0C6F1E0E5F
:102518000F01546F000E016E010E026E000E036E65
:102528009FEC13F0020E346E1200016E000E026E64
:10253800938A000E036ED89002368A8C040EE82E19
:10254800FED781BA02808A9C040EE82EFED7032AA1
:10255800070E0364F0D7939A0150D8B402D08A8A40
:1025680001D08A9A080EE82EFED78A8C040EE82E2F
:10257800FED78A9C040EE82EFED70250120005EC06
:1025880019F09C0E056ED70EE82EFED7052EFCD747
:1025980000F0000E33EC12F0000E33EC12F00B0ECC
:1025A80033EC12F0010E99EC12F00101006F000EED
:1025B80033EC12F0000E33EC12F00C0E33EC12F088
:1025C800010E99EC12F00101016F000E33EC12F0CC
:1025D800000E33EC12F04C0E33EC12F0010E99ECB5
:1025E80012F00101026F120062C00CF063C00BF020
:1025F800000E0D6E0BD0000E0D24D96EDA6A010E96
:10260800DA22000E99EC12F0DF6E0D2AFF0E046E2E
:10261800FF0E056E0C50066E076A0450062605501C
:1026280007220D50086E096A0650085C0950800A96
:102638000A6E0750800A0A58D8A0DDD7FF0E0C246E
:10264800D96EDA6A000EDA220B5099EC12F0DF6EBE
:1026580012008B86000E0C6E100E0C24D96EDA6AEE
:10266800020EDA220C50200FE16EE26ADFCFE7FF9C
:102678000C2A070E0C64F0D71039E842070B030B3D
:102688000B6E13D01DEC14F0120007EC12F01200C0
:1026980005EC11F01200600E016E026A400E036E26
:1026A80048EC11F015EC11F012000B50000AD8B4E8
:1026B800E9D7010AD8B4E9D7030AD8B4E9D7EBD7E0
:1026C80003C03DF001C030F002C031F0410E03609C
:1026D80019D0000E046E0FD004500124D96E000EDC
:1026E8000220DA6E500E0424E16EE26A020EE22243
:1026F800DFCFE7FF042A0350045CD8A0EDD703C05E
:1027080005F216D0000E046E04500124D96E000E96
:102718000220DA6E500E0424E16EE26A020EE22212
:10272800DFCFE7FF042A3F0E0464EED7400E056FA3
:10273800880E046F120003C03DF001C030F002C0E3
:1027480031F0410E036019D0000E046E0FD0045012
:102758000124D96E000E0220DA6E500E0424E16EB8
:10276800E26A020EE222DFCFE7FF042A0350045C8C
:10277800D8A0EDD703C005F217D0000E046E0450A0
:102788000124D96E000E0220DA6E500E0424E16E88
:10279800E26A020EE222DFCFE7FF042A3F0E04645A
:1027A800EED7400E0201056FC80E0201046F120039
:1027B8003404D8A428D0410E3D600AD0020E346EED
:1027C800600E016E026A000E036E54EC11F01200E6
:1027D800020104AD0CD0400E3024016E000E3120F1
:1027E800026E3D50C00F036E64EC13F01200400EF1
:1027F8003024016E000E3120026E3D50C00F036E72
:102808009FEC13F01200020E3418D8A412003A50AC
:10281800D8B404D03AC05CFF000E3A6E8B96000E16
:10282800346E600E016E026A400E036E48EC11F0C1
:10283800120021D0AAEC14F01200F6EC14F01200E9
:1028480062EC14F0120079EC11F01200DCEC1AF0D2
:102858001200A2EC11F012006CEC11F012007BECEB
:1028680012F0120094EC11F012003DEC11F012007D
:1028780004EC11F012002150000AD8B4DBD7010A89
:10288800D8B4DBD7020AD8B4DBD7060AD8B4DBD76A
:10289800030AD8B4DBD7010AD8B4DBD70F0AD8B4F7
:1028A800DBD7010AD8B4DBD7030AD8B4DBD7010ACF
:1028B800D8B4DBD7070AD8A41200DAD710511F0BF7
:1028C800056E3CD0000E016E010E026E000E036E06
:1028D8009FEC13F0020E346E120024500F0B0A6E98
:1028E8002450800B066E22C007F0200E096E000EE1
:1028F800086E0A50080DF3500826F45009220650B5
:10290800D8B404D0040E0826000E09220750D8A413
:10291800D9D70A50D8B4D6D708C0D9FF09C0DAFF2A
:10292800840EDF6ECFD7400E016F880E006F000E49
:10293800056FCC0E046F000E346E12000550000AAD
:10294800D8B4C0D7020AD8B4C8D7EDD720501F0BC7
:10295800056E3DD0000E0101006F000E016F000EE4
:10296800016E010E026E020E036E9FEC13F0010E53
:10297800346E120024500F0B066E2450800B076E25
:10298800200E096E000E086E0650080DF35008263A
:10299800F45009220750D8B404D0040E0826000EBB
:1029A800092208C0D9FF09C0DAFFDFACD3D7010E6E
:1029B800D2D7600E016E026A400E036E48EC11F029
:1029C800000E346E000E056FCC0E046F1200055019
:1029D800000AD8B4BFD7010AD8B4BCD7030AD8B400
:1029E800C9D7E7D720501F0B056E48D0000E016EDF
:1029F800010E026E000E036E9FEC13F0020E346E91
:102A0800120024500F0B076E2450800B086E22C052
:102A180006F0200E0A6E000E096E0750080DF350DE
:102A28000926F4500A220850D8B404D0040E092606
:102A3800000E0A220650D8A4D9D70750D8B4D6D742
:102A48000850D8B406D009C0D9FF0AC0DAFF000E72
:102A580005D009C0D9FF0AC0DAFF880EDF6EC6D7D5
:102A6800600E016E026A400E036E48EC11F0000E13
:102A7800056FCC0E046F000E346E12000550000A6C
:102A8800D8B4B4D7020AD8B4BCD7EAD73250BDEC10
:102A980017F0070EE7EC19F034EC17F0106E10B2CF
:102AA800FBD734EC17F0106E10A0FBD7130E056E91
:102AB80046EC18F0116E1350D8A402D0000E120084
:102AC8000D0E1118D8A4FAD70B50E7EC19F034EC16
:102AD80017F0106E10B2FBD70A50E7EC19F034EC7F
:102AE80017F0106E10B2FBD70E50E7EC19F034EC6B
:102AF80017F0106E10B2FBD7000E126E08D00F50F0
:102B08001224D96EDA6ADF50E7EC19F0122A0E5057
:102B1800125CD8A0F4D734EC17F0106E10A0FBD7D5
:102B2800130E056E46EC18F0116E1350D8B4C6D7C4
:102B38000D0E1118D8A4C2D7010E120062C00AF0F7
:102B480063C00BF0000E0D6E1CD00D50640FD96ED3
:102B5800DA6ADF5033EC12F08A9A000E0C6E04D059
:102B6800040EE82EFED70C2A0B500C5CD8A0F8D720
:102B7800040EE82EFED78A8C040EE82EFED78A9C17
:102B88000D2AFF0E036EFF0E046E0A50056E066ACC
:102B980003500526045006220D50076E086A05509A
:102BA800075C0850800A096E0650800A0958D8A0A8
:102BB800CCD70D50640FD96EDA6ADF5033EC12F0BF
:102BC8008A9A000E0C6E04D0040EE82EFED70C2A4A
:102BD8000B500C5CD8A0F8D78A8A040EE82EFED7D2
:102BE8008A8C040EE82EFED78A9C12003250BDEC67
:102BF80017F0060EE7EC19F034EC17F0116E11B26D
:102C0800FBD734EC17F0116E11A0FBD7140E056E2C
:102C180046EC18F0126E1450D8A402D0000E120020
:102C28000D0E1218D8A4FAD70B50E7EC19F034ECB3
:102C380017F0116E11B2FBD70A50E7EC19F034EC1B
:102C480017F0116E11B2FBD70E50E7EC19F034EC07
:102C580017F0116E11B2FBD734EC17F0116E11A0FA
:102C6800FBD7140E056E46EC18F0126E1450D8B44B
:102C7800D5D70D0E1218D8A4D1D7000E136E16D0C2
:102C880034EC17F0116E11A0FBD7140E056E46EC4C
:102C980018F0116E13500F24D96E000E1020DA6E42
:102CA80011C0DFFF1450D8B4B9D7132A0E50135CE3
:102CB800D8A0E6D7010E120062A204D0000E0F01C0
:102CC8005F6F120062AC02D0629C120062A803D04F
:102CD80062986482120062A403D062946492120023
:102CE80062AA04D00201049D629A120062A021D057
:102CF8006296000E0F01536F000E546F400E0201D2
:102D0800016F100E026F020E036F880E006F500ED7
:102D1800066F020E076F080E046F000E3A6E000E63
:102D2800396E000E0F015C6F000E626E160E536F47
:102D3800120062A6120063CF1FF0780E1F16D8A4E7
:102D480013D063A403D0DCEC13F01CD002010041C3
:102D5800E8423F0B0F0B0D0AD8A403D02DEC13F05B
:102D680011D0C9EC16F00ED06338E8461F0B0F0BD4
:102D7800E806D8A407D063A403D006EC11F002D06B
:102D8800B0EC11F06296649812003404D8A459D0BB
:102D9800410E3D6028D0000E1E6E0FD0100E1E246E
:102DA800D96EDA6A020EDA221E503024E16E000E65
:102DB8003120E26EDFCFE7FF1E2A3D501E5CD8A00F
:102DC800EDD73C50D8B404D02FEC1CF0000E3C6E6C
:102DD800020E346E000E016E010E026E000E036EBE
:102DE8009FEC13F01200000E1E6E100E1E24D96EFA
:102DF800DA6A020EDA221E503024E16E000E31200B
:102E0800E26EDFCFE7FF1E2A3F0E1E64EED700AD4D
:102E18000CD0400E3024016E000E3120026E3D5061
:102E2800C00F036E48EC11F01200400E3024016E02
:102E3800000E3120026E3D50C00F036E54EC11F0AD
:102E48001200020E3418D8A412008B96000E346EAD
:102E5800600E016E026A400E036E48EC11F012001B
:102E6800938A8A9C010E016E000E026E000E036E9C
:102E7800000E046E07EC11F08A8C010E016E000E34
:102E8800026E000E036E000E046E07EC11F0939AAA
:102E9800060E016E000E026E000E036E000E046E2A
:102EA80007EC11F08A9A010E016E000E026E000EF8
:102EB800036E000E046E07EC11F08A9C010E016E81
:102EC800000E026E000E036E000E046E07EC11F089
:102ED8008A8C010E016E000E026E000E036E000E4B
:102EE800046E07EC11F08A8A8A9C010E016E000EAE
:102EF800026E000E036E000E046E07EC11F08A8C51
:102F0800010E016E000E026E000E036E000E046EBE
:102F180007EC11F0060E016E000E026E000E036E35
:102F2800000E046E07EC11F0E0EC11F0056E060ED1
:102F3800016E000E026E000E036E000E046E07ECAA
:102F480011F08A9C010E016E000E026E000E036ED7
:102F5800000E046E07EC11F08A8C010E016E000E53
:102F6800026E000E036E000E046E07EC11F00550A1
:102F78001200056E938A8A9C010E016E000E026E85
:102F8800000E036E000E046E07EC11F08A8C010E21
:102F9800016E000E026E000E036E000E046E07EC4A
:102FA80011F0939A060E016E000E026E000E036E6B
:102FB800000E046E07EC11F08A8A010E016E000EF5
:102FC800026E000E036E000E046E07EC11F08A9C70
:102FD800010E016E000E026E000E036E000E046EEE
:102FE80007EC11F08A8C010E016E000E026E000EC5
:102FF800036E000E046E07EC11F08A9C010E016E40
:10300800000E026E000E036E000E046E07EC11F047
:103018008A8C010E016E000E026E000E036E000E09
:10302800046E07EC11F0060E016E000E026E000E23
:10303800036E000E046E07EC11F00550F3EC11F06E
:10304800060E016E000E026E000E036E000E046E78
:1030580007EC11F08A9C010E016E000E026E000E44
:10306800036E000E046E07EC11F08A8C010E016EDF
:10307800000E026E000E036E000E046E07EC11F0D7
:10308800938A1200938A8A9C1AEC11F08A8C010E9A
:10309800016E000E026E000E036E000E046E07EC49
:1030A80011F0939A060E016E000E026E000E036E6A
:1030B800000E046E07EC11F08A9A010E016E000EE4
:1030C800026E000E036E000E046E07EC11F08A9C6F
:1030D8001AEC11F08A8C010E016E000E026E000EC1
:1030E800036E000E046E07EC11F08A9C1AEC11F0C6
:1030F8008A8C010E016E000E026E000E036E000E29
:10310800046E07EC11F08A9C1AEC11F08A8C010EFF
:10311800016E000E026E000E036E000E046E07ECC8
:1031280011F08A9C1AEC11F08A8C010E016E000EC7
:10313800026E000E036E000E046E07EC11F0060E10
:10314800016E000E026E000E036E000E046E07EC98
:1031580011F0938A010E076E000E096E000E086EBC
:103168008A9C1AEC11F08A8C010E016E000E026E18
:10317800000E036E000E046E07EC11F081AA03D056
:10318800000E076E08D0084A092A500E085CC30EC4
:103198000958D8A0E5D70750D8B407D00550D96E3C
:1031A800DA6A000EDF6E000E1200060E016E000EC7
:1031B800026E000E036E000E046E07EC11F0E0ECD8
:1031C80011F0066E060E016E000E026E000E036E02
:1031D800000E046E07EC11F08A9C1AEC11F08A8C30
:1031E800010E016E000E026E000E036E000E046EDC
:1031F80007EC11F00550D96EDA6A010EDF6E065041
:1032080012008B9C8B9E8B8C8A9A8A9C939A939C97
:103218009C0E036ED70EE82EFED7032EFCD700F0C7
:103228008B9C8B9E949C949E8B9C8B9E8B8E9C0ED1
:10323800036ED70EE82EFED7032EFCD700F08B9C2A
:103248008B9E8B8C9C0E036ED70EE82EFED7032E1A
:10325800FCD700F08B9C8B9E8B8E9C0E036ED70E3A
:10326800E82EFED7032EFCD700F08B9C8B9E8B8C10
:103278009C0E036ED70EE82EFED7032EFCD700F067
:103288008B9C8B9E8B8E9C0E036ED70EE82EFED7E2
:10329800032EFCD700F08B9C8B9E8B8C020E046E49
:1032A800D40E036E850EE82EFED7032EFCD7042E0F
:1032B800FAD700F08B9C8B9E8B8E030E046E700EDB
:1032C800036E5C0EE82EFED7032EFCD7042EFAD729
:1032D80000D08B9C8B9E8B8C020E046ED40E036EDA
:1032E800850EE82EFED7032EFCD7042EFAD700F061
:1032F8008B9C8B9E8B8E020E046E380E036EAD0E69
:10330800E82EFED7032EFCD7042EFAD700F08B9CAC
:103318008B9E8B8C9C0E036ED70EE82EFED7032E49
:10332800FCD700F08B9C8B9E8B8E9C0E036ED70E69
:10333800E82EFED7032EFCD700F08B9C8B9E8B8C3F
:10334800020E046E380E036EAD0EE82EFED7032E65
:10335800FCD7042EFAD700F08B9C8B9E8B8E9C0E8C
:10336800036ED70EE82EFED7032EFCD700F08B9CF9
:103378008B9E8B8C020E046E380E036EAD0EE82EFB
:10338800FED7032EFCD7042EFAD700F08B9C8B9E19
:103398008B8E9C0E036ED70EE82EFED7032EFCD71D
:1033A80000F05A0E33EC12F0A50E33EC12F0030EB7
:1033B80033EC12F09C0E036ED70EE82EFED7032EC8
:1033C800FCD700F01200056E938A8A9C010E016EEC
:1033D800000E026E000E036E000E046E07EC11F074
:1033E8008A8C010E016E000E026E000E036E000E36
:1033F800046E07EC11F0939A060E016E000E026E31
:10340800000E036E000E046E07EC11F08A8A010E9E
:10341800016E000E026E000E036E000E046E07ECC5
:1034280011F08A9C010E016E000E026E000E036EF2
:10343800000E046E07EC11F08A8C010E016E000E6E
:10344800026E000E036E000E046E07EC11F08A9AED
:103458008A9C010E016E000E026E000E036E000EB5
:10346800046E07EC11F08A8C010E016E000E026EDC
:10347800000E036E000E046E07EC11F0060E016ECE
:10348800000E026E000E036E000E046E07EC11F0C3
:103498008A9C010E016E000E026E000E036E000E75
:1034A800046E07EC11F08A8C010E016E000E026E9C
:1034B800000E036E000E046E07EC11F08A9C010EDC
:1034C800016E000E026E000E036E000E046E07EC15
:1034D80011F08A8C010E016E000E026E000E036E52
:1034E800000E046E07EC11F0060E016E000E026E5F
:1034F800000E036E000E046E07EC11F00550F3EC9D
:1035080011F0938A060E016E000E026E000E036E15
:10351800000E046E07EC11F0000E066E000E086E29
:10352800000E076E8A9C010E016E000E026E000EE0
:10353800036E000E046E07EC11F08A8C010E016E0A
:10354800000E026E000E036E000E046E07EC11F002
:1035580081AA03D0010E066E08D0074A082A500E29
:10356800075CC30E0858D8A0DDD7060E016E000E02
:10357800026E000E036E000E046E07EC11F08A9CBA
:10358800010E016E000E026E000E036E000E046E38
:1035980007EC11F08A8C010E016E000E026E000E0F
:1035A800036E000E046E07EC11F0938A06501200A9
:1035B80027C005F0066A0550066E056A26500526DE
:1035C800000E06223AD1065004E1120E055CD8A07E
:1035D80004D0000E066E120E056E000E086E000E68
:1035E800076E11D0890E0724F66E3D0E0820F76E7F
:1035F800000E0724D96E010E0820DA6E0800F5CFF8
:10360800DFFF074A082A0550075C06500858D8A06B
:10361800E9D7010E346E000E016E010E026E05C070
:1036280003F09FEC13F01200065004E1220E055C33
:10363800D8A004D0000E066E220E056E000E086E8D
:10364800000E076E11D0140E0724F66E3D0E0820EA
:10365800F76E000E0724D96E010E0820DA6E0800F6
:10366800F5CFDFFF074A082A0550075C06500858BF
:10367800D8B0CFD7E8D7065004E1040E055CD8A02F
:1036880004D0000E066E040E056E000E086E000EC5
:10369800076E11D09B0E0724F66E3D0E0820F76EBC
:1036A800000E0724D96E010E0820DA6E0800F5CF47
:1036B800DFFF074A082A0550075C06500858D8B0AB
:1036C800A8D7E8D7065004E1200E055CD8A004D09E
:1036D800000E066E200E056E000E086E000E076EB8
:1036E80011D0360E0724F66E3D0E0820F76E000E38
:1036F8000724D96E010E0820DA6E0800F5CFDFFF27
:10370800074A082A0550075C06500858D8B081D7E0
:10371800E8D7065004E11E0E055CD8A004D0000EC0
:10372800066E1E0E056E000E086E000E076E11D096
:10373800560E0724F66E3D0E0820F76E000E07247D
:10374800D96E010E0820DA6E0800F5CFDFFF074AB0
:10375800082A0550075C06500858D8B05AD7E8D749
:10376800065004E1260E055CD8A004D0000E066EB3
:10377800260E056E000E086E000E076E11D0EE0EB6
:103788000724F66E3C0E0820F76E000E0724D96E4B
:10379800010E0820DA6E0800F5CFDFFF074A082A75
:1037A8000550075C06500858D8B033D7E8D7600EE4
:1037B800016E026A400E036E48EC11F015EC11F030
:1037C800000E346E12002250000AD8B454D7010AF1
:1037D800D8B478D7030AD8B49CD7010AD8B4C0D7CC
:1037E800E6D7065004E1330E055CD8A004D0000EDD
:1037F800066E330E056E000E086E000E076E11D0B1
:10380800BB0E0724F66E3C0E0820F76E000E072448
:10381800D96E010E0820DA6E0800F5CFDFFF074ADF
:10382800082A0550075C06500858D8B0F2D6E8D7E1
:103838002250000AD8A41200D4D72350010AD8B4C1
:10384800C2D6030AD8B4F0D6010AD8B4BCD7210A24
:10385800D8B4EED7ACD721D2020E3318D8A41200B0
:1038680065511A6E1B6A1C6A1D6A180ED8901A36A2
:103878001B361C361D36E82EF9D71AC028F01BC097
:1038880029F01CC02AF01DC02BF064511A6E1B6A67
:103898001C6A1D6A100ED8901A361B361C361D3647
:1038A800E82EF9D71A5028261B5029221C502A2204
:1038B8001D502B2263511A6E1B6A1C6A1D6A1CC09C
:1038C8001DF01BC01CF01AC01BF01A6A1A502826DB
:1038D8001B5029221C502A221D502B2262511A6E7D
:1038E8001B6A1C6A1D6A1A5028261B5029221C5064
:1038F8002A221D502B2228C00AF029C00BF02AC00A
:103908000CF02BC00DF066C00EF0000E0F6E010E0D
:10391800106EFAEC15F0800E3B6E1200020E331892
:10392800D8A4120065511A6E1B6A1C6A1D6A180E0B
:10393800D8901A361B361C361D36E82EF9D71AC011
:1039480028F01BC029F01CC02AF01DC02BF06451C0
:103958001A6E1B6A1C6A1D6A100ED8901A361B361E
:103968001C361D36E82EF9D71A5028261B50292256
:103978001C502A221D502B2263511A6E1B6A1C6A86
:103988001D6A1CC01DF01BC01CF01AC01BF01A6A6F
:103998001A5028261B5029221C502A221D502B223F
:1039A80062511A6E1B6A1C6A1D6A1A5028261B501F
:1039B80029221C502A221D502B2228C00AF029C077
:1039C8000BF02AC00CF02BC00DF066C00EF0670E8D
:1039D8000F6E4AEC15F00009D8B402D0010E01D0E0
:1039E800000E0101006F000E3B6E1200000E196EF2
:1039F800000E186E18C015F019C016F0D8901536BC
:103A08001636020E1526000E1622EE0E1524F66E38
:103A18003C0E1620F76E000E1824D96E010E1920E0
:103A2800DA6E0800F5CFDFFF184A192A195004E1A9
:103A3800110E185CD8A0DED7000E01010C6F400EE5
:103A48003B6E1200C3EC12F0400E3B6E120010ECFD
:103A580011F0C9D7CEEC11F0C6D7F8EC12F0F4D7B4
:103A680005EC19F0C0D74BEC12F01200A2EC15F0DF
:103A78001200020E336E625121EC11F012000BECB1
:103A880011F01200BEEC11F0120034EC17F010D057
:103A98006251BDEC17F0A7D7170E056E46EC18F06B
:103AA8000101016F1750D8B402D0010E01D0000EE9
:103AB8000101006FC9D76251E7EC19F00009D8A4D9
:103AC800F4D7F5D765511A6E1B6A1C6A1D6A180E61
:103AD800D8901A361B361C361D36E82EF9D71AC070
:103AE80028F01BC029F01CC02AF01DC02BF064511F
:103AF8001A6E1B6A1C6A1D6A100ED8901A361B367D
:103B08001C361D36E82EF9D71A5028261B502922B4
:103B18001C502A221D502B2263511A6E1B6A1C6AE4
:103B28001D6A1CC01DF01BC01CF01AC01BF01A6ACD
:103B38001A5028261B5029221C502A221D502B229D
:103B480062511A6E1B6A1C6A1D6A1A5028261B507D
:103B580029221C502A221D502B2228C00AF029C0D5
:103B68000BF02AC00CF02BC00DF066C00EF0010E51
:103B78000F6E010E106EFAEC15F0A0D765511A6E93
:103B88001B6A1C6A1D6A180ED8901A361B361C361A
:103B98001D36E82EF9D71AC028F01BC029F01CC022
:103BA8002AF01DC02BF064511A6E1B6A1C6A1D6A2C
:103BB800100ED8901A361B361C361D36E82EF9D74B
:103BC8001A5028261B5029221C502A221D502B220D
:103BD80063511A6E1B6A1C6A1D6A1CC01DF01BC04B
:103BE8001CF01AC01BF01A6A1A5028261B502922EA
:103BF8001C502A221D502B2262511A6E1B6A1C6A05
:103C08001D6A1A5028261B5029221C502A221D5092
:103C18002B2228C00AF029C00BF02AC00CF02BC0B8
:103C28000DF066C00EF0670E0F6E4AEC15F046D721
:103C38006151010AD8B4DAD6910AD8B403D7010A77
:103C4800D8B405D7030AD8B405D7010AD8B405D71C
:103C5800070AD8B405D7010AD8B405D7030AD8B4D7
:103C680005D7560AD8B405D7010AD8B408D7030A25
:103C7800D8B408D7010AD8B408D7070AD8B408D7DF
:103C8800010AD8B409D7030AD8B415D70F0AD8B48B
:103C980019D7030AD8A4120071D700016051010A8C
:103CA800D8B4DAD5030AD8B439D6060AD8A412008B
:103CB800BFD7000600FF0901A101150026FF007506
:103CC80008850195070900B2020185029587090058
:103CD800B202018503957F0900B202018504953F70
:103CE8000900B20201C02603500049004300310018
:103CF80038004600310034004B00350030002D00FC
:103D0800320030003000360032003500090222004F
:103D1800010100C03209040000010300000009216C
:103D28000101000122330007058103080001200377
:103D38007600690064006900650075006B00680022
:103D4800690065006E002E006F00720067001E0398
:103D580056004E00500072006F002D0031003800F0
:103D68004600310034004B00350030006D6375505B
:103D7800726F672076312E30206231383130313021
:103D88000012010002000000408619110001000124
:103D9800020301040309040035D3A74B809D3D03AA
:103DA800C9B8210566DAFA949C23FA4FC02979E24A
:103DB8007C51376DA42E777F35D3A74B809D3D036B
:103DC800C9B8210566DAFA949C23FA4FC02979E22A
:103DD8007C51376DA42E777F35D3A74B809D3D034B
:103DE800C9B8210566DAFA949C23FA4FC02979E20A
:103DF8007C51376DA42E777F35D3A74B809D3D032B
:103E0800C9B8210566DAFA949C23FA4FC02979E2E9
:103E18007C51376DA42E777F35D3A74B809D3D030A
:103E2800C9B8210566DAFA949C23FA4FC02979E2C9
:103E38007C51376DA42E777F35D3A74B809D3D03EA
:103E4800C9B8210566DAFA949C23FA4FC02979E2A9
:103E58007C51376DA42E777F35D3A74B809D3D03CA
:103E6800C9B8210566DAFA949C23FA4FC02979E289
:103E78007C51376DA42E777F35D3A74B809D3D03AA
:103E8800C9B8210566DAFA949C23FA4FC02979E269
:103E98007C51376DA42E777F35D3A74B809D3D038A
:103EA800C9B8210566DAFA949C23FA4FC02979E249
:103EB8007C51376DA42E777F35D3A74B809D3D036A
:103EC800C9B8210566DAFA949C23FA4FC02979E229
:103ED8007C51376DA42E777F35D3A74B809D3D034A
:103EE800C9B8210566DAFA949C23FA4FC02979E209
:103EF8007C51376DA42E777F35D3A74B809D3D032A
:103F0800C9B8210566DAFA949C23FA4FC02979E2E8
:103F18007C51376DA42E777F35D3A74B809D3D0309
:103F2800C9B8210566DAFA949C23FA4FC02979E2C8
:103F38007C51376DA42E777F35D3A74B809D3D03E9
:103F4800C9B8210566DAFA949C23FA4FC02979E2A8
:103F58007C51376DA42E777F35D3A74B809D3D03C9
:103F6800C9B8210566DAFA949C23FA4FC02979E288
:103F78007C51376DA42E777F35D3A74B809D3D03A9
:103F8800C9B8210566DAFA949C23FA4FC02979E268
:103F98007C51376DA42E777F35D3A74B809D3D0389
:103FA800C9B8210566DAFA949C23FA4FC02979E248
:103FB8007C51376DA42E777F35D3A74B809D3D0369
:103FC800C9B8210566DAFA949C23FA4FC02979E228
:103FD8007C51376DA42E777F2483223B3E8132F9B2
:103FE800675B8F6F89C7F7541894204C1574EFAC32
:083FF800F13F65902D14D0D0BB
:020000040030CA
:0E00000000F2021EFF0089FF000003E0034033
:00000001FF
