:020000040000FA
:1000000010050020D5000000F5000000F7000000FA
:1000100000000000000000000000000000000000E0
:10002000000000000000000000000000F9000000D7
:100030000000000000000000FB000000FD000000C8
:10004000FF000000FF000000FF000000FF000000B4
:10005000FF000000FF000000FF000000FF000000A4
:10006000FF000000FF000000FF000000FF00000094
:10007000FF000000FF000000FF000000FF00000084
:10008000FF000000FF000000FF000000FF00000074
:10009000FF000000FF000000FF000000790A0000E0
:1000A000FF000000FF000000FF000000FF00000054
:1000B000FF000000FF000000FF000000FF00000044
:1000C0000348854600F08EFE00480047FF0100000F
:1000D000100500200A480B4901600B4901600B49DB
:1000E00001600B4A0B491160002101600A488047FA
:1000F0000A480047FEE7FEE7FEE7FEE7FEE7FEE709
:1001000000010050590000001600000088000000A7
:1001100024000050A55A00009F010000C10000000B
:1001200038B51FA000681F4C0090216A20130142BF
:1001300001D0002016E0080301D51B4800E01B4851
:100140008A030FD40A04920F6B469B5CCA0589048C
:10015000D20DC90E921C891C80085943504300F0EF
:100160002BFE8000124DA86021694907490F022922
:1001700005D0012911D0880029460C310858A16901
:100180000907090F491C00F017FE0A4928604A10A8
:10019000801800F011FE686038BD4008EFE7704736
:1001A000010202040002005000805101001BB70050
:1001B0000000002040420F0010B52F484168032284
:1001C00011434160042000F0D0F9102000F0B0F895
:1001D0000021072000F0BDF8012000F0C6F9012041
:1001E00000F0A6F8254800F084F9254C204600F0E0
:1001F00092F820220021204600F04EF810BD70B584
:100200001D4C5921C0341620882202E02160206054
:1002100022602368012BF9D1FFF7CEFF002525606E
:1002200000F0A6FD1748012141630561406B0028DD
:100230000DD01F22144812034260C560016101699C
:100240000029FCD18068002801D100F052FD002275
:100250000E490F4800F0B8F900F07BFC00F0C6F939
:1002600001200C49C005086005200007016800292D
:10027000FCD1002070BD00004000005000A24A04E4
:100280009B3C00408042005000C00050830B0000A7
:10029000FC0E000000E100E03EB5B64D38CD009305
:1002A000430E029501945B0722D083009B0F9B00B5
:1002B0006C46E358B04C1B190401650FC401E40EF1
:1002C000A5401C68AC430C431C60AB4BAB4C103BD3
:1002D000A04203D1DC69FF25013505E0A84CA0420E
:1002E00006D1DC6901256D02AC4329400C43DC6179
:1002F000830A1906090E0DD001039F4C890F89004E
:10030000083409198005DBB2C00E834008689843A1
:10031000104308603EBD810F8A009749103951187B
:100320004A68C306DB0E0120984002434A607047CA
:10033000914A10B59349103A05E00B46491E002B2F
:1003400001DC002010BDD4680346A343F5D1012091
:1003500010BDF8B5884C0F46103CE6688446102561
:1003600020682E40284320602846FFF7E1FF2069DF
:10037000072108432061A069000900013843A061FA
:1003800020698843614608432061FFF7C9FE002EBB
:1003900002D12068A8432060F8BDF0B507000C46E4
:1003A0007A488BB078490162794D016812D00422F5
:1003B000114301601020FFF7BBFF0120C00409902A
:1003C00074480426009074487449201888420CD858
:1003D00000251AE00122114301601046FFF7A8FF33
:1003E0000020022600950990EDE76D486D49201820
:1003F000884202D80125640007E06B486A4920184A
:100400004942884249D80325A4000020C0430390F4
:1004100000200890079023E03146009800F0CCFCC3
:100420006249634A4118914219D202215A4B02464D
:100430004A435B1CD7185B429F420CD8A24201D9A9
:10044000121B00E0A21A039B9A4204D20896039260
:100450000791002A03D0574A491C9142E6D9761CDD
:10046000212ED9D90999A8030843089901224902E4
:100470009202891A08430799891E08434349086272
:100480000420FFF755FF0898691C4143009800F0CD
:1004900093FC079948430BB0F0BD002F0FD046499D
:1004A0003A4801620420FFF743FF44A0006803902C
:1004B0003648016A0013014203D00020EBE74049AF
:1004C000EEE7080301D5334800E028468A03E2D46A
:1004D0000A04920F03AB9B5CCA058904D20DC90EB6
:1004E000921C891C80085943504300F065FC800031
:1004F000D1E7F8B5254C0546E668102006402A48A5
:10050000304940428D4201D90D4602E0854200D279
:10051000054620680427384320601020FFF708FFB5
:100520002069072108432061A06900090001A0613A
:10053000E068C00705D069000020FFF72EFF0546E0
:1005400008E001206900C004FFF727FFE6680546C0
:100550001020064001210220FFF7FBFE002E02D1F1
:100560002068B84320606808F8BD08490A6802435B
:100570000A607047140F0000100200501400C057AA
:100580001500E05780F52000000001000002005037
:10059000001BB70000805101FF1E0AFAFFE0F505BD
:1005A0007F0F05FD7FF0FA02C08782FEFF95E7FF0F
:1005B000FFB9DB00010200006FD600000102020457
:1005C0002EC2000000A24A04FE4B1A63D962D8630F
:1005D0000068C07918627D20FB4900010861FA4873
:1005E000803001690122114301617047F7480168B9
:1005F000F7484143F74841610021816105220261CA
:100600000269D203FCD50161EF48803001694908D5
:1006100049000161FF21EC481031416002680A4342
:1006200002607047E74910B50822403100F013FA24
:1006300010BDE44AD060002010615161106AE649A3
:100640004861704770B5DF4C0E46236AE24D802149
:10065000E24A9E4212D9236AC3186360236AF31ADE
:10066000A360AB680B43AB6029688B18226A014614
:10067000184600F0F0F9206A686070BD00236360DE
:10068000A360AB680B43AB6029688B180146324608
:10069000184600F0E0F96E6070BD70B5C94CC94AEB
:1006A0004034E079A17900020918E578CA480223AC
:1006B000D26B032D2CD004DC012D0BD0022D37D1B1
:1006C0000DE0C04C40342479A400212D10D0222DFF
:1006D0002ED115E0122900D31221106821E05068B4
:1006E000C278837812029A1891421AD3114618E000
:1006F000092900D30921506952680059101810E0E7
:1007000010690059884200D80146D068005908E0B5
:10071000A478042C0CD29068A200805802788A42F7
:10072000E4D9FFF78FFF00210846FFF782FF70BD75
:10073000C1681943C160C1691943C16170BDF8B591
:10074000A048002545608560014640310B780A4687
:1007500011795278090794461F068026090F022254
:100760009D4C002F67466FDA002F26D0062F12D03F
:10077000082F02D00A2F5FD110E0C0692268974984
:1007800051180870A0683043A06001206060A06923
:100790003043A0610CE0FFF780FFF8BD406A22689B
:1007A0008E4951180870A0683043A0600120606035
:1007B00000210846FFF73DFFF8BD802B04D0812BB8
:1007C00010D0822B13D02EE0C36B00215B68DB7945
:1007D0005F0600D501219B0621D500784000084323
:1007E000C1B21CE021687D48081805701BE000209C
:1007F000794B07010833FB181F683F073F0F8F42F3
:1008000004D1010174480C300B1802E0401C082888
:10081000EEDB1868104201D0012100E000212368BE
:100820006E481818017021686C4808184570A06857
:100830003043A0606260BBE7E0681043E060E069BD
:100840001043E061F8BDFFE75E4B40339B78052F16
:1008500035D008DC012F10D0032FEDD1002B33D081
:10086000012B47D026E0092F2BD00B2FE4D1436278
:10087000006B00281ED080471CE0002B02D0012B0B
:1008800017D017E0806B0023844618010019826896
:100890001207120F8A4208D101229A4067463A4253
:1008A00003D1C2680227BA43C2605B1C082BECDB91
:1008B00000E00570A0683043A0606560C2E7836116
:1008C000F8E7C361406BD4E7434F002008370301CA
:1008D000DB191B681B071B0F8B4207D101013E4828
:1008E0000C300918086810430860E3E7401C08282A
:1008F000EDDBDFE701210170DCE7324810B50822AB
:100900003649403000F0A7F82E484030017860208A
:1009100001400DD02B4820290DD040290DD02E4864
:10092000C26802210A43C260C2690A43C26110BDA3
:10093000FFF705FF10BDC06A00E0806A0028F9D00B
:10094000804710BD70B51F4CA0680026224D0028BE
:1009500025D0A268236A21469A42204849682A681D
:100960000ED91018226A00F076F8206A6860216AB1
:10097000606840186060A068216A401AA06070BD7D
:100980001018A26800F067F8A0686860A068216A83
:10099000884201D1012060706660A66070BD094880
:1009A0004030017800290CD14078052809D106484B
:1009B0008168A269914204D08168002901D1A169AE
:1009C00081600DE04400002000000640040000208B
:1009D000A086010000E000E000050640000106409E
:1009E00060780028DAD06E60667070BD70B51E4CFD
:1009F00020696169884214D21C4E756930691C49AE
:100A00002A464118E06800F026F8E0684019E060E6
:100A100020694019206120696169884201D2206AF9
:100A2000706170BD30B51049002048608860C860B2
:100A3000086148618863086448640C4A0146802460
:100A40000B019B189D68A5439D60491C0829F7DB95
:100A50000849886030BD03E00B78491C0370401CD6
:100A6000521EF9D2704700004400002000050640E5
:100A70000001064000000640F8B55F4C656820693B
:100A800090270607360F680700280ADA04206060FE
:100A90006069C007206901D0384301E080218843A4
:100AA0002061E80713D001206060F00704D02069BE
:100AB00038432061FFF7B6FFB00703D52069102146
:100AC00088432061700702D5206938432061A80758
:100AD0003ED5002D0CDA0120C00760604748C2688F
:100AE00001210A43C260C2690A43C261FFF705FFE0
:100AF000E80304D5012000046060FFF723FFA8038A
:100B000004D5012040046060FFF770FF680304D53E
:100B100001208004606000F073F8280304D50120F0
:100B2000C004606000F0FAF8E80202D50120000578
:100B30006060A80202D5012040056060680202D50D
:100B4000012080056060280202D50120C005606098
:100B5000F8BD294900208861092128488901816060
:100B600008210160112252018261016141218162EB
:100B700010210162212181635021016340214163E1
:100B800070471CB56846FFF74DFD684600780006C3
:100B900008D468464378002118488022092B05D0E4
:100BA0000A2B0CD0002000F00FF81CBD6B46DB7840
:100BB000032BFAD183691343836141611CBD8368B0
:100BC0001343836041601CBD0C4B002108330A01B4
:100BD000D21812681207120F824208D10801074981
:100BE0000C31411808680222104308607047491C04
:100BF0000829ECDB704700000000064000050640B5
:100C0000704710B5644C206A64494022401864491A
:100C100000F0B9F84020606210BDF0B4604940397E
:100C20000879CA78000210188A78000210184A78E9
:100C3000000213180022012495006818467987796C
:100C40003602BE19C7793602BE19007A36028619F5
:100C50005448ED18456086602125C560046105692A
:100C6000002DFCD1521C082AE6D34D480470F0BC7C
:100C7000C7E74B4840380179C27809025118827899
:100C80000902511840780902411846484160222162
:100C9000C160012101610269002AFCD14048017054
:100CA000AFE7F0B43E4840380179C27809025118E4
:100CB0008278090251184078090245180020394904
:100CC0000646012783005A194A60CE600F610A69FF
:100CD000002AFCD18A68324C401CE254120A1B19CB
:100CE0005A70120A9A70120ADA701028EAD3F0BC0D
:100CF00087E72D48002101612C4A0846401C90429C
:100D0000FCD328480160022005210907886070474C
:100D10000521090722480968016072E770B5244C73
:100D2000012020611C4D286B1C49402241181C48A1
:100D3000403800F028F81A4840380078030000F0E6
:100D400063F8060412070D0A1012FFF7E1FF0AE02C
:100D5000FFF7CFFF07E0FFF7A4FF04E0FFF789FFED
:100D600001E0FFF75AFF402068630020206170BD5A
:100D7000104859210160162101608821016009494C
:100D800001200860704703E00B78491C0370401C89
:100D9000521EF9D2704700000005064000010640CF
:100DA000CC00002000C0005000000640FFFFFF0004
:100DB000804200500001005030B50B460146002033
:100DC0002022012409E00D46D5409D4205D31D4651
:100DD0009540491B2546954040191546521E002D49
:100DE000F1DC30BD064C0125064E05E02046E368E7
:100DF00007C82B4398471034B442F7D3FFF764F980
:100E0000200F0000400F000030B47446641E2578A7
:100E1000641CAB4200D21D46635D5B00E31830BC2E
:100E2000184702E008C8121F08C1002AFAD170470B
:100E30007047002001E001C1121F002AFBD170475A
:100E40000600FF0901A1011901294015012540757E
:100E50000895408100190129409100C0120110013C
:100E600000000008861922000000010203010902A7
:100E70002900010100803209040000020300000083
:100E8000092110010001221C000705810340000117
:100E900007050103400001040309042E03480075FF
:100EA000006E0067002000430075006F006E006751
:100EB00000200045006C0065006300740072006F44
:100EC000006E006900630073000A0342004F004F88
:100ED000005400160330003900380039003600395C
:100EE0000036003900370031000000001C0000000F
:100EF0000000000012000000000000005C0E000076
:100F00006E0E00002C0000203C000020EC0E0000C3
:100F1000F40E000000000000040000000C000000BF
:100F2000400F0000000000208C000000220E000096
:100F3000CC0F00008C00002084040000320E000062
:100F400080F0FA023200000080F0FA02001BB700C5
:100F50000000000080F0FA021027000000000000EE
:100F6000000000000000000000805101970E00000A
:100F70009B0E0000C90E0000D30E0000400E0000C2
:100F80000000000000000000000000000000000061
:100F90000000000000000000000000000000000051
:100FA0000000000008000000000000000000000039
:100FB0000000000000000000000000000000000031
:0C0FC00000000000000000000000000025
:04000005000000D522
:00000001FF
